{"contracts/VRFNumber.sol":{"VRFNumber":{"abi":[{"inputs":[{"internalType":"bytes","name":"_message","type":"bytes"},{"internalType":"uint256[4]","name":"_proof","type":"uint256[4]"},{"internalType":"uint256[2]","name":"publicKey","type":"uint256[2]"}],"name":"generateRandomNumber","outputs":[{"internalType":"uint256","name":"","type":"uint256"}],"stateMutability":"view","type":"function"}],"evm":{"bytecode":{"linkReferences":{},"object":"608060405234801561001057600080fd5b50612241806100206000396000f3fe608060405234801561001057600080fd5b506004361061002b5760003560e01c806308a63f4214610030575b600080fd5b61004a6004803603810190610045919061193d565b610060565b60405161005791906119bb565b60405180910390f35b60008061006e838587610130565b9050806100b0576040517f08c379a00000000000000000000000000000000000000000000000000000000081526004016100a790611a33565b60405180910390fd5b60006100da856040516020016100c69190611afe565b6040516020818303038152906040526102f1565b90506000610118826000600481106100f5576100f4611b19565b5b60200201518360016004811061010e5761010d611b19565b5b60200201516103ac565b905060008160001c9050809450505050509392505050565b600080600061013f8685610439565b915091506000806101f48760036004811061015d5761015c611b19565b5b60200201517f79be667ef9dcbbac55a06295ce870b07029bfcdb2dce28d959f2815b16f817987f483ada7726a3c4655da4fbfc0e1108a8fd17b448a68554199c47d08ffb10d4b88a6002600481106101b8576101b7611b19565b5b60200201518c6000600281106101d1576101d0611b19565b5b60200201518d6001600281106101ea576101e9611b19565b5b60200201516105da565b915091506000806102698960036004811061021257610211611b19565b5b602002015187878c60026004811061022d5761022c611b19565b5b60200201518d60006004811061024657610245611b19565b5b60200201518e60016004811061025f5761025e611b19565b5b60200201516105da565b9150915060006102af87878c60006004811061028857610287611b19565b5b60200201518d6001600481106102a1576102a0611b19565b5b60200201518989898961064e565b9050896002600481106102c5576102c4611b19565b5b60200201518160801c6fffffffffffffffffffffffffffffffff16149750505050505050509392505050565b6102f9611624565b605182511461033d576040517f08c379a000000000000000000000000000000000000000000000000000000000815260040161033490611b94565b60405180910390fd5b60008060008060018601519350602186015192506031860151915060518601519050600061036b858561071c565b90506040518060800160405280858152602001828152602001846fffffffffffffffffffffffffffffffff1681526020018381525095505050505050919050565b60008060fe60036103bd8686610755565b6040516020016103cf93929190611c68565b60405160208183030381529060405290506002816040516103f09190611ca1565b602060405180830381855afa15801561040d573d6000803e3d6000fd5b5050506040513d601f19601f820116820180604052508101906104309190611cee565b91505092915050565b600080600060fe600161047c8760006002811061045957610458611b19565b5b60200201518860016002811061047257610471611b19565b5b6020020151610755565b866040516020016104909493929190611d1b565b604051602081830303815290604052905060005b6101008160ff161015610597576000600283836040516020016104c8929190611d61565b6040516020818303038152906040526040516104e49190611ca1565b602060405180830381855afa158015610501573d6000803e3d6000fd5b5050506040513d601f19601f820116820180604052508101906105249190611cee565b905060008160001c9050600061053b60028361071c565b905061056c8282600060077ffffffffffffffffffffffffffffffffffffffffffffffffffffffffefffffc2f61079f565b156105815781819650965050505050506105d3565b505050808061058f90611db8565b9150506104a4565b506040517f08c379a00000000000000000000000000000000000000000000000000000000081526004016105ca90611e2d565b60405180910390fd5b9250929050565b6000806000806105eb8a8a8a61086d565b915091506000806105fd89898961086d565b915091506000806106338686868660007ffffffffffffffffffffffffffffffffffffffffffffffffffffffffefffffc2f6108aa565b91509150818197509750505050505050965096945050505050565b60008060fe600261065f8c8c610755565b6106698b8b610755565b6106738a8a610755565b61067d8989610755565b60405160200161069296959493929190611e4d565b604051602081830303815290604052905060006002826040516106b59190611ca1565b602060405180830381855afa1580156106d2573d6000803e3d6000fd5b5050506040513d601f19601f820116820180604052508101906106f59190611cee565b90506000604051826000820152600081015191505080935050505098975050505050505050565b600061074d8383600060077ffffffffffffffffffffffffffffffffffffffffffffffffffffffffefffffc2f6108de565b905092915050565b606060006002836107669190611edc565b60026107729190611f0d565b90508084604051602001610787929190611f62565b60405160208183030381529060405291505092915050565b600085600014806107b05750818610155b806107bb5750846000145b806107c65750818510155b156107d45760009050610864565b600082806107e5576107e4611ead565b5b8687099050600083806107fb576107fa611ead565b5b88858061080b5761080a611ead565b5b8a8b090990506000861461083f57838061082857610827611ead565b5b848061083757610836611ead565b5b878a09820890505b6000851461085c57838061085657610855611ead565b5b85820890505b808214925050505b95945050505050565b60008061089e85858560007ffffffffffffffffffffffffffffffffffffffffffffffffffffffffefffffc2f6109f9565b91509150935093915050565b6000806000806108bb888887610a33565b915091506108cd8a8a84848a8a610a5a565b935093505050965096945050505050565b600060028660ff1614806108f5575060038660ff16145b610934576040517f08c379a000000000000000000000000000000000000000000000000000000000815260040161092b90612000565b60405180910390fd5b6000828061094557610944611ead565b5b838061095457610953611ead565b5b85858061096457610963611ead565b5b888a0908848061097757610976611ead565b5b858061098657610985611ead565b5b898a0989090890506109b18160046001866109a19190611f0d565b6109ab9190612020565b85610aed565b905060008060028960ff16846109c79190611f0d565b6109d19190611edc565b146109e75781846109e29190612051565b6109e9565b815b9050809250505095945050505050565b6000806000806000610a108a8a8a60018b8b610be5565b925092509250610a2283838389610c84565b945094505050509550959350505050565b60008084838585610a449190612051565b610a4e9190611edc565b91509150935093915050565b6000806000806000888b03610ab05760008680610a7a57610a79611ead565b5b898c0803610a915760008094509450505050610ae2565b610a9f8b8b60018a8a610cfb565b809350819450829550505050610ace565b610ac18b8b60018c8c60018c610eb9565b8093508194508295505050505b610ada83838389610c84565b945094505050505b965096945050505050565b6000808203610b31576040517f08c379a0000000000000000000000000000000000000000000000000000000008152600401610b28906120d1565b60405180910390fd5b60008403610b425760009050610bde565b60008303610b535760019050610bde565b60006001905060007f800000000000000000000000000000000000000000000000000000000000000090505b6000811115610bd857838186161515870a85848509099150836002820486161515870a85848509099150836004820486161515870a85848509099150836008820486161515870a85848509099150601081049050610b7f565b81925050505b9392505050565b6000806000808903610bff57878787925092509250610c78565b60008990506000806000600190505b60008414610c6a5760006001851614610c3d57610c308383838f8f8f8e610eb9565b8093508194508295505050505b600284610c4a9190612020565b9350610c598c8c8c8c8c610cfb565b809c50819d50829e50505050610c0e565b828282965096509650505050505b96509650969350505050565b6000806000610c938585611538565b905060008480610ca657610ca5611ead565b5b828309905060008580610cbc57610cbb611ead565b5b828a09905060008680610cd257610cd1611ead565b5b8780610ce157610ce0611ead565b5b8486098a0990508181955095505050505094509492505050565b6000806000808603610d1557878787925092509250610eae565b60008480610d2657610d25611ead565b5b898a09905060008580610d3c57610d3b611ead565b5b898a09905060008680610d5257610d51611ead565b5b898a09905060008780610d6857610d67611ead565b5b8880610d7757610d76611ead565b5b848e09600409905060008880610d9057610d8f611ead565b5b8980610d9f57610d9e611ead565b5b8a80610dae57610dad611ead565b5b8586098c098a80610dc257610dc1611ead565b5b876003090890508880610dd857610dd7611ead565b5b8980610de757610de6611ead565b5b8384088a610df59190612051565b8a80610e0457610e03611ead565b5b8384090894508880610e1957610e18611ead565b5b8980610e2857610e27611ead565b5b8a80610e3757610e36611ead565b5b8687096008098a610e489190612051565b8a80610e5757610e56611ead565b5b8b80610e6657610e65611ead565b5b888d610e729190612051565b860884090893508880610e8857610e87611ead565b5b8980610e9757610e96611ead565b5b8c8e09600209925084848497509750975050505050505b955095509592505050565b6000806000808a148015610ecd5750600089145b15610ee05786868692509250925061152b565b600087148015610ef05750600086145b15610f035789898992509250925061152b565b610f0b611624565b8480610f1a57610f19611ead565b5b898a0981600060048110610f3157610f30611b19565b5b6020020181815250508480610f4957610f48611ead565b5b81600060048110610f5d57610f5c611b19565b5b60200201518a0981600160048110610f7857610f77611b19565b5b6020020181815250508480610f9057610f8f611ead565b5b86870981600260048110610fa757610fa6611b19565b5b6020020181815250508480610fbf57610fbe611ead565b5b81600260048110610fd357610fd2611b19565b5b6020020151870981600360048110610fee57610fed611b19565b5b6020020181815250506040518060800160405280868061101157611010611ead565b5b8360026004811061102557611024611b19565b5b60200201518e09815260200186806110405761103f611ead565b5b8360036004811061105457611053611b19565b5b60200201518d098152602001868061106f5761106e611ead565b5b8360006004811061108357611082611b19565b5b60200201518b098152602001868061109e5761109d611ead565b5b836001600481106110b2576110b1611b19565b5b60200201518a098152509050806002600481106110d2576110d1611b19565b5b6020020151816000600481106110eb576110ea611b19565b5b602002015114158061112d57508060036004811061110c5761110b611b19565b5b60200201518160016004811061112557611124611b19565b5b602002015114155b61116c576040517f08c379a00000000000000000000000000000000000000000000000000000000081526004016111639061213d565b60405180910390fd5b611174611624565b858061118357611182611ead565b5b8260006004811061119757611196611b19565b5b6020020151876111a79190612051565b836002600481106111bb576111ba611b19565b5b602002015108816000600481106111d5576111d4611b19565b5b60200201818152505085806111ed576111ec611ead565b5b8260016004811061120157611200611b19565b5b6020020151876112119190612051565b8360036004811061122557611224611b19565b5b6020020151088160016004811061123f5761123e611b19565b5b602002018181525050858061125757611256611ead565b5b8160006004811061126b5761126a611b19565b5b60200201518260006004811061128457611283611b19565b5b6020020151098160026004811061129e5761129d611b19565b5b60200201818152505085806112b6576112b5611ead565b5b816000600481106112ca576112c9611b19565b5b6020020151826002600481106112e3576112e2611b19565b5b602002015109816003600481106112fd576112fc611b19565b5b6020020181815250506000868061131757611316611ead565b5b8260036004811061132b5761132a611b19565b5b60200201518861133b9190612051565b888061134a57611349611ead565b5b8460016004811061135e5761135d611b19565b5b60200201518560016004811061137757611376611b19565b5b602002015109089050868061138f5761138e611ead565b5b878061139e5761139d611ead565b5b88806113ad576113ac611ead565b5b846002600481106113c1576113c0611b19565b5b6020020151866000600481106113da576113d9611b19565b5b602002015109600209886113ee9190612051565b820890506000878061140357611402611ead565b5b888061141257611411611ead565b5b838a61141e9190612051565b8a8061142d5761142c611ead565b5b8660026004811061144157611440611b19565b5b60200201518860006004811061145a57611459611b19565b5b602002015109088460016004811061147557611474611b19565b5b6020020151099050878061148c5761148b611ead565b5b888061149b5761149a611ead565b5b846003600481106114af576114ae611b19565b5b6020020151866001600481106114c8576114c7611b19565b5b602002015109896114d99190612051565b82089050600088806114ee576114ed611ead565b5b89806114fd576114fc611ead565b5b8b8f098560006004811061151457611513611b19565b5b602002015109905082828297509750975050505050505b9750975097945050505050565b600080831415801561154a5750818314155b8015611557575060008214155b611596576040517f08c379a000000000000000000000000000000000000000000000000000000000815260040161158d906121a9565b60405180910390fd5b60008060019050600084905060005b600087146116175786826115b99190612020565b90508286806115cb576115ca611ead565b5b87806115da576115d9611ead565b5b858409886115e89190612051565b860880945081955050508687826115ff91906121c9565b8361160a9190612051565b80985081935050506115a5565b8394505050505092915050565b6040518060800160405280600490602082028036833780820191505090505090565b6000604051905090565b600080fd5b600080fd5b600080fd5b600080fd5b6000601f19601f8301169050919050565b7f4e487b7100000000000000000000000000000000000000000000000000000000600052604160045260246000fd5b6116ad82611664565b810181811067ffffffffffffffff821117156116cc576116cb611675565b5b80604052505050565b60006116df611646565b90506116eb82826116a4565b919050565b600067ffffffffffffffff82111561170b5761170a611675565b5b61171482611664565b9050602081019050919050565b82818337600083830152505050565b600061174361173e846116f0565b6116d5565b90508281526020810184848401111561175f5761175e61165f565b5b61176a848285611721565b509392505050565b600082601f8301126117875761178661165a565b5b8135611797848260208601611730565b91505092915050565b600067ffffffffffffffff8211156117bb576117ba611675565b5b602082029050919050565b600080fd5b6000819050919050565b6117de816117cb565b81146117e957600080fd5b50565b6000813590506117fb816117d5565b92915050565b600061181461180f846117a0565b6116d5565b9050806020840283018581111561182e5761182d6117c6565b5b835b81811015611857578061184388826117ec565b845260208401935050602081019050611830565b5050509392505050565b600082601f8301126118765761187561165a565b5b6004611883848285611801565b91505092915050565b600067ffffffffffffffff8211156118a7576118a6611675565b5b602082029050919050565b60006118c56118c08461188c565b6116d5565b905080602084028301858111156118df576118de6117c6565b5b835b8181101561190857806118f488826117ec565b8452602084019350506020810190506118e1565b5050509392505050565b600082601f8301126119275761192661165a565b5b60026119348482856118b2565b91505092915050565b600080600060e0848603121561195657611955611650565b5b600084013567ffffffffffffffff81111561197457611973611655565b5b61198086828701611772565b935050602061199186828701611861565b92505060a06119a286828701611912565b9150509250925092565b6119b5816117cb565b82525050565b60006020820190506119d060008301846119ac565b92915050565b600082825260208201905092915050565b7f5652462050726f6f66206e6f6e2076616c696461000000000000000000000000600082015250565b6000611a1d6014836119d6565b9150611a28826119e7565b602082019050919050565b60006020820190508181036000830152611a4c81611a10565b9050919050565b600060049050919050565b600081905092915050565b6000819050919050565b611a7c816117cb565b82525050565b6000611a8e8383611a73565b60208301905092915050565b6000602082019050919050565b611ab081611a53565b611aba8184611a5e565b9250611ac582611a69565b8060005b83811015611af6578151611add8782611a82565b9650611ae883611a9a565b925050600181019050611ac9565b505050505050565b6000611b0a8284611aa7565b60808201915081905092915050565b7f4e487b7100000000000000000000000000000000000000000000000000000000600052603260045260246000fd5b7f4d616c666f726d6564205652462070726f6f6600000000000000000000000000600082015250565b6000611b7e6013836119d6565b9150611b8982611b48565b602082019050919050565b60006020820190508181036000830152611bad81611b71565b9050919050565b600060ff82169050919050565b60008160f81b9050919050565b6000611bd982611bc1565b9050919050565b611bf1611bec82611bb4565b611bce565b82525050565b600081519050919050565b600081905092915050565b60005b83811015611c2b578082015181840152602081019050611c10565b60008484015250505050565b6000611c4282611bf7565b611c4c8185611c02565b9350611c5c818560208601611c0d565b80840191505092915050565b6000611c748286611be0565b600182019150611c848285611be0565b600182019150611c948284611c37565b9150819050949350505050565b6000611cad8284611c37565b915081905092915050565b6000819050919050565b611ccb81611cb8565b8114611cd657600080fd5b50565b600081519050611ce881611cc2565b92915050565b600060208284031215611d0457611d03611650565b5b6000611d1284828501611cd9565b91505092915050565b6000611d278287611be0565b600182019150611d378286611be0565b600182019150611d478285611c37565b9150611d538284611c37565b915081905095945050505050565b6000611d6d8285611c37565b9150611d798284611be0565b6001820191508190509392505050565b7f4e487b7100000000000000000000000000000000000000000000000000000000600052601160045260246000fd5b6000611dc382611bb4565b915060ff8203611dd657611dd5611d89565b5b600182019050919050565b7f4e6f2076616c696420706f696e742077617320666f756e640000000000000000600082015250565b6000611e176018836119d6565b9150611e2282611de1565b602082019050919050565b60006020820190508181036000830152611e4681611e0a565b9050919050565b6000611e598289611be0565b600182019150611e698288611be0565b600182019150611e798287611c37565b9150611e858286611c37565b9150611e918285611c37565b9150611e9d8284611c37565b9150819050979650505050505050565b7f4e487b7100000000000000000000000000000000000000000000000000000000600052601260045260246000fd5b6000611ee7826117cb565b9150611ef2836117cb565b925082611f0257611f01611ead565b5b828206905092915050565b6000611f18826117cb565b9150611f23836117cb565b9250828201905080821115611f3b57611f3a611d89565b5b92915050565b6000819050919050565b611f5c611f57826117cb565b611f41565b82525050565b6000611f6e8285611be0565b600182019150611f7e8284611f4b565b6020820191508190509392505050565b7f456c6c697074696343757276653a696e6e76616c696420636f6d70726573736560008201527f6420454320706f696e7420707265666978000000000000000000000000000000602082015250565b6000611fea6031836119d6565b9150611ff582611f8e565b604082019050919050565b6000602082019050818103600083015261201981611fdd565b9050919050565b600061202b826117cb565b9150612036836117cb565b92508261204657612045611ead565b5b828204905092915050565b600061205c826117cb565b9150612067836117cb565b925082820390508181111561207f5761207e611d89565b5b92915050565b7f456c6c697074696343757276653a206d6f64756c7573206973207a65726f0000600082015250565b60006120bb601e836119d6565b91506120c682612085565b602082019050919050565b600060208201905081810360008301526120ea816120ae565b9050919050565b7f557365206a6163446f75626c652066756e6374696f6e20696e73746561640000600082015250565b6000612127601e836119d6565b9150612132826120f1565b602082019050919050565b600060208201905081810360008301526121568161211a565b9050919050565b7f496e76616c6964206e756d626572000000000000000000000000000000000000600082015250565b6000612193600e836119d6565b915061219e8261215d565b602082019050919050565b600060208201905081810360008301526121c281612186565b9050919050565b60006121d4826117cb565b91506121df836117cb565b92508282026121ed816117cb565b9150828204841483151761220457612203611d89565b5b509291505056fea2646970667358221220f5ac441608d447bf4d28a2bf9faeebcbf24668564dcb0cd9d15637d3918cf67864736f6c63430008180033","opcodes":"PUSH1 0x80 PUSH1 0x40 MSTORE CALLVALUE DUP1 ISZERO PUSH2 0x10 JUMPI PUSH1 0x0 DUP1 REVERT JUMPDEST POP PUSH2 0x2241 DUP1 PUSH2 0x20 PUSH1 0x0 CODECOPY PUSH1 0x0 RETURN INVALID PUSH1 0x80 PUSH1 0x40 MSTORE CALLVALUE DUP1 ISZERO PUSH2 0x10 JUMPI PUSH1 0x0 DUP1 REVERT JUMPDEST POP PUSH1 0x4 CALLDATASIZE LT PUSH2 0x2B JUMPI PUSH1 0x0 CALLDATALOAD PUSH1 0xE0 SHR DUP1 PUSH4 0x8A63F42 EQ PUSH2 0x30 JUMPI JUMPDEST PUSH1 0x0 DUP1 REVERT JUMPDEST PUSH2 0x4A PUSH1 0x4 DUP1 CALLDATASIZE SUB DUP2 ADD SWAP1 PUSH2 0x45 SWAP2 SWAP1 PUSH2 0x193D JUMP JUMPDEST PUSH2 0x60 JUMP JUMPDEST PUSH1 0x40 MLOAD PUSH2 0x57 SWAP2 SWAP1 PUSH2 0x19BB JUMP JUMPDEST PUSH1 0x40 MLOAD DUP1 SWAP2 SUB SWAP1 RETURN JUMPDEST PUSH1 0x0 DUP1 PUSH2 0x6E DUP4 DUP6 DUP8 PUSH2 0x130 JUMP JUMPDEST SWAP1 POP DUP1 PUSH2 0xB0 JUMPI PUSH1 0x40 MLOAD PUSH32 0x8C379A000000000000000000000000000000000000000000000000000000000 DUP2 MSTORE PUSH1 0x4 ADD PUSH2 0xA7 SWAP1 PUSH2 0x1A33 JUMP JUMPDEST PUSH1 0x40 MLOAD DUP1 SWAP2 SUB SWAP1 REVERT JUMPDEST PUSH1 0x0 PUSH2 0xDA DUP6 PUSH1 0x40 MLOAD PUSH1 0x20 ADD PUSH2 0xC6 SWAP2 SWAP1 PUSH2 0x1AFE JUMP JUMPDEST PUSH1 0x40 MLOAD PUSH1 0x20 DUP2 DUP4 SUB SUB DUP2 MSTORE SWAP1 PUSH1 0x40 MSTORE PUSH2 0x2F1 JUMP JUMPDEST SWAP1 POP PUSH1 0x0 PUSH2 0x118 DUP3 PUSH1 0x0 PUSH1 0x4 DUP2 LT PUSH2 0xF5 JUMPI PUSH2 0xF4 PUSH2 0x1B19 JUMP JUMPDEST JUMPDEST PUSH1 0x20 MUL ADD MLOAD DUP4 PUSH1 0x1 PUSH1 0x4 DUP2 LT PUSH2 0x10E JUMPI PUSH2 0x10D PUSH2 0x1B19 JUMP JUMPDEST JUMPDEST PUSH1 0x20 MUL ADD MLOAD PUSH2 0x3AC JUMP JUMPDEST SWAP1 POP PUSH1 0x0 DUP2 PUSH1 0x0 SHR SWAP1 POP DUP1 SWAP5 POP POP POP POP POP SWAP4 SWAP3 POP POP POP JUMP JUMPDEST PUSH1 0x0 DUP1 PUSH1 0x0 PUSH2 0x13F DUP7 DUP6 PUSH2 0x439 JUMP JUMPDEST SWAP2 POP SWAP2 POP PUSH1 0x0 DUP1 PUSH2 0x1F4 DUP8 PUSH1 0x3 PUSH1 0x4 DUP2 LT PUSH2 0x15D JUMPI PUSH2 0x15C PUSH2 0x1B19 JUMP JUMPDEST JUMPDEST PUSH1 0x20 MUL ADD MLOAD PUSH32 0x79BE667EF9DCBBAC55A06295CE870B07029BFCDB2DCE28D959F2815B16F81798 PUSH32 0x483ADA7726A3C4655DA4FBFC0E1108A8FD17B448A68554199C47D08FFB10D4B8 DUP11 PUSH1 0x2 PUSH1 0x4 DUP2 LT PUSH2 0x1B8 JUMPI PUSH2 0x1B7 PUSH2 0x1B19 JUMP JUMPDEST JUMPDEST PUSH1 0x20 MUL ADD MLOAD DUP13 PUSH1 0x0 PUSH1 0x2 DUP2 LT PUSH2 0x1D1 JUMPI PUSH2 0x1D0 PUSH2 0x1B19 JUMP JUMPDEST JUMPDEST PUSH1 0x20 MUL ADD MLOAD DUP14 PUSH1 0x1 PUSH1 0x2 DUP2 LT PUSH2 0x1EA JUMPI PUSH2 0x1E9 PUSH2 0x1B19 JUMP JUMPDEST JUMPDEST PUSH1 0x20 MUL ADD MLOAD PUSH2 0x5DA JUMP JUMPDEST SWAP2 POP SWAP2 POP PUSH1 0x0 DUP1 PUSH2 0x269 DUP10 PUSH1 0x3 PUSH1 0x4 DUP2 LT PUSH2 0x212 JUMPI PUSH2 0x211 PUSH2 0x1B19 JUMP JUMPDEST JUMPDEST PUSH1 0x20 MUL ADD MLOAD DUP8 DUP8 DUP13 PUSH1 0x2 PUSH1 0x4 DUP2 LT PUSH2 0x22D JUMPI PUSH2 0x22C PUSH2 0x1B19 JUMP JUMPDEST JUMPDEST PUSH1 0x20 MUL ADD MLOAD DUP14 PUSH1 0x0 PUSH1 0x4 DUP2 LT PUSH2 0x246 JUMPI PUSH2 0x245 PUSH2 0x1B19 JUMP JUMPDEST JUMPDEST PUSH1 0x20 MUL ADD MLOAD DUP15 PUSH1 0x1 PUSH1 0x4 DUP2 LT PUSH2 0x25F JUMPI PUSH2 0x25E PUSH2 0x1B19 JUMP JUMPDEST JUMPDEST PUSH1 0x20 MUL ADD MLOAD PUSH2 0x5DA JUMP JUMPDEST SWAP2 POP SWAP2 POP PUSH1 0x0 PUSH2 0x2AF DUP8 DUP8 DUP13 PUSH1 0x0 PUSH1 0x4 DUP2 LT PUSH2 0x288 JUMPI PUSH2 0x287 PUSH2 0x1B19 JUMP JUMPDEST JUMPDEST PUSH1 0x20 MUL ADD MLOAD DUP14 PUSH1 0x1 PUSH1 0x4 DUP2 LT PUSH2 0x2A1 JUMPI PUSH2 0x2A0 PUSH2 0x1B19 JUMP JUMPDEST JUMPDEST PUSH1 0x20 MUL ADD MLOAD DUP10 DUP10 DUP10 DUP10 PUSH2 0x64E JUMP JUMPDEST SWAP1 POP DUP10 PUSH1 0x2 PUSH1 0x4 DUP2 LT PUSH2 0x2C5 JUMPI PUSH2 0x2C4 PUSH2 0x1B19 JUMP JUMPDEST JUMPDEST PUSH1 0x20 MUL ADD MLOAD DUP2 PUSH1 0x80 SHR PUSH16 0xFFFFFFFFFFFFFFFFFFFFFFFFFFFFFFFF AND EQ SWAP8 POP POP POP POP POP POP POP POP SWAP4 SWAP3 POP POP POP JUMP JUMPDEST PUSH2 0x2F9 PUSH2 0x1624 JUMP JUMPDEST PUSH1 0x51 DUP3 MLOAD EQ PUSH2 0x33D JUMPI PUSH1 0x40 MLOAD PUSH32 0x8C379A000000000000000000000000000000000000000000000000000000000 DUP2 MSTORE PUSH1 0x4 ADD PUSH2 0x334 SWAP1 PUSH2 0x1B94 JUMP JUMPDEST PUSH1 0x40 MLOAD DUP1 SWAP2 SUB SWAP1 REVERT JUMPDEST PUSH1 0x0 DUP1 PUSH1 0x0 DUP1 PUSH1 0x1 DUP7 ADD MLOAD SWAP4 POP PUSH1 0x21 DUP7 ADD MLOAD SWAP3 POP PUSH1 0x31 DUP7 ADD MLOAD SWAP2 POP PUSH1 0x51 DUP7 ADD MLOAD SWAP1 POP PUSH1 0x0 PUSH2 0x36B DUP6 DUP6 PUSH2 0x71C JUMP JUMPDEST SWAP1 POP PUSH1 0x40 MLOAD DUP1 PUSH1 0x80 ADD PUSH1 0x40 MSTORE DUP1 DUP6 DUP2 MSTORE PUSH1 0x20 ADD DUP3 DUP2 MSTORE PUSH1 0x20 ADD DUP5 PUSH16 0xFFFFFFFFFFFFFFFFFFFFFFFFFFFFFFFF AND DUP2 MSTORE PUSH1 0x20 ADD DUP4 DUP2 MSTORE POP SWAP6 POP POP POP POP POP POP SWAP2 SWAP1 POP JUMP JUMPDEST PUSH1 0x0 DUP1 PUSH1 0xFE PUSH1 0x3 PUSH2 0x3BD DUP7 DUP7 PUSH2 0x755 JUMP JUMPDEST PUSH1 0x40 MLOAD PUSH1 0x20 ADD PUSH2 0x3CF SWAP4 SWAP3 SWAP2 SWAP1 PUSH2 0x1C68 JUMP JUMPDEST PUSH1 0x40 MLOAD PUSH1 0x20 DUP2 DUP4 SUB SUB DUP2 MSTORE SWAP1 PUSH1 0x40 MSTORE SWAP1 POP PUSH1 0x2 DUP2 PUSH1 0x40 MLOAD PUSH2 0x3F0 SWAP2 SWAP1 PUSH2 0x1CA1 JUMP JUMPDEST PUSH1 0x20 PUSH1 0x40 MLOAD DUP1 DUP4 SUB DUP2 DUP6 GAS STATICCALL ISZERO DUP1 ISZERO PUSH2 0x40D JUMPI RETURNDATASIZE PUSH1 0x0 DUP1 RETURNDATACOPY RETURNDATASIZE PUSH1 0x0 REVERT JUMPDEST POP POP POP PUSH1 0x40 MLOAD RETURNDATASIZE PUSH1 0x1F NOT PUSH1 0x1F DUP3 ADD AND DUP3 ADD DUP1 PUSH1 0x40 MSTORE POP DUP2 ADD SWAP1 PUSH2 0x430 SWAP2 SWAP1 PUSH2 0x1CEE JUMP JUMPDEST SWAP2 POP POP SWAP3 SWAP2 POP POP JUMP JUMPDEST PUSH1 0x0 DUP1 PUSH1 0x0 PUSH1 0xFE PUSH1 0x1 PUSH2 0x47C DUP8 PUSH1 0x0 PUSH1 0x2 DUP2 LT PUSH2 0x459 JUMPI PUSH2 0x458 PUSH2 0x1B19 JUMP JUMPDEST JUMPDEST PUSH1 0x20 MUL ADD MLOAD DUP9 PUSH1 0x1 PUSH1 0x2 DUP2 LT PUSH2 0x472 JUMPI PUSH2 0x471 PUSH2 0x1B19 JUMP JUMPDEST JUMPDEST PUSH1 0x20 MUL ADD MLOAD PUSH2 0x755 JUMP JUMPDEST DUP7 PUSH1 0x40 MLOAD PUSH1 0x20 ADD PUSH2 0x490 SWAP5 SWAP4 SWAP3 SWAP2 SWAP1 PUSH2 0x1D1B JUMP JUMPDEST PUSH1 0x40 MLOAD PUSH1 0x20 DUP2 DUP4 SUB SUB DUP2 MSTORE SWAP1 PUSH1 0x40 MSTORE SWAP1 POP PUSH1 0x0 JUMPDEST PUSH2 0x100 DUP2 PUSH1 0xFF AND LT ISZERO PUSH2 0x597 JUMPI PUSH1 0x0 PUSH1 0x2 DUP4 DUP4 PUSH1 0x40 MLOAD PUSH1 0x20 ADD PUSH2 0x4C8 SWAP3 SWAP2 SWAP1 PUSH2 0x1D61 JUMP JUMPDEST PUSH1 0x40 MLOAD PUSH1 0x20 DUP2 DUP4 SUB SUB DUP2 MSTORE SWAP1 PUSH1 0x40 MSTORE PUSH1 0x40 MLOAD PUSH2 0x4E4 SWAP2 SWAP1 PUSH2 0x1CA1 JUMP JUMPDEST PUSH1 0x20 PUSH1 0x40 MLOAD DUP1 DUP4 SUB DUP2 DUP6 GAS STATICCALL ISZERO DUP1 ISZERO PUSH2 0x501 JUMPI RETURNDATASIZE PUSH1 0x0 DUP1 RETURNDATACOPY RETURNDATASIZE PUSH1 0x0 REVERT JUMPDEST POP POP POP PUSH1 0x40 MLOAD RETURNDATASIZE PUSH1 0x1F NOT PUSH1 0x1F DUP3 ADD AND DUP3 ADD DUP1 PUSH1 0x40 MSTORE POP DUP2 ADD SWAP1 PUSH2 0x524 SWAP2 SWAP1 PUSH2 0x1CEE JUMP JUMPDEST SWAP1 POP PUSH1 0x0 DUP2 PUSH1 0x0 SHR SWAP1 POP PUSH1 0x0 PUSH2 0x53B PUSH1 0x2 DUP4 PUSH2 0x71C JUMP JUMPDEST SWAP1 POP PUSH2 0x56C DUP3 DUP3 PUSH1 0x0 PUSH1 0x7 PUSH32 0xFFFFFFFFFFFFFFFFFFFFFFFFFFFFFFFFFFFFFFFFFFFFFFFFFFFFFFFEFFFFFC2F PUSH2 0x79F JUMP JUMPDEST ISZERO PUSH2 0x581 JUMPI DUP2 DUP2 SWAP7 POP SWAP7 POP POP POP POP POP POP PUSH2 0x5D3 JUMP JUMPDEST POP POP POP DUP1 DUP1 PUSH2 0x58F SWAP1 PUSH2 0x1DB8 JUMP JUMPDEST SWAP2 POP POP PUSH2 0x4A4 JUMP JUMPDEST POP PUSH1 0x40 MLOAD PUSH32 0x8C379A000000000000000000000000000000000000000000000000000000000 DUP2 MSTORE PUSH1 0x4 ADD PUSH2 0x5CA SWAP1 PUSH2 0x1E2D JUMP JUMPDEST PUSH1 0x40 MLOAD DUP1 SWAP2 SUB SWAP1 REVERT JUMPDEST SWAP3 POP SWAP3 SWAP1 POP JUMP JUMPDEST PUSH1 0x0 DUP1 PUSH1 0x0 DUP1 PUSH2 0x5EB DUP11 DUP11 DUP11 PUSH2 0x86D JUMP JUMPDEST SWAP2 POP SWAP2 POP PUSH1 0x0 DUP1 PUSH2 0x5FD DUP10 DUP10 DUP10 PUSH2 0x86D JUMP JUMPDEST SWAP2 POP SWAP2 POP PUSH1 0x0 DUP1 PUSH2 0x633 DUP7 DUP7 DUP7 DUP7 PUSH1 0x0 PUSH32 0xFFFFFFFFFFFFFFFFFFFFFFFFFFFFFFFFFFFFFFFFFFFFFFFFFFFFFFFEFFFFFC2F PUSH2 0x8AA JUMP JUMPDEST SWAP2 POP SWAP2 POP DUP2 DUP2 SWAP8 POP SWAP8 POP POP POP POP POP POP POP SWAP7 POP SWAP7 SWAP5 POP POP POP POP POP JUMP JUMPDEST PUSH1 0x0 DUP1 PUSH1 0xFE PUSH1 0x2 PUSH2 0x65F DUP13 DUP13 PUSH2 0x755 JUMP JUMPDEST PUSH2 0x669 DUP12 DUP12 PUSH2 0x755 JUMP JUMPDEST PUSH2 0x673 DUP11 DUP11 PUSH2 0x755 JUMP JUMPDEST PUSH2 0x67D DUP10 DUP10 PUSH2 0x755 JUMP JUMPDEST PUSH1 0x40 MLOAD PUSH1 0x20 ADD PUSH2 0x692 SWAP7 SWAP6 SWAP5 SWAP4 SWAP3 SWAP2 SWAP1 PUSH2 0x1E4D JUMP JUMPDEST PUSH1 0x40 MLOAD PUSH1 0x20 DUP2 DUP4 SUB SUB DUP2 MSTORE SWAP1 PUSH1 0x40 MSTORE SWAP1 POP PUSH1 0x0 PUSH1 0x2 DUP3 PUSH1 0x40 MLOAD PUSH2 0x6B5 SWAP2 SWAP1 PUSH2 0x1CA1 JUMP JUMPDEST PUSH1 0x20 PUSH1 0x40 MLOAD DUP1 DUP4 SUB DUP2 DUP6 GAS STATICCALL ISZERO DUP1 ISZERO PUSH2 0x6D2 JUMPI RETURNDATASIZE PUSH1 0x0 DUP1 RETURNDATACOPY RETURNDATASIZE PUSH1 0x0 REVERT JUMPDEST POP POP POP PUSH1 0x40 MLOAD RETURNDATASIZE PUSH1 0x1F NOT PUSH1 0x1F DUP3 ADD AND DUP3 ADD DUP1 PUSH1 0x40 MSTORE POP DUP2 ADD SWAP1 PUSH2 0x6F5 SWAP2 SWAP1 PUSH2 0x1CEE JUMP JUMPDEST SWAP1 POP PUSH1 0x0 PUSH1 0x40 MLOAD DUP3 PUSH1 0x0 DUP3 ADD MSTORE PUSH1 0x0 DUP2 ADD MLOAD SWAP2 POP POP DUP1 SWAP4 POP POP POP POP SWAP9 SWAP8 POP POP POP POP POP POP POP POP JUMP JUMPDEST PUSH1 0x0 PUSH2 0x74D DUP4 DUP4 PUSH1 0x0 PUSH1 0x7 PUSH32 0xFFFFFFFFFFFFFFFFFFFFFFFFFFFFFFFFFFFFFFFFFFFFFFFFFFFFFFFEFFFFFC2F PUSH2 0x8DE JUMP JUMPDEST SWAP1 POP SWAP3 SWAP2 POP POP JUMP JUMPDEST PUSH1 0x60 PUSH1 0x0 PUSH1 0x2 DUP4 PUSH2 0x766 SWAP2 SWAP1 PUSH2 0x1EDC JUMP JUMPDEST PUSH1 0x2 PUSH2 0x772 SWAP2 SWAP1 PUSH2 0x1F0D JUMP JUMPDEST SWAP1 POP DUP1 DUP5 PUSH1 0x40 MLOAD PUSH1 0x20 ADD PUSH2 0x787 SWAP3 SWAP2 SWAP1 PUSH2 0x1F62 JUMP JUMPDEST PUSH1 0x40 MLOAD PUSH1 0x20 DUP2 DUP4 SUB SUB DUP2 MSTORE SWAP1 PUSH1 0x40 MSTORE SWAP2 POP POP SWAP3 SWAP2 POP POP JUMP JUMPDEST PUSH1 0x0 DUP6 PUSH1 0x0 EQ DUP1 PUSH2 0x7B0 JUMPI POP DUP2 DUP7 LT ISZERO JUMPDEST DUP1 PUSH2 0x7BB JUMPI POP DUP5 PUSH1 0x0 EQ JUMPDEST DUP1 PUSH2 0x7C6 JUMPI POP DUP2 DUP6 LT ISZERO JUMPDEST ISZERO PUSH2 0x7D4 JUMPI PUSH1 0x0 SWAP1 POP PUSH2 0x864 JUMP JUMPDEST PUSH1 0x0 DUP3 DUP1 PUSH2 0x7E5 JUMPI PUSH2 0x7E4 PUSH2 0x1EAD JUMP JUMPDEST JUMPDEST DUP7 DUP8 MULMOD SWAP1 POP PUSH1 0x0 DUP4 DUP1 PUSH2 0x7FB JUMPI PUSH2 0x7FA PUSH2 0x1EAD JUMP JUMPDEST JUMPDEST DUP9 DUP6 DUP1 PUSH2 0x80B JUMPI PUSH2 0x80A PUSH2 0x1EAD JUMP JUMPDEST JUMPDEST DUP11 DUP12 MULMOD MULMOD SWAP1 POP PUSH1 0x0 DUP7 EQ PUSH2 0x83F JUMPI DUP4 DUP1 PUSH2 0x828 JUMPI PUSH2 0x827 PUSH2 0x1EAD JUMP JUMPDEST JUMPDEST DUP5 DUP1 PUSH2 0x837 JUMPI PUSH2 0x836 PUSH2 0x1EAD JUMP JUMPDEST JUMPDEST DUP8 DUP11 MULMOD DUP3 ADDMOD SWAP1 POP JUMPDEST PUSH1 0x0 DUP6 EQ PUSH2 0x85C JUMPI DUP4 DUP1 PUSH2 0x856 JUMPI PUSH2 0x855 PUSH2 0x1EAD JUMP JUMPDEST JUMPDEST DUP6 DUP3 ADDMOD SWAP1 POP JUMPDEST DUP1 DUP3 EQ SWAP3 POP POP POP JUMPDEST SWAP6 SWAP5 POP POP POP POP POP JUMP JUMPDEST PUSH1 0x0 DUP1 PUSH2 0x89E DUP6 DUP6 DUP6 PUSH1 0x0 PUSH32 0xFFFFFFFFFFFFFFFFFFFFFFFFFFFFFFFFFFFFFFFFFFFFFFFFFFFFFFFEFFFFFC2F PUSH2 0x9F9 JUMP JUMPDEST SWAP2 POP SWAP2 POP SWAP4 POP SWAP4 SWAP2 POP POP JUMP JUMPDEST PUSH1 0x0 DUP1 PUSH1 0x0 DUP1 PUSH2 0x8BB DUP9 DUP9 DUP8 PUSH2 0xA33 JUMP JUMPDEST SWAP2 POP SWAP2 POP PUSH2 0x8CD DUP11 DUP11 DUP5 DUP5 DUP11 DUP11 PUSH2 0xA5A JUMP JUMPDEST SWAP4 POP SWAP4 POP POP POP SWAP7 POP SWAP7 SWAP5 POP POP POP POP POP JUMP JUMPDEST PUSH1 0x0 PUSH1 0x2 DUP7 PUSH1 0xFF AND EQ DUP1 PUSH2 0x8F5 JUMPI POP PUSH1 0x3 DUP7 PUSH1 0xFF AND EQ JUMPDEST PUSH2 0x934 JUMPI PUSH1 0x40 MLOAD PUSH32 0x8C379A000000000000000000000000000000000000000000000000000000000 DUP2 MSTORE PUSH1 0x4 ADD PUSH2 0x92B SWAP1 PUSH2 0x2000 JUMP JUMPDEST PUSH1 0x40 MLOAD DUP1 SWAP2 SUB SWAP1 REVERT JUMPDEST PUSH1 0x0 DUP3 DUP1 PUSH2 0x945 JUMPI PUSH2 0x944 PUSH2 0x1EAD JUMP JUMPDEST JUMPDEST DUP4 DUP1 PUSH2 0x954 JUMPI PUSH2 0x953 PUSH2 0x1EAD JUMP JUMPDEST JUMPDEST DUP6 DUP6 DUP1 PUSH2 0x964 JUMPI PUSH2 0x963 PUSH2 0x1EAD JUMP JUMPDEST JUMPDEST DUP9 DUP11 MULMOD ADDMOD DUP5 DUP1 PUSH2 0x977 JUMPI PUSH2 0x976 PUSH2 0x1EAD JUMP JUMPDEST JUMPDEST DUP6 DUP1 PUSH2 0x986 JUMPI PUSH2 0x985 PUSH2 0x1EAD JUMP JUMPDEST JUMPDEST DUP10 DUP11 MULMOD DUP10 MULMOD ADDMOD SWAP1 POP PUSH2 0x9B1 DUP2 PUSH1 0x4 PUSH1 0x1 DUP7 PUSH2 0x9A1 SWAP2 SWAP1 PUSH2 0x1F0D JUMP JUMPDEST PUSH2 0x9AB SWAP2 SWAP1 PUSH2 0x2020 JUMP JUMPDEST DUP6 PUSH2 0xAED JUMP JUMPDEST SWAP1 POP PUSH1 0x0 DUP1 PUSH1 0x2 DUP10 PUSH1 0xFF AND DUP5 PUSH2 0x9C7 SWAP2 SWAP1 PUSH2 0x1F0D JUMP JUMPDEST PUSH2 0x9D1 SWAP2 SWAP1 PUSH2 0x1EDC JUMP JUMPDEST EQ PUSH2 0x9E7 JUMPI DUP2 DUP5 PUSH2 0x9E2 SWAP2 SWAP1 PUSH2 0x2051 JUMP JUMPDEST PUSH2 0x9E9 JUMP JUMPDEST DUP2 JUMPDEST SWAP1 POP DUP1 SWAP3 POP POP POP SWAP6 SWAP5 POP POP POP POP POP JUMP JUMPDEST PUSH1 0x0 DUP1 PUSH1 0x0 DUP1 PUSH1 0x0 PUSH2 0xA10 DUP11 DUP11 DUP11 PUSH1 0x1 DUP12 DUP12 PUSH2 0xBE5 JUMP JUMPDEST SWAP3 POP SWAP3 POP SWAP3 POP PUSH2 0xA22 DUP4 DUP4 DUP4 DUP10 PUSH2 0xC84 JUMP JUMPDEST SWAP5 POP SWAP5 POP POP POP POP SWAP6 POP SWAP6 SWAP4 POP POP POP POP JUMP JUMPDEST PUSH1 0x0 DUP1 DUP5 DUP4 DUP6 DUP6 PUSH2 0xA44 SWAP2 SWAP1 PUSH2 0x2051 JUMP JUMPDEST PUSH2 0xA4E SWAP2 SWAP1 PUSH2 0x1EDC JUMP JUMPDEST SWAP2 POP SWAP2 POP SWAP4 POP SWAP4 SWAP2 POP POP JUMP JUMPDEST PUSH1 0x0 DUP1 PUSH1 0x0 DUP1 PUSH1 0x0 DUP9 DUP12 SUB PUSH2 0xAB0 JUMPI PUSH1 0x0 DUP7 DUP1 PUSH2 0xA7A JUMPI PUSH2 0xA79 PUSH2 0x1EAD JUMP JUMPDEST JUMPDEST DUP10 DUP13 ADDMOD SUB PUSH2 0xA91 JUMPI PUSH1 0x0 DUP1 SWAP5 POP SWAP5 POP POP POP POP PUSH2 0xAE2 JUMP JUMPDEST PUSH2 0xA9F DUP12 DUP12 PUSH1 0x1 DUP11 DUP11 PUSH2 0xCFB JUMP JUMPDEST DUP1 SWAP4 POP DUP2 SWAP5 POP DUP3 SWAP6 POP POP POP POP PUSH2 0xACE JUMP JUMPDEST PUSH2 0xAC1 DUP12 DUP12 PUSH1 0x1 DUP13 DUP13 PUSH1 0x1 DUP13 PUSH2 0xEB9 JUMP JUMPDEST DUP1 SWAP4 POP DUP2 SWAP5 POP DUP3 SWAP6 POP POP POP POP JUMPDEST PUSH2 0xADA DUP4 DUP4 DUP4 DUP10 PUSH2 0xC84 JUMP JUMPDEST SWAP5 POP SWAP5 POP POP POP POP JUMPDEST SWAP7 POP SWAP7 SWAP5 POP POP POP POP POP JUMP JUMPDEST PUSH1 0x0 DUP1 DUP3 SUB PUSH2 0xB31 JUMPI PUSH1 0x40 MLOAD PUSH32 0x8C379A000000000000000000000000000000000000000000000000000000000 DUP2 MSTORE PUSH1 0x4 ADD PUSH2 0xB28 SWAP1 PUSH2 0x20D1 JUMP JUMPDEST PUSH1 0x40 MLOAD DUP1 SWAP2 SUB SWAP1 REVERT JUMPDEST PUSH1 0x0 DUP5 SUB PUSH2 0xB42 JUMPI PUSH1 0x0 SWAP1 POP PUSH2 0xBDE JUMP JUMPDEST PUSH1 0x0 DUP4 SUB PUSH2 0xB53 JUMPI PUSH1 0x1 SWAP1 POP PUSH2 0xBDE JUMP JUMPDEST PUSH1 0x0 PUSH1 0x1 SWAP1 POP PUSH1 0x0 PUSH32 0x8000000000000000000000000000000000000000000000000000000000000000 SWAP1 POP JUMPDEST PUSH1 0x0 DUP2 GT ISZERO PUSH2 0xBD8 JUMPI DUP4 DUP2 DUP7 AND ISZERO ISZERO DUP8 EXP DUP6 DUP5 DUP6 MULMOD MULMOD SWAP2 POP DUP4 PUSH1 0x2 DUP3 DIV DUP7 AND ISZERO ISZERO DUP8 EXP DUP6 DUP5 DUP6 MULMOD MULMOD SWAP2 POP DUP4 PUSH1 0x4 DUP3 DIV DUP7 AND ISZERO ISZERO DUP8 EXP DUP6 DUP5 DUP6 MULMOD MULMOD SWAP2 POP DUP4 PUSH1 0x8 DUP3 DIV DUP7 AND ISZERO ISZERO DUP8 EXP DUP6 DUP5 DUP6 MULMOD MULMOD SWAP2 POP PUSH1 0x10 DUP2 DIV SWAP1 POP PUSH2 0xB7F JUMP JUMPDEST DUP2 SWAP3 POP POP POP JUMPDEST SWAP4 SWAP3 POP POP POP JUMP JUMPDEST PUSH1 0x0 DUP1 PUSH1 0x0 DUP1 DUP10 SUB PUSH2 0xBFF JUMPI DUP8 DUP8 DUP8 SWAP3 POP SWAP3 POP SWAP3 POP PUSH2 0xC78 JUMP JUMPDEST PUSH1 0x0 DUP10 SWAP1 POP PUSH1 0x0 DUP1 PUSH1 0x0 PUSH1 0x1 SWAP1 POP JUMPDEST PUSH1 0x0 DUP5 EQ PUSH2 0xC6A JUMPI PUSH1 0x0 PUSH1 0x1 DUP6 AND EQ PUSH2 0xC3D JUMPI PUSH2 0xC30 DUP4 DUP4 DUP4 DUP16 DUP16 DUP16 DUP15 PUSH2 0xEB9 JUMP JUMPDEST DUP1 SWAP4 POP DUP2 SWAP5 POP DUP3 SWAP6 POP POP POP POP JUMPDEST PUSH1 0x2 DUP5 PUSH2 0xC4A SWAP2 SWAP1 PUSH2 0x2020 JUMP JUMPDEST SWAP4 POP PUSH2 0xC59 DUP13 DUP13 DUP13 DUP13 DUP13 PUSH2 0xCFB JUMP JUMPDEST DUP1 SWAP13 POP DUP2 SWAP14 POP DUP3 SWAP15 POP POP POP POP PUSH2 0xC0E JUMP JUMPDEST DUP3 DUP3 DUP3 SWAP7 POP SWAP7 POP SWAP7 POP POP POP POP POP JUMPDEST SWAP7 POP SWAP7 POP SWAP7 SWAP4 POP POP POP POP JUMP JUMPDEST PUSH1 0x0 DUP1 PUSH1 0x0 PUSH2 0xC93 DUP6 DUP6 PUSH2 0x1538 JUMP JUMPDEST SWAP1 POP PUSH1 0x0 DUP5 DUP1 PUSH2 0xCA6 JUMPI PUSH2 0xCA5 PUSH2 0x1EAD JUMP JUMPDEST JUMPDEST DUP3 DUP4 MULMOD SWAP1 POP PUSH1 0x0 DUP6 DUP1 PUSH2 0xCBC JUMPI PUSH2 0xCBB PUSH2 0x1EAD JUMP JUMPDEST JUMPDEST DUP3 DUP11 MULMOD SWAP1 POP PUSH1 0x0 DUP7 DUP1 PUSH2 0xCD2 JUMPI PUSH2 0xCD1 PUSH2 0x1EAD JUMP JUMPDEST JUMPDEST DUP8 DUP1 PUSH2 0xCE1 JUMPI PUSH2 0xCE0 PUSH2 0x1EAD JUMP JUMPDEST JUMPDEST DUP5 DUP7 MULMOD DUP11 MULMOD SWAP1 POP DUP2 DUP2 SWAP6 POP SWAP6 POP POP POP POP POP SWAP5 POP SWAP5 SWAP3 POP POP POP JUMP JUMPDEST PUSH1 0x0 DUP1 PUSH1 0x0 DUP1 DUP7 SUB PUSH2 0xD15 JUMPI DUP8 DUP8 DUP8 SWAP3 POP SWAP3 POP SWAP3 POP PUSH2 0xEAE JUMP JUMPDEST PUSH1 0x0 DUP5 DUP1 PUSH2 0xD26 JUMPI PUSH2 0xD25 PUSH2 0x1EAD JUMP JUMPDEST JUMPDEST DUP10 DUP11 MULMOD SWAP1 POP PUSH1 0x0 DUP6 DUP1 PUSH2 0xD3C JUMPI PUSH2 0xD3B PUSH2 0x1EAD JUMP JUMPDEST JUMPDEST DUP10 DUP11 MULMOD SWAP1 POP PUSH1 0x0 DUP7 DUP1 PUSH2 0xD52 JUMPI PUSH2 0xD51 PUSH2 0x1EAD JUMP JUMPDEST JUMPDEST DUP10 DUP11 MULMOD SWAP1 POP PUSH1 0x0 DUP8 DUP1 PUSH2 0xD68 JUMPI PUSH2 0xD67 PUSH2 0x1EAD JUMP JUMPDEST JUMPDEST DUP9 DUP1 PUSH2 0xD77 JUMPI PUSH2 0xD76 PUSH2 0x1EAD JUMP JUMPDEST JUMPDEST DUP5 DUP15 MULMOD PUSH1 0x4 MULMOD SWAP1 POP PUSH1 0x0 DUP9 DUP1 PUSH2 0xD90 JUMPI PUSH2 0xD8F PUSH2 0x1EAD JUMP JUMPDEST JUMPDEST DUP10 DUP1 PUSH2 0xD9F JUMPI PUSH2 0xD9E PUSH2 0x1EAD JUMP JUMPDEST JUMPDEST DUP11 DUP1 PUSH2 0xDAE JUMPI PUSH2 0xDAD PUSH2 0x1EAD JUMP JUMPDEST JUMPDEST DUP6 DUP7 MULMOD DUP13 MULMOD DUP11 DUP1 PUSH2 0xDC2 JUMPI PUSH2 0xDC1 PUSH2 0x1EAD JUMP JUMPDEST JUMPDEST DUP8 PUSH1 0x3 MULMOD ADDMOD SWAP1 POP DUP9 DUP1 PUSH2 0xDD8 JUMPI PUSH2 0xDD7 PUSH2 0x1EAD JUMP JUMPDEST JUMPDEST DUP10 DUP1 PUSH2 0xDE7 JUMPI PUSH2 0xDE6 PUSH2 0x1EAD JUMP JUMPDEST JUMPDEST DUP4 DUP5 ADDMOD DUP11 PUSH2 0xDF5 SWAP2 SWAP1 PUSH2 0x2051 JUMP JUMPDEST DUP11 DUP1 PUSH2 0xE04 JUMPI PUSH2 0xE03 PUSH2 0x1EAD JUMP JUMPDEST JUMPDEST DUP4 DUP5 MULMOD ADDMOD SWAP5 POP DUP9 DUP1 PUSH2 0xE19 JUMPI PUSH2 0xE18 PUSH2 0x1EAD JUMP JUMPDEST JUMPDEST DUP10 DUP1 PUSH2 0xE28 JUMPI PUSH2 0xE27 PUSH2 0x1EAD JUMP JUMPDEST JUMPDEST DUP11 DUP1 PUSH2 0xE37 JUMPI PUSH2 0xE36 PUSH2 0x1EAD JUMP JUMPDEST JUMPDEST DUP7 DUP8 MULMOD PUSH1 0x8 MULMOD DUP11 PUSH2 0xE48 SWAP2 SWAP1 PUSH2 0x2051 JUMP JUMPDEST DUP11 DUP1 PUSH2 0xE57 JUMPI PUSH2 0xE56 PUSH2 0x1EAD JUMP JUMPDEST JUMPDEST DUP12 DUP1 PUSH2 0xE66 JUMPI PUSH2 0xE65 PUSH2 0x1EAD JUMP JUMPDEST JUMPDEST DUP9 DUP14 PUSH2 0xE72 SWAP2 SWAP1 PUSH2 0x2051 JUMP JUMPDEST DUP7 ADDMOD DUP5 MULMOD ADDMOD SWAP4 POP DUP9 DUP1 PUSH2 0xE88 JUMPI PUSH2 0xE87 PUSH2 0x1EAD JUMP JUMPDEST JUMPDEST DUP10 DUP1 PUSH2 0xE97 JUMPI PUSH2 0xE96 PUSH2 0x1EAD JUMP JUMPDEST JUMPDEST DUP13 DUP15 MULMOD PUSH1 0x2 MULMOD SWAP3 POP DUP5 DUP5 DUP5 SWAP8 POP SWAP8 POP SWAP8 POP POP POP POP POP POP JUMPDEST SWAP6 POP SWAP6 POP SWAP6 SWAP3 POP POP POP JUMP JUMPDEST PUSH1 0x0 DUP1 PUSH1 0x0 DUP1 DUP11 EQ DUP1 ISZERO PUSH2 0xECD JUMPI POP PUSH1 0x0 DUP10 EQ JUMPDEST ISZERO PUSH2 0xEE0 JUMPI DUP7 DUP7 DUP7 SWAP3 POP SWAP3 POP SWAP3 POP PUSH2 0x152B JUMP JUMPDEST PUSH1 0x0 DUP8 EQ DUP1 ISZERO PUSH2 0xEF0 JUMPI POP PUSH1 0x0 DUP7 EQ JUMPDEST ISZERO PUSH2 0xF03 JUMPI DUP10 DUP10 DUP10 SWAP3 POP SWAP3 POP SWAP3 POP PUSH2 0x152B JUMP JUMPDEST PUSH2 0xF0B PUSH2 0x1624 JUMP JUMPDEST DUP5 DUP1 PUSH2 0xF1A JUMPI PUSH2 0xF19 PUSH2 0x1EAD JUMP JUMPDEST JUMPDEST DUP10 DUP11 MULMOD DUP2 PUSH1 0x0 PUSH1 0x4 DUP2 LT PUSH2 0xF31 JUMPI PUSH2 0xF30 PUSH2 0x1B19 JUMP JUMPDEST JUMPDEST PUSH1 0x20 MUL ADD DUP2 DUP2 MSTORE POP POP DUP5 DUP1 PUSH2 0xF49 JUMPI PUSH2 0xF48 PUSH2 0x1EAD JUMP JUMPDEST JUMPDEST DUP2 PUSH1 0x0 PUSH1 0x4 DUP2 LT PUSH2 0xF5D JUMPI PUSH2 0xF5C PUSH2 0x1B19 JUMP JUMPDEST JUMPDEST PUSH1 0x20 MUL ADD MLOAD DUP11 MULMOD DUP2 PUSH1 0x1 PUSH1 0x4 DUP2 LT PUSH2 0xF78 JUMPI PUSH2 0xF77 PUSH2 0x1B19 JUMP JUMPDEST JUMPDEST PUSH1 0x20 MUL ADD DUP2 DUP2 MSTORE POP POP DUP5 DUP1 PUSH2 0xF90 JUMPI PUSH2 0xF8F PUSH2 0x1EAD JUMP JUMPDEST JUMPDEST DUP7 DUP8 MULMOD DUP2 PUSH1 0x2 PUSH1 0x4 DUP2 LT PUSH2 0xFA7 JUMPI PUSH2 0xFA6 PUSH2 0x1B19 JUMP JUMPDEST JUMPDEST PUSH1 0x20 MUL ADD DUP2 DUP2 MSTORE POP POP DUP5 DUP1 PUSH2 0xFBF JUMPI PUSH2 0xFBE PUSH2 0x1EAD JUMP JUMPDEST JUMPDEST DUP2 PUSH1 0x2 PUSH1 0x4 DUP2 LT PUSH2 0xFD3 JUMPI PUSH2 0xFD2 PUSH2 0x1B19 JUMP JUMPDEST JUMPDEST PUSH1 0x20 MUL ADD MLOAD DUP8 MULMOD DUP2 PUSH1 0x3 PUSH1 0x4 DUP2 LT PUSH2 0xFEE JUMPI PUSH2 0xFED PUSH2 0x1B19 JUMP JUMPDEST JUMPDEST PUSH1 0x20 MUL ADD DUP2 DUP2 MSTORE POP POP PUSH1 0x40 MLOAD DUP1 PUSH1 0x80 ADD PUSH1 0x40 MSTORE DUP1 DUP7 DUP1 PUSH2 0x1011 JUMPI PUSH2 0x1010 PUSH2 0x1EAD JUMP JUMPDEST JUMPDEST DUP4 PUSH1 0x2 PUSH1 0x4 DUP2 LT PUSH2 0x1025 JUMPI PUSH2 0x1024 PUSH2 0x1B19 JUMP JUMPDEST JUMPDEST PUSH1 0x20 MUL ADD MLOAD DUP15 MULMOD DUP2 MSTORE PUSH1 0x20 ADD DUP7 DUP1 PUSH2 0x1040 JUMPI PUSH2 0x103F PUSH2 0x1EAD JUMP JUMPDEST JUMPDEST DUP4 PUSH1 0x3 PUSH1 0x4 DUP2 LT PUSH2 0x1054 JUMPI PUSH2 0x1053 PUSH2 0x1B19 JUMP JUMPDEST JUMPDEST PUSH1 0x20 MUL ADD MLOAD DUP14 MULMOD DUP2 MSTORE PUSH1 0x20 ADD DUP7 DUP1 PUSH2 0x106F JUMPI PUSH2 0x106E PUSH2 0x1EAD JUMP JUMPDEST JUMPDEST DUP4 PUSH1 0x0 PUSH1 0x4 DUP2 LT PUSH2 0x1083 JUMPI PUSH2 0x1082 PUSH2 0x1B19 JUMP JUMPDEST JUMPDEST PUSH1 0x20 MUL ADD MLOAD DUP12 MULMOD DUP2 MSTORE PUSH1 0x20 ADD DUP7 DUP1 PUSH2 0x109E JUMPI PUSH2 0x109D PUSH2 0x1EAD JUMP JUMPDEST JUMPDEST DUP4 PUSH1 0x1 PUSH1 0x4 DUP2 LT PUSH2 0x10B2 JUMPI PUSH2 0x10B1 PUSH2 0x1B19 JUMP JUMPDEST JUMPDEST PUSH1 0x20 MUL ADD MLOAD DUP11 MULMOD DUP2 MSTORE POP SWAP1 POP DUP1 PUSH1 0x2 PUSH1 0x4 DUP2 LT PUSH2 0x10D2 JUMPI PUSH2 0x10D1 PUSH2 0x1B19 JUMP JUMPDEST JUMPDEST PUSH1 0x20 MUL ADD MLOAD DUP2 PUSH1 0x0 PUSH1 0x4 DUP2 LT PUSH2 0x10EB JUMPI PUSH2 0x10EA PUSH2 0x1B19 JUMP JUMPDEST JUMPDEST PUSH1 0x20 MUL ADD MLOAD EQ ISZERO DUP1 PUSH2 0x112D JUMPI POP DUP1 PUSH1 0x3 PUSH1 0x4 DUP2 LT PUSH2 0x110C JUMPI PUSH2 0x110B PUSH2 0x1B19 JUMP JUMPDEST JUMPDEST PUSH1 0x20 MUL ADD MLOAD DUP2 PUSH1 0x1 PUSH1 0x4 DUP2 LT PUSH2 0x1125 JUMPI PUSH2 0x1124 PUSH2 0x1B19 JUMP JUMPDEST JUMPDEST PUSH1 0x20 MUL ADD MLOAD EQ ISZERO JUMPDEST PUSH2 0x116C JUMPI PUSH1 0x40 MLOAD PUSH32 0x8C379A000000000000000000000000000000000000000000000000000000000 DUP2 MSTORE PUSH1 0x4 ADD PUSH2 0x1163 SWAP1 PUSH2 0x213D JUMP JUMPDEST PUSH1 0x40 MLOAD DUP1 SWAP2 SUB SWAP1 REVERT JUMPDEST PUSH2 0x1174 PUSH2 0x1624 JUMP JUMPDEST DUP6 DUP1 PUSH2 0x1183 JUMPI PUSH2 0x1182 PUSH2 0x1EAD JUMP JUMPDEST JUMPDEST DUP3 PUSH1 0x0 PUSH1 0x4 DUP2 LT PUSH2 0x1197 JUMPI PUSH2 0x1196 PUSH2 0x1B19 JUMP JUMPDEST JUMPDEST PUSH1 0x20 MUL ADD MLOAD DUP8 PUSH2 0x11A7 SWAP2 SWAP1 PUSH2 0x2051 JUMP JUMPDEST DUP4 PUSH1 0x2 PUSH1 0x4 DUP2 LT PUSH2 0x11BB JUMPI PUSH2 0x11BA PUSH2 0x1B19 JUMP JUMPDEST JUMPDEST PUSH1 0x20 MUL ADD MLOAD ADDMOD DUP2 PUSH1 0x0 PUSH1 0x4 DUP2 LT PUSH2 0x11D5 JUMPI PUSH2 0x11D4 PUSH2 0x1B19 JUMP JUMPDEST JUMPDEST PUSH1 0x20 MUL ADD DUP2 DUP2 MSTORE POP POP DUP6 DUP1 PUSH2 0x11ED JUMPI PUSH2 0x11EC PUSH2 0x1EAD JUMP JUMPDEST JUMPDEST DUP3 PUSH1 0x1 PUSH1 0x4 DUP2 LT PUSH2 0x1201 JUMPI PUSH2 0x1200 PUSH2 0x1B19 JUMP JUMPDEST JUMPDEST PUSH1 0x20 MUL ADD MLOAD DUP8 PUSH2 0x1211 SWAP2 SWAP1 PUSH2 0x2051 JUMP JUMPDEST DUP4 PUSH1 0x3 PUSH1 0x4 DUP2 LT PUSH2 0x1225 JUMPI PUSH2 0x1224 PUSH2 0x1B19 JUMP JUMPDEST JUMPDEST PUSH1 0x20 MUL ADD MLOAD ADDMOD DUP2 PUSH1 0x1 PUSH1 0x4 DUP2 LT PUSH2 0x123F JUMPI PUSH2 0x123E PUSH2 0x1B19 JUMP JUMPDEST JUMPDEST PUSH1 0x20 MUL ADD DUP2 DUP2 MSTORE POP POP DUP6 DUP1 PUSH2 0x1257 JUMPI PUSH2 0x1256 PUSH2 0x1EAD JUMP JUMPDEST JUMPDEST DUP2 PUSH1 0x0 PUSH1 0x4 DUP2 LT PUSH2 0x126B JUMPI PUSH2 0x126A PUSH2 0x1B19 JUMP JUMPDEST JUMPDEST PUSH1 0x20 MUL ADD MLOAD DUP3 PUSH1 0x0 PUSH1 0x4 DUP2 LT PUSH2 0x1284 JUMPI PUSH2 0x1283 PUSH2 0x1B19 JUMP JUMPDEST JUMPDEST PUSH1 0x20 MUL ADD MLOAD MULMOD DUP2 PUSH1 0x2 PUSH1 0x4 DUP2 LT PUSH2 0x129E JUMPI PUSH2 0x129D PUSH2 0x1B19 JUMP JUMPDEST JUMPDEST PUSH1 0x20 MUL ADD DUP2 DUP2 MSTORE POP POP DUP6 DUP1 PUSH2 0x12B6 JUMPI PUSH2 0x12B5 PUSH2 0x1EAD JUMP JUMPDEST JUMPDEST DUP2 PUSH1 0x0 PUSH1 0x4 DUP2 LT PUSH2 0x12CA JUMPI PUSH2 0x12C9 PUSH2 0x1B19 JUMP JUMPDEST JUMPDEST PUSH1 0x20 MUL ADD MLOAD DUP3 PUSH1 0x2 PUSH1 0x4 DUP2 LT PUSH2 0x12E3 JUMPI PUSH2 0x12E2 PUSH2 0x1B19 JUMP JUMPDEST JUMPDEST PUSH1 0x20 MUL ADD MLOAD MULMOD DUP2 PUSH1 0x3 PUSH1 0x4 DUP2 LT PUSH2 0x12FD JUMPI PUSH2 0x12FC PUSH2 0x1B19 JUMP JUMPDEST JUMPDEST PUSH1 0x20 MUL ADD DUP2 DUP2 MSTORE POP POP PUSH1 0x0 DUP7 DUP1 PUSH2 0x1317 JUMPI PUSH2 0x1316 PUSH2 0x1EAD JUMP JUMPDEST JUMPDEST DUP3 PUSH1 0x3 PUSH1 0x4 DUP2 LT PUSH2 0x132B JUMPI PUSH2 0x132A PUSH2 0x1B19 JUMP JUMPDEST JUMPDEST PUSH1 0x20 MUL ADD MLOAD DUP9 PUSH2 0x133B SWAP2 SWAP1 PUSH2 0x2051 JUMP JUMPDEST DUP9 DUP1 PUSH2 0x134A JUMPI PUSH2 0x1349 PUSH2 0x1EAD JUMP JUMPDEST JUMPDEST DUP5 PUSH1 0x1 PUSH1 0x4 DUP2 LT PUSH2 0x135E JUMPI PUSH2 0x135D PUSH2 0x1B19 JUMP JUMPDEST JUMPDEST PUSH1 0x20 MUL ADD MLOAD DUP6 PUSH1 0x1 PUSH1 0x4 DUP2 LT PUSH2 0x1377 JUMPI PUSH2 0x1376 PUSH2 0x1B19 JUMP JUMPDEST JUMPDEST PUSH1 0x20 MUL ADD MLOAD MULMOD ADDMOD SWAP1 POP DUP7 DUP1 PUSH2 0x138F JUMPI PUSH2 0x138E PUSH2 0x1EAD JUMP JUMPDEST JUMPDEST DUP8 DUP1 PUSH2 0x139E JUMPI PUSH2 0x139D PUSH2 0x1EAD JUMP JUMPDEST JUMPDEST DUP9 DUP1 PUSH2 0x13AD JUMPI PUSH2 0x13AC PUSH2 0x1EAD JUMP JUMPDEST JUMPDEST DUP5 PUSH1 0x2 PUSH1 0x4 DUP2 LT PUSH2 0x13C1 JUMPI PUSH2 0x13C0 PUSH2 0x1B19 JUMP JUMPDEST JUMPDEST PUSH1 0x20 MUL ADD MLOAD DUP7 PUSH1 0x0 PUSH1 0x4 DUP2 LT PUSH2 0x13DA JUMPI PUSH2 0x13D9 PUSH2 0x1B19 JUMP JUMPDEST JUMPDEST PUSH1 0x20 MUL ADD MLOAD MULMOD PUSH1 0x2 MULMOD DUP9 PUSH2 0x13EE SWAP2 SWAP1 PUSH2 0x2051 JUMP JUMPDEST DUP3 ADDMOD SWAP1 POP PUSH1 0x0 DUP8 DUP1 PUSH2 0x1403 JUMPI PUSH2 0x1402 PUSH2 0x1EAD JUMP JUMPDEST JUMPDEST DUP9 DUP1 PUSH2 0x1412 JUMPI PUSH2 0x1411 PUSH2 0x1EAD JUMP JUMPDEST JUMPDEST DUP4 DUP11 PUSH2 0x141E SWAP2 SWAP1 PUSH2 0x2051 JUMP JUMPDEST DUP11 DUP1 PUSH2 0x142D JUMPI PUSH2 0x142C PUSH2 0x1EAD JUMP JUMPDEST JUMPDEST DUP7 PUSH1 0x2 PUSH1 0x4 DUP2 LT PUSH2 0x1441 JUMPI PUSH2 0x1440 PUSH2 0x1B19 JUMP JUMPDEST JUMPDEST PUSH1 0x20 MUL ADD MLOAD DUP9 PUSH1 0x0 PUSH1 0x4 DUP2 LT PUSH2 0x145A JUMPI PUSH2 0x1459 PUSH2 0x1B19 JUMP JUMPDEST JUMPDEST PUSH1 0x20 MUL ADD MLOAD MULMOD ADDMOD DUP5 PUSH1 0x1 PUSH1 0x4 DUP2 LT PUSH2 0x1475 JUMPI PUSH2 0x1474 PUSH2 0x1B19 JUMP JUMPDEST JUMPDEST PUSH1 0x20 MUL ADD MLOAD MULMOD SWAP1 POP DUP8 DUP1 PUSH2 0x148C JUMPI PUSH2 0x148B PUSH2 0x1EAD JUMP JUMPDEST JUMPDEST DUP9 DUP1 PUSH2 0x149B JUMPI PUSH2 0x149A PUSH2 0x1EAD JUMP JUMPDEST JUMPDEST DUP5 PUSH1 0x3 PUSH1 0x4 DUP2 LT PUSH2 0x14AF JUMPI PUSH2 0x14AE PUSH2 0x1B19 JUMP JUMPDEST JUMPDEST PUSH1 0x20 MUL ADD MLOAD DUP7 PUSH1 0x1 PUSH1 0x4 DUP2 LT PUSH2 0x14C8 JUMPI PUSH2 0x14C7 PUSH2 0x1B19 JUMP JUMPDEST JUMPDEST PUSH1 0x20 MUL ADD MLOAD MULMOD DUP10 PUSH2 0x14D9 SWAP2 SWAP1 PUSH2 0x2051 JUMP JUMPDEST DUP3 ADDMOD SWAP1 POP PUSH1 0x0 DUP9 DUP1 PUSH2 0x14EE JUMPI PUSH2 0x14ED PUSH2 0x1EAD JUMP JUMPDEST JUMPDEST DUP10 DUP1 PUSH2 0x14FD JUMPI PUSH2 0x14FC PUSH2 0x1EAD JUMP JUMPDEST JUMPDEST DUP12 DUP16 MULMOD DUP6 PUSH1 0x0 PUSH1 0x4 DUP2 LT PUSH2 0x1514 JUMPI PUSH2 0x1513 PUSH2 0x1B19 JUMP JUMPDEST JUMPDEST PUSH1 0x20 MUL ADD MLOAD MULMOD SWAP1 POP DUP3 DUP3 DUP3 SWAP8 POP SWAP8 POP SWAP8 POP POP POP POP POP POP JUMPDEST SWAP8 POP SWAP8 POP SWAP8 SWAP5 POP POP POP POP POP JUMP JUMPDEST PUSH1 0x0 DUP1 DUP4 EQ ISZERO DUP1 ISZERO PUSH2 0x154A JUMPI POP DUP2 DUP4 EQ ISZERO JUMPDEST DUP1 ISZERO PUSH2 0x1557 JUMPI POP PUSH1 0x0 DUP3 EQ ISZERO JUMPDEST PUSH2 0x1596 JUMPI PUSH1 0x40 MLOAD PUSH32 0x8C379A000000000000000000000000000000000000000000000000000000000 DUP2 MSTORE PUSH1 0x4 ADD PUSH2 0x158D SWAP1 PUSH2 0x21A9 JUMP JUMPDEST PUSH1 0x40 MLOAD DUP1 SWAP2 SUB SWAP1 REVERT JUMPDEST PUSH1 0x0 DUP1 PUSH1 0x1 SWAP1 POP PUSH1 0x0 DUP5 SWAP1 POP PUSH1 0x0 JUMPDEST PUSH1 0x0 DUP8 EQ PUSH2 0x1617 JUMPI DUP7 DUP3 PUSH2 0x15B9 SWAP2 SWAP1 PUSH2 0x2020 JUMP JUMPDEST SWAP1 POP DUP3 DUP7 DUP1 PUSH2 0x15CB JUMPI PUSH2 0x15CA PUSH2 0x1EAD JUMP JUMPDEST JUMPDEST DUP8 DUP1 PUSH2 0x15DA JUMPI PUSH2 0x15D9 PUSH2 0x1EAD JUMP JUMPDEST JUMPDEST DUP6 DUP5 MULMOD DUP9 PUSH2 0x15E8 SWAP2 SWAP1 PUSH2 0x2051 JUMP JUMPDEST DUP7 ADDMOD DUP1 SWAP5 POP DUP2 SWAP6 POP POP POP DUP7 DUP8 DUP3 PUSH2 0x15FF SWAP2 SWAP1 PUSH2 0x21C9 JUMP JUMPDEST DUP4 PUSH2 0x160A SWAP2 SWAP1 PUSH2 0x2051 JUMP JUMPDEST DUP1 SWAP9 POP DUP2 SWAP4 POP POP POP PUSH2 0x15A5 JUMP JUMPDEST DUP4 SWAP5 POP POP POP POP POP SWAP3 SWAP2 POP POP JUMP JUMPDEST PUSH1 0x40 MLOAD DUP1 PUSH1 0x80 ADD PUSH1 0x40 MSTORE DUP1 PUSH1 0x4 SWAP1 PUSH1 0x20 DUP3 MUL DUP1 CALLDATASIZE DUP4 CALLDATACOPY DUP1 DUP3 ADD SWAP2 POP POP SWAP1 POP POP SWAP1 JUMP JUMPDEST PUSH1 0x0 PUSH1 0x40 MLOAD SWAP1 POP SWAP1 JUMP JUMPDEST PUSH1 0x0 DUP1 REVERT JUMPDEST PUSH1 0x0 DUP1 REVERT JUMPDEST PUSH1 0x0 DUP1 REVERT JUMPDEST PUSH1 0x0 DUP1 REVERT JUMPDEST PUSH1 0x0 PUSH1 0x1F NOT PUSH1 0x1F DUP4 ADD AND SWAP1 POP SWAP2 SWAP1 POP JUMP JUMPDEST PUSH32 0x4E487B7100000000000000000000000000000000000000000000000000000000 PUSH1 0x0 MSTORE PUSH1 0x41 PUSH1 0x4 MSTORE PUSH1 0x24 PUSH1 0x0 REVERT JUMPDEST PUSH2 0x16AD DUP3 PUSH2 0x1664 JUMP JUMPDEST DUP2 ADD DUP2 DUP2 LT PUSH8 0xFFFFFFFFFFFFFFFF DUP3 GT OR ISZERO PUSH2 0x16CC JUMPI PUSH2 0x16CB PUSH2 0x1675 JUMP JUMPDEST JUMPDEST DUP1 PUSH1 0x40 MSTORE POP POP POP JUMP JUMPDEST PUSH1 0x0 PUSH2 0x16DF PUSH2 0x1646 JUMP JUMPDEST SWAP1 POP PUSH2 0x16EB DUP3 DUP3 PUSH2 0x16A4 JUMP JUMPDEST SWAP2 SWAP1 POP JUMP JUMPDEST PUSH1 0x0 PUSH8 0xFFFFFFFFFFFFFFFF DUP3 GT ISZERO PUSH2 0x170B JUMPI PUSH2 0x170A PUSH2 0x1675 JUMP JUMPDEST JUMPDEST PUSH2 0x1714 DUP3 PUSH2 0x1664 JUMP JUMPDEST SWAP1 POP PUSH1 0x20 DUP2 ADD SWAP1 POP SWAP2 SWAP1 POP JUMP JUMPDEST DUP3 DUP2 DUP4 CALLDATACOPY PUSH1 0x0 DUP4 DUP4 ADD MSTORE POP POP POP JUMP JUMPDEST PUSH1 0x0 PUSH2 0x1743 PUSH2 0x173E DUP5 PUSH2 0x16F0 JUMP JUMPDEST PUSH2 0x16D5 JUMP JUMPDEST SWAP1 POP DUP3 DUP2 MSTORE PUSH1 0x20 DUP2 ADD DUP5 DUP5 DUP5 ADD GT ISZERO PUSH2 0x175F JUMPI PUSH2 0x175E PUSH2 0x165F JUMP JUMPDEST JUMPDEST PUSH2 0x176A DUP5 DUP3 DUP6 PUSH2 0x1721 JUMP JUMPDEST POP SWAP4 SWAP3 POP POP POP JUMP JUMPDEST PUSH1 0x0 DUP3 PUSH1 0x1F DUP4 ADD SLT PUSH2 0x1787 JUMPI PUSH2 0x1786 PUSH2 0x165A JUMP JUMPDEST JUMPDEST DUP2 CALLDATALOAD PUSH2 0x1797 DUP5 DUP3 PUSH1 0x20 DUP7 ADD PUSH2 0x1730 JUMP JUMPDEST SWAP2 POP POP SWAP3 SWAP2 POP POP JUMP JUMPDEST PUSH1 0x0 PUSH8 0xFFFFFFFFFFFFFFFF DUP3 GT ISZERO PUSH2 0x17BB JUMPI PUSH2 0x17BA PUSH2 0x1675 JUMP JUMPDEST JUMPDEST PUSH1 0x20 DUP3 MUL SWAP1 POP SWAP2 SWAP1 POP JUMP JUMPDEST PUSH1 0x0 DUP1 REVERT JUMPDEST PUSH1 0x0 DUP2 SWAP1 POP SWAP2 SWAP1 POP JUMP JUMPDEST PUSH2 0x17DE DUP2 PUSH2 0x17CB JUMP JUMPDEST DUP2 EQ PUSH2 0x17E9 JUMPI PUSH1 0x0 DUP1 REVERT JUMPDEST POP JUMP JUMPDEST PUSH1 0x0 DUP2 CALLDATALOAD SWAP1 POP PUSH2 0x17FB DUP2 PUSH2 0x17D5 JUMP JUMPDEST SWAP3 SWAP2 POP POP JUMP JUMPDEST PUSH1 0x0 PUSH2 0x1814 PUSH2 0x180F DUP5 PUSH2 0x17A0 JUMP JUMPDEST PUSH2 0x16D5 JUMP JUMPDEST SWAP1 POP DUP1 PUSH1 0x20 DUP5 MUL DUP4 ADD DUP6 DUP2 GT ISZERO PUSH2 0x182E JUMPI PUSH2 0x182D PUSH2 0x17C6 JUMP JUMPDEST JUMPDEST DUP4 JUMPDEST DUP2 DUP2 LT ISZERO PUSH2 0x1857 JUMPI DUP1 PUSH2 0x1843 DUP9 DUP3 PUSH2 0x17EC JUMP JUMPDEST DUP5 MSTORE PUSH1 0x20 DUP5 ADD SWAP4 POP POP PUSH1 0x20 DUP2 ADD SWAP1 POP PUSH2 0x1830 JUMP JUMPDEST POP POP POP SWAP4 SWAP3 POP POP POP JUMP JUMPDEST PUSH1 0x0 DUP3 PUSH1 0x1F DUP4 ADD SLT PUSH2 0x1876 JUMPI PUSH2 0x1875 PUSH2 0x165A JUMP JUMPDEST JUMPDEST PUSH1 0x4 PUSH2 0x1883 DUP5 DUP3 DUP6 PUSH2 0x1801 JUMP JUMPDEST SWAP2 POP POP SWAP3 SWAP2 POP POP JUMP JUMPDEST PUSH1 0x0 PUSH8 0xFFFFFFFFFFFFFFFF DUP3 GT ISZERO PUSH2 0x18A7 JUMPI PUSH2 0x18A6 PUSH2 0x1675 JUMP JUMPDEST JUMPDEST PUSH1 0x20 DUP3 MUL SWAP1 POP SWAP2 SWAP1 POP JUMP JUMPDEST PUSH1 0x0 PUSH2 0x18C5 PUSH2 0x18C0 DUP5 PUSH2 0x188C JUMP JUMPDEST PUSH2 0x16D5 JUMP JUMPDEST SWAP1 POP DUP1 PUSH1 0x20 DUP5 MUL DUP4 ADD DUP6 DUP2 GT ISZERO PUSH2 0x18DF JUMPI PUSH2 0x18DE PUSH2 0x17C6 JUMP JUMPDEST JUMPDEST DUP4 JUMPDEST DUP2 DUP2 LT ISZERO PUSH2 0x1908 JUMPI DUP1 PUSH2 0x18F4 DUP9 DUP3 PUSH2 0x17EC JUMP JUMPDEST DUP5 MSTORE PUSH1 0x20 DUP5 ADD SWAP4 POP POP PUSH1 0x20 DUP2 ADD SWAP1 POP PUSH2 0x18E1 JUMP JUMPDEST POP POP POP SWAP4 SWAP3 POP POP POP JUMP JUMPDEST PUSH1 0x0 DUP3 PUSH1 0x1F DUP4 ADD SLT PUSH2 0x1927 JUMPI PUSH2 0x1926 PUSH2 0x165A JUMP JUMPDEST JUMPDEST PUSH1 0x2 PUSH2 0x1934 DUP5 DUP3 DUP6 PUSH2 0x18B2 JUMP JUMPDEST SWAP2 POP POP SWAP3 SWAP2 POP POP JUMP JUMPDEST PUSH1 0x0 DUP1 PUSH1 0x0 PUSH1 0xE0 DUP5 DUP7 SUB SLT ISZERO PUSH2 0x1956 JUMPI PUSH2 0x1955 PUSH2 0x1650 JUMP JUMPDEST JUMPDEST PUSH1 0x0 DUP5 ADD CALLDATALOAD PUSH8 0xFFFFFFFFFFFFFFFF DUP2 GT ISZERO PUSH2 0x1974 JUMPI PUSH2 0x1973 PUSH2 0x1655 JUMP JUMPDEST JUMPDEST PUSH2 0x1980 DUP7 DUP3 DUP8 ADD PUSH2 0x1772 JUMP JUMPDEST SWAP4 POP POP PUSH1 0x20 PUSH2 0x1991 DUP7 DUP3 DUP8 ADD PUSH2 0x1861 JUMP JUMPDEST SWAP3 POP POP PUSH1 0xA0 PUSH2 0x19A2 DUP7 DUP3 DUP8 ADD PUSH2 0x1912 JUMP JUMPDEST SWAP2 POP POP SWAP3 POP SWAP3 POP SWAP3 JUMP JUMPDEST PUSH2 0x19B5 DUP2 PUSH2 0x17CB JUMP JUMPDEST DUP3 MSTORE POP POP JUMP JUMPDEST PUSH1 0x0 PUSH1 0x20 DUP3 ADD SWAP1 POP PUSH2 0x19D0 PUSH1 0x0 DUP4 ADD DUP5 PUSH2 0x19AC JUMP JUMPDEST SWAP3 SWAP2 POP POP JUMP JUMPDEST PUSH1 0x0 DUP3 DUP3 MSTORE PUSH1 0x20 DUP3 ADD SWAP1 POP SWAP3 SWAP2 POP POP JUMP JUMPDEST PUSH32 0x5652462050726F6F66206E6F6E2076616C696461000000000000000000000000 PUSH1 0x0 DUP3 ADD MSTORE POP JUMP JUMPDEST PUSH1 0x0 PUSH2 0x1A1D PUSH1 0x14 DUP4 PUSH2 0x19D6 JUMP JUMPDEST SWAP2 POP PUSH2 0x1A28 DUP3 PUSH2 0x19E7 JUMP JUMPDEST PUSH1 0x20 DUP3 ADD SWAP1 POP SWAP2 SWAP1 POP JUMP JUMPDEST PUSH1 0x0 PUSH1 0x20 DUP3 ADD SWAP1 POP DUP2 DUP2 SUB PUSH1 0x0 DUP4 ADD MSTORE PUSH2 0x1A4C DUP2 PUSH2 0x1A10 JUMP JUMPDEST SWAP1 POP SWAP2 SWAP1 POP JUMP JUMPDEST PUSH1 0x0 PUSH1 0x4 SWAP1 POP SWAP2 SWAP1 POP JUMP JUMPDEST PUSH1 0x0 DUP2 SWAP1 POP SWAP3 SWAP2 POP POP JUMP JUMPDEST PUSH1 0x0 DUP2 SWAP1 POP SWAP2 SWAP1 POP JUMP JUMPDEST PUSH2 0x1A7C DUP2 PUSH2 0x17CB JUMP JUMPDEST DUP3 MSTORE POP POP JUMP JUMPDEST PUSH1 0x0 PUSH2 0x1A8E DUP4 DUP4 PUSH2 0x1A73 JUMP JUMPDEST PUSH1 0x20 DUP4 ADD SWAP1 POP SWAP3 SWAP2 POP POP JUMP JUMPDEST PUSH1 0x0 PUSH1 0x20 DUP3 ADD SWAP1 POP SWAP2 SWAP1 POP JUMP JUMPDEST PUSH2 0x1AB0 DUP2 PUSH2 0x1A53 JUMP JUMPDEST PUSH2 0x1ABA DUP2 DUP5 PUSH2 0x1A5E JUMP JUMPDEST SWAP3 POP PUSH2 0x1AC5 DUP3 PUSH2 0x1A69 JUMP JUMPDEST DUP1 PUSH1 0x0 JUMPDEST DUP4 DUP2 LT ISZERO PUSH2 0x1AF6 JUMPI DUP2 MLOAD PUSH2 0x1ADD DUP8 DUP3 PUSH2 0x1A82 JUMP JUMPDEST SWAP7 POP PUSH2 0x1AE8 DUP4 PUSH2 0x1A9A JUMP JUMPDEST SWAP3 POP POP PUSH1 0x1 DUP2 ADD SWAP1 POP PUSH2 0x1AC9 JUMP JUMPDEST POP POP POP POP POP POP JUMP JUMPDEST PUSH1 0x0 PUSH2 0x1B0A DUP3 DUP5 PUSH2 0x1AA7 JUMP JUMPDEST PUSH1 0x80 DUP3 ADD SWAP2 POP DUP2 SWAP1 POP SWAP3 SWAP2 POP POP JUMP JUMPDEST PUSH32 0x4E487B7100000000000000000000000000000000000000000000000000000000 PUSH1 0x0 MSTORE PUSH1 0x32 PUSH1 0x4 MSTORE PUSH1 0x24 PUSH1 0x0 REVERT JUMPDEST PUSH32 0x4D616C666F726D6564205652462070726F6F6600000000000000000000000000 PUSH1 0x0 DUP3 ADD MSTORE POP JUMP JUMPDEST PUSH1 0x0 PUSH2 0x1B7E PUSH1 0x13 DUP4 PUSH2 0x19D6 JUMP JUMPDEST SWAP2 POP PUSH2 0x1B89 DUP3 PUSH2 0x1B48 JUMP JUMPDEST PUSH1 0x20 DUP3 ADD SWAP1 POP SWAP2 SWAP1 POP JUMP JUMPDEST PUSH1 0x0 PUSH1 0x20 DUP3 ADD SWAP1 POP DUP2 DUP2 SUB PUSH1 0x0 DUP4 ADD MSTORE PUSH2 0x1BAD DUP2 PUSH2 0x1B71 JUMP JUMPDEST SWAP1 POP SWAP2 SWAP1 POP JUMP JUMPDEST PUSH1 0x0 PUSH1 0xFF DUP3 AND SWAP1 POP SWAP2 SWAP1 POP JUMP JUMPDEST PUSH1 0x0 DUP2 PUSH1 0xF8 SHL SWAP1 POP SWAP2 SWAP1 POP JUMP JUMPDEST PUSH1 0x0 PUSH2 0x1BD9 DUP3 PUSH2 0x1BC1 JUMP JUMPDEST SWAP1 POP SWAP2 SWAP1 POP JUMP JUMPDEST PUSH2 0x1BF1 PUSH2 0x1BEC DUP3 PUSH2 0x1BB4 JUMP JUMPDEST PUSH2 0x1BCE JUMP JUMPDEST DUP3 MSTORE POP POP JUMP JUMPDEST PUSH1 0x0 DUP2 MLOAD SWAP1 POP SWAP2 SWAP1 POP JUMP JUMPDEST PUSH1 0x0 DUP2 SWAP1 POP SWAP3 SWAP2 POP POP JUMP JUMPDEST PUSH1 0x0 JUMPDEST DUP4 DUP2 LT ISZERO PUSH2 0x1C2B JUMPI DUP1 DUP3 ADD MLOAD DUP2 DUP5 ADD MSTORE PUSH1 0x20 DUP2 ADD SWAP1 POP PUSH2 0x1C10 JUMP JUMPDEST PUSH1 0x0 DUP5 DUP5 ADD MSTORE POP POP POP POP JUMP JUMPDEST PUSH1 0x0 PUSH2 0x1C42 DUP3 PUSH2 0x1BF7 JUMP JUMPDEST PUSH2 0x1C4C DUP2 DUP6 PUSH2 0x1C02 JUMP JUMPDEST SWAP4 POP PUSH2 0x1C5C DUP2 DUP6 PUSH1 0x20 DUP7 ADD PUSH2 0x1C0D JUMP JUMPDEST DUP1 DUP5 ADD SWAP2 POP POP SWAP3 SWAP2 POP POP JUMP JUMPDEST PUSH1 0x0 PUSH2 0x1C74 DUP3 DUP7 PUSH2 0x1BE0 JUMP JUMPDEST PUSH1 0x1 DUP3 ADD SWAP2 POP PUSH2 0x1C84 DUP3 DUP6 PUSH2 0x1BE0 JUMP JUMPDEST PUSH1 0x1 DUP3 ADD SWAP2 POP PUSH2 0x1C94 DUP3 DUP5 PUSH2 0x1C37 JUMP JUMPDEST SWAP2 POP DUP2 SWAP1 POP SWAP5 SWAP4 POP POP POP POP JUMP JUMPDEST PUSH1 0x0 PUSH2 0x1CAD DUP3 DUP5 PUSH2 0x1C37 JUMP JUMPDEST SWAP2 POP DUP2 SWAP1 POP SWAP3 SWAP2 POP POP JUMP JUMPDEST PUSH1 0x0 DUP2 SWAP1 POP SWAP2 SWAP1 POP JUMP JUMPDEST PUSH2 0x1CCB DUP2 PUSH2 0x1CB8 JUMP JUMPDEST DUP2 EQ PUSH2 0x1CD6 JUMPI PUSH1 0x0 DUP1 REVERT JUMPDEST POP JUMP JUMPDEST PUSH1 0x0 DUP2 MLOAD SWAP1 POP PUSH2 0x1CE8 DUP2 PUSH2 0x1CC2 JUMP JUMPDEST SWAP3 SWAP2 POP POP JUMP JUMPDEST PUSH1 0x0 PUSH1 0x20 DUP3 DUP5 SUB SLT ISZERO PUSH2 0x1D04 JUMPI PUSH2 0x1D03 PUSH2 0x1650 JUMP JUMPDEST JUMPDEST PUSH1 0x0 PUSH2 0x1D12 DUP5 DUP3 DUP6 ADD PUSH2 0x1CD9 JUMP JUMPDEST SWAP2 POP POP SWAP3 SWAP2 POP POP JUMP JUMPDEST PUSH1 0x0 PUSH2 0x1D27 DUP3 DUP8 PUSH2 0x1BE0 JUMP JUMPDEST PUSH1 0x1 DUP3 ADD SWAP2 POP PUSH2 0x1D37 DUP3 DUP7 PUSH2 0x1BE0 JUMP JUMPDEST PUSH1 0x1 DUP3 ADD SWAP2 POP PUSH2 0x1D47 DUP3 DUP6 PUSH2 0x1C37 JUMP JUMPDEST SWAP2 POP PUSH2 0x1D53 DUP3 DUP5 PUSH2 0x1C37 JUMP JUMPDEST SWAP2 POP DUP2 SWAP1 POP SWAP6 SWAP5 POP POP POP POP POP JUMP JUMPDEST PUSH1 0x0 PUSH2 0x1D6D DUP3 DUP6 PUSH2 0x1C37 JUMP JUMPDEST SWAP2 POP PUSH2 0x1D79 DUP3 DUP5 PUSH2 0x1BE0 JUMP JUMPDEST PUSH1 0x1 DUP3 ADD SWAP2 POP DUP2 SWAP1 POP SWAP4 SWAP3 POP POP POP JUMP JUMPDEST PUSH32 0x4E487B7100000000000000000000000000000000000000000000000000000000 PUSH1 0x0 MSTORE PUSH1 0x11 PUSH1 0x4 MSTORE PUSH1 0x24 PUSH1 0x0 REVERT JUMPDEST PUSH1 0x0 PUSH2 0x1DC3 DUP3 PUSH2 0x1BB4 JUMP JUMPDEST SWAP2 POP PUSH1 0xFF DUP3 SUB PUSH2 0x1DD6 JUMPI PUSH2 0x1DD5 PUSH2 0x1D89 JUMP JUMPDEST JUMPDEST PUSH1 0x1 DUP3 ADD SWAP1 POP SWAP2 SWAP1 POP JUMP JUMPDEST PUSH32 0x4E6F2076616C696420706F696E742077617320666F756E640000000000000000 PUSH1 0x0 DUP3 ADD MSTORE POP JUMP JUMPDEST PUSH1 0x0 PUSH2 0x1E17 PUSH1 0x18 DUP4 PUSH2 0x19D6 JUMP JUMPDEST SWAP2 POP PUSH2 0x1E22 DUP3 PUSH2 0x1DE1 JUMP JUMPDEST PUSH1 0x20 DUP3 ADD SWAP1 POP SWAP2 SWAP1 POP JUMP JUMPDEST PUSH1 0x0 PUSH1 0x20 DUP3 ADD SWAP1 POP DUP2 DUP2 SUB PUSH1 0x0 DUP4 ADD MSTORE PUSH2 0x1E46 DUP2 PUSH2 0x1E0A JUMP JUMPDEST SWAP1 POP SWAP2 SWAP1 POP JUMP JUMPDEST PUSH1 0x0 PUSH2 0x1E59 DUP3 DUP10 PUSH2 0x1BE0 JUMP JUMPDEST PUSH1 0x1 DUP3 ADD SWAP2 POP PUSH2 0x1E69 DUP3 DUP9 PUSH2 0x1BE0 JUMP JUMPDEST PUSH1 0x1 DUP3 ADD SWAP2 POP PUSH2 0x1E79 DUP3 DUP8 PUSH2 0x1C37 JUMP JUMPDEST SWAP2 POP PUSH2 0x1E85 DUP3 DUP7 PUSH2 0x1C37 JUMP JUMPDEST SWAP2 POP PUSH2 0x1E91 DUP3 DUP6 PUSH2 0x1C37 JUMP JUMPDEST SWAP2 POP PUSH2 0x1E9D DUP3 DUP5 PUSH2 0x1C37 JUMP JUMPDEST SWAP2 POP DUP2 SWAP1 POP SWAP8 SWAP7 POP POP POP POP POP POP POP JUMP JUMPDEST PUSH32 0x4E487B7100000000000000000000000000000000000000000000000000000000 PUSH1 0x0 MSTORE PUSH1 0x12 PUSH1 0x4 MSTORE PUSH1 0x24 PUSH1 0x0 REVERT JUMPDEST PUSH1 0x0 PUSH2 0x1EE7 DUP3 PUSH2 0x17CB JUMP JUMPDEST SWAP2 POP PUSH2 0x1EF2 DUP4 PUSH2 0x17CB JUMP JUMPDEST SWAP3 POP DUP3 PUSH2 0x1F02 JUMPI PUSH2 0x1F01 PUSH2 0x1EAD JUMP JUMPDEST JUMPDEST DUP3 DUP3 MOD SWAP1 POP SWAP3 SWAP2 POP POP JUMP JUMPDEST PUSH1 0x0 PUSH2 0x1F18 DUP3 PUSH2 0x17CB JUMP JUMPDEST SWAP2 POP PUSH2 0x1F23 DUP4 PUSH2 0x17CB JUMP JUMPDEST SWAP3 POP DUP3 DUP3 ADD SWAP1 POP DUP1 DUP3 GT ISZERO PUSH2 0x1F3B JUMPI PUSH2 0x1F3A PUSH2 0x1D89 JUMP JUMPDEST JUMPDEST SWAP3 SWAP2 POP POP JUMP JUMPDEST PUSH1 0x0 DUP2 SWAP1 POP SWAP2 SWAP1 POP JUMP JUMPDEST PUSH2 0x1F5C PUSH2 0x1F57 DUP3 PUSH2 0x17CB JUMP JUMPDEST PUSH2 0x1F41 JUMP JUMPDEST DUP3 MSTORE POP POP JUMP JUMPDEST PUSH1 0x0 PUSH2 0x1F6E DUP3 DUP6 PUSH2 0x1BE0 JUMP JUMPDEST PUSH1 0x1 DUP3 ADD SWAP2 POP PUSH2 0x1F7E DUP3 DUP5 PUSH2 0x1F4B JUMP JUMPDEST PUSH1 0x20 DUP3 ADD SWAP2 POP DUP2 SWAP1 POP SWAP4 SWAP3 POP POP POP JUMP JUMPDEST PUSH32 0x456C6C697074696343757276653A696E6E76616C696420636F6D707265737365 PUSH1 0x0 DUP3 ADD MSTORE PUSH32 0x6420454320706F696E7420707265666978000000000000000000000000000000 PUSH1 0x20 DUP3 ADD MSTORE POP JUMP JUMPDEST PUSH1 0x0 PUSH2 0x1FEA PUSH1 0x31 DUP4 PUSH2 0x19D6 JUMP JUMPDEST SWAP2 POP PUSH2 0x1FF5 DUP3 PUSH2 0x1F8E JUMP JUMPDEST PUSH1 0x40 DUP3 ADD SWAP1 POP SWAP2 SWAP1 POP JUMP JUMPDEST PUSH1 0x0 PUSH1 0x20 DUP3 ADD SWAP1 POP DUP2 DUP2 SUB PUSH1 0x0 DUP4 ADD MSTORE PUSH2 0x2019 DUP2 PUSH2 0x1FDD JUMP JUMPDEST SWAP1 POP SWAP2 SWAP1 POP JUMP JUMPDEST PUSH1 0x0 PUSH2 0x202B DUP3 PUSH2 0x17CB JUMP JUMPDEST SWAP2 POP PUSH2 0x2036 DUP4 PUSH2 0x17CB JUMP JUMPDEST SWAP3 POP DUP3 PUSH2 0x2046 JUMPI PUSH2 0x2045 PUSH2 0x1EAD JUMP JUMPDEST JUMPDEST DUP3 DUP3 DIV SWAP1 POP SWAP3 SWAP2 POP POP JUMP JUMPDEST PUSH1 0x0 PUSH2 0x205C DUP3 PUSH2 0x17CB JUMP JUMPDEST SWAP2 POP PUSH2 0x2067 DUP4 PUSH2 0x17CB JUMP JUMPDEST SWAP3 POP DUP3 DUP3 SUB SWAP1 POP DUP2 DUP2 GT ISZERO PUSH2 0x207F JUMPI PUSH2 0x207E PUSH2 0x1D89 JUMP JUMPDEST JUMPDEST SWAP3 SWAP2 POP POP JUMP JUMPDEST PUSH32 0x456C6C697074696343757276653A206D6F64756C7573206973207A65726F0000 PUSH1 0x0 DUP3 ADD MSTORE POP JUMP JUMPDEST PUSH1 0x0 PUSH2 0x20BB PUSH1 0x1E DUP4 PUSH2 0x19D6 JUMP JUMPDEST SWAP2 POP PUSH2 0x20C6 DUP3 PUSH2 0x2085 JUMP JUMPDEST PUSH1 0x20 DUP3 ADD SWAP1 POP SWAP2 SWAP1 POP JUMP JUMPDEST PUSH1 0x0 PUSH1 0x20 DUP3 ADD SWAP1 POP DUP2 DUP2 SUB PUSH1 0x0 DUP4 ADD MSTORE PUSH2 0x20EA DUP2 PUSH2 0x20AE JUMP JUMPDEST SWAP1 POP SWAP2 SWAP1 POP JUMP JUMPDEST PUSH32 0x557365206A6163446F75626C652066756E6374696F6E20696E73746561640000 PUSH1 0x0 DUP3 ADD MSTORE POP JUMP JUMPDEST PUSH1 0x0 PUSH2 0x2127 PUSH1 0x1E DUP4 PUSH2 0x19D6 JUMP JUMPDEST SWAP2 POP PUSH2 0x2132 DUP3 PUSH2 0x20F1 JUMP JUMPDEST PUSH1 0x20 DUP3 ADD SWAP1 POP SWAP2 SWAP1 POP JUMP JUMPDEST PUSH1 0x0 PUSH1 0x20 DUP3 ADD SWAP1 POP DUP2 DUP2 SUB PUSH1 0x0 DUP4 ADD MSTORE PUSH2 0x2156 DUP2 PUSH2 0x211A JUMP JUMPDEST SWAP1 POP SWAP2 SWAP1 POP JUMP JUMPDEST PUSH32 0x496E76616C6964206E756D626572000000000000000000000000000000000000 PUSH1 0x0 DUP3 ADD MSTORE POP JUMP JUMPDEST PUSH1 0x0 PUSH2 0x2193 PUSH1 0xE DUP4 PUSH2 0x19D6 JUMP JUMPDEST SWAP2 POP PUSH2 0x219E DUP3 PUSH2 0x215D JUMP JUMPDEST PUSH1 0x20 DUP3 ADD SWAP1 POP SWAP2 SWAP1 POP JUMP JUMPDEST PUSH1 0x0 PUSH1 0x20 DUP3 ADD SWAP1 POP DUP2 DUP2 SUB PUSH1 0x0 DUP4 ADD MSTORE PUSH2 0x21C2 DUP2 PUSH2 0x2186 JUMP JUMPDEST SWAP1 POP SWAP2 SWAP1 POP JUMP JUMPDEST PUSH1 0x0 PUSH2 0x21D4 DUP3 PUSH2 0x17CB JUMP JUMPDEST SWAP2 POP PUSH2 0x21DF DUP4 PUSH2 0x17CB JUMP JUMPDEST SWAP3 POP DUP3 DUP3 MUL PUSH2 0x21ED DUP2 PUSH2 0x17CB JUMP JUMPDEST SWAP2 POP DUP3 DUP3 DIV DUP5 EQ DUP4 ISZERO OR PUSH2 0x2204 JUMPI PUSH2 0x2203 PUSH2 0x1D89 JUMP JUMPDEST JUMPDEST POP SWAP3 SWAP2 POP POP JUMP INVALID LOG2 PUSH5 0x6970667358 0x22 SLT KECCAK256 CREATE2 0xAC PREVRANDAO AND ADDMOD 0xD4 SELFBALANCE 0xBF 0x4D 0x28 LOG2 0xBF SWAP16 0xAE 0xEB 0xCB CALLCODE CHAINID PUSH9 0x564DCB0CD9D15637D3 SWAP2 DUP13 0xF6 PUSH25 0x64736F6C634300081800330000000000000000000000000000 "},"methodIdentifiers":{"generateRandomNumber(bytes,uint256[4],uint256[2])":"08a63f42"}}}}}