{"contracts/Registro.sol":{"Registro":{"abi":[{"inputs":[{"internalType":"uint256","name":"prod1","type":"uint256"},{"internalType":"uint256","name":"denominator","type":"uint256"}],"name":"PRBMath__MulDivOverflow","type":"error"},{"inputs":[{"internalType":"address[]","name":"_addressDevice","type":"address[]"},{"internalType":"int256[]","name":"rep","type":"int256[]"}],"name":"UpdateReputations","outputs":[],"stateMutability":"nonpayable","type":"function"},{"inputs":[{"internalType":"int256","name":"_score","type":"int256"},{"internalType":"int256","name":"tolleranza","type":"int256"}],"name":"constraintFunction","outputs":[{"internalType":"int256","name":"","type":"int256"}],"stateMutability":"pure","type":"function"},{"inputs":[{"internalType":"int256","name":"newValue","type":"int256"},{"internalType":"int256","name":"oldReputation","type":"int256"},{"internalType":"int256","name":"peso","type":"int256"}],"name":"finalReputation","outputs":[{"internalType":"int256","name":"","type":"int256"}],"stateMutability":"pure","type":"function"},{"inputs":[],"name":"getAllProducers","outputs":[{"components":[{"internalType":"address","name":"addressDevice","type":"address"},{"internalType":"int256","name":"reputazione","type":"int256"}],"internalType":"struct Registro.Producer[]","name":"","type":"tuple[]"}],"stateMutability":"view","type":"function"},{"inputs":[],"name":"getProducerCount","outputs":[{"internalType":"uint256","name":"","type":"uint256"}],"stateMutability":"view","type":"function"},{"inputs":[{"internalType":"int256[]","name":"val","type":"int256[]"}],"name":"mediana","outputs":[{"internalType":"int256","name":"","type":"int256"}],"stateMutability":"pure","type":"function"},{"inputs":[{"internalType":"uint256","name":"","type":"uint256"}],"name":"producerAddresses","outputs":[{"internalType":"address","name":"","type":"address"}],"stateMutability":"view","type":"function"},{"inputs":[{"internalType":"address","name":"","type":"address"}],"name":"producers","outputs":[{"internalType":"address","name":"addressDevice","type":"address"},{"internalType":"int256","name":"reputazione","type":"int256"}],"stateMutability":"view","type":"function"},{"inputs":[{"internalType":"address","name":"_addressDevice","type":"address"},{"internalType":"int256","name":"_reputazione","type":"int256"}],"name":"registerProducer","outputs":[],"stateMutability":"nonpayable","type":"function"},{"inputs":[{"internalType":"int256[]","name":"val","type":"int256[]"},{"internalType":"int256","name":"medianaVal","type":"int256"}],"name":"score","outputs":[{"internalType":"int256[]","name":"","type":"int256[]"}],"stateMutability":"pure","type":"function"},{"inputs":[{"internalType":"int256[]","name":"val","type":"int256[]"},{"internalType":"int256","name":"tolleranza","type":"int256"}],"name":"update","outputs":[],"stateMutability":"nonpayable","type":"function"}],"evm":{"bytecode":{"linkReferences":{},"object":"608060405234801561001057600080fd5b50611bf5806100206000396000f3fe608060405234801561001057600080fd5b50600436106100a95760003560e01c80635a8d9f7f116100715780635a8d9f7f1461018d5780637a3a11a5146101a9578063ae53a6a3146101d9578063b08a6498146101f5578063bd075b7814610213578063d5f74d2b14610243576100a9565b8063052f4216146100ae5780630c55a273146100de578063217f72b01461010e57806326324eff1461013e5780632c06779d1461016f575b600080fd5b6100c860048036038101906100c39190610efc565b61025f565b6040516100d59190610f4b565b60405180910390f35b6100f860048036038101906100f391906110bf565b610306565b6040516101059190610f4b565b60405180910390f35b61012860048036038101906101239190611108565b6103c2565b6040516101359190611222565b60405180910390f35b610158600480360381019061015391906112a2565b6104e7565b6040516101669291906112de565b60405180910390f35b61017761052b565b60405161018491906113f4565b60405180910390f35b6101a760048036038101906101a29190611108565b6106b4565b005b6101c360048036038101906101be919061144c565b61090b565b6040516101d09190611479565b60405180910390f35b6101f360048036038101906101ee9190611494565b61094a565b005b6101fd610b3e565b60405161020a91906114e3565b60405180910390f35b61022d600480360381019061022891906114fe565b610b4b565b60405161023a9190610f4b565b60405180910390f35b61025d60048036038101906102589190611614565b610bb6565b005b6000808390506000839050600060028361027991906117fb565b9050600060028361028a91906117fb565b905060006102ab670de0b6b3a7640000846102a59190611846565b83610c4e565b9050600081670de0b6b3a76400006102c39190611888565b90506000670de0b6b3a76400006102ea6f01812f9cf7920e2b66973e200000000084610c4e565b6102f491906118bc565b90508097505050505050505092915050565b60008082905061031581610c6b565b600060028251610325919061191f565b90506000600283516103379190611950565b0361039d5760028260018361034c91906118bc565b8151811061035d5761035c611981565b5b602002602001015183838151811061037857610377611981565b5b602002602001015161038a91906119b0565b61039491906119f4565b925050506103bd565b8181815181106103b0576103af611981565b5b6020026020010151925050505b919050565b60606000835167ffffffffffffffff8111156103e1576103e0610f7c565b5b60405190808252806020026020018201604052801561040f5781602001602082028036833780820191505090505b50905060005b84518110156104dc578385828151811061043257610431611981565b5b602002602001015112610489578385828151811061045357610452611981565b5b60200260200101516104659190611a5e565b82828151811061047857610477611981565b5b6020026020010181815250506104cf565b84818151811061049c5761049b611981565b5b6020026020010151846104af9190611a5e565b8282815181106104c2576104c1611981565b5b6020026020010181815250505b8080600101915050610415565b508091505092915050565b60006020528060005260406000206000915090508060000160009054906101000a900473ffffffffffffffffffffffffffffffffffffffff16908060010154905082565b6060600060018054905067ffffffffffffffff81111561054e5761054d610f7c565b5b60405190808252806020026020018201604052801561058757816020015b610574610e82565b81526020019060019003908161056c5790505b50905060005b6001805490508110156106ac57600080600183815481106105b1576105b0611981565b5b9060005260206000200160009054906101000a900473ffffffffffffffffffffffffffffffffffffffff1673ffffffffffffffffffffffffffffffffffffffff1673ffffffffffffffffffffffffffffffffffffffff1681526020019081526020016000206040518060400160405290816000820160009054906101000a900473ffffffffffffffffffffffffffffffffffffffff1673ffffffffffffffffffffffffffffffffffffffff1673ffffffffffffffffffffffffffffffffffffffff16815260200160018201548152505082828151811061069457610693611981565b5b6020026020010181905250808060010191505061058d565b508091505090565b60006106bf83610306565b905060006106cd84836103c2565b905060008151905060008167ffffffffffffffff8111156106f1576106f0610f7c565b5b60405190808252806020026020018201604052801561071f5781602001602082028036833780820191505090505b50905060008267ffffffffffffffff81111561073e5761073d610f7c565b5b60405190808252806020026020018201604052801561076c5781602001602082028036833780820191505090505b50905060005b838110156109015761079e8582815181106107905761078f611981565b5b60200260200101518861025f565b8382815181106107b1576107b0611981565b5b6020026020010181815250506000600182815481106107d3576107d2611981565b5b9060005260206000200160009054906101000a900473ffffffffffffffffffffffffffffffffffffffff16905060008060008373ffffffffffffffffffffffffffffffffffffffff1673ffffffffffffffffffffffffffffffffffffffff16815260200190815260200160002060010154905061087385848151811061085c5761085b611981565b5b60200260200101518267016345785d8a0000610b4b565b84848151811061088657610885611981565b5b6020026020010181815250508383815181106108a5576108a4611981565b5b60200260200101516000808473ffffffffffffffffffffffffffffffffffffffff1673ffffffffffffffffffffffffffffffffffffffff1681526020019081526020016000206001018190555050508080600101915050610772565b5050505050505050565b6001818154811061091b57600080fd5b906000526020600020016000915054906101000a900473ffffffffffffffffffffffffffffffffffffffff1681565b600073ffffffffffffffffffffffffffffffffffffffff166000808473ffffffffffffffffffffffffffffffffffffffff1673ffffffffffffffffffffffffffffffffffffffff16815260200190815260200160002060000160009054906101000a900473ffffffffffffffffffffffffffffffffffffffff1673ffffffffffffffffffffffffffffffffffffffff1614610a1a576040517f08c379a0000000000000000000000000000000000000000000000000000000008152600401610a1190611afe565b60405180910390fd5b60405180604001604052808373ffffffffffffffffffffffffffffffffffffffff168152602001828152506000808473ffffffffffffffffffffffffffffffffffffffff1673ffffffffffffffffffffffffffffffffffffffff16815260200190815260200160002060008201518160000160006101000a81548173ffffffffffffffffffffffffffffffffffffffff021916908373ffffffffffffffffffffffffffffffffffffffff160217905550602082015181600101559050506001829080600181540180825580915050600190039060005260206000200160009091909190916101000a81548173ffffffffffffffffffffffffffffffffffffffff021916908373ffffffffffffffffffffffffffffffffffffffff1602179055505050565b6000600180549050905090565b600080670de0b6b3a76400008484670de0b6b3a7640000610b6c9190611a5e565b610b769190611b1e565b610b8091906119f4565b670de0b6b3a76400008685610b959190611b1e565b610b9f91906119f4565b610ba991906119b0565b9050809150509392505050565b60005b8251811015610c4957818181518110610bd557610bd4611981565b5b6020026020010151600080858481518110610bf357610bf2611981565b5b602002602001015173ffffffffffffffffffffffffffffffffffffffff1673ffffffffffffffffffffffffffffffffffffffff168152602001908152602001600020600101819055508080600101915050610bb9565b505050565b6000610c6383670de0b6b3a764000084610d6d565b905092915050565b60008151905060005b81811015610d68576000600182610c8b9190611888565b90505b82811015610d5a57838181518110610ca957610ca8611981565b5b6020026020010151848381518110610cc457610cc3611981565b5b60200260200101511315610d4d576000848381518110610ce757610ce6611981565b5b60200260200101519050848281518110610d0457610d03611981565b5b6020026020010151858481518110610d1f57610d1e611981565b5b60200260200101818152505080858381518110610d3f57610d3e611981565b5b602002602001018181525050505b8080600101915050610c8e565b508080600101915050610c74565b505050565b6000806000801985870985870292508281108382030391505060008103610da857838281610d9e57610d9d6118f0565b5b0492505050610e7b565b838110610dee5780846040517f773cc18c000000000000000000000000000000000000000000000000000000008152600401610de5929190611b96565b60405180910390fd5b60008486880990508281118203915080830392506000600186190186169050808604955080840493506001818260000304019050808302841793506000600287600302189050808702600203810290508087026002038102905080870260020381029050808702600203810290508087026002038102905080870260020381029050808502955050505050505b9392505050565b6040518060400160405280600073ffffffffffffffffffffffffffffffffffffffff168152602001600081525090565b6000604051905090565b600080fd5b600080fd5b6000819050919050565b610ed981610ec6565b8114610ee457600080fd5b50565b600081359050610ef681610ed0565b92915050565b60008060408385031215610f1357610f12610ebc565b5b6000610f2185828601610ee7565b9250506020610f3285828601610ee7565b9150509250929050565b610f4581610ec6565b82525050565b6000602082019050610f606000830184610f3c565b92915050565b600080fd5b6000601f19601f8301169050919050565b7f4e487b7100000000000000000000000000000000000000000000000000000000600052604160045260246000fd5b610fb482610f6b565b810181811067ffffffffffffffff82111715610fd357610fd2610f7c565b5b80604052505050565b6000610fe6610eb2565b9050610ff28282610fab565b919050565b600067ffffffffffffffff82111561101257611011610f7c565b5b602082029050602081019050919050565b600080fd5b600061103b61103684610ff7565b610fdc565b9050808382526020820190506020840283018581111561105e5761105d611023565b5b835b8181101561108757806110738882610ee7565b845260208401935050602081019050611060565b5050509392505050565b600082601f8301126110a6576110a5610f66565b5b81356110b6848260208601611028565b91505092915050565b6000602082840312156110d5576110d4610ebc565b5b600082013567ffffffffffffffff8111156110f3576110f2610ec1565b5b6110ff84828501611091565b91505092915050565b6000806040838503121561111f5761111e610ebc565b5b600083013567ffffffffffffffff81111561113d5761113c610ec1565b5b61114985828601611091565b925050602061115a85828601610ee7565b9150509250929050565b600081519050919050565b600082825260208201905092915050565b6000819050602082019050919050565b61119981610ec6565b82525050565b60006111ab8383611190565b60208301905092915050565b6000602082019050919050565b60006111cf82611164565b6111d9818561116f565b93506111e483611180565b8060005b838110156112155781516111fc888261119f565b9750611207836111b7565b9250506001810190506111e8565b5085935050505092915050565b6000602082019050818103600083015261123c81846111c4565b905092915050565b600073ffffffffffffffffffffffffffffffffffffffff82169050919050565b600061126f82611244565b9050919050565b61127f81611264565b811461128a57600080fd5b50565b60008135905061129c81611276565b92915050565b6000602082840312156112b8576112b7610ebc565b5b60006112c68482850161128d565b91505092915050565b6112d881611264565b82525050565b60006040820190506112f360008301856112cf565b6113006020830184610f3c565b9392505050565b600081519050919050565b600082825260208201905092915050565b6000819050602082019050919050565b61133c81611264565b82525050565b6040820160008201516113586000850182611333565b50602082015161136b6020850182611190565b50505050565b600061137d8383611342565b60408301905092915050565b6000602082019050919050565b60006113a182611307565b6113ab8185611312565b93506113b683611323565b8060005b838110156113e75781516113ce8882611371565b97506113d983611389565b9250506001810190506113ba565b5085935050505092915050565b6000602082019050818103600083015261140e8184611396565b905092915050565b6000819050919050565b61142981611416565b811461143457600080fd5b50565b60008135905061144681611420565b92915050565b60006020828403121561146257611461610ebc565b5b600061147084828501611437565b91505092915050565b600060208201905061148e60008301846112cf565b92915050565b600080604083850312156114ab576114aa610ebc565b5b60006114b98582860161128d565b92505060206114ca85828601610ee7565b9150509250929050565b6114dd81611416565b82525050565b60006020820190506114f860008301846114d4565b92915050565b60008060006060848603121561151757611516610ebc565b5b600061152586828701610ee7565b935050602061153686828701610ee7565b925050604061154786828701610ee7565b9150509250925092565b600067ffffffffffffffff82111561156c5761156b610f7c565b5b602082029050602081019050919050565b600061159061158b84611551565b610fdc565b905080838252602082019050602084028301858111156115b3576115b2611023565b5b835b818110156115dc57806115c8888261128d565b8452602084019350506020810190506115b5565b5050509392505050565b600082601f8301126115fb576115fa610f66565b5b813561160b84826020860161157d565b91505092915050565b6000806040838503121561162b5761162a610ebc565b5b600083013567ffffffffffffffff81111561164957611648610ec1565b5b611655858286016115e6565b925050602083013567ffffffffffffffff81111561167657611675610ec1565b5b61168285828601611091565b9150509250929050565b7f4e487b7100000000000000000000000000000000000000000000000000000000600052601160045260246000fd5b60008160011c9050919050565b6000808291508390505b6001851115611712578086048111156116ee576116ed61168c565b5b60018516156116fd5780820291505b808102905061170b856116bb565b94506116d2565b94509492505050565b60008261172b57600190506117e7565b8161173957600090506117e7565b816001811461174f576002811461175957611788565b60019150506117e7565b60ff84111561176b5761176a61168c565b5b8360020a9150848211156117825761178161168c565b5b506117e7565b5060208310610133831016604e8410600b84101617156117bd5782820a9050838111156117b8576117b761168c565b5b6117e7565b6117ca84848460016116c8565b925090508184048111156117e1576117e061168c565b5b81810290505b9392505050565b600060ff82169050919050565b600061180682611416565b9150611811836117ee565b925061183e7fffffffffffffffffffffffffffffffffffffffffffffffffffffffffffffffff848461171b565b905092915050565b600061185182611416565b915061185c83611416565b925082820261186a81611416565b915082820484148315176118815761188061168c565b5b5092915050565b600061189382611416565b915061189e83611416565b92508282019050808211156118b6576118b561168c565b5b92915050565b60006118c782611416565b91506118d283611416565b92508282039050818111156118ea576118e961168c565b5b92915050565b7f4e487b7100000000000000000000000000000000000000000000000000000000600052601260045260246000fd5b600061192a82611416565b915061193583611416565b925082611945576119446118f0565b5b828204905092915050565b600061195b82611416565b915061196683611416565b925082611976576119756118f0565b5b828206905092915050565b7f4e487b7100000000000000000000000000000000000000000000000000000000600052603260045260246000fd5b60006119bb82610ec6565b91506119c683610ec6565b9250828201905082811215600083121683821260008412151617156119ee576119ed61168c565b5b92915050565b60006119ff82610ec6565b9150611a0a83610ec6565b925082611a1a57611a196118f0565b5b600160000383147f800000000000000000000000000000000000000000000000000000000000000083141615611a5357611a5261168c565b5b828205905092915050565b6000611a6982610ec6565b9150611a7483610ec6565b9250828203905081811260008412168282136000851215161715611a9b57611a9a61168c565b5b92915050565b600082825260208201905092915050565b7f50726f647563657220616c726561647920726567697374657265640000000000600082015250565b6000611ae8601b83611aa1565b9150611af382611ab2565b602082019050919050565b60006020820190508181036000830152611b1781611adb565b9050919050565b6000611b2982610ec6565b9150611b3483610ec6565b9250828202611b4281610ec6565b91507f80000000000000000000000000000000000000000000000000000000000000008414600084121615611b7a57611b7961168c565b5b8282058414831517611b8f57611b8e61168c565b5b5092915050565b6000604082019050611bab60008301856114d4565b611bb860208301846114d4565b939250505056fea26469706673582212206b44c3109a14bf91f9a3087953802b7bfae9583b4fce9bc21b97fefbf904d40d64736f6c63430008180033","opcodes":"PUSH1 0x80 PUSH1 0x40 MSTORE CALLVALUE DUP1 ISZERO PUSH2 0x10 JUMPI PUSH1 0x0 DUP1 REVERT JUMPDEST POP PUSH2 0x1BF5 DUP1 PUSH2 0x20 PUSH1 0x0 CODECOPY PUSH1 0x0 RETURN INVALID PUSH1 0x80 PUSH1 0x40 MSTORE CALLVALUE DUP1 ISZERO PUSH2 0x10 JUMPI PUSH1 0x0 DUP1 REVERT JUMPDEST POP PUSH1 0x4 CALLDATASIZE LT PUSH2 0xA9 JUMPI PUSH1 0x0 CALLDATALOAD PUSH1 0xE0 SHR DUP1 PUSH4 0x5A8D9F7F GT PUSH2 0x71 JUMPI DUP1 PUSH4 0x5A8D9F7F EQ PUSH2 0x18D JUMPI DUP1 PUSH4 0x7A3A11A5 EQ PUSH2 0x1A9 JUMPI DUP1 PUSH4 0xAE53A6A3 EQ PUSH2 0x1D9 JUMPI DUP1 PUSH4 0xB08A6498 EQ PUSH2 0x1F5 JUMPI DUP1 PUSH4 0xBD075B78 EQ PUSH2 0x213 JUMPI DUP1 PUSH4 0xD5F74D2B EQ PUSH2 0x243 JUMPI PUSH2 0xA9 JUMP JUMPDEST DUP1 PUSH4 0x52F4216 EQ PUSH2 0xAE JUMPI DUP1 PUSH4 0xC55A273 EQ PUSH2 0xDE JUMPI DUP1 PUSH4 0x217F72B0 EQ PUSH2 0x10E JUMPI DUP1 PUSH4 0x26324EFF EQ PUSH2 0x13E JUMPI DUP1 PUSH4 0x2C06779D EQ PUSH2 0x16F JUMPI JUMPDEST PUSH1 0x0 DUP1 REVERT JUMPDEST PUSH2 0xC8 PUSH1 0x4 DUP1 CALLDATASIZE SUB DUP2 ADD SWAP1 PUSH2 0xC3 SWAP2 SWAP1 PUSH2 0xEFC JUMP JUMPDEST PUSH2 0x25F JUMP JUMPDEST PUSH1 0x40 MLOAD PUSH2 0xD5 SWAP2 SWAP1 PUSH2 0xF4B JUMP JUMPDEST PUSH1 0x40 MLOAD DUP1 SWAP2 SUB SWAP1 RETURN JUMPDEST PUSH2 0xF8 PUSH1 0x4 DUP1 CALLDATASIZE SUB DUP2 ADD SWAP1 PUSH2 0xF3 SWAP2 SWAP1 PUSH2 0x10BF JUMP JUMPDEST PUSH2 0x306 JUMP JUMPDEST PUSH1 0x40 MLOAD PUSH2 0x105 SWAP2 SWAP1 PUSH2 0xF4B JUMP JUMPDEST PUSH1 0x40 MLOAD DUP1 SWAP2 SUB SWAP1 RETURN JUMPDEST PUSH2 0x128 PUSH1 0x4 DUP1 CALLDATASIZE SUB DUP2 ADD SWAP1 PUSH2 0x123 SWAP2 SWAP1 PUSH2 0x1108 JUMP JUMPDEST PUSH2 0x3C2 JUMP JUMPDEST PUSH1 0x40 MLOAD PUSH2 0x135 SWAP2 SWAP1 PUSH2 0x1222 JUMP JUMPDEST PUSH1 0x40 MLOAD DUP1 SWAP2 SUB SWAP1 RETURN JUMPDEST PUSH2 0x158 PUSH1 0x4 DUP1 CALLDATASIZE SUB DUP2 ADD SWAP1 PUSH2 0x153 SWAP2 SWAP1 PUSH2 0x12A2 JUMP JUMPDEST PUSH2 0x4E7 JUMP JUMPDEST PUSH1 0x40 MLOAD PUSH2 0x166 SWAP3 SWAP2 SWAP1 PUSH2 0x12DE JUMP JUMPDEST PUSH1 0x40 MLOAD DUP1 SWAP2 SUB SWAP1 RETURN JUMPDEST PUSH2 0x177 PUSH2 0x52B JUMP JUMPDEST PUSH1 0x40 MLOAD PUSH2 0x184 SWAP2 SWAP1 PUSH2 0x13F4 JUMP JUMPDEST PUSH1 0x40 MLOAD DUP1 SWAP2 SUB SWAP1 RETURN JUMPDEST PUSH2 0x1A7 PUSH1 0x4 DUP1 CALLDATASIZE SUB DUP2 ADD SWAP1 PUSH2 0x1A2 SWAP2 SWAP1 PUSH2 0x1108 JUMP JUMPDEST PUSH2 0x6B4 JUMP JUMPDEST STOP JUMPDEST PUSH2 0x1C3 PUSH1 0x4 DUP1 CALLDATASIZE SUB DUP2 ADD SWAP1 PUSH2 0x1BE SWAP2 SWAP1 PUSH2 0x144C JUMP JUMPDEST PUSH2 0x90B JUMP JUMPDEST PUSH1 0x40 MLOAD PUSH2 0x1D0 SWAP2 SWAP1 PUSH2 0x1479 JUMP JUMPDEST PUSH1 0x40 MLOAD DUP1 SWAP2 SUB SWAP1 RETURN JUMPDEST PUSH2 0x1F3 PUSH1 0x4 DUP1 CALLDATASIZE SUB DUP2 ADD SWAP1 PUSH2 0x1EE SWAP2 SWAP1 PUSH2 0x1494 JUMP JUMPDEST PUSH2 0x94A JUMP JUMPDEST STOP JUMPDEST PUSH2 0x1FD PUSH2 0xB3E JUMP JUMPDEST PUSH1 0x40 MLOAD PUSH2 0x20A SWAP2 SWAP1 PUSH2 0x14E3 JUMP JUMPDEST PUSH1 0x40 MLOAD DUP1 SWAP2 SUB SWAP1 RETURN JUMPDEST PUSH2 0x22D PUSH1 0x4 DUP1 CALLDATASIZE SUB DUP2 ADD SWAP1 PUSH2 0x228 SWAP2 SWAP1 PUSH2 0x14FE JUMP JUMPDEST PUSH2 0xB4B JUMP JUMPDEST PUSH1 0x40 MLOAD PUSH2 0x23A SWAP2 SWAP1 PUSH2 0xF4B JUMP JUMPDEST PUSH1 0x40 MLOAD DUP1 SWAP2 SUB SWAP1 RETURN JUMPDEST PUSH2 0x25D PUSH1 0x4 DUP1 CALLDATASIZE SUB DUP2 ADD SWAP1 PUSH2 0x258 SWAP2 SWAP1 PUSH2 0x1614 JUMP JUMPDEST PUSH2 0xBB6 JUMP JUMPDEST STOP JUMPDEST PUSH1 0x0 DUP1 DUP4 SWAP1 POP PUSH1 0x0 DUP4 SWAP1 POP PUSH1 0x0 PUSH1 0x2 DUP4 PUSH2 0x279 SWAP2 SWAP1 PUSH2 0x17FB JUMP JUMPDEST SWAP1 POP PUSH1 0x0 PUSH1 0x2 DUP4 PUSH2 0x28A SWAP2 SWAP1 PUSH2 0x17FB JUMP JUMPDEST SWAP1 POP PUSH1 0x0 PUSH2 0x2AB PUSH8 0xDE0B6B3A7640000 DUP5 PUSH2 0x2A5 SWAP2 SWAP1 PUSH2 0x1846 JUMP JUMPDEST DUP4 PUSH2 0xC4E JUMP JUMPDEST SWAP1 POP PUSH1 0x0 DUP2 PUSH8 0xDE0B6B3A7640000 PUSH2 0x2C3 SWAP2 SWAP1 PUSH2 0x1888 JUMP JUMPDEST SWAP1 POP PUSH1 0x0 PUSH8 0xDE0B6B3A7640000 PUSH2 0x2EA PUSH16 0x1812F9CF7920E2B66973E2000000000 DUP5 PUSH2 0xC4E JUMP JUMPDEST PUSH2 0x2F4 SWAP2 SWAP1 PUSH2 0x18BC JUMP JUMPDEST SWAP1 POP DUP1 SWAP8 POP POP POP POP POP POP POP POP SWAP3 SWAP2 POP POP JUMP JUMPDEST PUSH1 0x0 DUP1 DUP3 SWAP1 POP PUSH2 0x315 DUP2 PUSH2 0xC6B JUMP JUMPDEST PUSH1 0x0 PUSH1 0x2 DUP3 MLOAD PUSH2 0x325 SWAP2 SWAP1 PUSH2 0x191F JUMP JUMPDEST SWAP1 POP PUSH1 0x0 PUSH1 0x2 DUP4 MLOAD PUSH2 0x337 SWAP2 SWAP1 PUSH2 0x1950 JUMP JUMPDEST SUB PUSH2 0x39D JUMPI PUSH1 0x2 DUP3 PUSH1 0x1 DUP4 PUSH2 0x34C SWAP2 SWAP1 PUSH2 0x18BC JUMP JUMPDEST DUP2 MLOAD DUP2 LT PUSH2 0x35D JUMPI PUSH2 0x35C PUSH2 0x1981 JUMP JUMPDEST JUMPDEST PUSH1 0x20 MUL PUSH1 0x20 ADD ADD MLOAD DUP4 DUP4 DUP2 MLOAD DUP2 LT PUSH2 0x378 JUMPI PUSH2 0x377 PUSH2 0x1981 JUMP JUMPDEST JUMPDEST PUSH1 0x20 MUL PUSH1 0x20 ADD ADD MLOAD PUSH2 0x38A SWAP2 SWAP1 PUSH2 0x19B0 JUMP JUMPDEST PUSH2 0x394 SWAP2 SWAP1 PUSH2 0x19F4 JUMP JUMPDEST SWAP3 POP POP POP PUSH2 0x3BD JUMP JUMPDEST DUP2 DUP2 DUP2 MLOAD DUP2 LT PUSH2 0x3B0 JUMPI PUSH2 0x3AF PUSH2 0x1981 JUMP JUMPDEST JUMPDEST PUSH1 0x20 MUL PUSH1 0x20 ADD ADD MLOAD SWAP3 POP POP POP JUMPDEST SWAP2 SWAP1 POP JUMP JUMPDEST PUSH1 0x60 PUSH1 0x0 DUP4 MLOAD PUSH8 0xFFFFFFFFFFFFFFFF DUP2 GT ISZERO PUSH2 0x3E1 JUMPI PUSH2 0x3E0 PUSH2 0xF7C JUMP JUMPDEST JUMPDEST PUSH1 0x40 MLOAD SWAP1 DUP1 DUP3 MSTORE DUP1 PUSH1 0x20 MUL PUSH1 0x20 ADD DUP3 ADD PUSH1 0x40 MSTORE DUP1 ISZERO PUSH2 0x40F JUMPI DUP2 PUSH1 0x20 ADD PUSH1 0x20 DUP3 MUL DUP1 CALLDATASIZE DUP4 CALLDATACOPY DUP1 DUP3 ADD SWAP2 POP POP SWAP1 POP JUMPDEST POP SWAP1 POP PUSH1 0x0 JUMPDEST DUP5 MLOAD DUP2 LT ISZERO PUSH2 0x4DC JUMPI DUP4 DUP6 DUP3 DUP2 MLOAD DUP2 LT PUSH2 0x432 JUMPI PUSH2 0x431 PUSH2 0x1981 JUMP JUMPDEST JUMPDEST PUSH1 0x20 MUL PUSH1 0x20 ADD ADD MLOAD SLT PUSH2 0x489 JUMPI DUP4 DUP6 DUP3 DUP2 MLOAD DUP2 LT PUSH2 0x453 JUMPI PUSH2 0x452 PUSH2 0x1981 JUMP JUMPDEST JUMPDEST PUSH1 0x20 MUL PUSH1 0x20 ADD ADD MLOAD PUSH2 0x465 SWAP2 SWAP1 PUSH2 0x1A5E JUMP JUMPDEST DUP3 DUP3 DUP2 MLOAD DUP2 LT PUSH2 0x478 JUMPI PUSH2 0x477 PUSH2 0x1981 JUMP JUMPDEST JUMPDEST PUSH1 0x20 MUL PUSH1 0x20 ADD ADD DUP2 DUP2 MSTORE POP POP PUSH2 0x4CF JUMP JUMPDEST DUP5 DUP2 DUP2 MLOAD DUP2 LT PUSH2 0x49C JUMPI PUSH2 0x49B PUSH2 0x1981 JUMP JUMPDEST JUMPDEST PUSH1 0x20 MUL PUSH1 0x20 ADD ADD MLOAD DUP5 PUSH2 0x4AF SWAP2 SWAP1 PUSH2 0x1A5E JUMP JUMPDEST DUP3 DUP3 DUP2 MLOAD DUP2 LT PUSH2 0x4C2 JUMPI PUSH2 0x4C1 PUSH2 0x1981 JUMP JUMPDEST JUMPDEST PUSH1 0x20 MUL PUSH1 0x20 ADD ADD DUP2 DUP2 MSTORE POP POP JUMPDEST DUP1 DUP1 PUSH1 0x1 ADD SWAP2 POP POP PUSH2 0x415 JUMP JUMPDEST POP DUP1 SWAP2 POP POP SWAP3 SWAP2 POP POP JUMP JUMPDEST PUSH1 0x0 PUSH1 0x20 MSTORE DUP1 PUSH1 0x0 MSTORE PUSH1 0x40 PUSH1 0x0 KECCAK256 PUSH1 0x0 SWAP2 POP SWAP1 POP DUP1 PUSH1 0x0 ADD PUSH1 0x0 SWAP1 SLOAD SWAP1 PUSH2 0x100 EXP SWAP1 DIV PUSH20 0xFFFFFFFFFFFFFFFFFFFFFFFFFFFFFFFFFFFFFFFF AND SWAP1 DUP1 PUSH1 0x1 ADD SLOAD SWAP1 POP DUP3 JUMP JUMPDEST PUSH1 0x60 PUSH1 0x0 PUSH1 0x1 DUP1 SLOAD SWAP1 POP PUSH8 0xFFFFFFFFFFFFFFFF DUP2 GT ISZERO PUSH2 0x54E JUMPI PUSH2 0x54D PUSH2 0xF7C JUMP JUMPDEST JUMPDEST PUSH1 0x40 MLOAD SWAP1 DUP1 DUP3 MSTORE DUP1 PUSH1 0x20 MUL PUSH1 0x20 ADD DUP3 ADD PUSH1 0x40 MSTORE DUP1 ISZERO PUSH2 0x587 JUMPI DUP2 PUSH1 0x20 ADD JUMPDEST PUSH2 0x574 PUSH2 0xE82 JUMP JUMPDEST DUP2 MSTORE PUSH1 0x20 ADD SWAP1 PUSH1 0x1 SWAP1 SUB SWAP1 DUP2 PUSH2 0x56C JUMPI SWAP1 POP JUMPDEST POP SWAP1 POP PUSH1 0x0 JUMPDEST PUSH1 0x1 DUP1 SLOAD SWAP1 POP DUP2 LT ISZERO PUSH2 0x6AC JUMPI PUSH1 0x0 DUP1 PUSH1 0x1 DUP4 DUP2 SLOAD DUP2 LT PUSH2 0x5B1 JUMPI PUSH2 0x5B0 PUSH2 0x1981 JUMP JUMPDEST JUMPDEST SWAP1 PUSH1 0x0 MSTORE PUSH1 0x20 PUSH1 0x0 KECCAK256 ADD PUSH1 0x0 SWAP1 SLOAD SWAP1 PUSH2 0x100 EXP SWAP1 DIV PUSH20 0xFFFFFFFFFFFFFFFFFFFFFFFFFFFFFFFFFFFFFFFF AND PUSH20 0xFFFFFFFFFFFFFFFFFFFFFFFFFFFFFFFFFFFFFFFF AND PUSH20 0xFFFFFFFFFFFFFFFFFFFFFFFFFFFFFFFFFFFFFFFF AND DUP2 MSTORE PUSH1 0x20 ADD SWAP1 DUP2 MSTORE PUSH1 0x20 ADD PUSH1 0x0 KECCAK256 PUSH1 0x40 MLOAD DUP1 PUSH1 0x40 ADD PUSH1 0x40 MSTORE SWAP1 DUP2 PUSH1 0x0 DUP3 ADD PUSH1 0x0 SWAP1 SLOAD SWAP1 PUSH2 0x100 EXP SWAP1 DIV PUSH20 0xFFFFFFFFFFFFFFFFFFFFFFFFFFFFFFFFFFFFFFFF AND PUSH20 0xFFFFFFFFFFFFFFFFFFFFFFFFFFFFFFFFFFFFFFFF AND PUSH20 0xFFFFFFFFFFFFFFFFFFFFFFFFFFFFFFFFFFFFFFFF AND DUP2 MSTORE PUSH1 0x20 ADD PUSH1 0x1 DUP3 ADD SLOAD DUP2 MSTORE POP POP DUP3 DUP3 DUP2 MLOAD DUP2 LT PUSH2 0x694 JUMPI PUSH2 0x693 PUSH2 0x1981 JUMP JUMPDEST JUMPDEST PUSH1 0x20 MUL PUSH1 0x20 ADD ADD DUP2 SWAP1 MSTORE POP DUP1 DUP1 PUSH1 0x1 ADD SWAP2 POP POP PUSH2 0x58D JUMP JUMPDEST POP DUP1 SWAP2 POP POP SWAP1 JUMP JUMPDEST PUSH1 0x0 PUSH2 0x6BF DUP4 PUSH2 0x306 JUMP JUMPDEST SWAP1 POP PUSH1 0x0 PUSH2 0x6CD DUP5 DUP4 PUSH2 0x3C2 JUMP JUMPDEST SWAP1 POP PUSH1 0x0 DUP2 MLOAD SWAP1 POP PUSH1 0x0 DUP2 PUSH8 0xFFFFFFFFFFFFFFFF DUP2 GT ISZERO PUSH2 0x6F1 JUMPI PUSH2 0x6F0 PUSH2 0xF7C JUMP JUMPDEST JUMPDEST PUSH1 0x40 MLOAD SWAP1 DUP1 DUP3 MSTORE DUP1 PUSH1 0x20 MUL PUSH1 0x20 ADD DUP3 ADD PUSH1 0x40 MSTORE DUP1 ISZERO PUSH2 0x71F JUMPI DUP2 PUSH1 0x20 ADD PUSH1 0x20 DUP3 MUL DUP1 CALLDATASIZE DUP4 CALLDATACOPY DUP1 DUP3 ADD SWAP2 POP POP SWAP1 POP JUMPDEST POP SWAP1 POP PUSH1 0x0 DUP3 PUSH8 0xFFFFFFFFFFFFFFFF DUP2 GT ISZERO PUSH2 0x73E JUMPI PUSH2 0x73D PUSH2 0xF7C JUMP JUMPDEST JUMPDEST PUSH1 0x40 MLOAD SWAP1 DUP1 DUP3 MSTORE DUP1 PUSH1 0x20 MUL PUSH1 0x20 ADD DUP3 ADD PUSH1 0x40 MSTORE DUP1 ISZERO PUSH2 0x76C JUMPI DUP2 PUSH1 0x20 ADD PUSH1 0x20 DUP3 MUL DUP1 CALLDATASIZE DUP4 CALLDATACOPY DUP1 DUP3 ADD SWAP2 POP POP SWAP1 POP JUMPDEST POP SWAP1 POP PUSH1 0x0 JUMPDEST DUP4 DUP2 LT ISZERO PUSH2 0x901 JUMPI PUSH2 0x79E DUP6 DUP3 DUP2 MLOAD DUP2 LT PUSH2 0x790 JUMPI PUSH2 0x78F PUSH2 0x1981 JUMP JUMPDEST JUMPDEST PUSH1 0x20 MUL PUSH1 0x20 ADD ADD MLOAD DUP9 PUSH2 0x25F JUMP JUMPDEST DUP4 DUP3 DUP2 MLOAD DUP2 LT PUSH2 0x7B1 JUMPI PUSH2 0x7B0 PUSH2 0x1981 JUMP JUMPDEST JUMPDEST PUSH1 0x20 MUL PUSH1 0x20 ADD ADD DUP2 DUP2 MSTORE POP POP PUSH1 0x0 PUSH1 0x1 DUP3 DUP2 SLOAD DUP2 LT PUSH2 0x7D3 JUMPI PUSH2 0x7D2 PUSH2 0x1981 JUMP JUMPDEST JUMPDEST SWAP1 PUSH1 0x0 MSTORE PUSH1 0x20 PUSH1 0x0 KECCAK256 ADD PUSH1 0x0 SWAP1 SLOAD SWAP1 PUSH2 0x100 EXP SWAP1 DIV PUSH20 0xFFFFFFFFFFFFFFFFFFFFFFFFFFFFFFFFFFFFFFFF AND SWAP1 POP PUSH1 0x0 DUP1 PUSH1 0x0 DUP4 PUSH20 0xFFFFFFFFFFFFFFFFFFFFFFFFFFFFFFFFFFFFFFFF AND PUSH20 0xFFFFFFFFFFFFFFFFFFFFFFFFFFFFFFFFFFFFFFFF AND DUP2 MSTORE PUSH1 0x20 ADD SWAP1 DUP2 MSTORE PUSH1 0x20 ADD PUSH1 0x0 KECCAK256 PUSH1 0x1 ADD SLOAD SWAP1 POP PUSH2 0x873 DUP6 DUP5 DUP2 MLOAD DUP2 LT PUSH2 0x85C JUMPI PUSH2 0x85B PUSH2 0x1981 JUMP JUMPDEST JUMPDEST PUSH1 0x20 MUL PUSH1 0x20 ADD ADD MLOAD DUP3 PUSH8 0x16345785D8A0000 PUSH2 0xB4B JUMP JUMPDEST DUP5 DUP5 DUP2 MLOAD DUP2 LT PUSH2 0x886 JUMPI PUSH2 0x885 PUSH2 0x1981 JUMP JUMPDEST JUMPDEST PUSH1 0x20 MUL PUSH1 0x20 ADD ADD DUP2 DUP2 MSTORE POP POP DUP4 DUP4 DUP2 MLOAD DUP2 LT PUSH2 0x8A5 JUMPI PUSH2 0x8A4 PUSH2 0x1981 JUMP JUMPDEST JUMPDEST PUSH1 0x20 MUL PUSH1 0x20 ADD ADD MLOAD PUSH1 0x0 DUP1 DUP5 PUSH20 0xFFFFFFFFFFFFFFFFFFFFFFFFFFFFFFFFFFFFFFFF AND PUSH20 0xFFFFFFFFFFFFFFFFFFFFFFFFFFFFFFFFFFFFFFFF AND DUP2 MSTORE PUSH1 0x20 ADD SWAP1 DUP2 MSTORE PUSH1 0x20 ADD PUSH1 0x0 KECCAK256 PUSH1 0x1 ADD DUP2 SWAP1 SSTORE POP POP POP DUP1 DUP1 PUSH1 0x1 ADD SWAP2 POP POP PUSH2 0x772 JUMP JUMPDEST POP POP POP POP POP POP POP POP JUMP JUMPDEST PUSH1 0x1 DUP2 DUP2 SLOAD DUP2 LT PUSH2 0x91B JUMPI PUSH1 0x0 DUP1 REVERT JUMPDEST SWAP1 PUSH1 0x0 MSTORE PUSH1 0x20 PUSH1 0x0 KECCAK256 ADD PUSH1 0x0 SWAP2 POP SLOAD SWAP1 PUSH2 0x100 EXP SWAP1 DIV PUSH20 0xFFFFFFFFFFFFFFFFFFFFFFFFFFFFFFFFFFFFFFFF AND DUP2 JUMP JUMPDEST PUSH1 0x0 PUSH20 0xFFFFFFFFFFFFFFFFFFFFFFFFFFFFFFFFFFFFFFFF AND PUSH1 0x0 DUP1 DUP5 PUSH20 0xFFFFFFFFFFFFFFFFFFFFFFFFFFFFFFFFFFFFFFFF AND PUSH20 0xFFFFFFFFFFFFFFFFFFFFFFFFFFFFFFFFFFFFFFFF AND DUP2 MSTORE PUSH1 0x20 ADD SWAP1 DUP2 MSTORE PUSH1 0x20 ADD PUSH1 0x0 KECCAK256 PUSH1 0x0 ADD PUSH1 0x0 SWAP1 SLOAD SWAP1 PUSH2 0x100 EXP SWAP1 DIV PUSH20 0xFFFFFFFFFFFFFFFFFFFFFFFFFFFFFFFFFFFFFFFF AND PUSH20 0xFFFFFFFFFFFFFFFFFFFFFFFFFFFFFFFFFFFFFFFF AND EQ PUSH2 0xA1A JUMPI PUSH1 0x40 MLOAD PUSH32 0x8C379A000000000000000000000000000000000000000000000000000000000 DUP2 MSTORE PUSH1 0x4 ADD PUSH2 0xA11 SWAP1 PUSH2 0x1AFE JUMP JUMPDEST PUSH1 0x40 MLOAD DUP1 SWAP2 SUB SWAP1 REVERT JUMPDEST PUSH1 0x40 MLOAD DUP1 PUSH1 0x40 ADD PUSH1 0x40 MSTORE DUP1 DUP4 PUSH20 0xFFFFFFFFFFFFFFFFFFFFFFFFFFFFFFFFFFFFFFFF AND DUP2 MSTORE PUSH1 0x20 ADD DUP3 DUP2 MSTORE POP PUSH1 0x0 DUP1 DUP5 PUSH20 0xFFFFFFFFFFFFFFFFFFFFFFFFFFFFFFFFFFFFFFFF AND PUSH20 0xFFFFFFFFFFFFFFFFFFFFFFFFFFFFFFFFFFFFFFFF AND DUP2 MSTORE PUSH1 0x20 ADD SWAP1 DUP2 MSTORE PUSH1 0x20 ADD PUSH1 0x0 KECCAK256 PUSH1 0x0 DUP3 ADD MLOAD DUP2 PUSH1 0x0 ADD PUSH1 0x0 PUSH2 0x100 EXP DUP2 SLOAD DUP2 PUSH20 0xFFFFFFFFFFFFFFFFFFFFFFFFFFFFFFFFFFFFFFFF MUL NOT AND SWAP1 DUP4 PUSH20 0xFFFFFFFFFFFFFFFFFFFFFFFFFFFFFFFFFFFFFFFF AND MUL OR SWAP1 SSTORE POP PUSH1 0x20 DUP3 ADD MLOAD DUP2 PUSH1 0x1 ADD SSTORE SWAP1 POP POP PUSH1 0x1 DUP3 SWAP1 DUP1 PUSH1 0x1 DUP2 SLOAD ADD DUP1 DUP3 SSTORE DUP1 SWAP2 POP POP PUSH1 0x1 SWAP1 SUB SWAP1 PUSH1 0x0 MSTORE PUSH1 0x20 PUSH1 0x0 KECCAK256 ADD PUSH1 0x0 SWAP1 SWAP2 SWAP1 SWAP2 SWAP1 SWAP2 PUSH2 0x100 EXP DUP2 SLOAD DUP2 PUSH20 0xFFFFFFFFFFFFFFFFFFFFFFFFFFFFFFFFFFFFFFFF MUL NOT AND SWAP1 DUP4 PUSH20 0xFFFFFFFFFFFFFFFFFFFFFFFFFFFFFFFFFFFFFFFF AND MUL OR SWAP1 SSTORE POP POP POP JUMP JUMPDEST PUSH1 0x0 PUSH1 0x1 DUP1 SLOAD SWAP1 POP SWAP1 POP SWAP1 JUMP JUMPDEST PUSH1 0x0 DUP1 PUSH8 0xDE0B6B3A7640000 DUP5 DUP5 PUSH8 0xDE0B6B3A7640000 PUSH2 0xB6C SWAP2 SWAP1 PUSH2 0x1A5E JUMP JUMPDEST PUSH2 0xB76 SWAP2 SWAP1 PUSH2 0x1B1E JUMP JUMPDEST PUSH2 0xB80 SWAP2 SWAP1 PUSH2 0x19F4 JUMP JUMPDEST PUSH8 0xDE0B6B3A7640000 DUP7 DUP6 PUSH2 0xB95 SWAP2 SWAP1 PUSH2 0x1B1E JUMP JUMPDEST PUSH2 0xB9F SWAP2 SWAP1 PUSH2 0x19F4 JUMP JUMPDEST PUSH2 0xBA9 SWAP2 SWAP1 PUSH2 0x19B0 JUMP JUMPDEST SWAP1 POP DUP1 SWAP2 POP POP SWAP4 SWAP3 POP POP POP JUMP JUMPDEST PUSH1 0x0 JUMPDEST DUP3 MLOAD DUP2 LT ISZERO PUSH2 0xC49 JUMPI DUP2 DUP2 DUP2 MLOAD DUP2 LT PUSH2 0xBD5 JUMPI PUSH2 0xBD4 PUSH2 0x1981 JUMP JUMPDEST JUMPDEST PUSH1 0x20 MUL PUSH1 0x20 ADD ADD MLOAD PUSH1 0x0 DUP1 DUP6 DUP5 DUP2 MLOAD DUP2 LT PUSH2 0xBF3 JUMPI PUSH2 0xBF2 PUSH2 0x1981 JUMP JUMPDEST JUMPDEST PUSH1 0x20 MUL PUSH1 0x20 ADD ADD MLOAD PUSH20 0xFFFFFFFFFFFFFFFFFFFFFFFFFFFFFFFFFFFFFFFF AND PUSH20 0xFFFFFFFFFFFFFFFFFFFFFFFFFFFFFFFFFFFFFFFF AND DUP2 MSTORE PUSH1 0x20 ADD SWAP1 DUP2 MSTORE PUSH1 0x20 ADD PUSH1 0x0 KECCAK256 PUSH1 0x1 ADD DUP2 SWAP1 SSTORE POP DUP1 DUP1 PUSH1 0x1 ADD SWAP2 POP POP PUSH2 0xBB9 JUMP JUMPDEST POP POP POP JUMP JUMPDEST PUSH1 0x0 PUSH2 0xC63 DUP4 PUSH8 0xDE0B6B3A7640000 DUP5 PUSH2 0xD6D JUMP JUMPDEST SWAP1 POP SWAP3 SWAP2 POP POP JUMP JUMPDEST PUSH1 0x0 DUP2 MLOAD SWAP1 POP PUSH1 0x0 JUMPDEST DUP2 DUP2 LT ISZERO PUSH2 0xD68 JUMPI PUSH1 0x0 PUSH1 0x1 DUP3 PUSH2 0xC8B SWAP2 SWAP1 PUSH2 0x1888 JUMP JUMPDEST SWAP1 POP JUMPDEST DUP3 DUP2 LT ISZERO PUSH2 0xD5A JUMPI DUP4 DUP2 DUP2 MLOAD DUP2 LT PUSH2 0xCA9 JUMPI PUSH2 0xCA8 PUSH2 0x1981 JUMP JUMPDEST JUMPDEST PUSH1 0x20 MUL PUSH1 0x20 ADD ADD MLOAD DUP5 DUP4 DUP2 MLOAD DUP2 LT PUSH2 0xCC4 JUMPI PUSH2 0xCC3 PUSH2 0x1981 JUMP JUMPDEST JUMPDEST PUSH1 0x20 MUL PUSH1 0x20 ADD ADD MLOAD SGT ISZERO PUSH2 0xD4D JUMPI PUSH1 0x0 DUP5 DUP4 DUP2 MLOAD DUP2 LT PUSH2 0xCE7 JUMPI PUSH2 0xCE6 PUSH2 0x1981 JUMP JUMPDEST JUMPDEST PUSH1 0x20 MUL PUSH1 0x20 ADD ADD MLOAD SWAP1 POP DUP5 DUP3 DUP2 MLOAD DUP2 LT PUSH2 0xD04 JUMPI PUSH2 0xD03 PUSH2 0x1981 JUMP JUMPDEST JUMPDEST PUSH1 0x20 MUL PUSH1 0x20 ADD ADD MLOAD DUP6 DUP5 DUP2 MLOAD DUP2 LT PUSH2 0xD1F JUMPI PUSH2 0xD1E PUSH2 0x1981 JUMP JUMPDEST JUMPDEST PUSH1 0x20 MUL PUSH1 0x20 ADD ADD DUP2 DUP2 MSTORE POP POP DUP1 DUP6 DUP4 DUP2 MLOAD DUP2 LT PUSH2 0xD3F JUMPI PUSH2 0xD3E PUSH2 0x1981 JUMP JUMPDEST JUMPDEST PUSH1 0x20 MUL PUSH1 0x20 ADD ADD DUP2 DUP2 MSTORE POP POP POP JUMPDEST DUP1 DUP1 PUSH1 0x1 ADD SWAP2 POP POP PUSH2 0xC8E JUMP JUMPDEST POP DUP1 DUP1 PUSH1 0x1 ADD SWAP2 POP POP PUSH2 0xC74 JUMP JUMPDEST POP POP POP JUMP JUMPDEST PUSH1 0x0 DUP1 PUSH1 0x0 DUP1 NOT DUP6 DUP8 MULMOD DUP6 DUP8 MUL SWAP3 POP DUP3 DUP2 LT DUP4 DUP3 SUB SUB SWAP2 POP POP PUSH1 0x0 DUP2 SUB PUSH2 0xDA8 JUMPI DUP4 DUP3 DUP2 PUSH2 0xD9E JUMPI PUSH2 0xD9D PUSH2 0x18F0 JUMP JUMPDEST JUMPDEST DIV SWAP3 POP POP POP PUSH2 0xE7B JUMP JUMPDEST DUP4 DUP2 LT PUSH2 0xDEE JUMPI DUP1 DUP5 PUSH1 0x40 MLOAD PUSH32 0x773CC18C00000000000000000000000000000000000000000000000000000000 DUP2 MSTORE PUSH1 0x4 ADD PUSH2 0xDE5 SWAP3 SWAP2 SWAP1 PUSH2 0x1B96 JUMP JUMPDEST PUSH1 0x40 MLOAD DUP1 SWAP2 SUB SWAP1 REVERT JUMPDEST PUSH1 0x0 DUP5 DUP7 DUP9 MULMOD SWAP1 POP DUP3 DUP2 GT DUP3 SUB SWAP2 POP DUP1 DUP4 SUB SWAP3 POP PUSH1 0x0 PUSH1 0x1 DUP7 NOT ADD DUP7 AND SWAP1 POP DUP1 DUP7 DIV SWAP6 POP DUP1 DUP5 DIV SWAP4 POP PUSH1 0x1 DUP2 DUP3 PUSH1 0x0 SUB DIV ADD SWAP1 POP DUP1 DUP4 MUL DUP5 OR SWAP4 POP PUSH1 0x0 PUSH1 0x2 DUP8 PUSH1 0x3 MUL XOR SWAP1 POP DUP1 DUP8 MUL PUSH1 0x2 SUB DUP2 MUL SWAP1 POP DUP1 DUP8 MUL PUSH1 0x2 SUB DUP2 MUL SWAP1 POP DUP1 DUP8 MUL PUSH1 0x2 SUB DUP2 MUL SWAP1 POP DUP1 DUP8 MUL PUSH1 0x2 SUB DUP2 MUL SWAP1 POP DUP1 DUP8 MUL PUSH1 0x2 SUB DUP2 MUL SWAP1 POP DUP1 DUP8 MUL PUSH1 0x2 SUB DUP2 MUL SWAP1 POP DUP1 DUP6 MUL SWAP6 POP POP POP POP POP POP JUMPDEST SWAP4 SWAP3 POP POP POP JUMP JUMPDEST PUSH1 0x40 MLOAD DUP1 PUSH1 0x40 ADD PUSH1 0x40 MSTORE DUP1 PUSH1 0x0 PUSH20 0xFFFFFFFFFFFFFFFFFFFFFFFFFFFFFFFFFFFFFFFF AND DUP2 MSTORE PUSH1 0x20 ADD PUSH1 0x0 DUP2 MSTORE POP SWAP1 JUMP JUMPDEST PUSH1 0x0 PUSH1 0x40 MLOAD SWAP1 POP SWAP1 JUMP JUMPDEST PUSH1 0x0 DUP1 REVERT JUMPDEST PUSH1 0x0 DUP1 REVERT JUMPDEST PUSH1 0x0 DUP2 SWAP1 POP SWAP2 SWAP1 POP JUMP JUMPDEST PUSH2 0xED9 DUP2 PUSH2 0xEC6 JUMP JUMPDEST DUP2 EQ PUSH2 0xEE4 JUMPI PUSH1 0x0 DUP1 REVERT JUMPDEST POP JUMP JUMPDEST PUSH1 0x0 DUP2 CALLDATALOAD SWAP1 POP PUSH2 0xEF6 DUP2 PUSH2 0xED0 JUMP JUMPDEST SWAP3 SWAP2 POP POP JUMP JUMPDEST PUSH1 0x0 DUP1 PUSH1 0x40 DUP4 DUP6 SUB SLT ISZERO PUSH2 0xF13 JUMPI PUSH2 0xF12 PUSH2 0xEBC JUMP JUMPDEST JUMPDEST PUSH1 0x0 PUSH2 0xF21 DUP6 DUP3 DUP7 ADD PUSH2 0xEE7 JUMP JUMPDEST SWAP3 POP POP PUSH1 0x20 PUSH2 0xF32 DUP6 DUP3 DUP7 ADD PUSH2 0xEE7 JUMP JUMPDEST SWAP2 POP POP SWAP3 POP SWAP3 SWAP1 POP JUMP JUMPDEST PUSH2 0xF45 DUP2 PUSH2 0xEC6 JUMP JUMPDEST DUP3 MSTORE POP POP JUMP JUMPDEST PUSH1 0x0 PUSH1 0x20 DUP3 ADD SWAP1 POP PUSH2 0xF60 PUSH1 0x0 DUP4 ADD DUP5 PUSH2 0xF3C JUMP JUMPDEST SWAP3 SWAP2 POP POP JUMP JUMPDEST PUSH1 0x0 DUP1 REVERT JUMPDEST PUSH1 0x0 PUSH1 0x1F NOT PUSH1 0x1F DUP4 ADD AND SWAP1 POP SWAP2 SWAP1 POP JUMP JUMPDEST PUSH32 0x4E487B7100000000000000000000000000000000000000000000000000000000 PUSH1 0x0 MSTORE PUSH1 0x41 PUSH1 0x4 MSTORE PUSH1 0x24 PUSH1 0x0 REVERT JUMPDEST PUSH2 0xFB4 DUP3 PUSH2 0xF6B JUMP JUMPDEST DUP2 ADD DUP2 DUP2 LT PUSH8 0xFFFFFFFFFFFFFFFF DUP3 GT OR ISZERO PUSH2 0xFD3 JUMPI PUSH2 0xFD2 PUSH2 0xF7C JUMP JUMPDEST JUMPDEST DUP1 PUSH1 0x40 MSTORE POP POP POP JUMP JUMPDEST PUSH1 0x0 PUSH2 0xFE6 PUSH2 0xEB2 JUMP JUMPDEST SWAP1 POP PUSH2 0xFF2 DUP3 DUP3 PUSH2 0xFAB JUMP JUMPDEST SWAP2 SWAP1 POP JUMP JUMPDEST PUSH1 0x0 PUSH8 0xFFFFFFFFFFFFFFFF DUP3 GT ISZERO PUSH2 0x1012 JUMPI PUSH2 0x1011 PUSH2 0xF7C JUMP JUMPDEST JUMPDEST PUSH1 0x20 DUP3 MUL SWAP1 POP PUSH1 0x20 DUP2 ADD SWAP1 POP SWAP2 SWAP1 POP JUMP JUMPDEST PUSH1 0x0 DUP1 REVERT JUMPDEST PUSH1 0x0 PUSH2 0x103B PUSH2 0x1036 DUP5 PUSH2 0xFF7 JUMP JUMPDEST PUSH2 0xFDC JUMP JUMPDEST SWAP1 POP DUP1 DUP4 DUP3 MSTORE PUSH1 0x20 DUP3 ADD SWAP1 POP PUSH1 0x20 DUP5 MUL DUP4 ADD DUP6 DUP2 GT ISZERO PUSH2 0x105E JUMPI PUSH2 0x105D PUSH2 0x1023 JUMP JUMPDEST JUMPDEST DUP4 JUMPDEST DUP2 DUP2 LT ISZERO PUSH2 0x1087 JUMPI DUP1 PUSH2 0x1073 DUP9 DUP3 PUSH2 0xEE7 JUMP JUMPDEST DUP5 MSTORE PUSH1 0x20 DUP5 ADD SWAP4 POP POP PUSH1 0x20 DUP2 ADD SWAP1 POP PUSH2 0x1060 JUMP JUMPDEST POP POP POP SWAP4 SWAP3 POP POP POP JUMP JUMPDEST PUSH1 0x0 DUP3 PUSH1 0x1F DUP4 ADD SLT PUSH2 0x10A6 JUMPI PUSH2 0x10A5 PUSH2 0xF66 JUMP JUMPDEST JUMPDEST DUP2 CALLDATALOAD PUSH2 0x10B6 DUP5 DUP3 PUSH1 0x20 DUP7 ADD PUSH2 0x1028 JUMP JUMPDEST SWAP2 POP POP SWAP3 SWAP2 POP POP JUMP JUMPDEST PUSH1 0x0 PUSH1 0x20 DUP3 DUP5 SUB SLT ISZERO PUSH2 0x10D5 JUMPI PUSH2 0x10D4 PUSH2 0xEBC JUMP JUMPDEST JUMPDEST PUSH1 0x0 DUP3 ADD CALLDATALOAD PUSH8 0xFFFFFFFFFFFFFFFF DUP2 GT ISZERO PUSH2 0x10F3 JUMPI PUSH2 0x10F2 PUSH2 0xEC1 JUMP JUMPDEST JUMPDEST PUSH2 0x10FF DUP5 DUP3 DUP6 ADD PUSH2 0x1091 JUMP JUMPDEST SWAP2 POP POP SWAP3 SWAP2 POP POP JUMP JUMPDEST PUSH1 0x0 DUP1 PUSH1 0x40 DUP4 DUP6 SUB SLT ISZERO PUSH2 0x111F JUMPI PUSH2 0x111E PUSH2 0xEBC JUMP JUMPDEST JUMPDEST PUSH1 0x0 DUP4 ADD CALLDATALOAD PUSH8 0xFFFFFFFFFFFFFFFF DUP2 GT ISZERO PUSH2 0x113D JUMPI PUSH2 0x113C PUSH2 0xEC1 JUMP JUMPDEST JUMPDEST PUSH2 0x1149 DUP6 DUP3 DUP7 ADD PUSH2 0x1091 JUMP JUMPDEST SWAP3 POP POP PUSH1 0x20 PUSH2 0x115A DUP6 DUP3 DUP7 ADD PUSH2 0xEE7 JUMP JUMPDEST SWAP2 POP POP SWAP3 POP SWAP3 SWAP1 POP JUMP JUMPDEST PUSH1 0x0 DUP2 MLOAD SWAP1 POP SWAP2 SWAP1 POP JUMP JUMPDEST PUSH1 0x0 DUP3 DUP3 MSTORE PUSH1 0x20 DUP3 ADD SWAP1 POP SWAP3 SWAP2 POP POP JUMP JUMPDEST PUSH1 0x0 DUP2 SWAP1 POP PUSH1 0x20 DUP3 ADD SWAP1 POP SWAP2 SWAP1 POP JUMP JUMPDEST PUSH2 0x1199 DUP2 PUSH2 0xEC6 JUMP JUMPDEST DUP3 MSTORE POP POP JUMP JUMPDEST PUSH1 0x0 PUSH2 0x11AB DUP4 DUP4 PUSH2 0x1190 JUMP JUMPDEST PUSH1 0x20 DUP4 ADD SWAP1 POP SWAP3 SWAP2 POP POP JUMP JUMPDEST PUSH1 0x0 PUSH1 0x20 DUP3 ADD SWAP1 POP SWAP2 SWAP1 POP JUMP JUMPDEST PUSH1 0x0 PUSH2 0x11CF DUP3 PUSH2 0x1164 JUMP JUMPDEST PUSH2 0x11D9 DUP2 DUP6 PUSH2 0x116F JUMP JUMPDEST SWAP4 POP PUSH2 0x11E4 DUP4 PUSH2 0x1180 JUMP JUMPDEST DUP1 PUSH1 0x0 JUMPDEST DUP4 DUP2 LT ISZERO PUSH2 0x1215 JUMPI DUP2 MLOAD PUSH2 0x11FC DUP9 DUP3 PUSH2 0x119F JUMP JUMPDEST SWAP8 POP PUSH2 0x1207 DUP4 PUSH2 0x11B7 JUMP JUMPDEST SWAP3 POP POP PUSH1 0x1 DUP2 ADD SWAP1 POP PUSH2 0x11E8 JUMP JUMPDEST POP DUP6 SWAP4 POP POP POP POP SWAP3 SWAP2 POP POP JUMP JUMPDEST PUSH1 0x0 PUSH1 0x20 DUP3 ADD SWAP1 POP DUP2 DUP2 SUB PUSH1 0x0 DUP4 ADD MSTORE PUSH2 0x123C DUP2 DUP5 PUSH2 0x11C4 JUMP JUMPDEST SWAP1 POP SWAP3 SWAP2 POP POP JUMP JUMPDEST PUSH1 0x0 PUSH20 0xFFFFFFFFFFFFFFFFFFFFFFFFFFFFFFFFFFFFFFFF DUP3 AND SWAP1 POP SWAP2 SWAP1 POP JUMP JUMPDEST PUSH1 0x0 PUSH2 0x126F DUP3 PUSH2 0x1244 JUMP JUMPDEST SWAP1 POP SWAP2 SWAP1 POP JUMP JUMPDEST PUSH2 0x127F DUP2 PUSH2 0x1264 JUMP JUMPDEST DUP2 EQ PUSH2 0x128A JUMPI PUSH1 0x0 DUP1 REVERT JUMPDEST POP JUMP JUMPDEST PUSH1 0x0 DUP2 CALLDATALOAD SWAP1 POP PUSH2 0x129C DUP2 PUSH2 0x1276 JUMP JUMPDEST SWAP3 SWAP2 POP POP JUMP JUMPDEST PUSH1 0x0 PUSH1 0x20 DUP3 DUP5 SUB SLT ISZERO PUSH2 0x12B8 JUMPI PUSH2 0x12B7 PUSH2 0xEBC JUMP JUMPDEST JUMPDEST PUSH1 0x0 PUSH2 0x12C6 DUP5 DUP3 DUP6 ADD PUSH2 0x128D JUMP JUMPDEST SWAP2 POP POP SWAP3 SWAP2 POP POP JUMP JUMPDEST PUSH2 0x12D8 DUP2 PUSH2 0x1264 JUMP JUMPDEST DUP3 MSTORE POP POP JUMP JUMPDEST PUSH1 0x0 PUSH1 0x40 DUP3 ADD SWAP1 POP PUSH2 0x12F3 PUSH1 0x0 DUP4 ADD DUP6 PUSH2 0x12CF JUMP JUMPDEST PUSH2 0x1300 PUSH1 0x20 DUP4 ADD DUP5 PUSH2 0xF3C JUMP JUMPDEST SWAP4 SWAP3 POP POP POP JUMP JUMPDEST PUSH1 0x0 DUP2 MLOAD SWAP1 POP SWAP2 SWAP1 POP JUMP JUMPDEST PUSH1 0x0 DUP3 DUP3 MSTORE PUSH1 0x20 DUP3 ADD SWAP1 POP SWAP3 SWAP2 POP POP JUMP JUMPDEST PUSH1 0x0 DUP2 SWAP1 POP PUSH1 0x20 DUP3 ADD SWAP1 POP SWAP2 SWAP1 POP JUMP JUMPDEST PUSH2 0x133C DUP2 PUSH2 0x1264 JUMP JUMPDEST DUP3 MSTORE POP POP JUMP JUMPDEST PUSH1 0x40 DUP3 ADD PUSH1 0x0 DUP3 ADD MLOAD PUSH2 0x1358 PUSH1 0x0 DUP6 ADD DUP3 PUSH2 0x1333 JUMP JUMPDEST POP PUSH1 0x20 DUP3 ADD MLOAD PUSH2 0x136B PUSH1 0x20 DUP6 ADD DUP3 PUSH2 0x1190 JUMP JUMPDEST POP POP POP POP JUMP JUMPDEST PUSH1 0x0 PUSH2 0x137D DUP4 DUP4 PUSH2 0x1342 JUMP JUMPDEST PUSH1 0x40 DUP4 ADD SWAP1 POP SWAP3 SWAP2 POP POP JUMP JUMPDEST PUSH1 0x0 PUSH1 0x20 DUP3 ADD SWAP1 POP SWAP2 SWAP1 POP JUMP JUMPDEST PUSH1 0x0 PUSH2 0x13A1 DUP3 PUSH2 0x1307 JUMP JUMPDEST PUSH2 0x13AB DUP2 DUP6 PUSH2 0x1312 JUMP JUMPDEST SWAP4 POP PUSH2 0x13B6 DUP4 PUSH2 0x1323 JUMP JUMPDEST DUP1 PUSH1 0x0 JUMPDEST DUP4 DUP2 LT ISZERO PUSH2 0x13E7 JUMPI DUP2 MLOAD PUSH2 0x13CE DUP9 DUP3 PUSH2 0x1371 JUMP JUMPDEST SWAP8 POP PUSH2 0x13D9 DUP4 PUSH2 0x1389 JUMP JUMPDEST SWAP3 POP POP PUSH1 0x1 DUP2 ADD SWAP1 POP PUSH2 0x13BA JUMP JUMPDEST POP DUP6 SWAP4 POP POP POP POP SWAP3 SWAP2 POP POP JUMP JUMPDEST PUSH1 0x0 PUSH1 0x20 DUP3 ADD SWAP1 POP DUP2 DUP2 SUB PUSH1 0x0 DUP4 ADD MSTORE PUSH2 0x140E DUP2 DUP5 PUSH2 0x1396 JUMP JUMPDEST SWAP1 POP SWAP3 SWAP2 POP POP JUMP JUMPDEST PUSH1 0x0 DUP2 SWAP1 POP SWAP2 SWAP1 POP JUMP JUMPDEST PUSH2 0x1429 DUP2 PUSH2 0x1416 JUMP JUMPDEST DUP2 EQ PUSH2 0x1434 JUMPI PUSH1 0x0 DUP1 REVERT JUMPDEST POP JUMP JUMPDEST PUSH1 0x0 DUP2 CALLDATALOAD SWAP1 POP PUSH2 0x1446 DUP2 PUSH2 0x1420 JUMP JUMPDEST SWAP3 SWAP2 POP POP JUMP JUMPDEST PUSH1 0x0 PUSH1 0x20 DUP3 DUP5 SUB SLT ISZERO PUSH2 0x1462 JUMPI PUSH2 0x1461 PUSH2 0xEBC JUMP JUMPDEST JUMPDEST PUSH1 0x0 PUSH2 0x1470 DUP5 DUP3 DUP6 ADD PUSH2 0x1437 JUMP JUMPDEST SWAP2 POP POP SWAP3 SWAP2 POP POP JUMP JUMPDEST PUSH1 0x0 PUSH1 0x20 DUP3 ADD SWAP1 POP PUSH2 0x148E PUSH1 0x0 DUP4 ADD DUP5 PUSH2 0x12CF JUMP JUMPDEST SWAP3 SWAP2 POP POP JUMP JUMPDEST PUSH1 0x0 DUP1 PUSH1 0x40 DUP4 DUP6 SUB SLT ISZERO PUSH2 0x14AB JUMPI PUSH2 0x14AA PUSH2 0xEBC JUMP JUMPDEST JUMPDEST PUSH1 0x0 PUSH2 0x14B9 DUP6 DUP3 DUP7 ADD PUSH2 0x128D JUMP JUMPDEST SWAP3 POP POP PUSH1 0x20 PUSH2 0x14CA DUP6 DUP3 DUP7 ADD PUSH2 0xEE7 JUMP JUMPDEST SWAP2 POP POP SWAP3 POP SWAP3 SWAP1 POP JUMP JUMPDEST PUSH2 0x14DD DUP2 PUSH2 0x1416 JUMP JUMPDEST DUP3 MSTORE POP POP JUMP JUMPDEST PUSH1 0x0 PUSH1 0x20 DUP3 ADD SWAP1 POP PUSH2 0x14F8 PUSH1 0x0 DUP4 ADD DUP5 PUSH2 0x14D4 JUMP JUMPDEST SWAP3 SWAP2 POP POP JUMP JUMPDEST PUSH1 0x0 DUP1 PUSH1 0x0 PUSH1 0x60 DUP5 DUP7 SUB SLT ISZERO PUSH2 0x1517 JUMPI PUSH2 0x1516 PUSH2 0xEBC JUMP JUMPDEST JUMPDEST PUSH1 0x0 PUSH2 0x1525 DUP7 DUP3 DUP8 ADD PUSH2 0xEE7 JUMP JUMPDEST SWAP4 POP POP PUSH1 0x20 PUSH2 0x1536 DUP7 DUP3 DUP8 ADD PUSH2 0xEE7 JUMP JUMPDEST SWAP3 POP POP PUSH1 0x40 PUSH2 0x1547 DUP7 DUP3 DUP8 ADD PUSH2 0xEE7 JUMP JUMPDEST SWAP2 POP POP SWAP3 POP SWAP3 POP SWAP3 JUMP JUMPDEST PUSH1 0x0 PUSH8 0xFFFFFFFFFFFFFFFF DUP3 GT ISZERO PUSH2 0x156C JUMPI PUSH2 0x156B PUSH2 0xF7C JUMP JUMPDEST JUMPDEST PUSH1 0x20 DUP3 MUL SWAP1 POP PUSH1 0x20 DUP2 ADD SWAP1 POP SWAP2 SWAP1 POP JUMP JUMPDEST PUSH1 0x0 PUSH2 0x1590 PUSH2 0x158B DUP5 PUSH2 0x1551 JUMP JUMPDEST PUSH2 0xFDC JUMP JUMPDEST SWAP1 POP DUP1 DUP4 DUP3 MSTORE PUSH1 0x20 DUP3 ADD SWAP1 POP PUSH1 0x20 DUP5 MUL DUP4 ADD DUP6 DUP2 GT ISZERO PUSH2 0x15B3 JUMPI PUSH2 0x15B2 PUSH2 0x1023 JUMP JUMPDEST JUMPDEST DUP4 JUMPDEST DUP2 DUP2 LT ISZERO PUSH2 0x15DC JUMPI DUP1 PUSH2 0x15C8 DUP9 DUP3 PUSH2 0x128D JUMP JUMPDEST DUP5 MSTORE PUSH1 0x20 DUP5 ADD SWAP4 POP POP PUSH1 0x20 DUP2 ADD SWAP1 POP PUSH2 0x15B5 JUMP JUMPDEST POP POP POP SWAP4 SWAP3 POP POP POP JUMP JUMPDEST PUSH1 0x0 DUP3 PUSH1 0x1F DUP4 ADD SLT PUSH2 0x15FB JUMPI PUSH2 0x15FA PUSH2 0xF66 JUMP JUMPDEST JUMPDEST DUP2 CALLDATALOAD PUSH2 0x160B DUP5 DUP3 PUSH1 0x20 DUP7 ADD PUSH2 0x157D JUMP JUMPDEST SWAP2 POP POP SWAP3 SWAP2 POP POP JUMP JUMPDEST PUSH1 0x0 DUP1 PUSH1 0x40 DUP4 DUP6 SUB SLT ISZERO PUSH2 0x162B JUMPI PUSH2 0x162A PUSH2 0xEBC JUMP JUMPDEST JUMPDEST PUSH1 0x0 DUP4 ADD CALLDATALOAD PUSH8 0xFFFFFFFFFFFFFFFF DUP2 GT ISZERO PUSH2 0x1649 JUMPI PUSH2 0x1648 PUSH2 0xEC1 JUMP JUMPDEST JUMPDEST PUSH2 0x1655 DUP6 DUP3 DUP7 ADD PUSH2 0x15E6 JUMP JUMPDEST SWAP3 POP POP PUSH1 0x20 DUP4 ADD CALLDATALOAD PUSH8 0xFFFFFFFFFFFFFFFF DUP2 GT ISZERO PUSH2 0x1676 JUMPI PUSH2 0x1675 PUSH2 0xEC1 JUMP JUMPDEST JUMPDEST PUSH2 0x1682 DUP6 DUP3 DUP7 ADD PUSH2 0x1091 JUMP JUMPDEST SWAP2 POP POP SWAP3 POP SWAP3 SWAP1 POP JUMP JUMPDEST PUSH32 0x4E487B7100000000000000000000000000000000000000000000000000000000 PUSH1 0x0 MSTORE PUSH1 0x11 PUSH1 0x4 MSTORE PUSH1 0x24 PUSH1 0x0 REVERT JUMPDEST PUSH1 0x0 DUP2 PUSH1 0x1 SHR SWAP1 POP SWAP2 SWAP1 POP JUMP JUMPDEST PUSH1 0x0 DUP1 DUP3 SWAP2 POP DUP4 SWAP1 POP JUMPDEST PUSH1 0x1 DUP6 GT ISZERO PUSH2 0x1712 JUMPI DUP1 DUP7 DIV DUP2 GT ISZERO PUSH2 0x16EE JUMPI PUSH2 0x16ED PUSH2 0x168C JUMP JUMPDEST JUMPDEST PUSH1 0x1 DUP6 AND ISZERO PUSH2 0x16FD JUMPI DUP1 DUP3 MUL SWAP2 POP JUMPDEST DUP1 DUP2 MUL SWAP1 POP PUSH2 0x170B DUP6 PUSH2 0x16BB JUMP JUMPDEST SWAP5 POP PUSH2 0x16D2 JUMP JUMPDEST SWAP5 POP SWAP5 SWAP3 POP POP POP JUMP JUMPDEST PUSH1 0x0 DUP3 PUSH2 0x172B JUMPI PUSH1 0x1 SWAP1 POP PUSH2 0x17E7 JUMP JUMPDEST DUP2 PUSH2 0x1739 JUMPI PUSH1 0x0 SWAP1 POP PUSH2 0x17E7 JUMP JUMPDEST DUP2 PUSH1 0x1 DUP2 EQ PUSH2 0x174F JUMPI PUSH1 0x2 DUP2 EQ PUSH2 0x1759 JUMPI PUSH2 0x1788 JUMP JUMPDEST PUSH1 0x1 SWAP2 POP POP PUSH2 0x17E7 JUMP JUMPDEST PUSH1 0xFF DUP5 GT ISZERO PUSH2 0x176B JUMPI PUSH2 0x176A PUSH2 0x168C JUMP JUMPDEST JUMPDEST DUP4 PUSH1 0x2 EXP SWAP2 POP DUP5 DUP3 GT ISZERO PUSH2 0x1782 JUMPI PUSH2 0x1781 PUSH2 0x168C JUMP JUMPDEST JUMPDEST POP PUSH2 0x17E7 JUMP JUMPDEST POP PUSH1 0x20 DUP4 LT PUSH2 0x133 DUP4 LT AND PUSH1 0x4E DUP5 LT PUSH1 0xB DUP5 LT AND OR ISZERO PUSH2 0x17BD JUMPI DUP3 DUP3 EXP SWAP1 POP DUP4 DUP2 GT ISZERO PUSH2 0x17B8 JUMPI PUSH2 0x17B7 PUSH2 0x168C JUMP JUMPDEST JUMPDEST PUSH2 0x17E7 JUMP JUMPDEST PUSH2 0x17CA DUP5 DUP5 DUP5 PUSH1 0x1 PUSH2 0x16C8 JUMP JUMPDEST SWAP3 POP SWAP1 POP DUP2 DUP5 DIV DUP2 GT ISZERO PUSH2 0x17E1 JUMPI PUSH2 0x17E0 PUSH2 0x168C JUMP JUMPDEST JUMPDEST DUP2 DUP2 MUL SWAP1 POP JUMPDEST SWAP4 SWAP3 POP POP POP JUMP JUMPDEST PUSH1 0x0 PUSH1 0xFF DUP3 AND SWAP1 POP SWAP2 SWAP1 POP JUMP JUMPDEST PUSH1 0x0 PUSH2 0x1806 DUP3 PUSH2 0x1416 JUMP JUMPDEST SWAP2 POP PUSH2 0x1811 DUP4 PUSH2 0x17EE JUMP JUMPDEST SWAP3 POP PUSH2 0x183E PUSH32 0xFFFFFFFFFFFFFFFFFFFFFFFFFFFFFFFFFFFFFFFFFFFFFFFFFFFFFFFFFFFFFFFF DUP5 DUP5 PUSH2 0x171B JUMP JUMPDEST SWAP1 POP SWAP3 SWAP2 POP POP JUMP JUMPDEST PUSH1 0x0 PUSH2 0x1851 DUP3 PUSH2 0x1416 JUMP JUMPDEST SWAP2 POP PUSH2 0x185C DUP4 PUSH2 0x1416 JUMP JUMPDEST SWAP3 POP DUP3 DUP3 MUL PUSH2 0x186A DUP2 PUSH2 0x1416 JUMP JUMPDEST SWAP2 POP DUP3 DUP3 DIV DUP5 EQ DUP4 ISZERO OR PUSH2 0x1881 JUMPI PUSH2 0x1880 PUSH2 0x168C JUMP JUMPDEST JUMPDEST POP SWAP3 SWAP2 POP POP JUMP JUMPDEST PUSH1 0x0 PUSH2 0x1893 DUP3 PUSH2 0x1416 JUMP JUMPDEST SWAP2 POP PUSH2 0x189E DUP4 PUSH2 0x1416 JUMP JUMPDEST SWAP3 POP DUP3 DUP3 ADD SWAP1 POP DUP1 DUP3 GT ISZERO PUSH2 0x18B6 JUMPI PUSH2 0x18B5 PUSH2 0x168C JUMP JUMPDEST JUMPDEST SWAP3 SWAP2 POP POP JUMP JUMPDEST PUSH1 0x0 PUSH2 0x18C7 DUP3 PUSH2 0x1416 JUMP JUMPDEST SWAP2 POP PUSH2 0x18D2 DUP4 PUSH2 0x1416 JUMP JUMPDEST SWAP3 POP DUP3 DUP3 SUB SWAP1 POP DUP2 DUP2 GT ISZERO PUSH2 0x18EA JUMPI PUSH2 0x18E9 PUSH2 0x168C JUMP JUMPDEST JUMPDEST SWAP3 SWAP2 POP POP JUMP JUMPDEST PUSH32 0x4E487B7100000000000000000000000000000000000000000000000000000000 PUSH1 0x0 MSTORE PUSH1 0x12 PUSH1 0x4 MSTORE PUSH1 0x24 PUSH1 0x0 REVERT JUMPDEST PUSH1 0x0 PUSH2 0x192A DUP3 PUSH2 0x1416 JUMP JUMPDEST SWAP2 POP PUSH2 0x1935 DUP4 PUSH2 0x1416 JUMP JUMPDEST SWAP3 POP DUP3 PUSH2 0x1945 JUMPI PUSH2 0x1944 PUSH2 0x18F0 JUMP JUMPDEST JUMPDEST DUP3 DUP3 DIV SWAP1 POP SWAP3 SWAP2 POP POP JUMP JUMPDEST PUSH1 0x0 PUSH2 0x195B DUP3 PUSH2 0x1416 JUMP JUMPDEST SWAP2 POP PUSH2 0x1966 DUP4 PUSH2 0x1416 JUMP JUMPDEST SWAP3 POP DUP3 PUSH2 0x1976 JUMPI PUSH2 0x1975 PUSH2 0x18F0 JUMP JUMPDEST JUMPDEST DUP3 DUP3 MOD SWAP1 POP SWAP3 SWAP2 POP POP JUMP JUMPDEST PUSH32 0x4E487B7100000000000000000000000000000000000000000000000000000000 PUSH1 0x0 MSTORE PUSH1 0x32 PUSH1 0x4 MSTORE PUSH1 0x24 PUSH1 0x0 REVERT JUMPDEST PUSH1 0x0 PUSH2 0x19BB DUP3 PUSH2 0xEC6 JUMP JUMPDEST SWAP2 POP PUSH2 0x19C6 DUP4 PUSH2 0xEC6 JUMP JUMPDEST SWAP3 POP DUP3 DUP3 ADD SWAP1 POP DUP3 DUP2 SLT ISZERO PUSH1 0x0 DUP4 SLT AND DUP4 DUP3 SLT PUSH1 0x0 DUP5 SLT ISZERO AND OR ISZERO PUSH2 0x19EE JUMPI PUSH2 0x19ED PUSH2 0x168C JUMP JUMPDEST JUMPDEST SWAP3 SWAP2 POP POP JUMP JUMPDEST PUSH1 0x0 PUSH2 0x19FF DUP3 PUSH2 0xEC6 JUMP JUMPDEST SWAP2 POP PUSH2 0x1A0A DUP4 PUSH2 0xEC6 JUMP JUMPDEST SWAP3 POP DUP3 PUSH2 0x1A1A JUMPI PUSH2 0x1A19 PUSH2 0x18F0 JUMP JUMPDEST JUMPDEST PUSH1 0x1 PUSH1 0x0 SUB DUP4 EQ PUSH32 0x8000000000000000000000000000000000000000000000000000000000000000 DUP4 EQ AND ISZERO PUSH2 0x1A53 JUMPI PUSH2 0x1A52 PUSH2 0x168C JUMP JUMPDEST JUMPDEST DUP3 DUP3 SDIV SWAP1 POP SWAP3 SWAP2 POP POP JUMP JUMPDEST PUSH1 0x0 PUSH2 0x1A69 DUP3 PUSH2 0xEC6 JUMP JUMPDEST SWAP2 POP PUSH2 0x1A74 DUP4 PUSH2 0xEC6 JUMP JUMPDEST SWAP3 POP DUP3 DUP3 SUB SWAP1 POP DUP2 DUP2 SLT PUSH1 0x0 DUP5 SLT AND DUP3 DUP3 SGT PUSH1 0x0 DUP6 SLT ISZERO AND OR ISZERO PUSH2 0x1A9B JUMPI PUSH2 0x1A9A PUSH2 0x168C JUMP JUMPDEST JUMPDEST SWAP3 SWAP2 POP POP JUMP JUMPDEST PUSH1 0x0 DUP3 DUP3 MSTORE PUSH1 0x20 DUP3 ADD SWAP1 POP SWAP3 SWAP2 POP POP JUMP JUMPDEST PUSH32 0x50726F647563657220616C726561647920726567697374657265640000000000 PUSH1 0x0 DUP3 ADD MSTORE POP JUMP JUMPDEST PUSH1 0x0 PUSH2 0x1AE8 PUSH1 0x1B DUP4 PUSH2 0x1AA1 JUMP JUMPDEST SWAP2 POP PUSH2 0x1AF3 DUP3 PUSH2 0x1AB2 JUMP JUMPDEST PUSH1 0x20 DUP3 ADD SWAP1 POP SWAP2 SWAP1 POP JUMP JUMPDEST PUSH1 0x0 PUSH1 0x20 DUP3 ADD SWAP1 POP DUP2 DUP2 SUB PUSH1 0x0 DUP4 ADD MSTORE PUSH2 0x1B17 DUP2 PUSH2 0x1ADB JUMP JUMPDEST SWAP1 POP SWAP2 SWAP1 POP JUMP JUMPDEST PUSH1 0x0 PUSH2 0x1B29 DUP3 PUSH2 0xEC6 JUMP JUMPDEST SWAP2 POP PUSH2 0x1B34 DUP4 PUSH2 0xEC6 JUMP JUMPDEST SWAP3 POP DUP3 DUP3 MUL PUSH2 0x1B42 DUP2 PUSH2 0xEC6 JUMP JUMPDEST SWAP2 POP PUSH32 0x8000000000000000000000000000000000000000000000000000000000000000 DUP5 EQ PUSH1 0x0 DUP5 SLT AND ISZERO PUSH2 0x1B7A JUMPI PUSH2 0x1B79 PUSH2 0x168C JUMP JUMPDEST JUMPDEST DUP3 DUP3 SDIV DUP5 EQ DUP4 ISZERO OR PUSH2 0x1B8F JUMPI PUSH2 0x1B8E PUSH2 0x168C JUMP JUMPDEST JUMPDEST POP SWAP3 SWAP2 POP POP JUMP JUMPDEST PUSH1 0x0 PUSH1 0x40 DUP3 ADD SWAP1 POP PUSH2 0x1BAB PUSH1 0x0 DUP4 ADD DUP6 PUSH2 0x14D4 JUMP JUMPDEST PUSH2 0x1BB8 PUSH1 0x20 DUP4 ADD DUP5 PUSH2 0x14D4 JUMP JUMPDEST SWAP4 SWAP3 POP POP POP JUMP INVALID LOG2 PUSH5 0x6970667358 0x22 SLT KECCAK256 PUSH12 0x44C3109A14BF91F9A3087953 DUP1 0x2B PUSH28 0xFAE9583B4FCE9BC21B97FEFBF904D40D64736F6C6343000818003300 "},"methodIdentifiers":{"UpdateReputations(address[],int256[])":"d5f74d2b","constraintFunction(int256,int256)":"052f4216","finalReputation(int256,int256,int256)":"bd075b78","getAllProducers()":"2c06779d","getProducerCount()":"b08a6498","mediana(int256[])":"0c55a273","producerAddresses(uint256)":"7a3a11a5","producers(address)":"26324eff","registerProducer(address,int256)":"ae53a6a3","score(int256[],int256)":"217f72b0","update(int256[],int256)":"5a8d9f7f"}}}}}