{"contracts/VRFNumber.sol":{"VRFExample":{"abi":[{"anonymous":false,"inputs":[{"indexed":false,"internalType":"bytes32","name":"randomNumber","type":"bytes32"}],"name":"RandomNumberGenerated","type":"event"},{"anonymous":false,"inputs":[{"indexed":false,"internalType":"uint256[4]","name":"proof","type":"uint256[4]"}],"name":"VRFProofGenerated","type":"event"},{"anonymous":false,"inputs":[{"indexed":false,"internalType":"bool","name":"verified","type":"bool"}],"name":"VRFProofVerified","type":"event"},{"inputs":[{"internalType":"bytes","name":"_message","type":"bytes"},{"internalType":"uint256[2]","name":"publicKey","type":"uint256[2]"},{"internalType":"uint256","name":"privKey","type":"uint256"}],"name":"generateRandomNumber","outputs":[{"internalType":"bytes32","name":"","type":"bytes32"},{"internalType":"uint256[4]","name":"","type":"uint256[4]"}],"stateMutability":"nonpayable","type":"function"},{"inputs":[{"internalType":"bytes","name":"_message","type":"bytes"},{"internalType":"uint256[2]","name":"publicKey","type":"uint256[2]"}],"name":"generateRandomNumber2","outputs":[{"internalType":"bytes32","name":"","type":"bytes32"},{"internalType":"uint256[4]","name":"","type":"uint256[4]"}],"stateMutability":"nonpayable","type":"function"},{"inputs":[{"internalType":"bytes","name":"_message","type":"bytes"},{"internalType":"uint256[2]","name":"publicKey","type":"uint256[2]"},{"internalType":"uint256[4]","name":"proof","type":"uint256[4]"}],"name":"verifyProof","outputs":[{"internalType":"bool","name":"","type":"bool"}],"stateMutability":"nonpayable","type":"function"}],"evm":{"bytecode":{"linkReferences":{},"object":"608060405234801561001057600080fd5b506128cf806100206000396000f3fe608060405234801561001057600080fd5b50600436106100415760003560e01c8063362afccc146100465780638743d8f614610077578063fd4de30f146100a7575b600080fd5b610060600480360381019061005b9190611d6b565b6100d8565b60405161006e929190611e8b565b60405180910390f35b610091600480360381019061008c9190611f65565b6101b9565b60405161009e9190611fef565b60405180910390f35b6100c160048036038101906100bc919061200a565b61020b565b6040516100cf929190611e8b565b60405180910390f35b60006100e2611af9565b6000806100ef8587610548565b91509150600063499602d290506000633ade68b1905060006040518060800160405280868152602001858152602001838152602001848152509050600061013686866106e9565b90507f590d2459728650ef83704e613bcf343e472387b06c75aaaac5bd2a3b8a6f4dd9816040516101679190612079565b60405180910390a17f0622387a8e41afeb0e35d6f2e4ee31e864667b5b4206a640837d0f07920932e48260405161019e9190612094565b60405180910390a18082975097505050505050509250929050565b6000806101c7848487610776565b90507fe8788acde5b8677d85119615ac068371efe62812801efc797aaebe5b347208c2816040516101f89190611fef565b60405180910390a1809150509392505050565b6000610215611af9565b6102536040518060400160405280601781526020017f496e697a696f2063616c636f6c6f2064692067616d6d61000000000000000000815250610937565b6000806102608688610548565b915091506102a26040518060400160405280601b81526020017f43616c636f6c6f2064692067616d6d6120636f6d706c657461746f0000000000815250610937565b60007ffffffffffffffffffffffffffffffffebaaedce6af48a03bbfd25e8cd036414142336040516020016102d892919061214a565b6040516020818303038152906040528051906020012060001c6102fb91906121a5565b905061033b6040518060400160405280601e81526020017f496e697a696f2063616c636f6c6f206465692070756e74692055206520560000815250610937565b600080610389837f79be667ef9dcbbac55a06295ce870b07029bfcdb2dce28d959f2815b16f817987f483ada7726a3c4655da4fbfc0e1108a8fd17b448a68554199c47d08ffb10d4b86109d0565b9150915060008061039b8588886109d0565b915091506103c060405180606001604052806022815260200161287860229139610937565b60006104127f79be667ef9dcbbac55a06295ce870b07029bfcdb2dce28d959f2815b16f817987f483ada7726a3c4655da4fbfc0e1108a8fd17b448a68554199c47d08ffb10d4b88a8a89898989610a0d565b905060006010820151905060007ffffffffffffffffffffffffffffffffebaaedce6af48a03bbfd25e8cd03641418061044e5761044d612176565b5b7ffffffffffffffffffffffffffffffffebaaedce6af48a03bbfd25e8cd03641418061047d5761047c612176565b5b8e840989089050600060405180608001604052808c81526020018b815260200184815260200183815250905060006104b58c8c6106e9565b90506104c081610adb565b7f590d2459728650ef83704e613bcf343e472387b06c75aaaac5bd2a3b8a6f4dd9816040516104ef9190612079565b60405180910390a17f0622387a8e41afeb0e35d6f2e4ee31e864667b5b4206a640837d0f07920932e4826040516105269190612094565b60405180910390a180829d509d50505050505050505050505050935093915050565b600080600060fe600161058b87600060028110610568576105676121d6565b5b602002015188600160028110610581576105806121d6565b5b6020020151610b74565b8660405160200161059f94939291906122b9565b604051602081830303815290604052905060005b6101008160ff1610156106a6576000600283836040516020016105d79291906122ff565b6040516020818303038152906040526040516105f39190612327565b602060405180830381855afa158015610610573d6000803e3d6000fd5b5050506040513d601f19601f82011682018060405250810190610633919061236a565b905060008160001c9050600061064a600283610bbe565b905061067b8282600060077ffffffffffffffffffffffffffffffffffffffffffffffffffffffffefffffc2f610bf7565b156106905781819650965050505050506106e2565b505050808061069e906123c6565b9150506105b3565b506040517f08c379a00000000000000000000000000000000000000000000000000000000081526004016106d99061244c565b60405180910390fd5b9250929050565b60008060fe60036106fa8686610b74565b60405160200161070c9392919061246c565b604051602081830303815290604052905060028160405161072d9190612327565b602060405180830381855afa15801561074a573d6000803e3d6000fd5b5050506040513d601f19601f8201168201806040525081019061076d919061236a565b91505092915050565b60008060006107858685610548565b9150915060008061083a876003600481106107a3576107a26121d6565b5b60200201517f79be667ef9dcbbac55a06295ce870b07029bfcdb2dce28d959f2815b16f817987f483ada7726a3c4655da4fbfc0e1108a8fd17b448a68554199c47d08ffb10d4b88a6002600481106107fe576107fd6121d6565b5b60200201518c600060028110610817576108166121d6565b5b60200201518d6001600281106108305761082f6121d6565b5b6020020151610cc5565b915091506000806108af89600360048110610858576108576121d6565b5b602002015187878c600260048110610873576108726121d6565b5b60200201518d60006004811061088c5761088b6121d6565b5b60200201518e6001600481106108a5576108a46121d6565b5b6020020151610cc5565b9150915060006108f587878c6000600481106108ce576108cd6121d6565b5b60200201518d6001600481106108e7576108e66121d6565b5b602002015189898989610a0d565b90508960026004811061090b5761090a6121d6565b5b60200201518160801c6fffffffffffffffffffffffffffffffff16149750505050505050509392505050565b6109cd8160405160240161094b91906124e9565b6040516020818303038152906040527f41304fac000000000000000000000000000000000000000000000000000000007bffffffffffffffffffffffffffffffffffffffffffffffffffffffff19166020820180517bffffffffffffffffffffffffffffffffffffffffffffffffffffffff8381831617835250505050610d39565b50565b600080610a0185858560007ffffffffffffffffffffffffffffffffffffffffffffffffffffffffefffffc2f610d53565b91509150935093915050565b60008060fe6002610a1e8c8c610b74565b610a288b8b610b74565b610a328a8a610b74565b610a3c8989610b74565b604051602001610a519695949392919061250b565b60405160208183030381529060405290506000600282604051610a749190612327565b602060405180830381855afa158015610a91573d6000803e3d6000fd5b5050506040513d601f19601f82011682018060405250810190610ab4919061236a565b90506000604051826000820152600081015191505080935050505098975050505050505050565b610b7181604051602401610aef9190612079565b6040516020818303038152906040527f27b7cf85000000000000000000000000000000000000000000000000000000007bffffffffffffffffffffffffffffffffffffffffffffffffffffffff19166020820180517bffffffffffffffffffffffffffffffffffffffffffffffffffffffff8381831617835250505050610d39565b50565b60606000600283610b8591906121a5565b6002610b91919061256b565b90508084604051602001610ba692919061259f565b60405160208183030381529060405291505092915050565b6000610bef8383600060077ffffffffffffffffffffffffffffffffffffffffffffffffffffffffefffffc2f610d8d565b905092915050565b60008560001480610c085750818610155b80610c135750846000145b80610c1e5750818510155b15610c2c5760009050610cbc565b60008280610c3d57610c3c612176565b5b868709905060008380610c5357610c52612176565b5b888580610c6357610c62612176565b5b8a8b0909905060008614610c97578380610c8057610c7f612176565b5b8480610c8f57610c8e612176565b5b878a09820890505b60008514610cb4578380610cae57610cad612176565b5b85820890505b808214925050505b95945050505050565b600080600080610cd68a8a8a6109d0565b91509150600080610ce88989896109d0565b91509150600080610d1e8686868660007ffffffffffffffffffffffffffffffffffffffffffffffffffffffffefffffc2f610ea8565b91509150818197509750505050505050965096945050505050565b610d5081610d48610edc610efd565b63ffffffff16565b50565b6000806000806000610d6a8a8a8a60018b8b610f08565b925092509250610d7c83838389610fa7565b945094505050509550959350505050565b600060028660ff161480610da4575060038660ff16145b610de3576040517f08c379a0000000000000000000000000000000000000000000000000000000008152600401610dda9061263d565b60405180910390fd5b60008280610df457610df3612176565b5b8380610e0357610e02612176565b5b858580610e1357610e12612176565b5b888a09088480610e2657610e25612176565b5b8580610e3557610e34612176565b5b898a098909089050610e60816004600186610e50919061256b565b610e5a919061265d565b8561101e565b905060008060028960ff1684610e76919061256b565b610e8091906121a5565b14610e96578184610e91919061268e565b610e98565b815b9050809250505095945050505050565b600080600080610eb9888887611116565b91509150610ecb8a8a84848a8a61113d565b935093505050965096945050505050565b60006a636f6e736f6c652e6c6f679050600080835160208501845afa505050565b611b1b819050919050565b6000806000808903610f2257878787925092509250610f9b565b60008990506000806000600190505b60008414610f8d5760006001851614610f6057610f538383838f8f8f8e6111d0565b8093508194508295505050505b600284610f6d919061265d565b9350610f7c8c8c8c8c8c61184f565b809c50819d50829e50505050610f31565b828282965096509650505050505b96509650969350505050565b6000806000610fb68585611a0d565b905060008480610fc957610fc8612176565b5b828309905060008580610fdf57610fde612176565b5b828a09905060008680610ff557610ff4612176565b5b878061100457611003612176565b5b8486098a0990508181955095505050505094509492505050565b6000808203611062576040517f08c379a00000000000000000000000000000000000000000000000000000000081526004016110599061270e565b60405180910390fd5b60008403611073576000905061110f565b60008303611084576001905061110f565b60006001905060007f800000000000000000000000000000000000000000000000000000000000000090505b600081111561110957838186161515870a85848509099150836002820486161515870a85848509099150836004820486161515870a85848509099150836008820486161515870a858485090991506010810490506110b0565b81925050505b9392505050565b60008084838585611127919061268e565b61113191906121a5565b91509150935093915050565b6000806000806000888b03611193576000868061115d5761115c612176565b5b898c080361117457600080945094505050506111c5565b6111828b8b60018a8a61184f565b8093508194508295505050506111b1565b6111a48b8b60018c8c60018c6111d0565b8093508194508295505050505b6111bd83838389610fa7565b945094505050505b965096945050505050565b6000806000808a1480156111e45750600089145b156111f757868686925092509250611842565b6000871480156112075750600086145b1561121a57898989925092509250611842565b611222611af9565b848061123157611230612176565b5b898a0981600060048110611248576112476121d6565b5b60200201818152505084806112605761125f612176565b5b81600060048110611274576112736121d6565b5b60200201518a098160016004811061128f5761128e6121d6565b5b60200201818152505084806112a7576112a6612176565b5b868709816002600481106112be576112bd6121d6565b5b60200201818152505084806112d6576112d5612176565b5b816002600481106112ea576112e96121d6565b5b6020020151870981600360048110611305576113046121d6565b5b6020020181815250506040518060800160405280868061132857611327612176565b5b8360026004811061133c5761133b6121d6565b5b60200201518e098152602001868061135757611356612176565b5b8360036004811061136b5761136a6121d6565b5b60200201518d098152602001868061138657611385612176565b5b8360006004811061139a576113996121d6565b5b60200201518b09815260200186806113b5576113b4612176565b5b836001600481106113c9576113c86121d6565b5b60200201518a098152509050806002600481106113e9576113e86121d6565b5b602002015181600060048110611402576114016121d6565b5b6020020151141580611444575080600360048110611423576114226121d6565b5b60200201518160016004811061143c5761143b6121d6565b5b602002015114155b611483576040517f08c379a000000000000000000000000000000000000000000000000000000000815260040161147a9061277a565b60405180910390fd5b61148b611af9565b858061149a57611499612176565b5b826000600481106114ae576114ad6121d6565b5b6020020151876114be919061268e565b836002600481106114d2576114d16121d6565b5b602002015108816000600481106114ec576114eb6121d6565b5b602002018181525050858061150457611503612176565b5b82600160048110611518576115176121d6565b5b602002015187611528919061268e565b8360036004811061153c5761153b6121d6565b5b60200201510881600160048110611556576115556121d6565b5b602002018181525050858061156e5761156d612176565b5b81600060048110611582576115816121d6565b5b60200201518260006004811061159b5761159a6121d6565b5b602002015109816002600481106115b5576115b46121d6565b5b60200201818152505085806115cd576115cc612176565b5b816000600481106115e1576115e06121d6565b5b6020020151826002600481106115fa576115f96121d6565b5b60200201510981600360048110611614576116136121d6565b5b6020020181815250506000868061162e5761162d612176565b5b82600360048110611642576116416121d6565b5b602002015188611652919061268e565b888061166157611660612176565b5b84600160048110611675576116746121d6565b5b60200201518560016004811061168e5761168d6121d6565b5b60200201510908905086806116a6576116a5612176565b5b87806116b5576116b4612176565b5b88806116c4576116c3612176565b5b846002600481106116d8576116d76121d6565b5b6020020151866000600481106116f1576116f06121d6565b5b60200201510960020988611705919061268e565b820890506000878061171a57611719612176565b5b888061172957611728612176565b5b838a611735919061268e565b8a8061174457611743612176565b5b86600260048110611758576117576121d6565b5b602002015188600060048110611771576117706121d6565b5b602002015109088460016004811061178c5761178b6121d6565b5b602002015109905087806117a3576117a2612176565b5b88806117b2576117b1612176565b5b846003600481106117c6576117c56121d6565b5b6020020151866001600481106117df576117de6121d6565b5b602002015109896117f0919061268e565b820890506000888061180557611804612176565b5b898061181457611813612176565b5b8b8f098560006004811061182b5761182a6121d6565b5b602002015109905082828297509750975050505050505b9750975097945050505050565b600080600080860361186957878787925092509250611a02565b6000848061187a57611879612176565b5b898a099050600085806118905761188f612176565b5b898a099050600086806118a6576118a5612176565b5b898a099050600087806118bc576118bb612176565b5b88806118cb576118ca612176565b5b848e096004099050600088806118e4576118e3612176565b5b89806118f3576118f2612176565b5b8a8061190257611901612176565b5b8586098c098a8061191657611915612176565b5b87600309089050888061192c5761192b612176565b5b898061193b5761193a612176565b5b8384088a611949919061268e565b8a8061195857611957612176565b5b838409089450888061196d5761196c612176565b5b898061197c5761197b612176565b5b8a8061198b5761198a612176565b5b8687096008098a61199c919061268e565b8a806119ab576119aa612176565b5b8b806119ba576119b9612176565b5b888d6119c6919061268e565b8608840908935088806119dc576119db612176565b5b89806119eb576119ea612176565b5b8c8e09600209925084848497509750975050505050505b955095509592505050565b6000808314158015611a1f5750818314155b8015611a2c575060008214155b611a6b576040517f08c379a0000000000000000000000000000000000000000000000000000000008152600401611a62906127e6565b60405180910390fd5b60008060019050600084905060005b60008714611aec578682611a8e919061265d565b9050828680611aa057611a9f612176565b5b8780611aaf57611aae612176565b5b85840988611abd919061268e565b86088094508195505050868782611ad49190612806565b83611adf919061268e565b8098508193505050611a7a565b8394505050505092915050565b6040518060800160405280600490602082028036833780820191505090505090565b611b23612848565b565b6000604051905090565b600080fd5b600080fd5b600080fd5b600080fd5b6000601f19601f8301169050919050565b7f4e487b7100000000000000000000000000000000000000000000000000000000600052604160045260246000fd5b611b8c82611b43565b810181811067ffffffffffffffff82111715611bab57611baa611b54565b5b80604052505050565b6000611bbe611b25565b9050611bca8282611b83565b919050565b600067ffffffffffffffff821115611bea57611be9611b54565b5b611bf382611b43565b9050602081019050919050565b82818337600083830152505050565b6000611c22611c1d84611bcf565b611bb4565b905082815260208101848484011115611c3e57611c3d611b3e565b5b611c49848285611c00565b509392505050565b600082601f830112611c6657611c65611b39565b5b8135611c76848260208601611c0f565b91505092915050565b600067ffffffffffffffff821115611c9a57611c99611b54565b5b602082029050919050565b600080fd5b6000819050919050565b611cbd81611caa565b8114611cc857600080fd5b50565b600081359050611cda81611cb4565b92915050565b6000611cf3611cee84611c7f565b611bb4565b90508060208402830185811115611d0d57611d0c611ca5565b5b835b81811015611d365780611d228882611ccb565b845260208401935050602081019050611d0f565b5050509392505050565b600082601f830112611d5557611d54611b39565b5b6002611d62848285611ce0565b91505092915050565b60008060608385031215611d8257611d81611b2f565b5b600083013567ffffffffffffffff811115611da057611d9f611b34565b5b611dac85828601611c51565b9250506020611dbd85828601611d40565b9150509250929050565b6000819050919050565b611dda81611dc7565b82525050565b600060049050919050565b600081905092915050565b6000819050919050565b611e0981611caa565b82525050565b6000611e1b8383611e00565b60208301905092915050565b6000602082019050919050565b611e3d81611de0565b611e478184611deb565b9250611e5282611df6565b8060005b83811015611e83578151611e6a8782611e0f565b9650611e7583611e27565b925050600181019050611e56565b505050505050565b600060a082019050611ea06000830185611dd1565b611ead6020830184611e34565b9392505050565b600067ffffffffffffffff821115611ecf57611ece611b54565b5b602082029050919050565b6000611eed611ee884611eb4565b611bb4565b90508060208402830185811115611f0757611f06611ca5565b5b835b81811015611f305780611f1c8882611ccb565b845260208401935050602081019050611f09565b5050509392505050565b600082601f830112611f4f57611f4e611b39565b5b6004611f5c848285611eda565b91505092915050565b600080600060e08486031215611f7e57611f7d611b2f565b5b600084013567ffffffffffffffff811115611f9c57611f9b611b34565b5b611fa886828701611c51565b9350506020611fb986828701611d40565b9250506060611fca86828701611f3a565b9150509250925092565b60008115159050919050565b611fe981611fd4565b82525050565b60006020820190506120046000830184611fe0565b92915050565b60008060006080848603121561202357612022611b2f565b5b600084013567ffffffffffffffff81111561204157612040611b34565b5b61204d86828701611c51565b935050602061205e86828701611d40565b925050606061206f86828701611ccb565b9150509250925092565b600060208201905061208e6000830184611dd1565b92915050565b60006080820190506120a96000830184611e34565b92915050565b6000819050919050565b6120ca6120c582611caa565b6120af565b82525050565b600073ffffffffffffffffffffffffffffffffffffffff82169050919050565b60006120fb826120d0565b9050919050565b60008160601b9050919050565b600061211a82612102565b9050919050565b600061212c8261210f565b9050919050565b61214461213f826120f0565b612121565b82525050565b600061215682856120b9565b6020820191506121668284612133565b6014820191508190509392505050565b7f4e487b7100000000000000000000000000000000000000000000000000000000600052601260045260246000fd5b60006121b082611caa565b91506121bb83611caa565b9250826121cb576121ca612176565b5b828206905092915050565b7f4e487b7100000000000000000000000000000000000000000000000000000000600052603260045260246000fd5b600060ff82169050919050565b60008160f81b9050919050565b600061222a82612212565b9050919050565b61224261223d82612205565b61221f565b82525050565b600081519050919050565b600081905092915050565b60005b8381101561227c578082015181840152602081019050612261565b60008484015250505050565b600061229382612248565b61229d8185612253565b93506122ad81856020860161225e565b80840191505092915050565b60006122c58287612231565b6001820191506122d58286612231565b6001820191506122e58285612288565b91506122f18284612288565b915081905095945050505050565b600061230b8285612288565b91506123178284612231565b6001820191508190509392505050565b60006123338284612288565b915081905092915050565b61234781611dc7565b811461235257600080fd5b50565b6000815190506123648161233e565b92915050565b6000602082840312156123805761237f611b2f565b5b600061238e84828501612355565b91505092915050565b7f4e487b7100000000000000000000000000000000000000000000000000000000600052601160045260246000fd5b60006123d182612205565b915060ff82036123e4576123e3612397565b5b600182019050919050565b600082825260208201905092915050565b7f4e6f2076616c696420706f696e742077617320666f756e640000000000000000600082015250565b60006124366018836123ef565b915061244182612400565b602082019050919050565b6000602082019050818103600083015261246581612429565b9050919050565b60006124788286612231565b6001820191506124888285612231565b6001820191506124988284612288565b9150819050949350505050565b600081519050919050565b60006124bb826124a5565b6124c581856123ef565b93506124d581856020860161225e565b6124de81611b43565b840191505092915050565b6000602082019050818103600083015261250381846124b0565b905092915050565b60006125178289612231565b6001820191506125278288612231565b6001820191506125378287612288565b91506125438286612288565b915061254f8285612288565b915061255b8284612288565b9150819050979650505050505050565b600061257682611caa565b915061258183611caa565b925082820190508082111561259957612598612397565b5b92915050565b60006125ab8285612231565b6001820191506125bb82846120b9565b6020820191508190509392505050565b7f456c6c697074696343757276653a696e6e76616c696420636f6d70726573736560008201527f6420454320706f696e7420707265666978000000000000000000000000000000602082015250565b60006126276031836123ef565b9150612632826125cb565b604082019050919050565b600060208201905081810360008301526126568161261a565b9050919050565b600061266882611caa565b915061267383611caa565b92508261268357612682612176565b5b828204905092915050565b600061269982611caa565b91506126a483611caa565b92508282039050818111156126bc576126bb612397565b5b92915050565b7f456c6c697074696343757276653a206d6f64756c7573206973207a65726f0000600082015250565b60006126f8601e836123ef565b9150612703826126c2565b602082019050919050565b60006020820190508181036000830152612727816126eb565b9050919050565b7f557365206a6163446f75626c652066756e6374696f6e20696e73746561640000600082015250565b6000612764601e836123ef565b915061276f8261272e565b602082019050919050565b6000602082019050818103600083015261279381612757565b9050919050565b7f496e76616c6964206e756d626572000000000000000000000000000000000000600082015250565b60006127d0600e836123ef565b91506127db8261279a565b602082019050919050565b600060208201905081810360008301526127ff816127c3565b9050919050565b600061281182611caa565b915061281c83611caa565b925082820261282a81611caa565b9150828204841483151761284157612840612397565b5b5092915050565b7f4e487b7100000000000000000000000000000000000000000000000000000000600052605160045260246000fdfe43616c636f6c6f206465692070756e746920552065205620636f6d706c657461746fa2646970667358221220bcd0ab0f3797c438e7ac0e34c74d68593556940169ebbcd66c1a9bd336ef871f64736f6c63430008180033","opcodes":"PUSH1 0x80 PUSH1 0x40 MSTORE CALLVALUE DUP1 ISZERO PUSH2 0x10 JUMPI PUSH1 0x0 DUP1 REVERT JUMPDEST POP PUSH2 0x28CF DUP1 PUSH2 0x20 PUSH1 0x0 CODECOPY PUSH1 0x0 RETURN INVALID PUSH1 0x80 PUSH1 0x40 MSTORE CALLVALUE DUP1 ISZERO PUSH2 0x10 JUMPI PUSH1 0x0 DUP1 REVERT JUMPDEST POP PUSH1 0x4 CALLDATASIZE LT PUSH2 0x41 JUMPI PUSH1 0x0 CALLDATALOAD PUSH1 0xE0 SHR DUP1 PUSH4 0x362AFCCC EQ PUSH2 0x46 JUMPI DUP1 PUSH4 0x8743D8F6 EQ PUSH2 0x77 JUMPI DUP1 PUSH4 0xFD4DE30F EQ PUSH2 0xA7 JUMPI JUMPDEST PUSH1 0x0 DUP1 REVERT JUMPDEST PUSH2 0x60 PUSH1 0x4 DUP1 CALLDATASIZE SUB DUP2 ADD SWAP1 PUSH2 0x5B SWAP2 SWAP1 PUSH2 0x1D6B JUMP JUMPDEST PUSH2 0xD8 JUMP JUMPDEST PUSH1 0x40 MLOAD PUSH2 0x6E SWAP3 SWAP2 SWAP1 PUSH2 0x1E8B JUMP JUMPDEST PUSH1 0x40 MLOAD DUP1 SWAP2 SUB SWAP1 RETURN JUMPDEST PUSH2 0x91 PUSH1 0x4 DUP1 CALLDATASIZE SUB DUP2 ADD SWAP1 PUSH2 0x8C SWAP2 SWAP1 PUSH2 0x1F65 JUMP JUMPDEST PUSH2 0x1B9 JUMP JUMPDEST PUSH1 0x40 MLOAD PUSH2 0x9E SWAP2 SWAP1 PUSH2 0x1FEF JUMP JUMPDEST PUSH1 0x40 MLOAD DUP1 SWAP2 SUB SWAP1 RETURN JUMPDEST PUSH2 0xC1 PUSH1 0x4 DUP1 CALLDATASIZE SUB DUP2 ADD SWAP1 PUSH2 0xBC SWAP2 SWAP1 PUSH2 0x200A JUMP JUMPDEST PUSH2 0x20B JUMP JUMPDEST PUSH1 0x40 MLOAD PUSH2 0xCF SWAP3 SWAP2 SWAP1 PUSH2 0x1E8B JUMP JUMPDEST PUSH1 0x40 MLOAD DUP1 SWAP2 SUB SWAP1 RETURN JUMPDEST PUSH1 0x0 PUSH2 0xE2 PUSH2 0x1AF9 JUMP JUMPDEST PUSH1 0x0 DUP1 PUSH2 0xEF DUP6 DUP8 PUSH2 0x548 JUMP JUMPDEST SWAP2 POP SWAP2 POP PUSH1 0x0 PUSH4 0x499602D2 SWAP1 POP PUSH1 0x0 PUSH4 0x3ADE68B1 SWAP1 POP PUSH1 0x0 PUSH1 0x40 MLOAD DUP1 PUSH1 0x80 ADD PUSH1 0x40 MSTORE DUP1 DUP7 DUP2 MSTORE PUSH1 0x20 ADD DUP6 DUP2 MSTORE PUSH1 0x20 ADD DUP4 DUP2 MSTORE PUSH1 0x20 ADD DUP5 DUP2 MSTORE POP SWAP1 POP PUSH1 0x0 PUSH2 0x136 DUP7 DUP7 PUSH2 0x6E9 JUMP JUMPDEST SWAP1 POP PUSH32 0x590D2459728650EF83704E613BCF343E472387B06C75AAAAC5BD2A3B8A6F4DD9 DUP2 PUSH1 0x40 MLOAD PUSH2 0x167 SWAP2 SWAP1 PUSH2 0x2079 JUMP JUMPDEST PUSH1 0x40 MLOAD DUP1 SWAP2 SUB SWAP1 LOG1 PUSH32 0x622387A8E41AFEB0E35D6F2E4EE31E864667B5B4206A640837D0F07920932E4 DUP3 PUSH1 0x40 MLOAD PUSH2 0x19E SWAP2 SWAP1 PUSH2 0x2094 JUMP JUMPDEST PUSH1 0x40 MLOAD DUP1 SWAP2 SUB SWAP1 LOG1 DUP1 DUP3 SWAP8 POP SWAP8 POP POP POP POP POP POP POP SWAP3 POP SWAP3 SWAP1 POP JUMP JUMPDEST PUSH1 0x0 DUP1 PUSH2 0x1C7 DUP5 DUP5 DUP8 PUSH2 0x776 JUMP JUMPDEST SWAP1 POP PUSH32 0xE8788ACDE5B8677D85119615AC068371EFE62812801EFC797AAEBE5B347208C2 DUP2 PUSH1 0x40 MLOAD PUSH2 0x1F8 SWAP2 SWAP1 PUSH2 0x1FEF JUMP JUMPDEST PUSH1 0x40 MLOAD DUP1 SWAP2 SUB SWAP1 LOG1 DUP1 SWAP2 POP POP SWAP4 SWAP3 POP POP POP JUMP JUMPDEST PUSH1 0x0 PUSH2 0x215 PUSH2 0x1AF9 JUMP JUMPDEST PUSH2 0x253 PUSH1 0x40 MLOAD DUP1 PUSH1 0x40 ADD PUSH1 0x40 MSTORE DUP1 PUSH1 0x17 DUP2 MSTORE PUSH1 0x20 ADD PUSH32 0x496E697A696F2063616C636F6C6F2064692067616D6D61000000000000000000 DUP2 MSTORE POP PUSH2 0x937 JUMP JUMPDEST PUSH1 0x0 DUP1 PUSH2 0x260 DUP7 DUP9 PUSH2 0x548 JUMP JUMPDEST SWAP2 POP SWAP2 POP PUSH2 0x2A2 PUSH1 0x40 MLOAD DUP1 PUSH1 0x40 ADD PUSH1 0x40 MSTORE DUP1 PUSH1 0x1B DUP2 MSTORE PUSH1 0x20 ADD PUSH32 0x43616C636F6C6F2064692067616D6D6120636F6D706C657461746F0000000000 DUP2 MSTORE POP PUSH2 0x937 JUMP JUMPDEST PUSH1 0x0 PUSH32 0xFFFFFFFFFFFFFFFFFFFFFFFFFFFFFFFEBAAEDCE6AF48A03BBFD25E8CD0364141 TIMESTAMP CALLER PUSH1 0x40 MLOAD PUSH1 0x20 ADD PUSH2 0x2D8 SWAP3 SWAP2 SWAP1 PUSH2 0x214A JUMP JUMPDEST PUSH1 0x40 MLOAD PUSH1 0x20 DUP2 DUP4 SUB SUB DUP2 MSTORE SWAP1 PUSH1 0x40 MSTORE DUP1 MLOAD SWAP1 PUSH1 0x20 ADD KECCAK256 PUSH1 0x0 SHR PUSH2 0x2FB SWAP2 SWAP1 PUSH2 0x21A5 JUMP JUMPDEST SWAP1 POP PUSH2 0x33B PUSH1 0x40 MLOAD DUP1 PUSH1 0x40 ADD PUSH1 0x40 MSTORE DUP1 PUSH1 0x1E DUP2 MSTORE PUSH1 0x20 ADD PUSH32 0x496E697A696F2063616C636F6C6F206465692070756E74692055206520560000 DUP2 MSTORE POP PUSH2 0x937 JUMP JUMPDEST PUSH1 0x0 DUP1 PUSH2 0x389 DUP4 PUSH32 0x79BE667EF9DCBBAC55A06295CE870B07029BFCDB2DCE28D959F2815B16F81798 PUSH32 0x483ADA7726A3C4655DA4FBFC0E1108A8FD17B448A68554199C47D08FFB10D4B8 PUSH2 0x9D0 JUMP JUMPDEST SWAP2 POP SWAP2 POP PUSH1 0x0 DUP1 PUSH2 0x39B DUP6 DUP9 DUP9 PUSH2 0x9D0 JUMP JUMPDEST SWAP2 POP SWAP2 POP PUSH2 0x3C0 PUSH1 0x40 MLOAD DUP1 PUSH1 0x60 ADD PUSH1 0x40 MSTORE DUP1 PUSH1 0x22 DUP2 MSTORE PUSH1 0x20 ADD PUSH2 0x2878 PUSH1 0x22 SWAP2 CODECOPY PUSH2 0x937 JUMP JUMPDEST PUSH1 0x0 PUSH2 0x412 PUSH32 0x79BE667EF9DCBBAC55A06295CE870B07029BFCDB2DCE28D959F2815B16F81798 PUSH32 0x483ADA7726A3C4655DA4FBFC0E1108A8FD17B448A68554199C47D08FFB10D4B8 DUP11 DUP11 DUP10 DUP10 DUP10 DUP10 PUSH2 0xA0D JUMP JUMPDEST SWAP1 POP PUSH1 0x0 PUSH1 0x10 DUP3 ADD MLOAD SWAP1 POP PUSH1 0x0 PUSH32 0xFFFFFFFFFFFFFFFFFFFFFFFFFFFFFFFEBAAEDCE6AF48A03BBFD25E8CD0364141 DUP1 PUSH2 0x44E JUMPI PUSH2 0x44D PUSH2 0x2176 JUMP JUMPDEST JUMPDEST PUSH32 0xFFFFFFFFFFFFFFFFFFFFFFFFFFFFFFFEBAAEDCE6AF48A03BBFD25E8CD0364141 DUP1 PUSH2 0x47D JUMPI PUSH2 0x47C PUSH2 0x2176 JUMP JUMPDEST JUMPDEST DUP15 DUP5 MULMOD DUP10 ADDMOD SWAP1 POP PUSH1 0x0 PUSH1 0x40 MLOAD DUP1 PUSH1 0x80 ADD PUSH1 0x40 MSTORE DUP1 DUP13 DUP2 MSTORE PUSH1 0x20 ADD DUP12 DUP2 MSTORE PUSH1 0x20 ADD DUP5 DUP2 MSTORE PUSH1 0x20 ADD DUP4 DUP2 MSTORE POP SWAP1 POP PUSH1 0x0 PUSH2 0x4B5 DUP13 DUP13 PUSH2 0x6E9 JUMP JUMPDEST SWAP1 POP PUSH2 0x4C0 DUP2 PUSH2 0xADB JUMP JUMPDEST PUSH32 0x590D2459728650EF83704E613BCF343E472387B06C75AAAAC5BD2A3B8A6F4DD9 DUP2 PUSH1 0x40 MLOAD PUSH2 0x4EF SWAP2 SWAP1 PUSH2 0x2079 JUMP JUMPDEST PUSH1 0x40 MLOAD DUP1 SWAP2 SUB SWAP1 LOG1 PUSH32 0x622387A8E41AFEB0E35D6F2E4EE31E864667B5B4206A640837D0F07920932E4 DUP3 PUSH1 0x40 MLOAD PUSH2 0x526 SWAP2 SWAP1 PUSH2 0x2094 JUMP JUMPDEST PUSH1 0x40 MLOAD DUP1 SWAP2 SUB SWAP1 LOG1 DUP1 DUP3 SWAP14 POP SWAP14 POP POP POP POP POP POP POP POP POP POP POP POP POP SWAP4 POP SWAP4 SWAP2 POP POP JUMP JUMPDEST PUSH1 0x0 DUP1 PUSH1 0x0 PUSH1 0xFE PUSH1 0x1 PUSH2 0x58B DUP8 PUSH1 0x0 PUSH1 0x2 DUP2 LT PUSH2 0x568 JUMPI PUSH2 0x567 PUSH2 0x21D6 JUMP JUMPDEST JUMPDEST PUSH1 0x20 MUL ADD MLOAD DUP9 PUSH1 0x1 PUSH1 0x2 DUP2 LT PUSH2 0x581 JUMPI PUSH2 0x580 PUSH2 0x21D6 JUMP JUMPDEST JUMPDEST PUSH1 0x20 MUL ADD MLOAD PUSH2 0xB74 JUMP JUMPDEST DUP7 PUSH1 0x40 MLOAD PUSH1 0x20 ADD PUSH2 0x59F SWAP5 SWAP4 SWAP3 SWAP2 SWAP1 PUSH2 0x22B9 JUMP JUMPDEST PUSH1 0x40 MLOAD PUSH1 0x20 DUP2 DUP4 SUB SUB DUP2 MSTORE SWAP1 PUSH1 0x40 MSTORE SWAP1 POP PUSH1 0x0 JUMPDEST PUSH2 0x100 DUP2 PUSH1 0xFF AND LT ISZERO PUSH2 0x6A6 JUMPI PUSH1 0x0 PUSH1 0x2 DUP4 DUP4 PUSH1 0x40 MLOAD PUSH1 0x20 ADD PUSH2 0x5D7 SWAP3 SWAP2 SWAP1 PUSH2 0x22FF JUMP JUMPDEST PUSH1 0x40 MLOAD PUSH1 0x20 DUP2 DUP4 SUB SUB DUP2 MSTORE SWAP1 PUSH1 0x40 MSTORE PUSH1 0x40 MLOAD PUSH2 0x5F3 SWAP2 SWAP1 PUSH2 0x2327 JUMP JUMPDEST PUSH1 0x20 PUSH1 0x40 MLOAD DUP1 DUP4 SUB DUP2 DUP6 GAS STATICCALL ISZERO DUP1 ISZERO PUSH2 0x610 JUMPI RETURNDATASIZE PUSH1 0x0 DUP1 RETURNDATACOPY RETURNDATASIZE PUSH1 0x0 REVERT JUMPDEST POP POP POP PUSH1 0x40 MLOAD RETURNDATASIZE PUSH1 0x1F NOT PUSH1 0x1F DUP3 ADD AND DUP3 ADD DUP1 PUSH1 0x40 MSTORE POP DUP2 ADD SWAP1 PUSH2 0x633 SWAP2 SWAP1 PUSH2 0x236A JUMP JUMPDEST SWAP1 POP PUSH1 0x0 DUP2 PUSH1 0x0 SHR SWAP1 POP PUSH1 0x0 PUSH2 0x64A PUSH1 0x2 DUP4 PUSH2 0xBBE JUMP JUMPDEST SWAP1 POP PUSH2 0x67B DUP3 DUP3 PUSH1 0x0 PUSH1 0x7 PUSH32 0xFFFFFFFFFFFFFFFFFFFFFFFFFFFFFFFFFFFFFFFFFFFFFFFFFFFFFFFEFFFFFC2F PUSH2 0xBF7 JUMP JUMPDEST ISZERO PUSH2 0x690 JUMPI DUP2 DUP2 SWAP7 POP SWAP7 POP POP POP POP POP POP PUSH2 0x6E2 JUMP JUMPDEST POP POP POP DUP1 DUP1 PUSH2 0x69E SWAP1 PUSH2 0x23C6 JUMP JUMPDEST SWAP2 POP POP PUSH2 0x5B3 JUMP JUMPDEST POP PUSH1 0x40 MLOAD PUSH32 0x8C379A000000000000000000000000000000000000000000000000000000000 DUP2 MSTORE PUSH1 0x4 ADD PUSH2 0x6D9 SWAP1 PUSH2 0x244C JUMP JUMPDEST PUSH1 0x40 MLOAD DUP1 SWAP2 SUB SWAP1 REVERT JUMPDEST SWAP3 POP SWAP3 SWAP1 POP JUMP JUMPDEST PUSH1 0x0 DUP1 PUSH1 0xFE PUSH1 0x3 PUSH2 0x6FA DUP7 DUP7 PUSH2 0xB74 JUMP JUMPDEST PUSH1 0x40 MLOAD PUSH1 0x20 ADD PUSH2 0x70C SWAP4 SWAP3 SWAP2 SWAP1 PUSH2 0x246C JUMP JUMPDEST PUSH1 0x40 MLOAD PUSH1 0x20 DUP2 DUP4 SUB SUB DUP2 MSTORE SWAP1 PUSH1 0x40 MSTORE SWAP1 POP PUSH1 0x2 DUP2 PUSH1 0x40 MLOAD PUSH2 0x72D SWAP2 SWAP1 PUSH2 0x2327 JUMP JUMPDEST PUSH1 0x20 PUSH1 0x40 MLOAD DUP1 DUP4 SUB DUP2 DUP6 GAS STATICCALL ISZERO DUP1 ISZERO PUSH2 0x74A JUMPI RETURNDATASIZE PUSH1 0x0 DUP1 RETURNDATACOPY RETURNDATASIZE PUSH1 0x0 REVERT JUMPDEST POP POP POP PUSH1 0x40 MLOAD RETURNDATASIZE PUSH1 0x1F NOT PUSH1 0x1F DUP3 ADD AND DUP3 ADD DUP1 PUSH1 0x40 MSTORE POP DUP2 ADD SWAP1 PUSH2 0x76D SWAP2 SWAP1 PUSH2 0x236A JUMP JUMPDEST SWAP2 POP POP SWAP3 SWAP2 POP POP JUMP JUMPDEST PUSH1 0x0 DUP1 PUSH1 0x0 PUSH2 0x785 DUP7 DUP6 PUSH2 0x548 JUMP JUMPDEST SWAP2 POP SWAP2 POP PUSH1 0x0 DUP1 PUSH2 0x83A DUP8 PUSH1 0x3 PUSH1 0x4 DUP2 LT PUSH2 0x7A3 JUMPI PUSH2 0x7A2 PUSH2 0x21D6 JUMP JUMPDEST JUMPDEST PUSH1 0x20 MUL ADD MLOAD PUSH32 0x79BE667EF9DCBBAC55A06295CE870B07029BFCDB2DCE28D959F2815B16F81798 PUSH32 0x483ADA7726A3C4655DA4FBFC0E1108A8FD17B448A68554199C47D08FFB10D4B8 DUP11 PUSH1 0x2 PUSH1 0x4 DUP2 LT PUSH2 0x7FE JUMPI PUSH2 0x7FD PUSH2 0x21D6 JUMP JUMPDEST JUMPDEST PUSH1 0x20 MUL ADD MLOAD DUP13 PUSH1 0x0 PUSH1 0x2 DUP2 LT PUSH2 0x817 JUMPI PUSH2 0x816 PUSH2 0x21D6 JUMP JUMPDEST JUMPDEST PUSH1 0x20 MUL ADD MLOAD DUP14 PUSH1 0x1 PUSH1 0x2 DUP2 LT PUSH2 0x830 JUMPI PUSH2 0x82F PUSH2 0x21D6 JUMP JUMPDEST JUMPDEST PUSH1 0x20 MUL ADD MLOAD PUSH2 0xCC5 JUMP JUMPDEST SWAP2 POP SWAP2 POP PUSH1 0x0 DUP1 PUSH2 0x8AF DUP10 PUSH1 0x3 PUSH1 0x4 DUP2 LT PUSH2 0x858 JUMPI PUSH2 0x857 PUSH2 0x21D6 JUMP JUMPDEST JUMPDEST PUSH1 0x20 MUL ADD MLOAD DUP8 DUP8 DUP13 PUSH1 0x2 PUSH1 0x4 DUP2 LT PUSH2 0x873 JUMPI PUSH2 0x872 PUSH2 0x21D6 JUMP JUMPDEST JUMPDEST PUSH1 0x20 MUL ADD MLOAD DUP14 PUSH1 0x0 PUSH1 0x4 DUP2 LT PUSH2 0x88C JUMPI PUSH2 0x88B PUSH2 0x21D6 JUMP JUMPDEST JUMPDEST PUSH1 0x20 MUL ADD MLOAD DUP15 PUSH1 0x1 PUSH1 0x4 DUP2 LT PUSH2 0x8A5 JUMPI PUSH2 0x8A4 PUSH2 0x21D6 JUMP JUMPDEST JUMPDEST PUSH1 0x20 MUL ADD MLOAD PUSH2 0xCC5 JUMP JUMPDEST SWAP2 POP SWAP2 POP PUSH1 0x0 PUSH2 0x8F5 DUP8 DUP8 DUP13 PUSH1 0x0 PUSH1 0x4 DUP2 LT PUSH2 0x8CE JUMPI PUSH2 0x8CD PUSH2 0x21D6 JUMP JUMPDEST JUMPDEST PUSH1 0x20 MUL ADD MLOAD DUP14 PUSH1 0x1 PUSH1 0x4 DUP2 LT PUSH2 0x8E7 JUMPI PUSH2 0x8E6 PUSH2 0x21D6 JUMP JUMPDEST JUMPDEST PUSH1 0x20 MUL ADD MLOAD DUP10 DUP10 DUP10 DUP10 PUSH2 0xA0D JUMP JUMPDEST SWAP1 POP DUP10 PUSH1 0x2 PUSH1 0x4 DUP2 LT PUSH2 0x90B JUMPI PUSH2 0x90A PUSH2 0x21D6 JUMP JUMPDEST JUMPDEST PUSH1 0x20 MUL ADD MLOAD DUP2 PUSH1 0x80 SHR PUSH16 0xFFFFFFFFFFFFFFFFFFFFFFFFFFFFFFFF AND EQ SWAP8 POP POP POP POP POP POP POP POP SWAP4 SWAP3 POP POP POP JUMP JUMPDEST PUSH2 0x9CD DUP2 PUSH1 0x40 MLOAD PUSH1 0x24 ADD PUSH2 0x94B SWAP2 SWAP1 PUSH2 0x24E9 JUMP JUMPDEST PUSH1 0x40 MLOAD PUSH1 0x20 DUP2 DUP4 SUB SUB DUP2 MSTORE SWAP1 PUSH1 0x40 MSTORE PUSH32 0x41304FAC00000000000000000000000000000000000000000000000000000000 PUSH28 0xFFFFFFFFFFFFFFFFFFFFFFFFFFFFFFFFFFFFFFFFFFFFFFFFFFFFFFFF NOT AND PUSH1 0x20 DUP3 ADD DUP1 MLOAD PUSH28 0xFFFFFFFFFFFFFFFFFFFFFFFFFFFFFFFFFFFFFFFFFFFFFFFFFFFFFFFF DUP4 DUP2 DUP4 AND OR DUP4 MSTORE POP POP POP POP PUSH2 0xD39 JUMP JUMPDEST POP JUMP JUMPDEST PUSH1 0x0 DUP1 PUSH2 0xA01 DUP6 DUP6 DUP6 PUSH1 0x0 PUSH32 0xFFFFFFFFFFFFFFFFFFFFFFFFFFFFFFFFFFFFFFFFFFFFFFFFFFFFFFFEFFFFFC2F PUSH2 0xD53 JUMP JUMPDEST SWAP2 POP SWAP2 POP SWAP4 POP SWAP4 SWAP2 POP POP JUMP JUMPDEST PUSH1 0x0 DUP1 PUSH1 0xFE PUSH1 0x2 PUSH2 0xA1E DUP13 DUP13 PUSH2 0xB74 JUMP JUMPDEST PUSH2 0xA28 DUP12 DUP12 PUSH2 0xB74 JUMP JUMPDEST PUSH2 0xA32 DUP11 DUP11 PUSH2 0xB74 JUMP JUMPDEST PUSH2 0xA3C DUP10 DUP10 PUSH2 0xB74 JUMP JUMPDEST PUSH1 0x40 MLOAD PUSH1 0x20 ADD PUSH2 0xA51 SWAP7 SWAP6 SWAP5 SWAP4 SWAP3 SWAP2 SWAP1 PUSH2 0x250B JUMP JUMPDEST PUSH1 0x40 MLOAD PUSH1 0x20 DUP2 DUP4 SUB SUB DUP2 MSTORE SWAP1 PUSH1 0x40 MSTORE SWAP1 POP PUSH1 0x0 PUSH1 0x2 DUP3 PUSH1 0x40 MLOAD PUSH2 0xA74 SWAP2 SWAP1 PUSH2 0x2327 JUMP JUMPDEST PUSH1 0x20 PUSH1 0x40 MLOAD DUP1 DUP4 SUB DUP2 DUP6 GAS STATICCALL ISZERO DUP1 ISZERO PUSH2 0xA91 JUMPI RETURNDATASIZE PUSH1 0x0 DUP1 RETURNDATACOPY RETURNDATASIZE PUSH1 0x0 REVERT JUMPDEST POP POP POP PUSH1 0x40 MLOAD RETURNDATASIZE PUSH1 0x1F NOT PUSH1 0x1F DUP3 ADD AND DUP3 ADD DUP1 PUSH1 0x40 MSTORE POP DUP2 ADD SWAP1 PUSH2 0xAB4 SWAP2 SWAP1 PUSH2 0x236A JUMP JUMPDEST SWAP1 POP PUSH1 0x0 PUSH1 0x40 MLOAD DUP3 PUSH1 0x0 DUP3 ADD MSTORE PUSH1 0x0 DUP2 ADD MLOAD SWAP2 POP POP DUP1 SWAP4 POP POP POP POP SWAP9 SWAP8 POP POP POP POP POP POP POP POP JUMP JUMPDEST PUSH2 0xB71 DUP2 PUSH1 0x40 MLOAD PUSH1 0x24 ADD PUSH2 0xAEF SWAP2 SWAP1 PUSH2 0x2079 JUMP JUMPDEST PUSH1 0x40 MLOAD PUSH1 0x20 DUP2 DUP4 SUB SUB DUP2 MSTORE SWAP1 PUSH1 0x40 MSTORE PUSH32 0x27B7CF8500000000000000000000000000000000000000000000000000000000 PUSH28 0xFFFFFFFFFFFFFFFFFFFFFFFFFFFFFFFFFFFFFFFFFFFFFFFFFFFFFFFF NOT AND PUSH1 0x20 DUP3 ADD DUP1 MLOAD PUSH28 0xFFFFFFFFFFFFFFFFFFFFFFFFFFFFFFFFFFFFFFFFFFFFFFFFFFFFFFFF DUP4 DUP2 DUP4 AND OR DUP4 MSTORE POP POP POP POP PUSH2 0xD39 JUMP JUMPDEST POP JUMP JUMPDEST PUSH1 0x60 PUSH1 0x0 PUSH1 0x2 DUP4 PUSH2 0xB85 SWAP2 SWAP1 PUSH2 0x21A5 JUMP JUMPDEST PUSH1 0x2 PUSH2 0xB91 SWAP2 SWAP1 PUSH2 0x256B JUMP JUMPDEST SWAP1 POP DUP1 DUP5 PUSH1 0x40 MLOAD PUSH1 0x20 ADD PUSH2 0xBA6 SWAP3 SWAP2 SWAP1 PUSH2 0x259F JUMP JUMPDEST PUSH1 0x40 MLOAD PUSH1 0x20 DUP2 DUP4 SUB SUB DUP2 MSTORE SWAP1 PUSH1 0x40 MSTORE SWAP2 POP POP SWAP3 SWAP2 POP POP JUMP JUMPDEST PUSH1 0x0 PUSH2 0xBEF DUP4 DUP4 PUSH1 0x0 PUSH1 0x7 PUSH32 0xFFFFFFFFFFFFFFFFFFFFFFFFFFFFFFFFFFFFFFFFFFFFFFFFFFFFFFFEFFFFFC2F PUSH2 0xD8D JUMP JUMPDEST SWAP1 POP SWAP3 SWAP2 POP POP JUMP JUMPDEST PUSH1 0x0 DUP6 PUSH1 0x0 EQ DUP1 PUSH2 0xC08 JUMPI POP DUP2 DUP7 LT ISZERO JUMPDEST DUP1 PUSH2 0xC13 JUMPI POP DUP5 PUSH1 0x0 EQ JUMPDEST DUP1 PUSH2 0xC1E JUMPI POP DUP2 DUP6 LT ISZERO JUMPDEST ISZERO PUSH2 0xC2C JUMPI PUSH1 0x0 SWAP1 POP PUSH2 0xCBC JUMP JUMPDEST PUSH1 0x0 DUP3 DUP1 PUSH2 0xC3D JUMPI PUSH2 0xC3C PUSH2 0x2176 JUMP JUMPDEST JUMPDEST DUP7 DUP8 MULMOD SWAP1 POP PUSH1 0x0 DUP4 DUP1 PUSH2 0xC53 JUMPI PUSH2 0xC52 PUSH2 0x2176 JUMP JUMPDEST JUMPDEST DUP9 DUP6 DUP1 PUSH2 0xC63 JUMPI PUSH2 0xC62 PUSH2 0x2176 JUMP JUMPDEST JUMPDEST DUP11 DUP12 MULMOD MULMOD SWAP1 POP PUSH1 0x0 DUP7 EQ PUSH2 0xC97 JUMPI DUP4 DUP1 PUSH2 0xC80 JUMPI PUSH2 0xC7F PUSH2 0x2176 JUMP JUMPDEST JUMPDEST DUP5 DUP1 PUSH2 0xC8F JUMPI PUSH2 0xC8E PUSH2 0x2176 JUMP JUMPDEST JUMPDEST DUP8 DUP11 MULMOD DUP3 ADDMOD SWAP1 POP JUMPDEST PUSH1 0x0 DUP6 EQ PUSH2 0xCB4 JUMPI DUP4 DUP1 PUSH2 0xCAE JUMPI PUSH2 0xCAD PUSH2 0x2176 JUMP JUMPDEST JUMPDEST DUP6 DUP3 ADDMOD SWAP1 POP JUMPDEST DUP1 DUP3 EQ SWAP3 POP POP POP JUMPDEST SWAP6 SWAP5 POP POP POP POP POP JUMP JUMPDEST PUSH1 0x0 DUP1 PUSH1 0x0 DUP1 PUSH2 0xCD6 DUP11 DUP11 DUP11 PUSH2 0x9D0 JUMP JUMPDEST SWAP2 POP SWAP2 POP PUSH1 0x0 DUP1 PUSH2 0xCE8 DUP10 DUP10 DUP10 PUSH2 0x9D0 JUMP JUMPDEST SWAP2 POP SWAP2 POP PUSH1 0x0 DUP1 PUSH2 0xD1E DUP7 DUP7 DUP7 DUP7 PUSH1 0x0 PUSH32 0xFFFFFFFFFFFFFFFFFFFFFFFFFFFFFFFFFFFFFFFFFFFFFFFFFFFFFFFEFFFFFC2F PUSH2 0xEA8 JUMP JUMPDEST SWAP2 POP SWAP2 POP DUP2 DUP2 SWAP8 POP SWAP8 POP POP POP POP POP POP POP SWAP7 POP SWAP7 SWAP5 POP POP POP POP POP JUMP JUMPDEST PUSH2 0xD50 DUP2 PUSH2 0xD48 PUSH2 0xEDC PUSH2 0xEFD JUMP JUMPDEST PUSH4 0xFFFFFFFF AND JUMP JUMPDEST POP JUMP JUMPDEST PUSH1 0x0 DUP1 PUSH1 0x0 DUP1 PUSH1 0x0 PUSH2 0xD6A DUP11 DUP11 DUP11 PUSH1 0x1 DUP12 DUP12 PUSH2 0xF08 JUMP JUMPDEST SWAP3 POP SWAP3 POP SWAP3 POP PUSH2 0xD7C DUP4 DUP4 DUP4 DUP10 PUSH2 0xFA7 JUMP JUMPDEST SWAP5 POP SWAP5 POP POP POP POP SWAP6 POP SWAP6 SWAP4 POP POP POP POP JUMP JUMPDEST PUSH1 0x0 PUSH1 0x2 DUP7 PUSH1 0xFF AND EQ DUP1 PUSH2 0xDA4 JUMPI POP PUSH1 0x3 DUP7 PUSH1 0xFF AND EQ JUMPDEST PUSH2 0xDE3 JUMPI PUSH1 0x40 MLOAD PUSH32 0x8C379A000000000000000000000000000000000000000000000000000000000 DUP2 MSTORE PUSH1 0x4 ADD PUSH2 0xDDA SWAP1 PUSH2 0x263D JUMP JUMPDEST PUSH1 0x40 MLOAD DUP1 SWAP2 SUB SWAP1 REVERT JUMPDEST PUSH1 0x0 DUP3 DUP1 PUSH2 0xDF4 JUMPI PUSH2 0xDF3 PUSH2 0x2176 JUMP JUMPDEST JUMPDEST DUP4 DUP1 PUSH2 0xE03 JUMPI PUSH2 0xE02 PUSH2 0x2176 JUMP JUMPDEST JUMPDEST DUP6 DUP6 DUP1 PUSH2 0xE13 JUMPI PUSH2 0xE12 PUSH2 0x2176 JUMP JUMPDEST JUMPDEST DUP9 DUP11 MULMOD ADDMOD DUP5 DUP1 PUSH2 0xE26 JUMPI PUSH2 0xE25 PUSH2 0x2176 JUMP JUMPDEST JUMPDEST DUP6 DUP1 PUSH2 0xE35 JUMPI PUSH2 0xE34 PUSH2 0x2176 JUMP JUMPDEST JUMPDEST DUP10 DUP11 MULMOD DUP10 MULMOD ADDMOD SWAP1 POP PUSH2 0xE60 DUP2 PUSH1 0x4 PUSH1 0x1 DUP7 PUSH2 0xE50 SWAP2 SWAP1 PUSH2 0x256B JUMP JUMPDEST PUSH2 0xE5A SWAP2 SWAP1 PUSH2 0x265D JUMP JUMPDEST DUP6 PUSH2 0x101E JUMP JUMPDEST SWAP1 POP PUSH1 0x0 DUP1 PUSH1 0x2 DUP10 PUSH1 0xFF AND DUP5 PUSH2 0xE76 SWAP2 SWAP1 PUSH2 0x256B JUMP JUMPDEST PUSH2 0xE80 SWAP2 SWAP1 PUSH2 0x21A5 JUMP JUMPDEST EQ PUSH2 0xE96 JUMPI DUP2 DUP5 PUSH2 0xE91 SWAP2 SWAP1 PUSH2 0x268E JUMP JUMPDEST PUSH2 0xE98 JUMP JUMPDEST DUP2 JUMPDEST SWAP1 POP DUP1 SWAP3 POP POP POP SWAP6 SWAP5 POP POP POP POP POP JUMP JUMPDEST PUSH1 0x0 DUP1 PUSH1 0x0 DUP1 PUSH2 0xEB9 DUP9 DUP9 DUP8 PUSH2 0x1116 JUMP JUMPDEST SWAP2 POP SWAP2 POP PUSH2 0xECB DUP11 DUP11 DUP5 DUP5 DUP11 DUP11 PUSH2 0x113D JUMP JUMPDEST SWAP4 POP SWAP4 POP POP POP SWAP7 POP SWAP7 SWAP5 POP POP POP POP POP JUMP JUMPDEST PUSH1 0x0 PUSH11 0x636F6E736F6C652E6C6F67 SWAP1 POP PUSH1 0x0 DUP1 DUP4 MLOAD PUSH1 0x20 DUP6 ADD DUP5 GAS STATICCALL POP POP POP JUMP JUMPDEST PUSH2 0x1B1B DUP2 SWAP1 POP SWAP2 SWAP1 POP JUMP JUMPDEST PUSH1 0x0 DUP1 PUSH1 0x0 DUP1 DUP10 SUB PUSH2 0xF22 JUMPI DUP8 DUP8 DUP8 SWAP3 POP SWAP3 POP SWAP3 POP PUSH2 0xF9B JUMP JUMPDEST PUSH1 0x0 DUP10 SWAP1 POP PUSH1 0x0 DUP1 PUSH1 0x0 PUSH1 0x1 SWAP1 POP JUMPDEST PUSH1 0x0 DUP5 EQ PUSH2 0xF8D JUMPI PUSH1 0x0 PUSH1 0x1 DUP6 AND EQ PUSH2 0xF60 JUMPI PUSH2 0xF53 DUP4 DUP4 DUP4 DUP16 DUP16 DUP16 DUP15 PUSH2 0x11D0 JUMP JUMPDEST DUP1 SWAP4 POP DUP2 SWAP5 POP DUP3 SWAP6 POP POP POP POP JUMPDEST PUSH1 0x2 DUP5 PUSH2 0xF6D SWAP2 SWAP1 PUSH2 0x265D JUMP JUMPDEST SWAP4 POP PUSH2 0xF7C DUP13 DUP13 DUP13 DUP13 DUP13 PUSH2 0x184F JUMP JUMPDEST DUP1 SWAP13 POP DUP2 SWAP14 POP DUP3 SWAP15 POP POP POP POP PUSH2 0xF31 JUMP JUMPDEST DUP3 DUP3 DUP3 SWAP7 POP SWAP7 POP SWAP7 POP POP POP POP POP JUMPDEST SWAP7 POP SWAP7 POP SWAP7 SWAP4 POP POP POP POP JUMP JUMPDEST PUSH1 0x0 DUP1 PUSH1 0x0 PUSH2 0xFB6 DUP6 DUP6 PUSH2 0x1A0D JUMP JUMPDEST SWAP1 POP PUSH1 0x0 DUP5 DUP1 PUSH2 0xFC9 JUMPI PUSH2 0xFC8 PUSH2 0x2176 JUMP JUMPDEST JUMPDEST DUP3 DUP4 MULMOD SWAP1 POP PUSH1 0x0 DUP6 DUP1 PUSH2 0xFDF JUMPI PUSH2 0xFDE PUSH2 0x2176 JUMP JUMPDEST JUMPDEST DUP3 DUP11 MULMOD SWAP1 POP PUSH1 0x0 DUP7 DUP1 PUSH2 0xFF5 JUMPI PUSH2 0xFF4 PUSH2 0x2176 JUMP JUMPDEST JUMPDEST DUP8 DUP1 PUSH2 0x1004 JUMPI PUSH2 0x1003 PUSH2 0x2176 JUMP JUMPDEST JUMPDEST DUP5 DUP7 MULMOD DUP11 MULMOD SWAP1 POP DUP2 DUP2 SWAP6 POP SWAP6 POP POP POP POP POP SWAP5 POP SWAP5 SWAP3 POP POP POP JUMP JUMPDEST PUSH1 0x0 DUP1 DUP3 SUB PUSH2 0x1062 JUMPI PUSH1 0x40 MLOAD PUSH32 0x8C379A000000000000000000000000000000000000000000000000000000000 DUP2 MSTORE PUSH1 0x4 ADD PUSH2 0x1059 SWAP1 PUSH2 0x270E JUMP JUMPDEST PUSH1 0x40 MLOAD DUP1 SWAP2 SUB SWAP1 REVERT JUMPDEST PUSH1 0x0 DUP5 SUB PUSH2 0x1073 JUMPI PUSH1 0x0 SWAP1 POP PUSH2 0x110F JUMP JUMPDEST PUSH1 0x0 DUP4 SUB PUSH2 0x1084 JUMPI PUSH1 0x1 SWAP1 POP PUSH2 0x110F JUMP JUMPDEST PUSH1 0x0 PUSH1 0x1 SWAP1 POP PUSH1 0x0 PUSH32 0x8000000000000000000000000000000000000000000000000000000000000000 SWAP1 POP JUMPDEST PUSH1 0x0 DUP2 GT ISZERO PUSH2 0x1109 JUMPI DUP4 DUP2 DUP7 AND ISZERO ISZERO DUP8 EXP DUP6 DUP5 DUP6 MULMOD MULMOD SWAP2 POP DUP4 PUSH1 0x2 DUP3 DIV DUP7 AND ISZERO ISZERO DUP8 EXP DUP6 DUP5 DUP6 MULMOD MULMOD SWAP2 POP DUP4 PUSH1 0x4 DUP3 DIV DUP7 AND ISZERO ISZERO DUP8 EXP DUP6 DUP5 DUP6 MULMOD MULMOD SWAP2 POP DUP4 PUSH1 0x8 DUP3 DIV DUP7 AND ISZERO ISZERO DUP8 EXP DUP6 DUP5 DUP6 MULMOD MULMOD SWAP2 POP PUSH1 0x10 DUP2 DIV SWAP1 POP PUSH2 0x10B0 JUMP JUMPDEST DUP2 SWAP3 POP POP POP JUMPDEST SWAP4 SWAP3 POP POP POP JUMP JUMPDEST PUSH1 0x0 DUP1 DUP5 DUP4 DUP6 DUP6 PUSH2 0x1127 SWAP2 SWAP1 PUSH2 0x268E JUMP JUMPDEST PUSH2 0x1131 SWAP2 SWAP1 PUSH2 0x21A5 JUMP JUMPDEST SWAP2 POP SWAP2 POP SWAP4 POP SWAP4 SWAP2 POP POP JUMP JUMPDEST PUSH1 0x0 DUP1 PUSH1 0x0 DUP1 PUSH1 0x0 DUP9 DUP12 SUB PUSH2 0x1193 JUMPI PUSH1 0x0 DUP7 DUP1 PUSH2 0x115D JUMPI PUSH2 0x115C PUSH2 0x2176 JUMP JUMPDEST JUMPDEST DUP10 DUP13 ADDMOD SUB PUSH2 0x1174 JUMPI PUSH1 0x0 DUP1 SWAP5 POP SWAP5 POP POP POP POP PUSH2 0x11C5 JUMP JUMPDEST PUSH2 0x1182 DUP12 DUP12 PUSH1 0x1 DUP11 DUP11 PUSH2 0x184F JUMP JUMPDEST DUP1 SWAP4 POP DUP2 SWAP5 POP DUP3 SWAP6 POP POP POP POP PUSH2 0x11B1 JUMP JUMPDEST PUSH2 0x11A4 DUP12 DUP12 PUSH1 0x1 DUP13 DUP13 PUSH1 0x1 DUP13 PUSH2 0x11D0 JUMP JUMPDEST DUP1 SWAP4 POP DUP2 SWAP5 POP DUP3 SWAP6 POP POP POP POP JUMPDEST PUSH2 0x11BD DUP4 DUP4 DUP4 DUP10 PUSH2 0xFA7 JUMP JUMPDEST SWAP5 POP SWAP5 POP POP POP POP JUMPDEST SWAP7 POP SWAP7 SWAP5 POP POP POP POP POP JUMP JUMPDEST PUSH1 0x0 DUP1 PUSH1 0x0 DUP1 DUP11 EQ DUP1 ISZERO PUSH2 0x11E4 JUMPI POP PUSH1 0x0 DUP10 EQ JUMPDEST ISZERO PUSH2 0x11F7 JUMPI DUP7 DUP7 DUP7 SWAP3 POP SWAP3 POP SWAP3 POP PUSH2 0x1842 JUMP JUMPDEST PUSH1 0x0 DUP8 EQ DUP1 ISZERO PUSH2 0x1207 JUMPI POP PUSH1 0x0 DUP7 EQ JUMPDEST ISZERO PUSH2 0x121A JUMPI DUP10 DUP10 DUP10 SWAP3 POP SWAP3 POP SWAP3 POP PUSH2 0x1842 JUMP JUMPDEST PUSH2 0x1222 PUSH2 0x1AF9 JUMP JUMPDEST DUP5 DUP1 PUSH2 0x1231 JUMPI PUSH2 0x1230 PUSH2 0x2176 JUMP JUMPDEST JUMPDEST DUP10 DUP11 MULMOD DUP2 PUSH1 0x0 PUSH1 0x4 DUP2 LT PUSH2 0x1248 JUMPI PUSH2 0x1247 PUSH2 0x21D6 JUMP JUMPDEST JUMPDEST PUSH1 0x20 MUL ADD DUP2 DUP2 MSTORE POP POP DUP5 DUP1 PUSH2 0x1260 JUMPI PUSH2 0x125F PUSH2 0x2176 JUMP JUMPDEST JUMPDEST DUP2 PUSH1 0x0 PUSH1 0x4 DUP2 LT PUSH2 0x1274 JUMPI PUSH2 0x1273 PUSH2 0x21D6 JUMP JUMPDEST JUMPDEST PUSH1 0x20 MUL ADD MLOAD DUP11 MULMOD DUP2 PUSH1 0x1 PUSH1 0x4 DUP2 LT PUSH2 0x128F JUMPI PUSH2 0x128E PUSH2 0x21D6 JUMP JUMPDEST JUMPDEST PUSH1 0x20 MUL ADD DUP2 DUP2 MSTORE POP POP DUP5 DUP1 PUSH2 0x12A7 JUMPI PUSH2 0x12A6 PUSH2 0x2176 JUMP JUMPDEST JUMPDEST DUP7 DUP8 MULMOD DUP2 PUSH1 0x2 PUSH1 0x4 DUP2 LT PUSH2 0x12BE JUMPI PUSH2 0x12BD PUSH2 0x21D6 JUMP JUMPDEST JUMPDEST PUSH1 0x20 MUL ADD DUP2 DUP2 MSTORE POP POP DUP5 DUP1 PUSH2 0x12D6 JUMPI PUSH2 0x12D5 PUSH2 0x2176 JUMP JUMPDEST JUMPDEST DUP2 PUSH1 0x2 PUSH1 0x4 DUP2 LT PUSH2 0x12EA JUMPI PUSH2 0x12E9 PUSH2 0x21D6 JUMP JUMPDEST JUMPDEST PUSH1 0x20 MUL ADD MLOAD DUP8 MULMOD DUP2 PUSH1 0x3 PUSH1 0x4 DUP2 LT PUSH2 0x1305 JUMPI PUSH2 0x1304 PUSH2 0x21D6 JUMP JUMPDEST JUMPDEST PUSH1 0x20 MUL ADD DUP2 DUP2 MSTORE POP POP PUSH1 0x40 MLOAD DUP1 PUSH1 0x80 ADD PUSH1 0x40 MSTORE DUP1 DUP7 DUP1 PUSH2 0x1328 JUMPI PUSH2 0x1327 PUSH2 0x2176 JUMP JUMPDEST JUMPDEST DUP4 PUSH1 0x2 PUSH1 0x4 DUP2 LT PUSH2 0x133C JUMPI PUSH2 0x133B PUSH2 0x21D6 JUMP JUMPDEST JUMPDEST PUSH1 0x20 MUL ADD MLOAD DUP15 MULMOD DUP2 MSTORE PUSH1 0x20 ADD DUP7 DUP1 PUSH2 0x1357 JUMPI PUSH2 0x1356 PUSH2 0x2176 JUMP JUMPDEST JUMPDEST DUP4 PUSH1 0x3 PUSH1 0x4 DUP2 LT PUSH2 0x136B JUMPI PUSH2 0x136A PUSH2 0x21D6 JUMP JUMPDEST JUMPDEST PUSH1 0x20 MUL ADD MLOAD DUP14 MULMOD DUP2 MSTORE PUSH1 0x20 ADD DUP7 DUP1 PUSH2 0x1386 JUMPI PUSH2 0x1385 PUSH2 0x2176 JUMP JUMPDEST JUMPDEST DUP4 PUSH1 0x0 PUSH1 0x4 DUP2 LT PUSH2 0x139A JUMPI PUSH2 0x1399 PUSH2 0x21D6 JUMP JUMPDEST JUMPDEST PUSH1 0x20 MUL ADD MLOAD DUP12 MULMOD DUP2 MSTORE PUSH1 0x20 ADD DUP7 DUP1 PUSH2 0x13B5 JUMPI PUSH2 0x13B4 PUSH2 0x2176 JUMP JUMPDEST JUMPDEST DUP4 PUSH1 0x1 PUSH1 0x4 DUP2 LT PUSH2 0x13C9 JUMPI PUSH2 0x13C8 PUSH2 0x21D6 JUMP JUMPDEST JUMPDEST PUSH1 0x20 MUL ADD MLOAD DUP11 MULMOD DUP2 MSTORE POP SWAP1 POP DUP1 PUSH1 0x2 PUSH1 0x4 DUP2 LT PUSH2 0x13E9 JUMPI PUSH2 0x13E8 PUSH2 0x21D6 JUMP JUMPDEST JUMPDEST PUSH1 0x20 MUL ADD MLOAD DUP2 PUSH1 0x0 PUSH1 0x4 DUP2 LT PUSH2 0x1402 JUMPI PUSH2 0x1401 PUSH2 0x21D6 JUMP JUMPDEST JUMPDEST PUSH1 0x20 MUL ADD MLOAD EQ ISZERO DUP1 PUSH2 0x1444 JUMPI POP DUP1 PUSH1 0x3 PUSH1 0x4 DUP2 LT PUSH2 0x1423 JUMPI PUSH2 0x1422 PUSH2 0x21D6 JUMP JUMPDEST JUMPDEST PUSH1 0x20 MUL ADD MLOAD DUP2 PUSH1 0x1 PUSH1 0x4 DUP2 LT PUSH2 0x143C JUMPI PUSH2 0x143B PUSH2 0x21D6 JUMP JUMPDEST JUMPDEST PUSH1 0x20 MUL ADD MLOAD EQ ISZERO JUMPDEST PUSH2 0x1483 JUMPI PUSH1 0x40 MLOAD PUSH32 0x8C379A000000000000000000000000000000000000000000000000000000000 DUP2 MSTORE PUSH1 0x4 ADD PUSH2 0x147A SWAP1 PUSH2 0x277A JUMP JUMPDEST PUSH1 0x40 MLOAD DUP1 SWAP2 SUB SWAP1 REVERT JUMPDEST PUSH2 0x148B PUSH2 0x1AF9 JUMP JUMPDEST DUP6 DUP1 PUSH2 0x149A JUMPI PUSH2 0x1499 PUSH2 0x2176 JUMP JUMPDEST JUMPDEST DUP3 PUSH1 0x0 PUSH1 0x4 DUP2 LT PUSH2 0x14AE JUMPI PUSH2 0x14AD PUSH2 0x21D6 JUMP JUMPDEST JUMPDEST PUSH1 0x20 MUL ADD MLOAD DUP8 PUSH2 0x14BE SWAP2 SWAP1 PUSH2 0x268E JUMP JUMPDEST DUP4 PUSH1 0x2 PUSH1 0x4 DUP2 LT PUSH2 0x14D2 JUMPI PUSH2 0x14D1 PUSH2 0x21D6 JUMP JUMPDEST JUMPDEST PUSH1 0x20 MUL ADD MLOAD ADDMOD DUP2 PUSH1 0x0 PUSH1 0x4 DUP2 LT PUSH2 0x14EC JUMPI PUSH2 0x14EB PUSH2 0x21D6 JUMP JUMPDEST JUMPDEST PUSH1 0x20 MUL ADD DUP2 DUP2 MSTORE POP POP DUP6 DUP1 PUSH2 0x1504 JUMPI PUSH2 0x1503 PUSH2 0x2176 JUMP JUMPDEST JUMPDEST DUP3 PUSH1 0x1 PUSH1 0x4 DUP2 LT PUSH2 0x1518 JUMPI PUSH2 0x1517 PUSH2 0x21D6 JUMP JUMPDEST JUMPDEST PUSH1 0x20 MUL ADD MLOAD DUP8 PUSH2 0x1528 SWAP2 SWAP1 PUSH2 0x268E JUMP JUMPDEST DUP4 PUSH1 0x3 PUSH1 0x4 DUP2 LT PUSH2 0x153C JUMPI PUSH2 0x153B PUSH2 0x21D6 JUMP JUMPDEST JUMPDEST PUSH1 0x20 MUL ADD MLOAD ADDMOD DUP2 PUSH1 0x1 PUSH1 0x4 DUP2 LT PUSH2 0x1556 JUMPI PUSH2 0x1555 PUSH2 0x21D6 JUMP JUMPDEST JUMPDEST PUSH1 0x20 MUL ADD DUP2 DUP2 MSTORE POP POP DUP6 DUP1 PUSH2 0x156E JUMPI PUSH2 0x156D PUSH2 0x2176 JUMP JUMPDEST JUMPDEST DUP2 PUSH1 0x0 PUSH1 0x4 DUP2 LT PUSH2 0x1582 JUMPI PUSH2 0x1581 PUSH2 0x21D6 JUMP JUMPDEST JUMPDEST PUSH1 0x20 MUL ADD MLOAD DUP3 PUSH1 0x0 PUSH1 0x4 DUP2 LT PUSH2 0x159B JUMPI PUSH2 0x159A PUSH2 0x21D6 JUMP JUMPDEST JUMPDEST PUSH1 0x20 MUL ADD MLOAD MULMOD DUP2 PUSH1 0x2 PUSH1 0x4 DUP2 LT PUSH2 0x15B5 JUMPI PUSH2 0x15B4 PUSH2 0x21D6 JUMP JUMPDEST JUMPDEST PUSH1 0x20 MUL ADD DUP2 DUP2 MSTORE POP POP DUP6 DUP1 PUSH2 0x15CD JUMPI PUSH2 0x15CC PUSH2 0x2176 JUMP JUMPDEST JUMPDEST DUP2 PUSH1 0x0 PUSH1 0x4 DUP2 LT PUSH2 0x15E1 JUMPI PUSH2 0x15E0 PUSH2 0x21D6 JUMP JUMPDEST JUMPDEST PUSH1 0x20 MUL ADD MLOAD DUP3 PUSH1 0x2 PUSH1 0x4 DUP2 LT PUSH2 0x15FA JUMPI PUSH2 0x15F9 PUSH2 0x21D6 JUMP JUMPDEST JUMPDEST PUSH1 0x20 MUL ADD MLOAD MULMOD DUP2 PUSH1 0x3 PUSH1 0x4 DUP2 LT PUSH2 0x1614 JUMPI PUSH2 0x1613 PUSH2 0x21D6 JUMP JUMPDEST JUMPDEST PUSH1 0x20 MUL ADD DUP2 DUP2 MSTORE POP POP PUSH1 0x0 DUP7 DUP1 PUSH2 0x162E JUMPI PUSH2 0x162D PUSH2 0x2176 JUMP JUMPDEST JUMPDEST DUP3 PUSH1 0x3 PUSH1 0x4 DUP2 LT PUSH2 0x1642 JUMPI PUSH2 0x1641 PUSH2 0x21D6 JUMP JUMPDEST JUMPDEST PUSH1 0x20 MUL ADD MLOAD DUP9 PUSH2 0x1652 SWAP2 SWAP1 PUSH2 0x268E JUMP JUMPDEST DUP9 DUP1 PUSH2 0x1661 JUMPI PUSH2 0x1660 PUSH2 0x2176 JUMP JUMPDEST JUMPDEST DUP5 PUSH1 0x1 PUSH1 0x4 DUP2 LT PUSH2 0x1675 JUMPI PUSH2 0x1674 PUSH2 0x21D6 JUMP JUMPDEST JUMPDEST PUSH1 0x20 MUL ADD MLOAD DUP6 PUSH1 0x1 PUSH1 0x4 DUP2 LT PUSH2 0x168E JUMPI PUSH2 0x168D PUSH2 0x21D6 JUMP JUMPDEST JUMPDEST PUSH1 0x20 MUL ADD MLOAD MULMOD ADDMOD SWAP1 POP DUP7 DUP1 PUSH2 0x16A6 JUMPI PUSH2 0x16A5 PUSH2 0x2176 JUMP JUMPDEST JUMPDEST DUP8 DUP1 PUSH2 0x16B5 JUMPI PUSH2 0x16B4 PUSH2 0x2176 JUMP JUMPDEST JUMPDEST DUP9 DUP1 PUSH2 0x16C4 JUMPI PUSH2 0x16C3 PUSH2 0x2176 JUMP JUMPDEST JUMPDEST DUP5 PUSH1 0x2 PUSH1 0x4 DUP2 LT PUSH2 0x16D8 JUMPI PUSH2 0x16D7 PUSH2 0x21D6 JUMP JUMPDEST JUMPDEST PUSH1 0x20 MUL ADD MLOAD DUP7 PUSH1 0x0 PUSH1 0x4 DUP2 LT PUSH2 0x16F1 JUMPI PUSH2 0x16F0 PUSH2 0x21D6 JUMP JUMPDEST JUMPDEST PUSH1 0x20 MUL ADD MLOAD MULMOD PUSH1 0x2 MULMOD DUP9 PUSH2 0x1705 SWAP2 SWAP1 PUSH2 0x268E JUMP JUMPDEST DUP3 ADDMOD SWAP1 POP PUSH1 0x0 DUP8 DUP1 PUSH2 0x171A JUMPI PUSH2 0x1719 PUSH2 0x2176 JUMP JUMPDEST JUMPDEST DUP9 DUP1 PUSH2 0x1729 JUMPI PUSH2 0x1728 PUSH2 0x2176 JUMP JUMPDEST JUMPDEST DUP4 DUP11 PUSH2 0x1735 SWAP2 SWAP1 PUSH2 0x268E JUMP JUMPDEST DUP11 DUP1 PUSH2 0x1744 JUMPI PUSH2 0x1743 PUSH2 0x2176 JUMP JUMPDEST JUMPDEST DUP7 PUSH1 0x2 PUSH1 0x4 DUP2 LT PUSH2 0x1758 JUMPI PUSH2 0x1757 PUSH2 0x21D6 JUMP JUMPDEST JUMPDEST PUSH1 0x20 MUL ADD MLOAD DUP9 PUSH1 0x0 PUSH1 0x4 DUP2 LT PUSH2 0x1771 JUMPI PUSH2 0x1770 PUSH2 0x21D6 JUMP JUMPDEST JUMPDEST PUSH1 0x20 MUL ADD MLOAD MULMOD ADDMOD DUP5 PUSH1 0x1 PUSH1 0x4 DUP2 LT PUSH2 0x178C JUMPI PUSH2 0x178B PUSH2 0x21D6 JUMP JUMPDEST JUMPDEST PUSH1 0x20 MUL ADD MLOAD MULMOD SWAP1 POP DUP8 DUP1 PUSH2 0x17A3 JUMPI PUSH2 0x17A2 PUSH2 0x2176 JUMP JUMPDEST JUMPDEST DUP9 DUP1 PUSH2 0x17B2 JUMPI PUSH2 0x17B1 PUSH2 0x2176 JUMP JUMPDEST JUMPDEST DUP5 PUSH1 0x3 PUSH1 0x4 DUP2 LT PUSH2 0x17C6 JUMPI PUSH2 0x17C5 PUSH2 0x21D6 JUMP JUMPDEST JUMPDEST PUSH1 0x20 MUL ADD MLOAD DUP7 PUSH1 0x1 PUSH1 0x4 DUP2 LT PUSH2 0x17DF JUMPI PUSH2 0x17DE PUSH2 0x21D6 JUMP JUMPDEST JUMPDEST PUSH1 0x20 MUL ADD MLOAD MULMOD DUP10 PUSH2 0x17F0 SWAP2 SWAP1 PUSH2 0x268E JUMP JUMPDEST DUP3 ADDMOD SWAP1 POP PUSH1 0x0 DUP9 DUP1 PUSH2 0x1805 JUMPI PUSH2 0x1804 PUSH2 0x2176 JUMP JUMPDEST JUMPDEST DUP10 DUP1 PUSH2 0x1814 JUMPI PUSH2 0x1813 PUSH2 0x2176 JUMP JUMPDEST JUMPDEST DUP12 DUP16 MULMOD DUP6 PUSH1 0x0 PUSH1 0x4 DUP2 LT PUSH2 0x182B JUMPI PUSH2 0x182A PUSH2 0x21D6 JUMP JUMPDEST JUMPDEST PUSH1 0x20 MUL ADD MLOAD MULMOD SWAP1 POP DUP3 DUP3 DUP3 SWAP8 POP SWAP8 POP SWAP8 POP POP POP POP POP POP JUMPDEST SWAP8 POP SWAP8 POP SWAP8 SWAP5 POP POP POP POP POP JUMP JUMPDEST PUSH1 0x0 DUP1 PUSH1 0x0 DUP1 DUP7 SUB PUSH2 0x1869 JUMPI DUP8 DUP8 DUP8 SWAP3 POP SWAP3 POP SWAP3 POP PUSH2 0x1A02 JUMP JUMPDEST PUSH1 0x0 DUP5 DUP1 PUSH2 0x187A JUMPI PUSH2 0x1879 PUSH2 0x2176 JUMP JUMPDEST JUMPDEST DUP10 DUP11 MULMOD SWAP1 POP PUSH1 0x0 DUP6 DUP1 PUSH2 0x1890 JUMPI PUSH2 0x188F PUSH2 0x2176 JUMP JUMPDEST JUMPDEST DUP10 DUP11 MULMOD SWAP1 POP PUSH1 0x0 DUP7 DUP1 PUSH2 0x18A6 JUMPI PUSH2 0x18A5 PUSH2 0x2176 JUMP JUMPDEST JUMPDEST DUP10 DUP11 MULMOD SWAP1 POP PUSH1 0x0 DUP8 DUP1 PUSH2 0x18BC JUMPI PUSH2 0x18BB PUSH2 0x2176 JUMP JUMPDEST JUMPDEST DUP9 DUP1 PUSH2 0x18CB JUMPI PUSH2 0x18CA PUSH2 0x2176 JUMP JUMPDEST JUMPDEST DUP5 DUP15 MULMOD PUSH1 0x4 MULMOD SWAP1 POP PUSH1 0x0 DUP9 DUP1 PUSH2 0x18E4 JUMPI PUSH2 0x18E3 PUSH2 0x2176 JUMP JUMPDEST JUMPDEST DUP10 DUP1 PUSH2 0x18F3 JUMPI PUSH2 0x18F2 PUSH2 0x2176 JUMP JUMPDEST JUMPDEST DUP11 DUP1 PUSH2 0x1902 JUMPI PUSH2 0x1901 PUSH2 0x2176 JUMP JUMPDEST JUMPDEST DUP6 DUP7 MULMOD DUP13 MULMOD DUP11 DUP1 PUSH2 0x1916 JUMPI PUSH2 0x1915 PUSH2 0x2176 JUMP JUMPDEST JUMPDEST DUP8 PUSH1 0x3 MULMOD ADDMOD SWAP1 POP DUP9 DUP1 PUSH2 0x192C JUMPI PUSH2 0x192B PUSH2 0x2176 JUMP JUMPDEST JUMPDEST DUP10 DUP1 PUSH2 0x193B JUMPI PUSH2 0x193A PUSH2 0x2176 JUMP JUMPDEST JUMPDEST DUP4 DUP5 ADDMOD DUP11 PUSH2 0x1949 SWAP2 SWAP1 PUSH2 0x268E JUMP JUMPDEST DUP11 DUP1 PUSH2 0x1958 JUMPI PUSH2 0x1957 PUSH2 0x2176 JUMP JUMPDEST JUMPDEST DUP4 DUP5 MULMOD ADDMOD SWAP5 POP DUP9 DUP1 PUSH2 0x196D JUMPI PUSH2 0x196C PUSH2 0x2176 JUMP JUMPDEST JUMPDEST DUP10 DUP1 PUSH2 0x197C JUMPI PUSH2 0x197B PUSH2 0x2176 JUMP JUMPDEST JUMPDEST DUP11 DUP1 PUSH2 0x198B JUMPI PUSH2 0x198A PUSH2 0x2176 JUMP JUMPDEST JUMPDEST DUP7 DUP8 MULMOD PUSH1 0x8 MULMOD DUP11 PUSH2 0x199C SWAP2 SWAP1 PUSH2 0x268E JUMP JUMPDEST DUP11 DUP1 PUSH2 0x19AB JUMPI PUSH2 0x19AA PUSH2 0x2176 JUMP JUMPDEST JUMPDEST DUP12 DUP1 PUSH2 0x19BA JUMPI PUSH2 0x19B9 PUSH2 0x2176 JUMP JUMPDEST JUMPDEST DUP9 DUP14 PUSH2 0x19C6 SWAP2 SWAP1 PUSH2 0x268E JUMP JUMPDEST DUP7 ADDMOD DUP5 MULMOD ADDMOD SWAP4 POP DUP9 DUP1 PUSH2 0x19DC JUMPI PUSH2 0x19DB PUSH2 0x2176 JUMP JUMPDEST JUMPDEST DUP10 DUP1 PUSH2 0x19EB JUMPI PUSH2 0x19EA PUSH2 0x2176 JUMP JUMPDEST JUMPDEST DUP13 DUP15 MULMOD PUSH1 0x2 MULMOD SWAP3 POP DUP5 DUP5 DUP5 SWAP8 POP SWAP8 POP SWAP8 POP POP POP POP POP POP JUMPDEST SWAP6 POP SWAP6 POP SWAP6 SWAP3 POP POP POP JUMP JUMPDEST PUSH1 0x0 DUP1 DUP4 EQ ISZERO DUP1 ISZERO PUSH2 0x1A1F JUMPI POP DUP2 DUP4 EQ ISZERO JUMPDEST DUP1 ISZERO PUSH2 0x1A2C JUMPI POP PUSH1 0x0 DUP3 EQ ISZERO JUMPDEST PUSH2 0x1A6B JUMPI PUSH1 0x40 MLOAD PUSH32 0x8C379A000000000000000000000000000000000000000000000000000000000 DUP2 MSTORE PUSH1 0x4 ADD PUSH2 0x1A62 SWAP1 PUSH2 0x27E6 JUMP JUMPDEST PUSH1 0x40 MLOAD DUP1 SWAP2 SUB SWAP1 REVERT JUMPDEST PUSH1 0x0 DUP1 PUSH1 0x1 SWAP1 POP PUSH1 0x0 DUP5 SWAP1 POP PUSH1 0x0 JUMPDEST PUSH1 0x0 DUP8 EQ PUSH2 0x1AEC JUMPI DUP7 DUP3 PUSH2 0x1A8E SWAP2 SWAP1 PUSH2 0x265D JUMP JUMPDEST SWAP1 POP DUP3 DUP7 DUP1 PUSH2 0x1AA0 JUMPI PUSH2 0x1A9F PUSH2 0x2176 JUMP JUMPDEST JUMPDEST DUP8 DUP1 PUSH2 0x1AAF JUMPI PUSH2 0x1AAE PUSH2 0x2176 JUMP JUMPDEST JUMPDEST DUP6 DUP5 MULMOD DUP9 PUSH2 0x1ABD SWAP2 SWAP1 PUSH2 0x268E JUMP JUMPDEST DUP7 ADDMOD DUP1 SWAP5 POP DUP2 SWAP6 POP POP POP DUP7 DUP8 DUP3 PUSH2 0x1AD4 SWAP2 SWAP1 PUSH2 0x2806 JUMP JUMPDEST DUP4 PUSH2 0x1ADF SWAP2 SWAP1 PUSH2 0x268E JUMP JUMPDEST DUP1 SWAP9 POP DUP2 SWAP4 POP POP POP PUSH2 0x1A7A JUMP JUMPDEST DUP4 SWAP5 POP POP POP POP POP SWAP3 SWAP2 POP POP JUMP JUMPDEST PUSH1 0x40 MLOAD DUP1 PUSH1 0x80 ADD PUSH1 0x40 MSTORE DUP1 PUSH1 0x4 SWAP1 PUSH1 0x20 DUP3 MUL DUP1 CALLDATASIZE DUP4 CALLDATACOPY DUP1 DUP3 ADD SWAP2 POP POP SWAP1 POP POP SWAP1 JUMP JUMPDEST PUSH2 0x1B23 PUSH2 0x2848 JUMP JUMPDEST JUMP JUMPDEST PUSH1 0x0 PUSH1 0x40 MLOAD SWAP1 POP SWAP1 JUMP JUMPDEST PUSH1 0x0 DUP1 REVERT JUMPDEST PUSH1 0x0 DUP1 REVERT JUMPDEST PUSH1 0x0 DUP1 REVERT JUMPDEST PUSH1 0x0 DUP1 REVERT JUMPDEST PUSH1 0x0 PUSH1 0x1F NOT PUSH1 0x1F DUP4 ADD AND SWAP1 POP SWAP2 SWAP1 POP JUMP JUMPDEST PUSH32 0x4E487B7100000000000000000000000000000000000000000000000000000000 PUSH1 0x0 MSTORE PUSH1 0x41 PUSH1 0x4 MSTORE PUSH1 0x24 PUSH1 0x0 REVERT JUMPDEST PUSH2 0x1B8C DUP3 PUSH2 0x1B43 JUMP JUMPDEST DUP2 ADD DUP2 DUP2 LT PUSH8 0xFFFFFFFFFFFFFFFF DUP3 GT OR ISZERO PUSH2 0x1BAB JUMPI PUSH2 0x1BAA PUSH2 0x1B54 JUMP JUMPDEST JUMPDEST DUP1 PUSH1 0x40 MSTORE POP POP POP JUMP JUMPDEST PUSH1 0x0 PUSH2 0x1BBE PUSH2 0x1B25 JUMP JUMPDEST SWAP1 POP PUSH2 0x1BCA DUP3 DUP3 PUSH2 0x1B83 JUMP JUMPDEST SWAP2 SWAP1 POP JUMP JUMPDEST PUSH1 0x0 PUSH8 0xFFFFFFFFFFFFFFFF DUP3 GT ISZERO PUSH2 0x1BEA JUMPI PUSH2 0x1BE9 PUSH2 0x1B54 JUMP JUMPDEST JUMPDEST PUSH2 0x1BF3 DUP3 PUSH2 0x1B43 JUMP JUMPDEST SWAP1 POP PUSH1 0x20 DUP2 ADD SWAP1 POP SWAP2 SWAP1 POP JUMP JUMPDEST DUP3 DUP2 DUP4 CALLDATACOPY PUSH1 0x0 DUP4 DUP4 ADD MSTORE POP POP POP JUMP JUMPDEST PUSH1 0x0 PUSH2 0x1C22 PUSH2 0x1C1D DUP5 PUSH2 0x1BCF JUMP JUMPDEST PUSH2 0x1BB4 JUMP JUMPDEST SWAP1 POP DUP3 DUP2 MSTORE PUSH1 0x20 DUP2 ADD DUP5 DUP5 DUP5 ADD GT ISZERO PUSH2 0x1C3E JUMPI PUSH2 0x1C3D PUSH2 0x1B3E JUMP JUMPDEST JUMPDEST PUSH2 0x1C49 DUP5 DUP3 DUP6 PUSH2 0x1C00 JUMP JUMPDEST POP SWAP4 SWAP3 POP POP POP JUMP JUMPDEST PUSH1 0x0 DUP3 PUSH1 0x1F DUP4 ADD SLT PUSH2 0x1C66 JUMPI PUSH2 0x1C65 PUSH2 0x1B39 JUMP JUMPDEST JUMPDEST DUP2 CALLDATALOAD PUSH2 0x1C76 DUP5 DUP3 PUSH1 0x20 DUP7 ADD PUSH2 0x1C0F JUMP JUMPDEST SWAP2 POP POP SWAP3 SWAP2 POP POP JUMP JUMPDEST PUSH1 0x0 PUSH8 0xFFFFFFFFFFFFFFFF DUP3 GT ISZERO PUSH2 0x1C9A JUMPI PUSH2 0x1C99 PUSH2 0x1B54 JUMP JUMPDEST JUMPDEST PUSH1 0x20 DUP3 MUL SWAP1 POP SWAP2 SWAP1 POP JUMP JUMPDEST PUSH1 0x0 DUP1 REVERT JUMPDEST PUSH1 0x0 DUP2 SWAP1 POP SWAP2 SWAP1 POP JUMP JUMPDEST PUSH2 0x1CBD DUP2 PUSH2 0x1CAA JUMP JUMPDEST DUP2 EQ PUSH2 0x1CC8 JUMPI PUSH1 0x0 DUP1 REVERT JUMPDEST POP JUMP JUMPDEST PUSH1 0x0 DUP2 CALLDATALOAD SWAP1 POP PUSH2 0x1CDA DUP2 PUSH2 0x1CB4 JUMP JUMPDEST SWAP3 SWAP2 POP POP JUMP JUMPDEST PUSH1 0x0 PUSH2 0x1CF3 PUSH2 0x1CEE DUP5 PUSH2 0x1C7F JUMP JUMPDEST PUSH2 0x1BB4 JUMP JUMPDEST SWAP1 POP DUP1 PUSH1 0x20 DUP5 MUL DUP4 ADD DUP6 DUP2 GT ISZERO PUSH2 0x1D0D JUMPI PUSH2 0x1D0C PUSH2 0x1CA5 JUMP JUMPDEST JUMPDEST DUP4 JUMPDEST DUP2 DUP2 LT ISZERO PUSH2 0x1D36 JUMPI DUP1 PUSH2 0x1D22 DUP9 DUP3 PUSH2 0x1CCB JUMP JUMPDEST DUP5 MSTORE PUSH1 0x20 DUP5 ADD SWAP4 POP POP PUSH1 0x20 DUP2 ADD SWAP1 POP PUSH2 0x1D0F JUMP JUMPDEST POP POP POP SWAP4 SWAP3 POP POP POP JUMP JUMPDEST PUSH1 0x0 DUP3 PUSH1 0x1F DUP4 ADD SLT PUSH2 0x1D55 JUMPI PUSH2 0x1D54 PUSH2 0x1B39 JUMP JUMPDEST JUMPDEST PUSH1 0x2 PUSH2 0x1D62 DUP5 DUP3 DUP6 PUSH2 0x1CE0 JUMP JUMPDEST SWAP2 POP POP SWAP3 SWAP2 POP POP JUMP JUMPDEST PUSH1 0x0 DUP1 PUSH1 0x60 DUP4 DUP6 SUB SLT ISZERO PUSH2 0x1D82 JUMPI PUSH2 0x1D81 PUSH2 0x1B2F JUMP JUMPDEST JUMPDEST PUSH1 0x0 DUP4 ADD CALLDATALOAD PUSH8 0xFFFFFFFFFFFFFFFF DUP2 GT ISZERO PUSH2 0x1DA0 JUMPI PUSH2 0x1D9F PUSH2 0x1B34 JUMP JUMPDEST JUMPDEST PUSH2 0x1DAC DUP6 DUP3 DUP7 ADD PUSH2 0x1C51 JUMP JUMPDEST SWAP3 POP POP PUSH1 0x20 PUSH2 0x1DBD DUP6 DUP3 DUP7 ADD PUSH2 0x1D40 JUMP JUMPDEST SWAP2 POP POP SWAP3 POP SWAP3 SWAP1 POP JUMP JUMPDEST PUSH1 0x0 DUP2 SWAP1 POP SWAP2 SWAP1 POP JUMP JUMPDEST PUSH2 0x1DDA DUP2 PUSH2 0x1DC7 JUMP JUMPDEST DUP3 MSTORE POP POP JUMP JUMPDEST PUSH1 0x0 PUSH1 0x4 SWAP1 POP SWAP2 SWAP1 POP JUMP JUMPDEST PUSH1 0x0 DUP2 SWAP1 POP SWAP3 SWAP2 POP POP JUMP JUMPDEST PUSH1 0x0 DUP2 SWAP1 POP SWAP2 SWAP1 POP JUMP JUMPDEST PUSH2 0x1E09 DUP2 PUSH2 0x1CAA JUMP JUMPDEST DUP3 MSTORE POP POP JUMP JUMPDEST PUSH1 0x0 PUSH2 0x1E1B DUP4 DUP4 PUSH2 0x1E00 JUMP JUMPDEST PUSH1 0x20 DUP4 ADD SWAP1 POP SWAP3 SWAP2 POP POP JUMP JUMPDEST PUSH1 0x0 PUSH1 0x20 DUP3 ADD SWAP1 POP SWAP2 SWAP1 POP JUMP JUMPDEST PUSH2 0x1E3D DUP2 PUSH2 0x1DE0 JUMP JUMPDEST PUSH2 0x1E47 DUP2 DUP5 PUSH2 0x1DEB JUMP JUMPDEST SWAP3 POP PUSH2 0x1E52 DUP3 PUSH2 0x1DF6 JUMP JUMPDEST DUP1 PUSH1 0x0 JUMPDEST DUP4 DUP2 LT ISZERO PUSH2 0x1E83 JUMPI DUP2 MLOAD PUSH2 0x1E6A DUP8 DUP3 PUSH2 0x1E0F JUMP JUMPDEST SWAP7 POP PUSH2 0x1E75 DUP4 PUSH2 0x1E27 JUMP JUMPDEST SWAP3 POP POP PUSH1 0x1 DUP2 ADD SWAP1 POP PUSH2 0x1E56 JUMP JUMPDEST POP POP POP POP POP POP JUMP JUMPDEST PUSH1 0x0 PUSH1 0xA0 DUP3 ADD SWAP1 POP PUSH2 0x1EA0 PUSH1 0x0 DUP4 ADD DUP6 PUSH2 0x1DD1 JUMP JUMPDEST PUSH2 0x1EAD PUSH1 0x20 DUP4 ADD DUP5 PUSH2 0x1E34 JUMP JUMPDEST SWAP4 SWAP3 POP POP POP JUMP JUMPDEST PUSH1 0x0 PUSH8 0xFFFFFFFFFFFFFFFF DUP3 GT ISZERO PUSH2 0x1ECF JUMPI PUSH2 0x1ECE PUSH2 0x1B54 JUMP JUMPDEST JUMPDEST PUSH1 0x20 DUP3 MUL SWAP1 POP SWAP2 SWAP1 POP JUMP JUMPDEST PUSH1 0x0 PUSH2 0x1EED PUSH2 0x1EE8 DUP5 PUSH2 0x1EB4 JUMP JUMPDEST PUSH2 0x1BB4 JUMP JUMPDEST SWAP1 POP DUP1 PUSH1 0x20 DUP5 MUL DUP4 ADD DUP6 DUP2 GT ISZERO PUSH2 0x1F07 JUMPI PUSH2 0x1F06 PUSH2 0x1CA5 JUMP JUMPDEST JUMPDEST DUP4 JUMPDEST DUP2 DUP2 LT ISZERO PUSH2 0x1F30 JUMPI DUP1 PUSH2 0x1F1C DUP9 DUP3 PUSH2 0x1CCB JUMP JUMPDEST DUP5 MSTORE PUSH1 0x20 DUP5 ADD SWAP4 POP POP PUSH1 0x20 DUP2 ADD SWAP1 POP PUSH2 0x1F09 JUMP JUMPDEST POP POP POP SWAP4 SWAP3 POP POP POP JUMP JUMPDEST PUSH1 0x0 DUP3 PUSH1 0x1F DUP4 ADD SLT PUSH2 0x1F4F JUMPI PUSH2 0x1F4E PUSH2 0x1B39 JUMP JUMPDEST JUMPDEST PUSH1 0x4 PUSH2 0x1F5C DUP5 DUP3 DUP6 PUSH2 0x1EDA JUMP JUMPDEST SWAP2 POP POP SWAP3 SWAP2 POP POP JUMP JUMPDEST PUSH1 0x0 DUP1 PUSH1 0x0 PUSH1 0xE0 DUP5 DUP7 SUB SLT ISZERO PUSH2 0x1F7E JUMPI PUSH2 0x1F7D PUSH2 0x1B2F JUMP JUMPDEST JUMPDEST PUSH1 0x0 DUP5 ADD CALLDATALOAD PUSH8 0xFFFFFFFFFFFFFFFF DUP2 GT ISZERO PUSH2 0x1F9C JUMPI PUSH2 0x1F9B PUSH2 0x1B34 JUMP JUMPDEST JUMPDEST PUSH2 0x1FA8 DUP7 DUP3 DUP8 ADD PUSH2 0x1C51 JUMP JUMPDEST SWAP4 POP POP PUSH1 0x20 PUSH2 0x1FB9 DUP7 DUP3 DUP8 ADD PUSH2 0x1D40 JUMP JUMPDEST SWAP3 POP POP PUSH1 0x60 PUSH2 0x1FCA DUP7 DUP3 DUP8 ADD PUSH2 0x1F3A JUMP JUMPDEST SWAP2 POP POP SWAP3 POP SWAP3 POP SWAP3 JUMP JUMPDEST PUSH1 0x0 DUP2 ISZERO ISZERO SWAP1 POP SWAP2 SWAP1 POP JUMP JUMPDEST PUSH2 0x1FE9 DUP2 PUSH2 0x1FD4 JUMP JUMPDEST DUP3 MSTORE POP POP JUMP JUMPDEST PUSH1 0x0 PUSH1 0x20 DUP3 ADD SWAP1 POP PUSH2 0x2004 PUSH1 0x0 DUP4 ADD DUP5 PUSH2 0x1FE0 JUMP JUMPDEST SWAP3 SWAP2 POP POP JUMP JUMPDEST PUSH1 0x0 DUP1 PUSH1 0x0 PUSH1 0x80 DUP5 DUP7 SUB SLT ISZERO PUSH2 0x2023 JUMPI PUSH2 0x2022 PUSH2 0x1B2F JUMP JUMPDEST JUMPDEST PUSH1 0x0 DUP5 ADD CALLDATALOAD PUSH8 0xFFFFFFFFFFFFFFFF DUP2 GT ISZERO PUSH2 0x2041 JUMPI PUSH2 0x2040 PUSH2 0x1B34 JUMP JUMPDEST JUMPDEST PUSH2 0x204D DUP7 DUP3 DUP8 ADD PUSH2 0x1C51 JUMP JUMPDEST SWAP4 POP POP PUSH1 0x20 PUSH2 0x205E DUP7 DUP3 DUP8 ADD PUSH2 0x1D40 JUMP JUMPDEST SWAP3 POP POP PUSH1 0x60 PUSH2 0x206F DUP7 DUP3 DUP8 ADD PUSH2 0x1CCB JUMP JUMPDEST SWAP2 POP POP SWAP3 POP SWAP3 POP SWAP3 JUMP JUMPDEST PUSH1 0x0 PUSH1 0x20 DUP3 ADD SWAP1 POP PUSH2 0x208E PUSH1 0x0 DUP4 ADD DUP5 PUSH2 0x1DD1 JUMP JUMPDEST SWAP3 SWAP2 POP POP JUMP JUMPDEST PUSH1 0x0 PUSH1 0x80 DUP3 ADD SWAP1 POP PUSH2 0x20A9 PUSH1 0x0 DUP4 ADD DUP5 PUSH2 0x1E34 JUMP JUMPDEST SWAP3 SWAP2 POP POP JUMP JUMPDEST PUSH1 0x0 DUP2 SWAP1 POP SWAP2 SWAP1 POP JUMP JUMPDEST PUSH2 0x20CA PUSH2 0x20C5 DUP3 PUSH2 0x1CAA JUMP JUMPDEST PUSH2 0x20AF JUMP JUMPDEST DUP3 MSTORE POP POP JUMP JUMPDEST PUSH1 0x0 PUSH20 0xFFFFFFFFFFFFFFFFFFFFFFFFFFFFFFFFFFFFFFFF DUP3 AND SWAP1 POP SWAP2 SWAP1 POP JUMP JUMPDEST PUSH1 0x0 PUSH2 0x20FB DUP3 PUSH2 0x20D0 JUMP JUMPDEST SWAP1 POP SWAP2 SWAP1 POP JUMP JUMPDEST PUSH1 0x0 DUP2 PUSH1 0x60 SHL SWAP1 POP SWAP2 SWAP1 POP JUMP JUMPDEST PUSH1 0x0 PUSH2 0x211A DUP3 PUSH2 0x2102 JUMP JUMPDEST SWAP1 POP SWAP2 SWAP1 POP JUMP JUMPDEST PUSH1 0x0 PUSH2 0x212C DUP3 PUSH2 0x210F JUMP JUMPDEST SWAP1 POP SWAP2 SWAP1 POP JUMP JUMPDEST PUSH2 0x2144 PUSH2 0x213F DUP3 PUSH2 0x20F0 JUMP JUMPDEST PUSH2 0x2121 JUMP JUMPDEST DUP3 MSTORE POP POP JUMP JUMPDEST PUSH1 0x0 PUSH2 0x2156 DUP3 DUP6 PUSH2 0x20B9 JUMP JUMPDEST PUSH1 0x20 DUP3 ADD SWAP2 POP PUSH2 0x2166 DUP3 DUP5 PUSH2 0x2133 JUMP JUMPDEST PUSH1 0x14 DUP3 ADD SWAP2 POP DUP2 SWAP1 POP SWAP4 SWAP3 POP POP POP JUMP JUMPDEST PUSH32 0x4E487B7100000000000000000000000000000000000000000000000000000000 PUSH1 0x0 MSTORE PUSH1 0x12 PUSH1 0x4 MSTORE PUSH1 0x24 PUSH1 0x0 REVERT JUMPDEST PUSH1 0x0 PUSH2 0x21B0 DUP3 PUSH2 0x1CAA JUMP JUMPDEST SWAP2 POP PUSH2 0x21BB DUP4 PUSH2 0x1CAA JUMP JUMPDEST SWAP3 POP DUP3 PUSH2 0x21CB JUMPI PUSH2 0x21CA PUSH2 0x2176 JUMP JUMPDEST JUMPDEST DUP3 DUP3 MOD SWAP1 POP SWAP3 SWAP2 POP POP JUMP JUMPDEST PUSH32 0x4E487B7100000000000000000000000000000000000000000000000000000000 PUSH1 0x0 MSTORE PUSH1 0x32 PUSH1 0x4 MSTORE PUSH1 0x24 PUSH1 0x0 REVERT JUMPDEST PUSH1 0x0 PUSH1 0xFF DUP3 AND SWAP1 POP SWAP2 SWAP1 POP JUMP JUMPDEST PUSH1 0x0 DUP2 PUSH1 0xF8 SHL SWAP1 POP SWAP2 SWAP1 POP JUMP JUMPDEST PUSH1 0x0 PUSH2 0x222A DUP3 PUSH2 0x2212 JUMP JUMPDEST SWAP1 POP SWAP2 SWAP1 POP JUMP JUMPDEST PUSH2 0x2242 PUSH2 0x223D DUP3 PUSH2 0x2205 JUMP JUMPDEST PUSH2 0x221F JUMP JUMPDEST DUP3 MSTORE POP POP JUMP JUMPDEST PUSH1 0x0 DUP2 MLOAD SWAP1 POP SWAP2 SWAP1 POP JUMP JUMPDEST PUSH1 0x0 DUP2 SWAP1 POP SWAP3 SWAP2 POP POP JUMP JUMPDEST PUSH1 0x0 JUMPDEST DUP4 DUP2 LT ISZERO PUSH2 0x227C JUMPI DUP1 DUP3 ADD MLOAD DUP2 DUP5 ADD MSTORE PUSH1 0x20 DUP2 ADD SWAP1 POP PUSH2 0x2261 JUMP JUMPDEST PUSH1 0x0 DUP5 DUP5 ADD MSTORE POP POP POP POP JUMP JUMPDEST PUSH1 0x0 PUSH2 0x2293 DUP3 PUSH2 0x2248 JUMP JUMPDEST PUSH2 0x229D DUP2 DUP6 PUSH2 0x2253 JUMP JUMPDEST SWAP4 POP PUSH2 0x22AD DUP2 DUP6 PUSH1 0x20 DUP7 ADD PUSH2 0x225E JUMP JUMPDEST DUP1 DUP5 ADD SWAP2 POP POP SWAP3 SWAP2 POP POP JUMP JUMPDEST PUSH1 0x0 PUSH2 0x22C5 DUP3 DUP8 PUSH2 0x2231 JUMP JUMPDEST PUSH1 0x1 DUP3 ADD SWAP2 POP PUSH2 0x22D5 DUP3 DUP7 PUSH2 0x2231 JUMP JUMPDEST PUSH1 0x1 DUP3 ADD SWAP2 POP PUSH2 0x22E5 DUP3 DUP6 PUSH2 0x2288 JUMP JUMPDEST SWAP2 POP PUSH2 0x22F1 DUP3 DUP5 PUSH2 0x2288 JUMP JUMPDEST SWAP2 POP DUP2 SWAP1 POP SWAP6 SWAP5 POP POP POP POP POP JUMP JUMPDEST PUSH1 0x0 PUSH2 0x230B DUP3 DUP6 PUSH2 0x2288 JUMP JUMPDEST SWAP2 POP PUSH2 0x2317 DUP3 DUP5 PUSH2 0x2231 JUMP JUMPDEST PUSH1 0x1 DUP3 ADD SWAP2 POP DUP2 SWAP1 POP SWAP4 SWAP3 POP POP POP JUMP JUMPDEST PUSH1 0x0 PUSH2 0x2333 DUP3 DUP5 PUSH2 0x2288 JUMP JUMPDEST SWAP2 POP DUP2 SWAP1 POP SWAP3 SWAP2 POP POP JUMP JUMPDEST PUSH2 0x2347 DUP2 PUSH2 0x1DC7 JUMP JUMPDEST DUP2 EQ PUSH2 0x2352 JUMPI PUSH1 0x0 DUP1 REVERT JUMPDEST POP JUMP JUMPDEST PUSH1 0x0 DUP2 MLOAD SWAP1 POP PUSH2 0x2364 DUP2 PUSH2 0x233E JUMP JUMPDEST SWAP3 SWAP2 POP POP JUMP JUMPDEST PUSH1 0x0 PUSH1 0x20 DUP3 DUP5 SUB SLT ISZERO PUSH2 0x2380 JUMPI PUSH2 0x237F PUSH2 0x1B2F JUMP JUMPDEST JUMPDEST PUSH1 0x0 PUSH2 0x238E DUP5 DUP3 DUP6 ADD PUSH2 0x2355 JUMP JUMPDEST SWAP2 POP POP SWAP3 SWAP2 POP POP JUMP JUMPDEST PUSH32 0x4E487B7100000000000000000000000000000000000000000000000000000000 PUSH1 0x0 MSTORE PUSH1 0x11 PUSH1 0x4 MSTORE PUSH1 0x24 PUSH1 0x0 REVERT JUMPDEST PUSH1 0x0 PUSH2 0x23D1 DUP3 PUSH2 0x2205 JUMP JUMPDEST SWAP2 POP PUSH1 0xFF DUP3 SUB PUSH2 0x23E4 JUMPI PUSH2 0x23E3 PUSH2 0x2397 JUMP JUMPDEST JUMPDEST PUSH1 0x1 DUP3 ADD SWAP1 POP SWAP2 SWAP1 POP JUMP JUMPDEST PUSH1 0x0 DUP3 DUP3 MSTORE PUSH1 0x20 DUP3 ADD SWAP1 POP SWAP3 SWAP2 POP POP JUMP JUMPDEST PUSH32 0x4E6F2076616C696420706F696E742077617320666F756E640000000000000000 PUSH1 0x0 DUP3 ADD MSTORE POP JUMP JUMPDEST PUSH1 0x0 PUSH2 0x2436 PUSH1 0x18 DUP4 PUSH2 0x23EF JUMP JUMPDEST SWAP2 POP PUSH2 0x2441 DUP3 PUSH2 0x2400 JUMP JUMPDEST PUSH1 0x20 DUP3 ADD SWAP1 POP SWAP2 SWAP1 POP JUMP JUMPDEST PUSH1 0x0 PUSH1 0x20 DUP3 ADD SWAP1 POP DUP2 DUP2 SUB PUSH1 0x0 DUP4 ADD MSTORE PUSH2 0x2465 DUP2 PUSH2 0x2429 JUMP JUMPDEST SWAP1 POP SWAP2 SWAP1 POP JUMP JUMPDEST PUSH1 0x0 PUSH2 0x2478 DUP3 DUP7 PUSH2 0x2231 JUMP JUMPDEST PUSH1 0x1 DUP3 ADD SWAP2 POP PUSH2 0x2488 DUP3 DUP6 PUSH2 0x2231 JUMP JUMPDEST PUSH1 0x1 DUP3 ADD SWAP2 POP PUSH2 0x2498 DUP3 DUP5 PUSH2 0x2288 JUMP JUMPDEST SWAP2 POP DUP2 SWAP1 POP SWAP5 SWAP4 POP POP POP POP JUMP JUMPDEST PUSH1 0x0 DUP2 MLOAD SWAP1 POP SWAP2 SWAP1 POP JUMP JUMPDEST PUSH1 0x0 PUSH2 0x24BB DUP3 PUSH2 0x24A5 JUMP JUMPDEST PUSH2 0x24C5 DUP2 DUP6 PUSH2 0x23EF JUMP JUMPDEST SWAP4 POP PUSH2 0x24D5 DUP2 DUP6 PUSH1 0x20 DUP7 ADD PUSH2 0x225E JUMP JUMPDEST PUSH2 0x24DE DUP2 PUSH2 0x1B43 JUMP JUMPDEST DUP5 ADD SWAP2 POP POP SWAP3 SWAP2 POP POP JUMP JUMPDEST PUSH1 0x0 PUSH1 0x20 DUP3 ADD SWAP1 POP DUP2 DUP2 SUB PUSH1 0x0 DUP4 ADD MSTORE PUSH2 0x2503 DUP2 DUP5 PUSH2 0x24B0 JUMP JUMPDEST SWAP1 POP SWAP3 SWAP2 POP POP JUMP JUMPDEST PUSH1 0x0 PUSH2 0x2517 DUP3 DUP10 PUSH2 0x2231 JUMP JUMPDEST PUSH1 0x1 DUP3 ADD SWAP2 POP PUSH2 0x2527 DUP3 DUP9 PUSH2 0x2231 JUMP JUMPDEST PUSH1 0x1 DUP3 ADD SWAP2 POP PUSH2 0x2537 DUP3 DUP8 PUSH2 0x2288 JUMP JUMPDEST SWAP2 POP PUSH2 0x2543 DUP3 DUP7 PUSH2 0x2288 JUMP JUMPDEST SWAP2 POP PUSH2 0x254F DUP3 DUP6 PUSH2 0x2288 JUMP JUMPDEST SWAP2 POP PUSH2 0x255B DUP3 DUP5 PUSH2 0x2288 JUMP JUMPDEST SWAP2 POP DUP2 SWAP1 POP SWAP8 SWAP7 POP POP POP POP POP POP POP JUMP JUMPDEST PUSH1 0x0 PUSH2 0x2576 DUP3 PUSH2 0x1CAA JUMP JUMPDEST SWAP2 POP PUSH2 0x2581 DUP4 PUSH2 0x1CAA JUMP JUMPDEST SWAP3 POP DUP3 DUP3 ADD SWAP1 POP DUP1 DUP3 GT ISZERO PUSH2 0x2599 JUMPI PUSH2 0x2598 PUSH2 0x2397 JUMP JUMPDEST JUMPDEST SWAP3 SWAP2 POP POP JUMP JUMPDEST PUSH1 0x0 PUSH2 0x25AB DUP3 DUP6 PUSH2 0x2231 JUMP JUMPDEST PUSH1 0x1 DUP3 ADD SWAP2 POP PUSH2 0x25BB DUP3 DUP5 PUSH2 0x20B9 JUMP JUMPDEST PUSH1 0x20 DUP3 ADD SWAP2 POP DUP2 SWAP1 POP SWAP4 SWAP3 POP POP POP JUMP JUMPDEST PUSH32 0x456C6C697074696343757276653A696E6E76616C696420636F6D707265737365 PUSH1 0x0 DUP3 ADD MSTORE PUSH32 0x6420454320706F696E7420707265666978000000000000000000000000000000 PUSH1 0x20 DUP3 ADD MSTORE POP JUMP JUMPDEST PUSH1 0x0 PUSH2 0x2627 PUSH1 0x31 DUP4 PUSH2 0x23EF JUMP JUMPDEST SWAP2 POP PUSH2 0x2632 DUP3 PUSH2 0x25CB JUMP JUMPDEST PUSH1 0x40 DUP3 ADD SWAP1 POP SWAP2 SWAP1 POP JUMP JUMPDEST PUSH1 0x0 PUSH1 0x20 DUP3 ADD SWAP1 POP DUP2 DUP2 SUB PUSH1 0x0 DUP4 ADD MSTORE PUSH2 0x2656 DUP2 PUSH2 0x261A JUMP JUMPDEST SWAP1 POP SWAP2 SWAP1 POP JUMP JUMPDEST PUSH1 0x0 PUSH2 0x2668 DUP3 PUSH2 0x1CAA JUMP JUMPDEST SWAP2 POP PUSH2 0x2673 DUP4 PUSH2 0x1CAA JUMP JUMPDEST SWAP3 POP DUP3 PUSH2 0x2683 JUMPI PUSH2 0x2682 PUSH2 0x2176 JUMP JUMPDEST JUMPDEST DUP3 DUP3 DIV SWAP1 POP SWAP3 SWAP2 POP POP JUMP JUMPDEST PUSH1 0x0 PUSH2 0x2699 DUP3 PUSH2 0x1CAA JUMP JUMPDEST SWAP2 POP PUSH2 0x26A4 DUP4 PUSH2 0x1CAA JUMP JUMPDEST SWAP3 POP DUP3 DUP3 SUB SWAP1 POP DUP2 DUP2 GT ISZERO PUSH2 0x26BC JUMPI PUSH2 0x26BB PUSH2 0x2397 JUMP JUMPDEST JUMPDEST SWAP3 SWAP2 POP POP JUMP JUMPDEST PUSH32 0x456C6C697074696343757276653A206D6F64756C7573206973207A65726F0000 PUSH1 0x0 DUP3 ADD MSTORE POP JUMP JUMPDEST PUSH1 0x0 PUSH2 0x26F8 PUSH1 0x1E DUP4 PUSH2 0x23EF JUMP JUMPDEST SWAP2 POP PUSH2 0x2703 DUP3 PUSH2 0x26C2 JUMP JUMPDEST PUSH1 0x20 DUP3 ADD SWAP1 POP SWAP2 SWAP1 POP JUMP JUMPDEST PUSH1 0x0 PUSH1 0x20 DUP3 ADD SWAP1 POP DUP2 DUP2 SUB PUSH1 0x0 DUP4 ADD MSTORE PUSH2 0x2727 DUP2 PUSH2 0x26EB JUMP JUMPDEST SWAP1 POP SWAP2 SWAP1 POP JUMP JUMPDEST PUSH32 0x557365206A6163446F75626C652066756E6374696F6E20696E73746561640000 PUSH1 0x0 DUP3 ADD MSTORE POP JUMP JUMPDEST PUSH1 0x0 PUSH2 0x2764 PUSH1 0x1E DUP4 PUSH2 0x23EF JUMP JUMPDEST SWAP2 POP PUSH2 0x276F DUP3 PUSH2 0x272E JUMP JUMPDEST PUSH1 0x20 DUP3 ADD SWAP1 POP SWAP2 SWAP1 POP JUMP JUMPDEST PUSH1 0x0 PUSH1 0x20 DUP3 ADD SWAP1 POP DUP2 DUP2 SUB PUSH1 0x0 DUP4 ADD MSTORE PUSH2 0x2793 DUP2 PUSH2 0x2757 JUMP JUMPDEST SWAP1 POP SWAP2 SWAP1 POP JUMP JUMPDEST PUSH32 0x496E76616C6964206E756D626572000000000000000000000000000000000000 PUSH1 0x0 DUP3 ADD MSTORE POP JUMP JUMPDEST PUSH1 0x0 PUSH2 0x27D0 PUSH1 0xE DUP4 PUSH2 0x23EF JUMP JUMPDEST SWAP2 POP PUSH2 0x27DB DUP3 PUSH2 0x279A JUMP JUMPDEST PUSH1 0x20 DUP3 ADD SWAP1 POP SWAP2 SWAP1 POP JUMP JUMPDEST PUSH1 0x0 PUSH1 0x20 DUP3 ADD SWAP1 POP DUP2 DUP2 SUB PUSH1 0x0 DUP4 ADD MSTORE PUSH2 0x27FF DUP2 PUSH2 0x27C3 JUMP JUMPDEST SWAP1 POP SWAP2 SWAP1 POP JUMP JUMPDEST PUSH1 0x0 PUSH2 0x2811 DUP3 PUSH2 0x1CAA JUMP JUMPDEST SWAP2 POP PUSH2 0x281C DUP4 PUSH2 0x1CAA JUMP JUMPDEST SWAP3 POP DUP3 DUP3 MUL PUSH2 0x282A DUP2 PUSH2 0x1CAA JUMP JUMPDEST SWAP2 POP DUP3 DUP3 DIV DUP5 EQ DUP4 ISZERO OR PUSH2 0x2841 JUMPI PUSH2 0x2840 PUSH2 0x2397 JUMP JUMPDEST JUMPDEST POP SWAP3 SWAP2 POP POP JUMP JUMPDEST PUSH32 0x4E487B7100000000000000000000000000000000000000000000000000000000 PUSH1 0x0 MSTORE PUSH1 0x51 PUSH1 0x4 MSTORE PUSH1 0x24 PUSH1 0x0 REVERT INVALID NUMBER PUSH2 0x6C63 PUSH16 0x6C6F206465692070756E746920552065 KECCAK256 JUMP KECCAK256 PUSH4 0x6F6D706C PUSH6 0x7461746FA264 PUSH10 0x70667358221220BCD0AB 0xF CALLDATACOPY SWAP8 0xC4 CODESIZE 0xE7 0xAC 0xE CALLVALUE 0xC7 0x4D PUSH9 0x593556940169EBBCD6 PUSH13 0x1A9BD336EF871F64736F6C6343 STOP ADDMOD XOR STOP CALLER "},"methodIdentifiers":{"generateRandomNumber(bytes,uint256[2],uint256)":"fd4de30f","generateRandomNumber2(bytes,uint256[2])":"362afccc","verifyProof(bytes,uint256[2],uint256[4])":"8743d8f6"}}}}}