{"contracts/Registro.sol":{"Registro":{"abi":[{"inputs":[],"name":"PRBMathSD59x18__DivInputTooSmall","type":"error"},{"inputs":[{"internalType":"uint256","name":"rAbs","type":"uint256"}],"name":"PRBMathSD59x18__DivOverflow","type":"error"},{"inputs":[{"internalType":"uint256","name":"prod1","type":"uint256"},{"internalType":"uint256","name":"denominator","type":"uint256"}],"name":"PRBMath__MulDivOverflow","type":"error"},{"inputs":[{"internalType":"address[]","name":"_addressDevice","type":"address[]"},{"internalType":"int256[]","name":"rep","type":"int256[]"}],"name":"UpdateReputations","outputs":[],"stateMutability":"nonpayable","type":"function"},{"inputs":[{"internalType":"int256","name":"_score","type":"int256"},{"internalType":"int256","name":"tolleranza","type":"int256"}],"name":"constraintFunction","outputs":[{"internalType":"int256","name":"","type":"int256"}],"stateMutability":"pure","type":"function"},{"inputs":[{"internalType":"int256","name":"newValue","type":"int256"},{"internalType":"int256","name":"oldReputation","type":"int256"},{"internalType":"int256","name":"peso","type":"int256"}],"name":"finalReputation","outputs":[{"internalType":"int256","name":"","type":"int256"}],"stateMutability":"pure","type":"function"},{"inputs":[],"name":"getAllProducers","outputs":[{"components":[{"internalType":"address","name":"addressDevice","type":"address"},{"internalType":"int256","name":"reputazione","type":"int256"}],"internalType":"struct Registro.Producer[]","name":"","type":"tuple[]"}],"stateMutability":"view","type":"function"},{"inputs":[],"name":"getProducerCount","outputs":[{"internalType":"uint256","name":"","type":"uint256"}],"stateMutability":"view","type":"function"},{"inputs":[{"internalType":"int256[]","name":"val","type":"int256[]"}],"name":"mediana","outputs":[{"internalType":"int256","name":"","type":"int256"}],"stateMutability":"pure","type":"function"},{"inputs":[{"internalType":"uint256","name":"","type":"uint256"}],"name":"producerAddresses","outputs":[{"internalType":"address","name":"","type":"address"}],"stateMutability":"view","type":"function"},{"inputs":[{"internalType":"address","name":"","type":"address"}],"name":"producers","outputs":[{"internalType":"address","name":"addressDevice","type":"address"},{"internalType":"int256","name":"reputazione","type":"int256"}],"stateMutability":"view","type":"function"},{"inputs":[{"internalType":"address","name":"_addressDevice","type":"address"},{"internalType":"int256","name":"_reputazione","type":"int256"}],"name":"registerProducer","outputs":[],"stateMutability":"nonpayable","type":"function"},{"inputs":[{"internalType":"int256[]","name":"val","type":"int256[]"},{"internalType":"int256","name":"medianaVal","type":"int256"}],"name":"score","outputs":[{"internalType":"int256[]","name":"","type":"int256[]"}],"stateMutability":"pure","type":"function"},{"inputs":[{"internalType":"int256[]","name":"val","type":"int256[]"},{"internalType":"int256","name":"tolleranza","type":"int256"}],"name":"update","outputs":[],"stateMutability":"nonpayable","type":"function"}],"evm":{"bytecode":{"linkReferences":{},"object":"608060405234801561001057600080fd5b50611d7b806100206000396000f3fe608060405234801561001057600080fd5b50600436106100a95760003560e01c80635a8d9f7f116100715780635a8d9f7f1461018d5780637a3a11a5146101a9578063ae53a6a3146101d9578063b08a6498146101f5578063bd075b7814610213578063d5f74d2b14610243576100a9565b8063052f4216146100ae5780630c55a273146100de578063217f72b01461010e57806326324eff1461013e5780632c06779d1461016f575b600080fd5b6100c860048036038101906100c3919061103f565b61025f565b6040516100d5919061108e565b60405180910390f35b6100f860048036038101906100f39190611202565b6102fa565b604051610105919061108e565b60405180910390f35b6101286004803603810190610123919061124b565b6103b6565b6040516101359190611365565b60405180910390f35b610158600480360381019061015391906113e5565b6104db565b604051610166929190611421565b60405180910390f35b61017761051f565b6040516101849190611537565b60405180910390f35b6101a760048036038101906101a2919061124b565b6106a8565b005b6101c360048036038101906101be919061158f565b6108ff565b6040516101d091906115bc565b60405180910390f35b6101f360048036038101906101ee91906115d7565b61093e565b005b6101fd610b32565b60405161020a9190611626565b60405180910390f35b61022d60048036038101906102289190611641565b610b3f565b60405161023a919061108e565b60405180910390f35b61025d60048036038101906102589190611757565b610baa565b005b60008060028461026f919061195a565b90506000600284610280919061195a565b905060006102a1670de0b6b3a76400008461029b91906119c6565b83610c42565b9050600081670de0b6b3a76400006102b99190611a3e565b90506000670de0b6b3a76400006102e06f01812f9cf7920e2b66973e200000000084610c42565b6102ea9190611a82565b9050809550505050505092915050565b60008082905061030981610dae565b6000600282516103199190611af4565b905060006002835161032b9190611b25565b03610391576002826001836103409190611b56565b8151811061035157610350611b8a565b5b602002602001015183838151811061036c5761036b611b8a565b5b602002602001015161037e9190611a3e565b6103889190611bb9565b925050506103b1565b8181815181106103a4576103a3611b8a565b5b6020026020010151925050505b919050565b60606000835167ffffffffffffffff8111156103d5576103d46110bf565b5b6040519080825280602002602001820160405280156104035781602001602082028036833780820191505090505b50905060005b84518110156104d0578385828151811061042657610425611b8a565b5b60200260200101511261047d578385828151811061044757610446611b8a565b5b60200260200101516104599190611a82565b82828151811061046c5761046b611b8a565b5b6020026020010181815250506104c3565b8481815181106104905761048f611b8a565b5b6020026020010151846104a39190611a82565b8282815181106104b6576104b5611b8a565b5b6020026020010181815250505b8080600101915050610409565b508091505092915050565b60006020528060005260406000206000915090508060000160009054906101000a900473ffffffffffffffffffffffffffffffffffffffff16908060010154905082565b6060600060018054905067ffffffffffffffff811115610542576105416110bf565b5b60405190808252806020026020018201604052801561057b57816020015b610568610fc5565b8152602001906001900390816105605790505b50905060005b6001805490508110156106a057600080600183815481106105a5576105a4611b8a565b5b9060005260206000200160009054906101000a900473ffffffffffffffffffffffffffffffffffffffff1673ffffffffffffffffffffffffffffffffffffffff1673ffffffffffffffffffffffffffffffffffffffff1681526020019081526020016000206040518060400160405290816000820160009054906101000a900473ffffffffffffffffffffffffffffffffffffffff1673ffffffffffffffffffffffffffffffffffffffff1673ffffffffffffffffffffffffffffffffffffffff16815260200160018201548152505082828151811061068857610687611b8a565b5b60200260200101819052508080600101915050610581565b508091505090565b60006106b3836102fa565b905060006106c184836103b6565b905060008151905060008167ffffffffffffffff8111156106e5576106e46110bf565b5b6040519080825280602002602001820160405280156107135781602001602082028036833780820191505090505b50905060008267ffffffffffffffff811115610732576107316110bf565b5b6040519080825280602002602001820160405280156107605781602001602082028036833780820191505090505b50905060005b838110156108f55761079285828151811061078457610783611b8a565b5b60200260200101518861025f565b8382815181106107a5576107a4611b8a565b5b6020026020010181815250506000600182815481106107c7576107c6611b8a565b5b9060005260206000200160009054906101000a900473ffffffffffffffffffffffffffffffffffffffff16905060008060008373ffffffffffffffffffffffffffffffffffffffff1673ffffffffffffffffffffffffffffffffffffffff1681526020019081526020016000206001015490506108678584815181106108505761084f611b8a565b5b60200260200101518267016345785d8a0000610b3f565b84848151811061087a57610879611b8a565b5b60200260200101818152505083838151811061089957610898611b8a565b5b60200260200101516000808473ffffffffffffffffffffffffffffffffffffffff1673ffffffffffffffffffffffffffffffffffffffff1681526020019081526020016000206001018190555050508080600101915050610766565b5050505050505050565b6001818154811061090f57600080fd5b906000526020600020016000915054906101000a900473ffffffffffffffffffffffffffffffffffffffff1681565b600073ffffffffffffffffffffffffffffffffffffffff166000808473ffffffffffffffffffffffffffffffffffffffff1673ffffffffffffffffffffffffffffffffffffffff16815260200190815260200160002060000160009054906101000a900473ffffffffffffffffffffffffffffffffffffffff1673ffffffffffffffffffffffffffffffffffffffff1614610a0e576040517f08c379a0000000000000000000000000000000000000000000000000000000008152600401610a0590611c80565b60405180910390fd5b60405180604001604052808373ffffffffffffffffffffffffffffffffffffffff168152602001828152506000808473ffffffffffffffffffffffffffffffffffffffff1673ffffffffffffffffffffffffffffffffffffffff16815260200190815260200160002060008201518160000160006101000a81548173ffffffffffffffffffffffffffffffffffffffff021916908373ffffffffffffffffffffffffffffffffffffffff160217905550602082015181600101559050506001829080600181540180825580915050600190039060005260206000200160009091909190916101000a81548173ffffffffffffffffffffffffffffffffffffffff021916908373ffffffffffffffffffffffffffffffffffffffff1602179055505050565b6000600180549050905090565b600080670de0b6b3a76400008484670de0b6b3a7640000610b609190611a82565b610b6a91906119c6565b610b749190611bb9565b670de0b6b3a76400008685610b8991906119c6565b610b939190611bb9565b610b9d9190611a3e565b9050809150509392505050565b60005b8251811015610c3d57818181518110610bc957610bc8611b8a565b5b6020026020010151600080858481518110610be757610be6611b8a565b5b602002602001015173ffffffffffffffffffffffffffffffffffffffff1673ffffffffffffffffffffffffffffffffffffffff168152602001908152602001600020600101819055508080600101915050610bad565b505050565b60007f8000000000000000000000000000000000000000000000000000000000000000831480610c9157507f800000000000000000000000000000000000000000000000000000000000000082145b15610cc8576040517fb3c754a300000000000000000000000000000000000000000000000000000000815260040160405180910390fd5b60008060008512610cd95784610cde565b846000035b915060008412610cee5783610cf3565b836000035b90506000610d0a83670de0b6b3a764000084610eb0565b90507f7fffffffffffffffffffffffffffffffffffffffffffffffffffffffffffffff811115610d7157806040517f7cb4bef5000000000000000000000000000000000000000000000000000000008152600401610d689190611626565b60405180910390fd5b600080600160000388139150600160000387139050600181831814610d965782610da1565b82610da090611ca0565b5b9550505050505092915050565b60008151905060005b81811015610eab576000600182610dce9190611ce8565b90505b82811015610e9d57838181518110610dec57610deb611b8a565b5b6020026020010151848381518110610e0757610e06611b8a565b5b60200260200101511315610e90576000848381518110610e2a57610e29611b8a565b5b60200260200101519050848281518110610e4757610e46611b8a565b5b6020026020010151858481518110610e6257610e61611b8a565b5b60200260200101818152505080858381518110610e8257610e81611b8a565b5b602002602001018181525050505b8080600101915050610dd1565b508080600101915050610db7565b505050565b6000806000801985870985870292508281108382030391505060008103610eeb57838281610ee157610ee0611ac5565b5b0492505050610fbe565b838110610f315780846040517f773cc18c000000000000000000000000000000000000000000000000000000008152600401610f28929190611d1c565b60405180910390fd5b60008486880990508281118203915080830392506000600186190186169050808604955080840493506001818260000304019050808302841793506000600287600302189050808702600203810290508087026002038102905080870260020381029050808702600203810290508087026002038102905080870260020381029050808502955050505050505b9392505050565b6040518060400160405280600073ffffffffffffffffffffffffffffffffffffffff168152602001600081525090565b6000604051905090565b600080fd5b600080fd5b6000819050919050565b61101c81611009565b811461102757600080fd5b50565b60008135905061103981611013565b92915050565b6000806040838503121561105657611055610fff565b5b60006110648582860161102a565b92505060206110758582860161102a565b9150509250929050565b61108881611009565b82525050565b60006020820190506110a3600083018461107f565b92915050565b600080fd5b6000601f19601f8301169050919050565b7f4e487b7100000000000000000000000000000000000000000000000000000000600052604160045260246000fd5b6110f7826110ae565b810181811067ffffffffffffffff82111715611116576111156110bf565b5b80604052505050565b6000611129610ff5565b905061113582826110ee565b919050565b600067ffffffffffffffff821115611155576111546110bf565b5b602082029050602081019050919050565b600080fd5b600061117e6111798461113a565b61111f565b905080838252602082019050602084028301858111156111a1576111a0611166565b5b835b818110156111ca57806111b6888261102a565b8452602084019350506020810190506111a3565b5050509392505050565b600082601f8301126111e9576111e86110a9565b5b81356111f984826020860161116b565b91505092915050565b60006020828403121561121857611217610fff565b5b600082013567ffffffffffffffff81111561123657611235611004565b5b611242848285016111d4565b91505092915050565b6000806040838503121561126257611261610fff565b5b600083013567ffffffffffffffff8111156112805761127f611004565b5b61128c858286016111d4565b925050602061129d8582860161102a565b9150509250929050565b600081519050919050565b600082825260208201905092915050565b6000819050602082019050919050565b6112dc81611009565b82525050565b60006112ee83836112d3565b60208301905092915050565b6000602082019050919050565b6000611312826112a7565b61131c81856112b2565b9350611327836112c3565b8060005b8381101561135857815161133f88826112e2565b975061134a836112fa565b92505060018101905061132b565b5085935050505092915050565b6000602082019050818103600083015261137f8184611307565b905092915050565b600073ffffffffffffffffffffffffffffffffffffffff82169050919050565b60006113b282611387565b9050919050565b6113c2816113a7565b81146113cd57600080fd5b50565b6000813590506113df816113b9565b92915050565b6000602082840312156113fb576113fa610fff565b5b6000611409848285016113d0565b91505092915050565b61141b816113a7565b82525050565b60006040820190506114366000830185611412565b611443602083018461107f565b9392505050565b600081519050919050565b600082825260208201905092915050565b6000819050602082019050919050565b61147f816113a7565b82525050565b60408201600082015161149b6000850182611476565b5060208201516114ae60208501826112d3565b50505050565b60006114c08383611485565b60408301905092915050565b6000602082019050919050565b60006114e48261144a565b6114ee8185611455565b93506114f983611466565b8060005b8381101561152a57815161151188826114b4565b975061151c836114cc565b9250506001810190506114fd565b5085935050505092915050565b6000602082019050818103600083015261155181846114d9565b905092915050565b6000819050919050565b61156c81611559565b811461157757600080fd5b50565b60008135905061158981611563565b92915050565b6000602082840312156115a5576115a4610fff565b5b60006115b38482850161157a565b91505092915050565b60006020820190506115d16000830184611412565b92915050565b600080604083850312156115ee576115ed610fff565b5b60006115fc858286016113d0565b925050602061160d8582860161102a565b9150509250929050565b61162081611559565b82525050565b600060208201905061163b6000830184611617565b92915050565b60008060006060848603121561165a57611659610fff565b5b60006116688682870161102a565b93505060206116798682870161102a565b925050604061168a8682870161102a565b9150509250925092565b600067ffffffffffffffff8211156116af576116ae6110bf565b5b602082029050602081019050919050565b60006116d36116ce84611694565b61111f565b905080838252602082019050602084028301858111156116f6576116f5611166565b5b835b8181101561171f578061170b88826113d0565b8452602084019350506020810190506116f8565b5050509392505050565b600082601f83011261173e5761173d6110a9565b5b813561174e8482602086016116c0565b91505092915050565b6000806040838503121561176e5761176d610fff565b5b600083013567ffffffffffffffff81111561178c5761178b611004565b5b61179885828601611729565b925050602083013567ffffffffffffffff8111156117b9576117b8611004565b5b6117c5858286016111d4565b9150509250929050565b7f4e487b7100000000000000000000000000000000000000000000000000000000600052601160045260246000fd5b60008160011c9050919050565b6000808291508390505b600185111561185557808604811115611831576118306117cf565b5b60018516156118405780820291505b808102905061184e856117fe565b9450611815565b94509492505050565b60008260008114611876576001811461188057611889565b6001915050611945565b82915050611945565b50816118985760009050611945565b6001905060008213600181146118b557600081146118cd576118e1565b8286048311156118c8576118c76117cf565b5b6118e1565b8286058312156118e0576118df6117cf565b5b5b5060018316156118ef578190505b81820291506118fd836117fe565b925061190b8584848461180b565b925090508185048111600082131615611927576119266117cf565b5b818405811260008212161561193f5761193e6117cf565b5b81810290505b949350505050565b600060ff82169050919050565b600061196582611009565b91506119708361194d565b92506119be7f7fffffffffffffffffffffffffffffffffffffffffffffffffffffffffffffff7f8000000000000000000000000000000000000000000000000000000000000000858561185e565b905092915050565b60006119d182611009565b91506119dc83611009565b92508282026119ea81611009565b91507f80000000000000000000000000000000000000000000000000000000000000008414600084121615611a2257611a216117cf565b5b8282058414831517611a3757611a366117cf565b5b5092915050565b6000611a4982611009565b9150611a5483611009565b925082820190508281121560008312168382126000841215161715611a7c57611a7b6117cf565b5b92915050565b6000611a8d82611009565b9150611a9883611009565b9250828203905081811260008412168282136000851215161715611abf57611abe6117cf565b5b92915050565b7f4e487b7100000000000000000000000000000000000000000000000000000000600052601260045260246000fd5b6000611aff82611559565b9150611b0a83611559565b925082611b1a57611b19611ac5565b5b828204905092915050565b6000611b3082611559565b9150611b3b83611559565b925082611b4b57611b4a611ac5565b5b828206905092915050565b6000611b6182611559565b9150611b6c83611559565b9250828203905081811115611b8457611b836117cf565b5b92915050565b7f4e487b7100000000000000000000000000000000000000000000000000000000600052603260045260246000fd5b6000611bc482611009565b9150611bcf83611009565b925082611bdf57611bde611ac5565b5b600160000383147f800000000000000000000000000000000000000000000000000000000000000083141615611c1857611c176117cf565b5b828205905092915050565b600082825260208201905092915050565b7f50726f647563657220616c726561647920726567697374657265640000000000600082015250565b6000611c6a601b83611c23565b9150611c7582611c34565b602082019050919050565b60006020820190508181036000830152611c9981611c5d565b9050919050565b6000611cab82611009565b91507f80000000000000000000000000000000000000000000000000000000000000008203611cdd57611cdc6117cf565b5b816000039050919050565b6000611cf382611559565b9150611cfe83611559565b9250828201905080821115611d1657611d156117cf565b5b92915050565b6000604082019050611d316000830185611617565b611d3e6020830184611617565b939250505056fea2646970667358221220b8852c42c482cc267bd4dd348590a034a745a1ff7d41bca6cec6d70b9d06514a64736f6c63430008180033","opcodes":"PUSH1 0x80 PUSH1 0x40 MSTORE CALLVALUE DUP1 ISZERO PUSH2 0x10 JUMPI PUSH1 0x0 DUP1 REVERT JUMPDEST POP PUSH2 0x1D7B DUP1 PUSH2 0x20 PUSH1 0x0 CODECOPY PUSH1 0x0 RETURN INVALID PUSH1 0x80 PUSH1 0x40 MSTORE CALLVALUE DUP1 ISZERO PUSH2 0x10 JUMPI PUSH1 0x0 DUP1 REVERT JUMPDEST POP PUSH1 0x4 CALLDATASIZE LT PUSH2 0xA9 JUMPI PUSH1 0x0 CALLDATALOAD PUSH1 0xE0 SHR DUP1 PUSH4 0x5A8D9F7F GT PUSH2 0x71 JUMPI DUP1 PUSH4 0x5A8D9F7F EQ PUSH2 0x18D JUMPI DUP1 PUSH4 0x7A3A11A5 EQ PUSH2 0x1A9 JUMPI DUP1 PUSH4 0xAE53A6A3 EQ PUSH2 0x1D9 JUMPI DUP1 PUSH4 0xB08A6498 EQ PUSH2 0x1F5 JUMPI DUP1 PUSH4 0xBD075B78 EQ PUSH2 0x213 JUMPI DUP1 PUSH4 0xD5F74D2B EQ PUSH2 0x243 JUMPI PUSH2 0xA9 JUMP JUMPDEST DUP1 PUSH4 0x52F4216 EQ PUSH2 0xAE JUMPI DUP1 PUSH4 0xC55A273 EQ PUSH2 0xDE JUMPI DUP1 PUSH4 0x217F72B0 EQ PUSH2 0x10E JUMPI DUP1 PUSH4 0x26324EFF EQ PUSH2 0x13E JUMPI DUP1 PUSH4 0x2C06779D EQ PUSH2 0x16F JUMPI JUMPDEST PUSH1 0x0 DUP1 REVERT JUMPDEST PUSH2 0xC8 PUSH1 0x4 DUP1 CALLDATASIZE SUB DUP2 ADD SWAP1 PUSH2 0xC3 SWAP2 SWAP1 PUSH2 0x103F JUMP JUMPDEST PUSH2 0x25F JUMP JUMPDEST PUSH1 0x40 MLOAD PUSH2 0xD5 SWAP2 SWAP1 PUSH2 0x108E JUMP JUMPDEST PUSH1 0x40 MLOAD DUP1 SWAP2 SUB SWAP1 RETURN JUMPDEST PUSH2 0xF8 PUSH1 0x4 DUP1 CALLDATASIZE SUB DUP2 ADD SWAP1 PUSH2 0xF3 SWAP2 SWAP1 PUSH2 0x1202 JUMP JUMPDEST PUSH2 0x2FA JUMP JUMPDEST PUSH1 0x40 MLOAD PUSH2 0x105 SWAP2 SWAP1 PUSH2 0x108E JUMP JUMPDEST PUSH1 0x40 MLOAD DUP1 SWAP2 SUB SWAP1 RETURN JUMPDEST PUSH2 0x128 PUSH1 0x4 DUP1 CALLDATASIZE SUB DUP2 ADD SWAP1 PUSH2 0x123 SWAP2 SWAP1 PUSH2 0x124B JUMP JUMPDEST PUSH2 0x3B6 JUMP JUMPDEST PUSH1 0x40 MLOAD PUSH2 0x135 SWAP2 SWAP1 PUSH2 0x1365 JUMP JUMPDEST PUSH1 0x40 MLOAD DUP1 SWAP2 SUB SWAP1 RETURN JUMPDEST PUSH2 0x158 PUSH1 0x4 DUP1 CALLDATASIZE SUB DUP2 ADD SWAP1 PUSH2 0x153 SWAP2 SWAP1 PUSH2 0x13E5 JUMP JUMPDEST PUSH2 0x4DB JUMP JUMPDEST PUSH1 0x40 MLOAD PUSH2 0x166 SWAP3 SWAP2 SWAP1 PUSH2 0x1421 JUMP JUMPDEST PUSH1 0x40 MLOAD DUP1 SWAP2 SUB SWAP1 RETURN JUMPDEST PUSH2 0x177 PUSH2 0x51F JUMP JUMPDEST PUSH1 0x40 MLOAD PUSH2 0x184 SWAP2 SWAP1 PUSH2 0x1537 JUMP JUMPDEST PUSH1 0x40 MLOAD DUP1 SWAP2 SUB SWAP1 RETURN JUMPDEST PUSH2 0x1A7 PUSH1 0x4 DUP1 CALLDATASIZE SUB DUP2 ADD SWAP1 PUSH2 0x1A2 SWAP2 SWAP1 PUSH2 0x124B JUMP JUMPDEST PUSH2 0x6A8 JUMP JUMPDEST STOP JUMPDEST PUSH2 0x1C3 PUSH1 0x4 DUP1 CALLDATASIZE SUB DUP2 ADD SWAP1 PUSH2 0x1BE SWAP2 SWAP1 PUSH2 0x158F JUMP JUMPDEST PUSH2 0x8FF JUMP JUMPDEST PUSH1 0x40 MLOAD PUSH2 0x1D0 SWAP2 SWAP1 PUSH2 0x15BC JUMP JUMPDEST PUSH1 0x40 MLOAD DUP1 SWAP2 SUB SWAP1 RETURN JUMPDEST PUSH2 0x1F3 PUSH1 0x4 DUP1 CALLDATASIZE SUB DUP2 ADD SWAP1 PUSH2 0x1EE SWAP2 SWAP1 PUSH2 0x15D7 JUMP JUMPDEST PUSH2 0x93E JUMP JUMPDEST STOP JUMPDEST PUSH2 0x1FD PUSH2 0xB32 JUMP JUMPDEST PUSH1 0x40 MLOAD PUSH2 0x20A SWAP2 SWAP1 PUSH2 0x1626 JUMP JUMPDEST PUSH1 0x40 MLOAD DUP1 SWAP2 SUB SWAP1 RETURN JUMPDEST PUSH2 0x22D PUSH1 0x4 DUP1 CALLDATASIZE SUB DUP2 ADD SWAP1 PUSH2 0x228 SWAP2 SWAP1 PUSH2 0x1641 JUMP JUMPDEST PUSH2 0xB3F JUMP JUMPDEST PUSH1 0x40 MLOAD PUSH2 0x23A SWAP2 SWAP1 PUSH2 0x108E JUMP JUMPDEST PUSH1 0x40 MLOAD DUP1 SWAP2 SUB SWAP1 RETURN JUMPDEST PUSH2 0x25D PUSH1 0x4 DUP1 CALLDATASIZE SUB DUP2 ADD SWAP1 PUSH2 0x258 SWAP2 SWAP1 PUSH2 0x1757 JUMP JUMPDEST PUSH2 0xBAA JUMP JUMPDEST STOP JUMPDEST PUSH1 0x0 DUP1 PUSH1 0x2 DUP5 PUSH2 0x26F SWAP2 SWAP1 PUSH2 0x195A JUMP JUMPDEST SWAP1 POP PUSH1 0x0 PUSH1 0x2 DUP5 PUSH2 0x280 SWAP2 SWAP1 PUSH2 0x195A JUMP JUMPDEST SWAP1 POP PUSH1 0x0 PUSH2 0x2A1 PUSH8 0xDE0B6B3A7640000 DUP5 PUSH2 0x29B SWAP2 SWAP1 PUSH2 0x19C6 JUMP JUMPDEST DUP4 PUSH2 0xC42 JUMP JUMPDEST SWAP1 POP PUSH1 0x0 DUP2 PUSH8 0xDE0B6B3A7640000 PUSH2 0x2B9 SWAP2 SWAP1 PUSH2 0x1A3E JUMP JUMPDEST SWAP1 POP PUSH1 0x0 PUSH8 0xDE0B6B3A7640000 PUSH2 0x2E0 PUSH16 0x1812F9CF7920E2B66973E2000000000 DUP5 PUSH2 0xC42 JUMP JUMPDEST PUSH2 0x2EA SWAP2 SWAP1 PUSH2 0x1A82 JUMP JUMPDEST SWAP1 POP DUP1 SWAP6 POP POP POP POP POP POP SWAP3 SWAP2 POP POP JUMP JUMPDEST PUSH1 0x0 DUP1 DUP3 SWAP1 POP PUSH2 0x309 DUP2 PUSH2 0xDAE JUMP JUMPDEST PUSH1 0x0 PUSH1 0x2 DUP3 MLOAD PUSH2 0x319 SWAP2 SWAP1 PUSH2 0x1AF4 JUMP JUMPDEST SWAP1 POP PUSH1 0x0 PUSH1 0x2 DUP4 MLOAD PUSH2 0x32B SWAP2 SWAP1 PUSH2 0x1B25 JUMP JUMPDEST SUB PUSH2 0x391 JUMPI PUSH1 0x2 DUP3 PUSH1 0x1 DUP4 PUSH2 0x340 SWAP2 SWAP1 PUSH2 0x1B56 JUMP JUMPDEST DUP2 MLOAD DUP2 LT PUSH2 0x351 JUMPI PUSH2 0x350 PUSH2 0x1B8A JUMP JUMPDEST JUMPDEST PUSH1 0x20 MUL PUSH1 0x20 ADD ADD MLOAD DUP4 DUP4 DUP2 MLOAD DUP2 LT PUSH2 0x36C JUMPI PUSH2 0x36B PUSH2 0x1B8A JUMP JUMPDEST JUMPDEST PUSH1 0x20 MUL PUSH1 0x20 ADD ADD MLOAD PUSH2 0x37E SWAP2 SWAP1 PUSH2 0x1A3E JUMP JUMPDEST PUSH2 0x388 SWAP2 SWAP1 PUSH2 0x1BB9 JUMP JUMPDEST SWAP3 POP POP POP PUSH2 0x3B1 JUMP JUMPDEST DUP2 DUP2 DUP2 MLOAD DUP2 LT PUSH2 0x3A4 JUMPI PUSH2 0x3A3 PUSH2 0x1B8A JUMP JUMPDEST JUMPDEST PUSH1 0x20 MUL PUSH1 0x20 ADD ADD MLOAD SWAP3 POP POP POP JUMPDEST SWAP2 SWAP1 POP JUMP JUMPDEST PUSH1 0x60 PUSH1 0x0 DUP4 MLOAD PUSH8 0xFFFFFFFFFFFFFFFF DUP2 GT ISZERO PUSH2 0x3D5 JUMPI PUSH2 0x3D4 PUSH2 0x10BF JUMP JUMPDEST JUMPDEST PUSH1 0x40 MLOAD SWAP1 DUP1 DUP3 MSTORE DUP1 PUSH1 0x20 MUL PUSH1 0x20 ADD DUP3 ADD PUSH1 0x40 MSTORE DUP1 ISZERO PUSH2 0x403 JUMPI DUP2 PUSH1 0x20 ADD PUSH1 0x20 DUP3 MUL DUP1 CALLDATASIZE DUP4 CALLDATACOPY DUP1 DUP3 ADD SWAP2 POP POP SWAP1 POP JUMPDEST POP SWAP1 POP PUSH1 0x0 JUMPDEST DUP5 MLOAD DUP2 LT ISZERO PUSH2 0x4D0 JUMPI DUP4 DUP6 DUP3 DUP2 MLOAD DUP2 LT PUSH2 0x426 JUMPI PUSH2 0x425 PUSH2 0x1B8A JUMP JUMPDEST JUMPDEST PUSH1 0x20 MUL PUSH1 0x20 ADD ADD MLOAD SLT PUSH2 0x47D JUMPI DUP4 DUP6 DUP3 DUP2 MLOAD DUP2 LT PUSH2 0x447 JUMPI PUSH2 0x446 PUSH2 0x1B8A JUMP JUMPDEST JUMPDEST PUSH1 0x20 MUL PUSH1 0x20 ADD ADD MLOAD PUSH2 0x459 SWAP2 SWAP1 PUSH2 0x1A82 JUMP JUMPDEST DUP3 DUP3 DUP2 MLOAD DUP2 LT PUSH2 0x46C JUMPI PUSH2 0x46B PUSH2 0x1B8A JUMP JUMPDEST JUMPDEST PUSH1 0x20 MUL PUSH1 0x20 ADD ADD DUP2 DUP2 MSTORE POP POP PUSH2 0x4C3 JUMP JUMPDEST DUP5 DUP2 DUP2 MLOAD DUP2 LT PUSH2 0x490 JUMPI PUSH2 0x48F PUSH2 0x1B8A JUMP JUMPDEST JUMPDEST PUSH1 0x20 MUL PUSH1 0x20 ADD ADD MLOAD DUP5 PUSH2 0x4A3 SWAP2 SWAP1 PUSH2 0x1A82 JUMP JUMPDEST DUP3 DUP3 DUP2 MLOAD DUP2 LT PUSH2 0x4B6 JUMPI PUSH2 0x4B5 PUSH2 0x1B8A JUMP JUMPDEST JUMPDEST PUSH1 0x20 MUL PUSH1 0x20 ADD ADD DUP2 DUP2 MSTORE POP POP JUMPDEST DUP1 DUP1 PUSH1 0x1 ADD SWAP2 POP POP PUSH2 0x409 JUMP JUMPDEST POP DUP1 SWAP2 POP POP SWAP3 SWAP2 POP POP JUMP JUMPDEST PUSH1 0x0 PUSH1 0x20 MSTORE DUP1 PUSH1 0x0 MSTORE PUSH1 0x40 PUSH1 0x0 KECCAK256 PUSH1 0x0 SWAP2 POP SWAP1 POP DUP1 PUSH1 0x0 ADD PUSH1 0x0 SWAP1 SLOAD SWAP1 PUSH2 0x100 EXP SWAP1 DIV PUSH20 0xFFFFFFFFFFFFFFFFFFFFFFFFFFFFFFFFFFFFFFFF AND SWAP1 DUP1 PUSH1 0x1 ADD SLOAD SWAP1 POP DUP3 JUMP JUMPDEST PUSH1 0x60 PUSH1 0x0 PUSH1 0x1 DUP1 SLOAD SWAP1 POP PUSH8 0xFFFFFFFFFFFFFFFF DUP2 GT ISZERO PUSH2 0x542 JUMPI PUSH2 0x541 PUSH2 0x10BF JUMP JUMPDEST JUMPDEST PUSH1 0x40 MLOAD SWAP1 DUP1 DUP3 MSTORE DUP1 PUSH1 0x20 MUL PUSH1 0x20 ADD DUP3 ADD PUSH1 0x40 MSTORE DUP1 ISZERO PUSH2 0x57B JUMPI DUP2 PUSH1 0x20 ADD JUMPDEST PUSH2 0x568 PUSH2 0xFC5 JUMP JUMPDEST DUP2 MSTORE PUSH1 0x20 ADD SWAP1 PUSH1 0x1 SWAP1 SUB SWAP1 DUP2 PUSH2 0x560 JUMPI SWAP1 POP JUMPDEST POP SWAP1 POP PUSH1 0x0 JUMPDEST PUSH1 0x1 DUP1 SLOAD SWAP1 POP DUP2 LT ISZERO PUSH2 0x6A0 JUMPI PUSH1 0x0 DUP1 PUSH1 0x1 DUP4 DUP2 SLOAD DUP2 LT PUSH2 0x5A5 JUMPI PUSH2 0x5A4 PUSH2 0x1B8A JUMP JUMPDEST JUMPDEST SWAP1 PUSH1 0x0 MSTORE PUSH1 0x20 PUSH1 0x0 KECCAK256 ADD PUSH1 0x0 SWAP1 SLOAD SWAP1 PUSH2 0x100 EXP SWAP1 DIV PUSH20 0xFFFFFFFFFFFFFFFFFFFFFFFFFFFFFFFFFFFFFFFF AND PUSH20 0xFFFFFFFFFFFFFFFFFFFFFFFFFFFFFFFFFFFFFFFF AND PUSH20 0xFFFFFFFFFFFFFFFFFFFFFFFFFFFFFFFFFFFFFFFF AND DUP2 MSTORE PUSH1 0x20 ADD SWAP1 DUP2 MSTORE PUSH1 0x20 ADD PUSH1 0x0 KECCAK256 PUSH1 0x40 MLOAD DUP1 PUSH1 0x40 ADD PUSH1 0x40 MSTORE SWAP1 DUP2 PUSH1 0x0 DUP3 ADD PUSH1 0x0 SWAP1 SLOAD SWAP1 PUSH2 0x100 EXP SWAP1 DIV PUSH20 0xFFFFFFFFFFFFFFFFFFFFFFFFFFFFFFFFFFFFFFFF AND PUSH20 0xFFFFFFFFFFFFFFFFFFFFFFFFFFFFFFFFFFFFFFFF AND PUSH20 0xFFFFFFFFFFFFFFFFFFFFFFFFFFFFFFFFFFFFFFFF AND DUP2 MSTORE PUSH1 0x20 ADD PUSH1 0x1 DUP3 ADD SLOAD DUP2 MSTORE POP POP DUP3 DUP3 DUP2 MLOAD DUP2 LT PUSH2 0x688 JUMPI PUSH2 0x687 PUSH2 0x1B8A JUMP JUMPDEST JUMPDEST PUSH1 0x20 MUL PUSH1 0x20 ADD ADD DUP2 SWAP1 MSTORE POP DUP1 DUP1 PUSH1 0x1 ADD SWAP2 POP POP PUSH2 0x581 JUMP JUMPDEST POP DUP1 SWAP2 POP POP SWAP1 JUMP JUMPDEST PUSH1 0x0 PUSH2 0x6B3 DUP4 PUSH2 0x2FA JUMP JUMPDEST SWAP1 POP PUSH1 0x0 PUSH2 0x6C1 DUP5 DUP4 PUSH2 0x3B6 JUMP JUMPDEST SWAP1 POP PUSH1 0x0 DUP2 MLOAD SWAP1 POP PUSH1 0x0 DUP2 PUSH8 0xFFFFFFFFFFFFFFFF DUP2 GT ISZERO PUSH2 0x6E5 JUMPI PUSH2 0x6E4 PUSH2 0x10BF JUMP JUMPDEST JUMPDEST PUSH1 0x40 MLOAD SWAP1 DUP1 DUP3 MSTORE DUP1 PUSH1 0x20 MUL PUSH1 0x20 ADD DUP3 ADD PUSH1 0x40 MSTORE DUP1 ISZERO PUSH2 0x713 JUMPI DUP2 PUSH1 0x20 ADD PUSH1 0x20 DUP3 MUL DUP1 CALLDATASIZE DUP4 CALLDATACOPY DUP1 DUP3 ADD SWAP2 POP POP SWAP1 POP JUMPDEST POP SWAP1 POP PUSH1 0x0 DUP3 PUSH8 0xFFFFFFFFFFFFFFFF DUP2 GT ISZERO PUSH2 0x732 JUMPI PUSH2 0x731 PUSH2 0x10BF JUMP JUMPDEST JUMPDEST PUSH1 0x40 MLOAD SWAP1 DUP1 DUP3 MSTORE DUP1 PUSH1 0x20 MUL PUSH1 0x20 ADD DUP3 ADD PUSH1 0x40 MSTORE DUP1 ISZERO PUSH2 0x760 JUMPI DUP2 PUSH1 0x20 ADD PUSH1 0x20 DUP3 MUL DUP1 CALLDATASIZE DUP4 CALLDATACOPY DUP1 DUP3 ADD SWAP2 POP POP SWAP1 POP JUMPDEST POP SWAP1 POP PUSH1 0x0 JUMPDEST DUP4 DUP2 LT ISZERO PUSH2 0x8F5 JUMPI PUSH2 0x792 DUP6 DUP3 DUP2 MLOAD DUP2 LT PUSH2 0x784 JUMPI PUSH2 0x783 PUSH2 0x1B8A JUMP JUMPDEST JUMPDEST PUSH1 0x20 MUL PUSH1 0x20 ADD ADD MLOAD DUP9 PUSH2 0x25F JUMP JUMPDEST DUP4 DUP3 DUP2 MLOAD DUP2 LT PUSH2 0x7A5 JUMPI PUSH2 0x7A4 PUSH2 0x1B8A JUMP JUMPDEST JUMPDEST PUSH1 0x20 MUL PUSH1 0x20 ADD ADD DUP2 DUP2 MSTORE POP POP PUSH1 0x0 PUSH1 0x1 DUP3 DUP2 SLOAD DUP2 LT PUSH2 0x7C7 JUMPI PUSH2 0x7C6 PUSH2 0x1B8A JUMP JUMPDEST JUMPDEST SWAP1 PUSH1 0x0 MSTORE PUSH1 0x20 PUSH1 0x0 KECCAK256 ADD PUSH1 0x0 SWAP1 SLOAD SWAP1 PUSH2 0x100 EXP SWAP1 DIV PUSH20 0xFFFFFFFFFFFFFFFFFFFFFFFFFFFFFFFFFFFFFFFF AND SWAP1 POP PUSH1 0x0 DUP1 PUSH1 0x0 DUP4 PUSH20 0xFFFFFFFFFFFFFFFFFFFFFFFFFFFFFFFFFFFFFFFF AND PUSH20 0xFFFFFFFFFFFFFFFFFFFFFFFFFFFFFFFFFFFFFFFF AND DUP2 MSTORE PUSH1 0x20 ADD SWAP1 DUP2 MSTORE PUSH1 0x20 ADD PUSH1 0x0 KECCAK256 PUSH1 0x1 ADD SLOAD SWAP1 POP PUSH2 0x867 DUP6 DUP5 DUP2 MLOAD DUP2 LT PUSH2 0x850 JUMPI PUSH2 0x84F PUSH2 0x1B8A JUMP JUMPDEST JUMPDEST PUSH1 0x20 MUL PUSH1 0x20 ADD ADD MLOAD DUP3 PUSH8 0x16345785D8A0000 PUSH2 0xB3F JUMP JUMPDEST DUP5 DUP5 DUP2 MLOAD DUP2 LT PUSH2 0x87A JUMPI PUSH2 0x879 PUSH2 0x1B8A JUMP JUMPDEST JUMPDEST PUSH1 0x20 MUL PUSH1 0x20 ADD ADD DUP2 DUP2 MSTORE POP POP DUP4 DUP4 DUP2 MLOAD DUP2 LT PUSH2 0x899 JUMPI PUSH2 0x898 PUSH2 0x1B8A JUMP JUMPDEST JUMPDEST PUSH1 0x20 MUL PUSH1 0x20 ADD ADD MLOAD PUSH1 0x0 DUP1 DUP5 PUSH20 0xFFFFFFFFFFFFFFFFFFFFFFFFFFFFFFFFFFFFFFFF AND PUSH20 0xFFFFFFFFFFFFFFFFFFFFFFFFFFFFFFFFFFFFFFFF AND DUP2 MSTORE PUSH1 0x20 ADD SWAP1 DUP2 MSTORE PUSH1 0x20 ADD PUSH1 0x0 KECCAK256 PUSH1 0x1 ADD DUP2 SWAP1 SSTORE POP POP POP DUP1 DUP1 PUSH1 0x1 ADD SWAP2 POP POP PUSH2 0x766 JUMP JUMPDEST POP POP POP POP POP POP POP POP JUMP JUMPDEST PUSH1 0x1 DUP2 DUP2 SLOAD DUP2 LT PUSH2 0x90F JUMPI PUSH1 0x0 DUP1 REVERT JUMPDEST SWAP1 PUSH1 0x0 MSTORE PUSH1 0x20 PUSH1 0x0 KECCAK256 ADD PUSH1 0x0 SWAP2 POP SLOAD SWAP1 PUSH2 0x100 EXP SWAP1 DIV PUSH20 0xFFFFFFFFFFFFFFFFFFFFFFFFFFFFFFFFFFFFFFFF AND DUP2 JUMP JUMPDEST PUSH1 0x0 PUSH20 0xFFFFFFFFFFFFFFFFFFFFFFFFFFFFFFFFFFFFFFFF AND PUSH1 0x0 DUP1 DUP5 PUSH20 0xFFFFFFFFFFFFFFFFFFFFFFFFFFFFFFFFFFFFFFFF AND PUSH20 0xFFFFFFFFFFFFFFFFFFFFFFFFFFFFFFFFFFFFFFFF AND DUP2 MSTORE PUSH1 0x20 ADD SWAP1 DUP2 MSTORE PUSH1 0x20 ADD PUSH1 0x0 KECCAK256 PUSH1 0x0 ADD PUSH1 0x0 SWAP1 SLOAD SWAP1 PUSH2 0x100 EXP SWAP1 DIV PUSH20 0xFFFFFFFFFFFFFFFFFFFFFFFFFFFFFFFFFFFFFFFF AND PUSH20 0xFFFFFFFFFFFFFFFFFFFFFFFFFFFFFFFFFFFFFFFF AND EQ PUSH2 0xA0E JUMPI PUSH1 0x40 MLOAD PUSH32 0x8C379A000000000000000000000000000000000000000000000000000000000 DUP2 MSTORE PUSH1 0x4 ADD PUSH2 0xA05 SWAP1 PUSH2 0x1C80 JUMP JUMPDEST PUSH1 0x40 MLOAD DUP1 SWAP2 SUB SWAP1 REVERT JUMPDEST PUSH1 0x40 MLOAD DUP1 PUSH1 0x40 ADD PUSH1 0x40 MSTORE DUP1 DUP4 PUSH20 0xFFFFFFFFFFFFFFFFFFFFFFFFFFFFFFFFFFFFFFFF AND DUP2 MSTORE PUSH1 0x20 ADD DUP3 DUP2 MSTORE POP PUSH1 0x0 DUP1 DUP5 PUSH20 0xFFFFFFFFFFFFFFFFFFFFFFFFFFFFFFFFFFFFFFFF AND PUSH20 0xFFFFFFFFFFFFFFFFFFFFFFFFFFFFFFFFFFFFFFFF AND DUP2 MSTORE PUSH1 0x20 ADD SWAP1 DUP2 MSTORE PUSH1 0x20 ADD PUSH1 0x0 KECCAK256 PUSH1 0x0 DUP3 ADD MLOAD DUP2 PUSH1 0x0 ADD PUSH1 0x0 PUSH2 0x100 EXP DUP2 SLOAD DUP2 PUSH20 0xFFFFFFFFFFFFFFFFFFFFFFFFFFFFFFFFFFFFFFFF MUL NOT AND SWAP1 DUP4 PUSH20 0xFFFFFFFFFFFFFFFFFFFFFFFFFFFFFFFFFFFFFFFF AND MUL OR SWAP1 SSTORE POP PUSH1 0x20 DUP3 ADD MLOAD DUP2 PUSH1 0x1 ADD SSTORE SWAP1 POP POP PUSH1 0x1 DUP3 SWAP1 DUP1 PUSH1 0x1 DUP2 SLOAD ADD DUP1 DUP3 SSTORE DUP1 SWAP2 POP POP PUSH1 0x1 SWAP1 SUB SWAP1 PUSH1 0x0 MSTORE PUSH1 0x20 PUSH1 0x0 KECCAK256 ADD PUSH1 0x0 SWAP1 SWAP2 SWAP1 SWAP2 SWAP1 SWAP2 PUSH2 0x100 EXP DUP2 SLOAD DUP2 PUSH20 0xFFFFFFFFFFFFFFFFFFFFFFFFFFFFFFFFFFFFFFFF MUL NOT AND SWAP1 DUP4 PUSH20 0xFFFFFFFFFFFFFFFFFFFFFFFFFFFFFFFFFFFFFFFF AND MUL OR SWAP1 SSTORE POP POP POP JUMP JUMPDEST PUSH1 0x0 PUSH1 0x1 DUP1 SLOAD SWAP1 POP SWAP1 POP SWAP1 JUMP JUMPDEST PUSH1 0x0 DUP1 PUSH8 0xDE0B6B3A7640000 DUP5 DUP5 PUSH8 0xDE0B6B3A7640000 PUSH2 0xB60 SWAP2 SWAP1 PUSH2 0x1A82 JUMP JUMPDEST PUSH2 0xB6A SWAP2 SWAP1 PUSH2 0x19C6 JUMP JUMPDEST PUSH2 0xB74 SWAP2 SWAP1 PUSH2 0x1BB9 JUMP JUMPDEST PUSH8 0xDE0B6B3A7640000 DUP7 DUP6 PUSH2 0xB89 SWAP2 SWAP1 PUSH2 0x19C6 JUMP JUMPDEST PUSH2 0xB93 SWAP2 SWAP1 PUSH2 0x1BB9 JUMP JUMPDEST PUSH2 0xB9D SWAP2 SWAP1 PUSH2 0x1A3E JUMP JUMPDEST SWAP1 POP DUP1 SWAP2 POP POP SWAP4 SWAP3 POP POP POP JUMP JUMPDEST PUSH1 0x0 JUMPDEST DUP3 MLOAD DUP2 LT ISZERO PUSH2 0xC3D JUMPI DUP2 DUP2 DUP2 MLOAD DUP2 LT PUSH2 0xBC9 JUMPI PUSH2 0xBC8 PUSH2 0x1B8A JUMP JUMPDEST JUMPDEST PUSH1 0x20 MUL PUSH1 0x20 ADD ADD MLOAD PUSH1 0x0 DUP1 DUP6 DUP5 DUP2 MLOAD DUP2 LT PUSH2 0xBE7 JUMPI PUSH2 0xBE6 PUSH2 0x1B8A JUMP JUMPDEST JUMPDEST PUSH1 0x20 MUL PUSH1 0x20 ADD ADD MLOAD PUSH20 0xFFFFFFFFFFFFFFFFFFFFFFFFFFFFFFFFFFFFFFFF AND PUSH20 0xFFFFFFFFFFFFFFFFFFFFFFFFFFFFFFFFFFFFFFFF AND DUP2 MSTORE PUSH1 0x20 ADD SWAP1 DUP2 MSTORE PUSH1 0x20 ADD PUSH1 0x0 KECCAK256 PUSH1 0x1 ADD DUP2 SWAP1 SSTORE POP DUP1 DUP1 PUSH1 0x1 ADD SWAP2 POP POP PUSH2 0xBAD JUMP JUMPDEST POP POP POP JUMP JUMPDEST PUSH1 0x0 PUSH32 0x8000000000000000000000000000000000000000000000000000000000000000 DUP4 EQ DUP1 PUSH2 0xC91 JUMPI POP PUSH32 0x8000000000000000000000000000000000000000000000000000000000000000 DUP3 EQ JUMPDEST ISZERO PUSH2 0xCC8 JUMPI PUSH1 0x40 MLOAD PUSH32 0xB3C754A300000000000000000000000000000000000000000000000000000000 DUP2 MSTORE PUSH1 0x4 ADD PUSH1 0x40 MLOAD DUP1 SWAP2 SUB SWAP1 REVERT JUMPDEST PUSH1 0x0 DUP1 PUSH1 0x0 DUP6 SLT PUSH2 0xCD9 JUMPI DUP5 PUSH2 0xCDE JUMP JUMPDEST DUP5 PUSH1 0x0 SUB JUMPDEST SWAP2 POP PUSH1 0x0 DUP5 SLT PUSH2 0xCEE JUMPI DUP4 PUSH2 0xCF3 JUMP JUMPDEST DUP4 PUSH1 0x0 SUB JUMPDEST SWAP1 POP PUSH1 0x0 PUSH2 0xD0A DUP4 PUSH8 0xDE0B6B3A7640000 DUP5 PUSH2 0xEB0 JUMP JUMPDEST SWAP1 POP PUSH32 0x7FFFFFFFFFFFFFFFFFFFFFFFFFFFFFFFFFFFFFFFFFFFFFFFFFFFFFFFFFFFFFFF DUP2 GT ISZERO PUSH2 0xD71 JUMPI DUP1 PUSH1 0x40 MLOAD PUSH32 0x7CB4BEF500000000000000000000000000000000000000000000000000000000 DUP2 MSTORE PUSH1 0x4 ADD PUSH2 0xD68 SWAP2 SWAP1 PUSH2 0x1626 JUMP JUMPDEST PUSH1 0x40 MLOAD DUP1 SWAP2 SUB SWAP1 REVERT JUMPDEST PUSH1 0x0 DUP1 PUSH1 0x1 PUSH1 0x0 SUB DUP9 SGT SWAP2 POP PUSH1 0x1 PUSH1 0x0 SUB DUP8 SGT SWAP1 POP PUSH1 0x1 DUP2 DUP4 XOR EQ PUSH2 0xD96 JUMPI DUP3 PUSH2 0xDA1 JUMP JUMPDEST DUP3 PUSH2 0xDA0 SWAP1 PUSH2 0x1CA0 JUMP JUMPDEST JUMPDEST SWAP6 POP POP POP POP POP POP SWAP3 SWAP2 POP POP JUMP JUMPDEST PUSH1 0x0 DUP2 MLOAD SWAP1 POP PUSH1 0x0 JUMPDEST DUP2 DUP2 LT ISZERO PUSH2 0xEAB JUMPI PUSH1 0x0 PUSH1 0x1 DUP3 PUSH2 0xDCE SWAP2 SWAP1 PUSH2 0x1CE8 JUMP JUMPDEST SWAP1 POP JUMPDEST DUP3 DUP2 LT ISZERO PUSH2 0xE9D JUMPI DUP4 DUP2 DUP2 MLOAD DUP2 LT PUSH2 0xDEC JUMPI PUSH2 0xDEB PUSH2 0x1B8A JUMP JUMPDEST JUMPDEST PUSH1 0x20 MUL PUSH1 0x20 ADD ADD MLOAD DUP5 DUP4 DUP2 MLOAD DUP2 LT PUSH2 0xE07 JUMPI PUSH2 0xE06 PUSH2 0x1B8A JUMP JUMPDEST JUMPDEST PUSH1 0x20 MUL PUSH1 0x20 ADD ADD MLOAD SGT ISZERO PUSH2 0xE90 JUMPI PUSH1 0x0 DUP5 DUP4 DUP2 MLOAD DUP2 LT PUSH2 0xE2A JUMPI PUSH2 0xE29 PUSH2 0x1B8A JUMP JUMPDEST JUMPDEST PUSH1 0x20 MUL PUSH1 0x20 ADD ADD MLOAD SWAP1 POP DUP5 DUP3 DUP2 MLOAD DUP2 LT PUSH2 0xE47 JUMPI PUSH2 0xE46 PUSH2 0x1B8A JUMP JUMPDEST JUMPDEST PUSH1 0x20 MUL PUSH1 0x20 ADD ADD MLOAD DUP6 DUP5 DUP2 MLOAD DUP2 LT PUSH2 0xE62 JUMPI PUSH2 0xE61 PUSH2 0x1B8A JUMP JUMPDEST JUMPDEST PUSH1 0x20 MUL PUSH1 0x20 ADD ADD DUP2 DUP2 MSTORE POP POP DUP1 DUP6 DUP4 DUP2 MLOAD DUP2 LT PUSH2 0xE82 JUMPI PUSH2 0xE81 PUSH2 0x1B8A JUMP JUMPDEST JUMPDEST PUSH1 0x20 MUL PUSH1 0x20 ADD ADD DUP2 DUP2 MSTORE POP POP POP JUMPDEST DUP1 DUP1 PUSH1 0x1 ADD SWAP2 POP POP PUSH2 0xDD1 JUMP JUMPDEST POP DUP1 DUP1 PUSH1 0x1 ADD SWAP2 POP POP PUSH2 0xDB7 JUMP JUMPDEST POP POP POP JUMP JUMPDEST PUSH1 0x0 DUP1 PUSH1 0x0 DUP1 NOT DUP6 DUP8 MULMOD DUP6 DUP8 MUL SWAP3 POP DUP3 DUP2 LT DUP4 DUP3 SUB SUB SWAP2 POP POP PUSH1 0x0 DUP2 SUB PUSH2 0xEEB JUMPI DUP4 DUP3 DUP2 PUSH2 0xEE1 JUMPI PUSH2 0xEE0 PUSH2 0x1AC5 JUMP JUMPDEST JUMPDEST DIV SWAP3 POP POP POP PUSH2 0xFBE JUMP JUMPDEST DUP4 DUP2 LT PUSH2 0xF31 JUMPI DUP1 DUP5 PUSH1 0x40 MLOAD PUSH32 0x773CC18C00000000000000000000000000000000000000000000000000000000 DUP2 MSTORE PUSH1 0x4 ADD PUSH2 0xF28 SWAP3 SWAP2 SWAP1 PUSH2 0x1D1C JUMP JUMPDEST PUSH1 0x40 MLOAD DUP1 SWAP2 SUB SWAP1 REVERT JUMPDEST PUSH1 0x0 DUP5 DUP7 DUP9 MULMOD SWAP1 POP DUP3 DUP2 GT DUP3 SUB SWAP2 POP DUP1 DUP4 SUB SWAP3 POP PUSH1 0x0 PUSH1 0x1 DUP7 NOT ADD DUP7 AND SWAP1 POP DUP1 DUP7 DIV SWAP6 POP DUP1 DUP5 DIV SWAP4 POP PUSH1 0x1 DUP2 DUP3 PUSH1 0x0 SUB DIV ADD SWAP1 POP DUP1 DUP4 MUL DUP5 OR SWAP4 POP PUSH1 0x0 PUSH1 0x2 DUP8 PUSH1 0x3 MUL XOR SWAP1 POP DUP1 DUP8 MUL PUSH1 0x2 SUB DUP2 MUL SWAP1 POP DUP1 DUP8 MUL PUSH1 0x2 SUB DUP2 MUL SWAP1 POP DUP1 DUP8 MUL PUSH1 0x2 SUB DUP2 MUL SWAP1 POP DUP1 DUP8 MUL PUSH1 0x2 SUB DUP2 MUL SWAP1 POP DUP1 DUP8 MUL PUSH1 0x2 SUB DUP2 MUL SWAP1 POP DUP1 DUP8 MUL PUSH1 0x2 SUB DUP2 MUL SWAP1 POP DUP1 DUP6 MUL SWAP6 POP POP POP POP POP POP JUMPDEST SWAP4 SWAP3 POP POP POP JUMP JUMPDEST PUSH1 0x40 MLOAD DUP1 PUSH1 0x40 ADD PUSH1 0x40 MSTORE DUP1 PUSH1 0x0 PUSH20 0xFFFFFFFFFFFFFFFFFFFFFFFFFFFFFFFFFFFFFFFF AND DUP2 MSTORE PUSH1 0x20 ADD PUSH1 0x0 DUP2 MSTORE POP SWAP1 JUMP JUMPDEST PUSH1 0x0 PUSH1 0x40 MLOAD SWAP1 POP SWAP1 JUMP JUMPDEST PUSH1 0x0 DUP1 REVERT JUMPDEST PUSH1 0x0 DUP1 REVERT JUMPDEST PUSH1 0x0 DUP2 SWAP1 POP SWAP2 SWAP1 POP JUMP JUMPDEST PUSH2 0x101C DUP2 PUSH2 0x1009 JUMP JUMPDEST DUP2 EQ PUSH2 0x1027 JUMPI PUSH1 0x0 DUP1 REVERT JUMPDEST POP JUMP JUMPDEST PUSH1 0x0 DUP2 CALLDATALOAD SWAP1 POP PUSH2 0x1039 DUP2 PUSH2 0x1013 JUMP JUMPDEST SWAP3 SWAP2 POP POP JUMP JUMPDEST PUSH1 0x0 DUP1 PUSH1 0x40 DUP4 DUP6 SUB SLT ISZERO PUSH2 0x1056 JUMPI PUSH2 0x1055 PUSH2 0xFFF JUMP JUMPDEST JUMPDEST PUSH1 0x0 PUSH2 0x1064 DUP6 DUP3 DUP7 ADD PUSH2 0x102A JUMP JUMPDEST SWAP3 POP POP PUSH1 0x20 PUSH2 0x1075 DUP6 DUP3 DUP7 ADD PUSH2 0x102A JUMP JUMPDEST SWAP2 POP POP SWAP3 POP SWAP3 SWAP1 POP JUMP JUMPDEST PUSH2 0x1088 DUP2 PUSH2 0x1009 JUMP JUMPDEST DUP3 MSTORE POP POP JUMP JUMPDEST PUSH1 0x0 PUSH1 0x20 DUP3 ADD SWAP1 POP PUSH2 0x10A3 PUSH1 0x0 DUP4 ADD DUP5 PUSH2 0x107F JUMP JUMPDEST SWAP3 SWAP2 POP POP JUMP JUMPDEST PUSH1 0x0 DUP1 REVERT JUMPDEST PUSH1 0x0 PUSH1 0x1F NOT PUSH1 0x1F DUP4 ADD AND SWAP1 POP SWAP2 SWAP1 POP JUMP JUMPDEST PUSH32 0x4E487B7100000000000000000000000000000000000000000000000000000000 PUSH1 0x0 MSTORE PUSH1 0x41 PUSH1 0x4 MSTORE PUSH1 0x24 PUSH1 0x0 REVERT JUMPDEST PUSH2 0x10F7 DUP3 PUSH2 0x10AE JUMP JUMPDEST DUP2 ADD DUP2 DUP2 LT PUSH8 0xFFFFFFFFFFFFFFFF DUP3 GT OR ISZERO PUSH2 0x1116 JUMPI PUSH2 0x1115 PUSH2 0x10BF JUMP JUMPDEST JUMPDEST DUP1 PUSH1 0x40 MSTORE POP POP POP JUMP JUMPDEST PUSH1 0x0 PUSH2 0x1129 PUSH2 0xFF5 JUMP JUMPDEST SWAP1 POP PUSH2 0x1135 DUP3 DUP3 PUSH2 0x10EE JUMP JUMPDEST SWAP2 SWAP1 POP JUMP JUMPDEST PUSH1 0x0 PUSH8 0xFFFFFFFFFFFFFFFF DUP3 GT ISZERO PUSH2 0x1155 JUMPI PUSH2 0x1154 PUSH2 0x10BF JUMP JUMPDEST JUMPDEST PUSH1 0x20 DUP3 MUL SWAP1 POP PUSH1 0x20 DUP2 ADD SWAP1 POP SWAP2 SWAP1 POP JUMP JUMPDEST PUSH1 0x0 DUP1 REVERT JUMPDEST PUSH1 0x0 PUSH2 0x117E PUSH2 0x1179 DUP5 PUSH2 0x113A JUMP JUMPDEST PUSH2 0x111F JUMP JUMPDEST SWAP1 POP DUP1 DUP4 DUP3 MSTORE PUSH1 0x20 DUP3 ADD SWAP1 POP PUSH1 0x20 DUP5 MUL DUP4 ADD DUP6 DUP2 GT ISZERO PUSH2 0x11A1 JUMPI PUSH2 0x11A0 PUSH2 0x1166 JUMP JUMPDEST JUMPDEST DUP4 JUMPDEST DUP2 DUP2 LT ISZERO PUSH2 0x11CA JUMPI DUP1 PUSH2 0x11B6 DUP9 DUP3 PUSH2 0x102A JUMP JUMPDEST DUP5 MSTORE PUSH1 0x20 DUP5 ADD SWAP4 POP POP PUSH1 0x20 DUP2 ADD SWAP1 POP PUSH2 0x11A3 JUMP JUMPDEST POP POP POP SWAP4 SWAP3 POP POP POP JUMP JUMPDEST PUSH1 0x0 DUP3 PUSH1 0x1F DUP4 ADD SLT PUSH2 0x11E9 JUMPI PUSH2 0x11E8 PUSH2 0x10A9 JUMP JUMPDEST JUMPDEST DUP2 CALLDATALOAD PUSH2 0x11F9 DUP5 DUP3 PUSH1 0x20 DUP7 ADD PUSH2 0x116B JUMP JUMPDEST SWAP2 POP POP SWAP3 SWAP2 POP POP JUMP JUMPDEST PUSH1 0x0 PUSH1 0x20 DUP3 DUP5 SUB SLT ISZERO PUSH2 0x1218 JUMPI PUSH2 0x1217 PUSH2 0xFFF JUMP JUMPDEST JUMPDEST PUSH1 0x0 DUP3 ADD CALLDATALOAD PUSH8 0xFFFFFFFFFFFFFFFF DUP2 GT ISZERO PUSH2 0x1236 JUMPI PUSH2 0x1235 PUSH2 0x1004 JUMP JUMPDEST JUMPDEST PUSH2 0x1242 DUP5 DUP3 DUP6 ADD PUSH2 0x11D4 JUMP JUMPDEST SWAP2 POP POP SWAP3 SWAP2 POP POP JUMP JUMPDEST PUSH1 0x0 DUP1 PUSH1 0x40 DUP4 DUP6 SUB SLT ISZERO PUSH2 0x1262 JUMPI PUSH2 0x1261 PUSH2 0xFFF JUMP JUMPDEST JUMPDEST PUSH1 0x0 DUP4 ADD CALLDATALOAD PUSH8 0xFFFFFFFFFFFFFFFF DUP2 GT ISZERO PUSH2 0x1280 JUMPI PUSH2 0x127F PUSH2 0x1004 JUMP JUMPDEST JUMPDEST PUSH2 0x128C DUP6 DUP3 DUP7 ADD PUSH2 0x11D4 JUMP JUMPDEST SWAP3 POP POP PUSH1 0x20 PUSH2 0x129D DUP6 DUP3 DUP7 ADD PUSH2 0x102A JUMP JUMPDEST SWAP2 POP POP SWAP3 POP SWAP3 SWAP1 POP JUMP JUMPDEST PUSH1 0x0 DUP2 MLOAD SWAP1 POP SWAP2 SWAP1 POP JUMP JUMPDEST PUSH1 0x0 DUP3 DUP3 MSTORE PUSH1 0x20 DUP3 ADD SWAP1 POP SWAP3 SWAP2 POP POP JUMP JUMPDEST PUSH1 0x0 DUP2 SWAP1 POP PUSH1 0x20 DUP3 ADD SWAP1 POP SWAP2 SWAP1 POP JUMP JUMPDEST PUSH2 0x12DC DUP2 PUSH2 0x1009 JUMP JUMPDEST DUP3 MSTORE POP POP JUMP JUMPDEST PUSH1 0x0 PUSH2 0x12EE DUP4 DUP4 PUSH2 0x12D3 JUMP JUMPDEST PUSH1 0x20 DUP4 ADD SWAP1 POP SWAP3 SWAP2 POP POP JUMP JUMPDEST PUSH1 0x0 PUSH1 0x20 DUP3 ADD SWAP1 POP SWAP2 SWAP1 POP JUMP JUMPDEST PUSH1 0x0 PUSH2 0x1312 DUP3 PUSH2 0x12A7 JUMP JUMPDEST PUSH2 0x131C DUP2 DUP6 PUSH2 0x12B2 JUMP JUMPDEST SWAP4 POP PUSH2 0x1327 DUP4 PUSH2 0x12C3 JUMP JUMPDEST DUP1 PUSH1 0x0 JUMPDEST DUP4 DUP2 LT ISZERO PUSH2 0x1358 JUMPI DUP2 MLOAD PUSH2 0x133F DUP9 DUP3 PUSH2 0x12E2 JUMP JUMPDEST SWAP8 POP PUSH2 0x134A DUP4 PUSH2 0x12FA JUMP JUMPDEST SWAP3 POP POP PUSH1 0x1 DUP2 ADD SWAP1 POP PUSH2 0x132B JUMP JUMPDEST POP DUP6 SWAP4 POP POP POP POP SWAP3 SWAP2 POP POP JUMP JUMPDEST PUSH1 0x0 PUSH1 0x20 DUP3 ADD SWAP1 POP DUP2 DUP2 SUB PUSH1 0x0 DUP4 ADD MSTORE PUSH2 0x137F DUP2 DUP5 PUSH2 0x1307 JUMP JUMPDEST SWAP1 POP SWAP3 SWAP2 POP POP JUMP JUMPDEST PUSH1 0x0 PUSH20 0xFFFFFFFFFFFFFFFFFFFFFFFFFFFFFFFFFFFFFFFF DUP3 AND SWAP1 POP SWAP2 SWAP1 POP JUMP JUMPDEST PUSH1 0x0 PUSH2 0x13B2 DUP3 PUSH2 0x1387 JUMP JUMPDEST SWAP1 POP SWAP2 SWAP1 POP JUMP JUMPDEST PUSH2 0x13C2 DUP2 PUSH2 0x13A7 JUMP JUMPDEST DUP2 EQ PUSH2 0x13CD JUMPI PUSH1 0x0 DUP1 REVERT JUMPDEST POP JUMP JUMPDEST PUSH1 0x0 DUP2 CALLDATALOAD SWAP1 POP PUSH2 0x13DF DUP2 PUSH2 0x13B9 JUMP JUMPDEST SWAP3 SWAP2 POP POP JUMP JUMPDEST PUSH1 0x0 PUSH1 0x20 DUP3 DUP5 SUB SLT ISZERO PUSH2 0x13FB JUMPI PUSH2 0x13FA PUSH2 0xFFF JUMP JUMPDEST JUMPDEST PUSH1 0x0 PUSH2 0x1409 DUP5 DUP3 DUP6 ADD PUSH2 0x13D0 JUMP JUMPDEST SWAP2 POP POP SWAP3 SWAP2 POP POP JUMP JUMPDEST PUSH2 0x141B DUP2 PUSH2 0x13A7 JUMP JUMPDEST DUP3 MSTORE POP POP JUMP JUMPDEST PUSH1 0x0 PUSH1 0x40 DUP3 ADD SWAP1 POP PUSH2 0x1436 PUSH1 0x0 DUP4 ADD DUP6 PUSH2 0x1412 JUMP JUMPDEST PUSH2 0x1443 PUSH1 0x20 DUP4 ADD DUP5 PUSH2 0x107F JUMP JUMPDEST SWAP4 SWAP3 POP POP POP JUMP JUMPDEST PUSH1 0x0 DUP2 MLOAD SWAP1 POP SWAP2 SWAP1 POP JUMP JUMPDEST PUSH1 0x0 DUP3 DUP3 MSTORE PUSH1 0x20 DUP3 ADD SWAP1 POP SWAP3 SWAP2 POP POP JUMP JUMPDEST PUSH1 0x0 DUP2 SWAP1 POP PUSH1 0x20 DUP3 ADD SWAP1 POP SWAP2 SWAP1 POP JUMP JUMPDEST PUSH2 0x147F DUP2 PUSH2 0x13A7 JUMP JUMPDEST DUP3 MSTORE POP POP JUMP JUMPDEST PUSH1 0x40 DUP3 ADD PUSH1 0x0 DUP3 ADD MLOAD PUSH2 0x149B PUSH1 0x0 DUP6 ADD DUP3 PUSH2 0x1476 JUMP JUMPDEST POP PUSH1 0x20 DUP3 ADD MLOAD PUSH2 0x14AE PUSH1 0x20 DUP6 ADD DUP3 PUSH2 0x12D3 JUMP JUMPDEST POP POP POP POP JUMP JUMPDEST PUSH1 0x0 PUSH2 0x14C0 DUP4 DUP4 PUSH2 0x1485 JUMP JUMPDEST PUSH1 0x40 DUP4 ADD SWAP1 POP SWAP3 SWAP2 POP POP JUMP JUMPDEST PUSH1 0x0 PUSH1 0x20 DUP3 ADD SWAP1 POP SWAP2 SWAP1 POP JUMP JUMPDEST PUSH1 0x0 PUSH2 0x14E4 DUP3 PUSH2 0x144A JUMP JUMPDEST PUSH2 0x14EE DUP2 DUP6 PUSH2 0x1455 JUMP JUMPDEST SWAP4 POP PUSH2 0x14F9 DUP4 PUSH2 0x1466 JUMP JUMPDEST DUP1 PUSH1 0x0 JUMPDEST DUP4 DUP2 LT ISZERO PUSH2 0x152A JUMPI DUP2 MLOAD PUSH2 0x1511 DUP9 DUP3 PUSH2 0x14B4 JUMP JUMPDEST SWAP8 POP PUSH2 0x151C DUP4 PUSH2 0x14CC JUMP JUMPDEST SWAP3 POP POP PUSH1 0x1 DUP2 ADD SWAP1 POP PUSH2 0x14FD JUMP JUMPDEST POP DUP6 SWAP4 POP POP POP POP SWAP3 SWAP2 POP POP JUMP JUMPDEST PUSH1 0x0 PUSH1 0x20 DUP3 ADD SWAP1 POP DUP2 DUP2 SUB PUSH1 0x0 DUP4 ADD MSTORE PUSH2 0x1551 DUP2 DUP5 PUSH2 0x14D9 JUMP JUMPDEST SWAP1 POP SWAP3 SWAP2 POP POP JUMP JUMPDEST PUSH1 0x0 DUP2 SWAP1 POP SWAP2 SWAP1 POP JUMP JUMPDEST PUSH2 0x156C DUP2 PUSH2 0x1559 JUMP JUMPDEST DUP2 EQ PUSH2 0x1577 JUMPI PUSH1 0x0 DUP1 REVERT JUMPDEST POP JUMP JUMPDEST PUSH1 0x0 DUP2 CALLDATALOAD SWAP1 POP PUSH2 0x1589 DUP2 PUSH2 0x1563 JUMP JUMPDEST SWAP3 SWAP2 POP POP JUMP JUMPDEST PUSH1 0x0 PUSH1 0x20 DUP3 DUP5 SUB SLT ISZERO PUSH2 0x15A5 JUMPI PUSH2 0x15A4 PUSH2 0xFFF JUMP JUMPDEST JUMPDEST PUSH1 0x0 PUSH2 0x15B3 DUP5 DUP3 DUP6 ADD PUSH2 0x157A JUMP JUMPDEST SWAP2 POP POP SWAP3 SWAP2 POP POP JUMP JUMPDEST PUSH1 0x0 PUSH1 0x20 DUP3 ADD SWAP1 POP PUSH2 0x15D1 PUSH1 0x0 DUP4 ADD DUP5 PUSH2 0x1412 JUMP JUMPDEST SWAP3 SWAP2 POP POP JUMP JUMPDEST PUSH1 0x0 DUP1 PUSH1 0x40 DUP4 DUP6 SUB SLT ISZERO PUSH2 0x15EE JUMPI PUSH2 0x15ED PUSH2 0xFFF JUMP JUMPDEST JUMPDEST PUSH1 0x0 PUSH2 0x15FC DUP6 DUP3 DUP7 ADD PUSH2 0x13D0 JUMP JUMPDEST SWAP3 POP POP PUSH1 0x20 PUSH2 0x160D DUP6 DUP3 DUP7 ADD PUSH2 0x102A JUMP JUMPDEST SWAP2 POP POP SWAP3 POP SWAP3 SWAP1 POP JUMP JUMPDEST PUSH2 0x1620 DUP2 PUSH2 0x1559 JUMP JUMPDEST DUP3 MSTORE POP POP JUMP JUMPDEST PUSH1 0x0 PUSH1 0x20 DUP3 ADD SWAP1 POP PUSH2 0x163B PUSH1 0x0 DUP4 ADD DUP5 PUSH2 0x1617 JUMP JUMPDEST SWAP3 SWAP2 POP POP JUMP JUMPDEST PUSH1 0x0 DUP1 PUSH1 0x0 PUSH1 0x60 DUP5 DUP7 SUB SLT ISZERO PUSH2 0x165A JUMPI PUSH2 0x1659 PUSH2 0xFFF JUMP JUMPDEST JUMPDEST PUSH1 0x0 PUSH2 0x1668 DUP7 DUP3 DUP8 ADD PUSH2 0x102A JUMP JUMPDEST SWAP4 POP POP PUSH1 0x20 PUSH2 0x1679 DUP7 DUP3 DUP8 ADD PUSH2 0x102A JUMP JUMPDEST SWAP3 POP POP PUSH1 0x40 PUSH2 0x168A DUP7 DUP3 DUP8 ADD PUSH2 0x102A JUMP JUMPDEST SWAP2 POP POP SWAP3 POP SWAP3 POP SWAP3 JUMP JUMPDEST PUSH1 0x0 PUSH8 0xFFFFFFFFFFFFFFFF DUP3 GT ISZERO PUSH2 0x16AF JUMPI PUSH2 0x16AE PUSH2 0x10BF JUMP JUMPDEST JUMPDEST PUSH1 0x20 DUP3 MUL SWAP1 POP PUSH1 0x20 DUP2 ADD SWAP1 POP SWAP2 SWAP1 POP JUMP JUMPDEST PUSH1 0x0 PUSH2 0x16D3 PUSH2 0x16CE DUP5 PUSH2 0x1694 JUMP JUMPDEST PUSH2 0x111F JUMP JUMPDEST SWAP1 POP DUP1 DUP4 DUP3 MSTORE PUSH1 0x20 DUP3 ADD SWAP1 POP PUSH1 0x20 DUP5 MUL DUP4 ADD DUP6 DUP2 GT ISZERO PUSH2 0x16F6 JUMPI PUSH2 0x16F5 PUSH2 0x1166 JUMP JUMPDEST JUMPDEST DUP4 JUMPDEST DUP2 DUP2 LT ISZERO PUSH2 0x171F JUMPI DUP1 PUSH2 0x170B DUP9 DUP3 PUSH2 0x13D0 JUMP JUMPDEST DUP5 MSTORE PUSH1 0x20 DUP5 ADD SWAP4 POP POP PUSH1 0x20 DUP2 ADD SWAP1 POP PUSH2 0x16F8 JUMP JUMPDEST POP POP POP SWAP4 SWAP3 POP POP POP JUMP JUMPDEST PUSH1 0x0 DUP3 PUSH1 0x1F DUP4 ADD SLT PUSH2 0x173E JUMPI PUSH2 0x173D PUSH2 0x10A9 JUMP JUMPDEST JUMPDEST DUP2 CALLDATALOAD PUSH2 0x174E DUP5 DUP3 PUSH1 0x20 DUP7 ADD PUSH2 0x16C0 JUMP JUMPDEST SWAP2 POP POP SWAP3 SWAP2 POP POP JUMP JUMPDEST PUSH1 0x0 DUP1 PUSH1 0x40 DUP4 DUP6 SUB SLT ISZERO PUSH2 0x176E JUMPI PUSH2 0x176D PUSH2 0xFFF JUMP JUMPDEST JUMPDEST PUSH1 0x0 DUP4 ADD CALLDATALOAD PUSH8 0xFFFFFFFFFFFFFFFF DUP2 GT ISZERO PUSH2 0x178C JUMPI PUSH2 0x178B PUSH2 0x1004 JUMP JUMPDEST JUMPDEST PUSH2 0x1798 DUP6 DUP3 DUP7 ADD PUSH2 0x1729 JUMP JUMPDEST SWAP3 POP POP PUSH1 0x20 DUP4 ADD CALLDATALOAD PUSH8 0xFFFFFFFFFFFFFFFF DUP2 GT ISZERO PUSH2 0x17B9 JUMPI PUSH2 0x17B8 PUSH2 0x1004 JUMP JUMPDEST JUMPDEST PUSH2 0x17C5 DUP6 DUP3 DUP7 ADD PUSH2 0x11D4 JUMP JUMPDEST SWAP2 POP POP SWAP3 POP SWAP3 SWAP1 POP JUMP JUMPDEST PUSH32 0x4E487B7100000000000000000000000000000000000000000000000000000000 PUSH1 0x0 MSTORE PUSH1 0x11 PUSH1 0x4 MSTORE PUSH1 0x24 PUSH1 0x0 REVERT JUMPDEST PUSH1 0x0 DUP2 PUSH1 0x1 SHR SWAP1 POP SWAP2 SWAP1 POP JUMP JUMPDEST PUSH1 0x0 DUP1 DUP3 SWAP2 POP DUP4 SWAP1 POP JUMPDEST PUSH1 0x1 DUP6 GT ISZERO PUSH2 0x1855 JUMPI DUP1 DUP7 DIV DUP2 GT ISZERO PUSH2 0x1831 JUMPI PUSH2 0x1830 PUSH2 0x17CF JUMP JUMPDEST JUMPDEST PUSH1 0x1 DUP6 AND ISZERO PUSH2 0x1840 JUMPI DUP1 DUP3 MUL SWAP2 POP JUMPDEST DUP1 DUP2 MUL SWAP1 POP PUSH2 0x184E DUP6 PUSH2 0x17FE JUMP JUMPDEST SWAP5 POP PUSH2 0x1815 JUMP JUMPDEST SWAP5 POP SWAP5 SWAP3 POP POP POP JUMP JUMPDEST PUSH1 0x0 DUP3 PUSH1 0x0 DUP2 EQ PUSH2 0x1876 JUMPI PUSH1 0x1 DUP2 EQ PUSH2 0x1880 JUMPI PUSH2 0x1889 JUMP JUMPDEST PUSH1 0x1 SWAP2 POP POP PUSH2 0x1945 JUMP JUMPDEST DUP3 SWAP2 POP POP PUSH2 0x1945 JUMP JUMPDEST POP DUP2 PUSH2 0x1898 JUMPI PUSH1 0x0 SWAP1 POP PUSH2 0x1945 JUMP JUMPDEST PUSH1 0x1 SWAP1 POP PUSH1 0x0 DUP3 SGT PUSH1 0x1 DUP2 EQ PUSH2 0x18B5 JUMPI PUSH1 0x0 DUP2 EQ PUSH2 0x18CD JUMPI PUSH2 0x18E1 JUMP JUMPDEST DUP3 DUP7 DIV DUP4 GT ISZERO PUSH2 0x18C8 JUMPI PUSH2 0x18C7 PUSH2 0x17CF JUMP JUMPDEST JUMPDEST PUSH2 0x18E1 JUMP JUMPDEST DUP3 DUP7 SDIV DUP4 SLT ISZERO PUSH2 0x18E0 JUMPI PUSH2 0x18DF PUSH2 0x17CF JUMP JUMPDEST JUMPDEST JUMPDEST POP PUSH1 0x1 DUP4 AND ISZERO PUSH2 0x18EF JUMPI DUP2 SWAP1 POP JUMPDEST DUP2 DUP3 MUL SWAP2 POP PUSH2 0x18FD DUP4 PUSH2 0x17FE JUMP JUMPDEST SWAP3 POP PUSH2 0x190B DUP6 DUP5 DUP5 DUP5 PUSH2 0x180B JUMP JUMPDEST SWAP3 POP SWAP1 POP DUP2 DUP6 DIV DUP2 GT PUSH1 0x0 DUP3 SGT AND ISZERO PUSH2 0x1927 JUMPI PUSH2 0x1926 PUSH2 0x17CF JUMP JUMPDEST JUMPDEST DUP2 DUP5 SDIV DUP2 SLT PUSH1 0x0 DUP3 SLT AND ISZERO PUSH2 0x193F JUMPI PUSH2 0x193E PUSH2 0x17CF JUMP JUMPDEST JUMPDEST DUP2 DUP2 MUL SWAP1 POP JUMPDEST SWAP5 SWAP4 POP POP POP POP JUMP JUMPDEST PUSH1 0x0 PUSH1 0xFF DUP3 AND SWAP1 POP SWAP2 SWAP1 POP JUMP JUMPDEST PUSH1 0x0 PUSH2 0x1965 DUP3 PUSH2 0x1009 JUMP JUMPDEST SWAP2 POP PUSH2 0x1970 DUP4 PUSH2 0x194D JUMP JUMPDEST SWAP3 POP PUSH2 0x19BE PUSH32 0x7FFFFFFFFFFFFFFFFFFFFFFFFFFFFFFFFFFFFFFFFFFFFFFFFFFFFFFFFFFFFFFF PUSH32 0x8000000000000000000000000000000000000000000000000000000000000000 DUP6 DUP6 PUSH2 0x185E JUMP JUMPDEST SWAP1 POP SWAP3 SWAP2 POP POP JUMP JUMPDEST PUSH1 0x0 PUSH2 0x19D1 DUP3 PUSH2 0x1009 JUMP JUMPDEST SWAP2 POP PUSH2 0x19DC DUP4 PUSH2 0x1009 JUMP JUMPDEST SWAP3 POP DUP3 DUP3 MUL PUSH2 0x19EA DUP2 PUSH2 0x1009 JUMP JUMPDEST SWAP2 POP PUSH32 0x8000000000000000000000000000000000000000000000000000000000000000 DUP5 EQ PUSH1 0x0 DUP5 SLT AND ISZERO PUSH2 0x1A22 JUMPI PUSH2 0x1A21 PUSH2 0x17CF JUMP JUMPDEST JUMPDEST DUP3 DUP3 SDIV DUP5 EQ DUP4 ISZERO OR PUSH2 0x1A37 JUMPI PUSH2 0x1A36 PUSH2 0x17CF JUMP JUMPDEST JUMPDEST POP SWAP3 SWAP2 POP POP JUMP JUMPDEST PUSH1 0x0 PUSH2 0x1A49 DUP3 PUSH2 0x1009 JUMP JUMPDEST SWAP2 POP PUSH2 0x1A54 DUP4 PUSH2 0x1009 JUMP JUMPDEST SWAP3 POP DUP3 DUP3 ADD SWAP1 POP DUP3 DUP2 SLT ISZERO PUSH1 0x0 DUP4 SLT AND DUP4 DUP3 SLT PUSH1 0x0 DUP5 SLT ISZERO AND OR ISZERO PUSH2 0x1A7C JUMPI PUSH2 0x1A7B PUSH2 0x17CF JUMP JUMPDEST JUMPDEST SWAP3 SWAP2 POP POP JUMP JUMPDEST PUSH1 0x0 PUSH2 0x1A8D DUP3 PUSH2 0x1009 JUMP JUMPDEST SWAP2 POP PUSH2 0x1A98 DUP4 PUSH2 0x1009 JUMP JUMPDEST SWAP3 POP DUP3 DUP3 SUB SWAP1 POP DUP2 DUP2 SLT PUSH1 0x0 DUP5 SLT AND DUP3 DUP3 SGT PUSH1 0x0 DUP6 SLT ISZERO AND OR ISZERO PUSH2 0x1ABF JUMPI PUSH2 0x1ABE PUSH2 0x17CF JUMP JUMPDEST JUMPDEST SWAP3 SWAP2 POP POP JUMP JUMPDEST PUSH32 0x4E487B7100000000000000000000000000000000000000000000000000000000 PUSH1 0x0 MSTORE PUSH1 0x12 PUSH1 0x4 MSTORE PUSH1 0x24 PUSH1 0x0 REVERT JUMPDEST PUSH1 0x0 PUSH2 0x1AFF DUP3 PUSH2 0x1559 JUMP JUMPDEST SWAP2 POP PUSH2 0x1B0A DUP4 PUSH2 0x1559 JUMP JUMPDEST SWAP3 POP DUP3 PUSH2 0x1B1A JUMPI PUSH2 0x1B19 PUSH2 0x1AC5 JUMP JUMPDEST JUMPDEST DUP3 DUP3 DIV SWAP1 POP SWAP3 SWAP2 POP POP JUMP JUMPDEST PUSH1 0x0 PUSH2 0x1B30 DUP3 PUSH2 0x1559 JUMP JUMPDEST SWAP2 POP PUSH2 0x1B3B DUP4 PUSH2 0x1559 JUMP JUMPDEST SWAP3 POP DUP3 PUSH2 0x1B4B JUMPI PUSH2 0x1B4A PUSH2 0x1AC5 JUMP JUMPDEST JUMPDEST DUP3 DUP3 MOD SWAP1 POP SWAP3 SWAP2 POP POP JUMP JUMPDEST PUSH1 0x0 PUSH2 0x1B61 DUP3 PUSH2 0x1559 JUMP JUMPDEST SWAP2 POP PUSH2 0x1B6C DUP4 PUSH2 0x1559 JUMP JUMPDEST SWAP3 POP DUP3 DUP3 SUB SWAP1 POP DUP2 DUP2 GT ISZERO PUSH2 0x1B84 JUMPI PUSH2 0x1B83 PUSH2 0x17CF JUMP JUMPDEST JUMPDEST SWAP3 SWAP2 POP POP JUMP JUMPDEST PUSH32 0x4E487B7100000000000000000000000000000000000000000000000000000000 PUSH1 0x0 MSTORE PUSH1 0x32 PUSH1 0x4 MSTORE PUSH1 0x24 PUSH1 0x0 REVERT JUMPDEST PUSH1 0x0 PUSH2 0x1BC4 DUP3 PUSH2 0x1009 JUMP JUMPDEST SWAP2 POP PUSH2 0x1BCF DUP4 PUSH2 0x1009 JUMP JUMPDEST SWAP3 POP DUP3 PUSH2 0x1BDF JUMPI PUSH2 0x1BDE PUSH2 0x1AC5 JUMP JUMPDEST JUMPDEST PUSH1 0x1 PUSH1 0x0 SUB DUP4 EQ PUSH32 0x8000000000000000000000000000000000000000000000000000000000000000 DUP4 EQ AND ISZERO PUSH2 0x1C18 JUMPI PUSH2 0x1C17 PUSH2 0x17CF JUMP JUMPDEST JUMPDEST DUP3 DUP3 SDIV SWAP1 POP SWAP3 SWAP2 POP POP JUMP JUMPDEST PUSH1 0x0 DUP3 DUP3 MSTORE PUSH1 0x20 DUP3 ADD SWAP1 POP SWAP3 SWAP2 POP POP JUMP JUMPDEST PUSH32 0x50726F647563657220616C726561647920726567697374657265640000000000 PUSH1 0x0 DUP3 ADD MSTORE POP JUMP JUMPDEST PUSH1 0x0 PUSH2 0x1C6A PUSH1 0x1B DUP4 PUSH2 0x1C23 JUMP JUMPDEST SWAP2 POP PUSH2 0x1C75 DUP3 PUSH2 0x1C34 JUMP JUMPDEST PUSH1 0x20 DUP3 ADD SWAP1 POP SWAP2 SWAP1 POP JUMP JUMPDEST PUSH1 0x0 PUSH1 0x20 DUP3 ADD SWAP1 POP DUP2 DUP2 SUB PUSH1 0x0 DUP4 ADD MSTORE PUSH2 0x1C99 DUP2 PUSH2 0x1C5D JUMP JUMPDEST SWAP1 POP SWAP2 SWAP1 POP JUMP JUMPDEST PUSH1 0x0 PUSH2 0x1CAB DUP3 PUSH2 0x1009 JUMP JUMPDEST SWAP2 POP PUSH32 0x8000000000000000000000000000000000000000000000000000000000000000 DUP3 SUB PUSH2 0x1CDD JUMPI PUSH2 0x1CDC PUSH2 0x17CF JUMP JUMPDEST JUMPDEST DUP2 PUSH1 0x0 SUB SWAP1 POP SWAP2 SWAP1 POP JUMP JUMPDEST PUSH1 0x0 PUSH2 0x1CF3 DUP3 PUSH2 0x1559 JUMP JUMPDEST SWAP2 POP PUSH2 0x1CFE DUP4 PUSH2 0x1559 JUMP JUMPDEST SWAP3 POP DUP3 DUP3 ADD SWAP1 POP DUP1 DUP3 GT ISZERO PUSH2 0x1D16 JUMPI PUSH2 0x1D15 PUSH2 0x17CF JUMP JUMPDEST JUMPDEST SWAP3 SWAP2 POP POP JUMP JUMPDEST PUSH1 0x0 PUSH1 0x40 DUP3 ADD SWAP1 POP PUSH2 0x1D31 PUSH1 0x0 DUP4 ADD DUP6 PUSH2 0x1617 JUMP JUMPDEST PUSH2 0x1D3E PUSH1 0x20 DUP4 ADD DUP5 PUSH2 0x1617 JUMP JUMPDEST SWAP4 SWAP3 POP POP POP JUMP INVALID LOG2 PUSH5 0x6970667358 0x22 SLT KECCAK256 0xB8 DUP6 0x2C TIMESTAMP 0xC4 DUP3 0xCC 0x26 PUSH28 0xD4DD348590A034A745A1FF7D41BCA6CEC6D70B9D06514A64736F6C63 NUMBER STOP ADDMOD XOR STOP CALLER "},"methodIdentifiers":{"UpdateReputations(address[],int256[])":"d5f74d2b","constraintFunction(int256,int256)":"052f4216","finalReputation(int256,int256,int256)":"bd075b78","getAllProducers()":"2c06779d","getProducerCount()":"b08a6498","mediana(int256[])":"0c55a273","producerAddresses(uint256)":"7a3a11a5","producers(address)":"26324eff","registerProducer(address,int256)":"ae53a6a3","score(int256[],int256)":"217f72b0","update(int256[],int256)":"5a8d9f7f"}}}}}