{"contracts/Campaign.sol":{"Campaign":{"abi":[{"inputs":[{"internalType":"string","name":"_name","type":"string"},{"internalType":"address","name":"crowdsourcer","type":"address"},{"internalType":"int256","name":"_lat","type":"int256"},{"internalType":"int256","name":"_long","type":"int256"},{"internalType":"int256","name":"_tolerance","type":"int256"},{"internalType":"string","name":"camptype","type":"string"},{"internalType":"int256","name":"numProd","type":"int256"}],"stateMutability":"nonpayable","type":"constructor"},{"inputs":[{"internalType":"int256","name":"dataValue","type":"int256"},{"internalType":"address","name":"addrProd","type":"address"}],"name":"addData","outputs":[],"stateMutability":"nonpayable","type":"function"},{"inputs":[],"name":"allProducersDataSubmitted","outputs":[{"internalType":"bool","name":"","type":"bool"}],"stateMutability":"view","type":"function"},{"inputs":[{"internalType":"int256[]","name":"score","type":"int256[]"}],"name":"closeCampaignAndPay","outputs":[],"stateMutability":"payable","type":"function"},{"inputs":[],"name":"getName","outputs":[{"internalType":"string","name":"","type":"string"}],"stateMutability":"view","type":"function"},{"inputs":[{"internalType":"address","name":"producerAddress","type":"address"}],"name":"getProducerData","outputs":[{"components":[{"internalType":"address","name":"producerAddress","type":"address"},{"internalType":"int256","name":"dataValue","type":"int256"},{"internalType":"uint256","name":"timestamp","type":"uint256"}],"internalType":"struct Campaign.Data","name":"","type":"tuple"}],"stateMutability":"view","type":"function"},{"inputs":[],"name":"getProducersTop","outputs":[{"components":[{"internalType":"address","name":"deviceAddress","type":"address"},{"internalType":"int256","name":"reputation","type":"int256"},{"internalType":"int256","name":"valueSort","type":"int256"}],"internalType":"struct Campaign.ProducerSelected[]","name":"","type":"tuple[]"}],"stateMutability":"view","type":"function"},{"inputs":[],"name":"getProducersTopCount","outputs":[{"internalType":"uint256","name":"","type":"uint256"}],"stateMutability":"view","type":"function"},{"inputs":[],"name":"getSeed","outputs":[{"internalType":"bytes32","name":"","type":"bytes32"}],"stateMutability":"view","type":"function"},{"inputs":[],"name":"getTolerance","outputs":[{"internalType":"int256","name":"","type":"int256"}],"stateMutability":"view","type":"function"},{"inputs":[],"name":"getValid","outputs":[{"internalType":"bool","name":"","type":"bool"}],"stateMutability":"view","type":"function"},{"inputs":[{"internalType":"address","name":"","type":"address"}],"name":"producerData","outputs":[{"internalType":"address","name":"producerAddress","type":"address"},{"internalType":"int256","name":"dataValue","type":"int256"},{"internalType":"uint256","name":"timestamp","type":"uint256"}],"stateMutability":"view","type":"function"},{"inputs":[{"internalType":"uint256","name":"","type":"uint256"}],"name":"producersTop","outputs":[{"internalType":"address","name":"deviceAddress","type":"address"},{"internalType":"int256","name":"reputation","type":"int256"},{"internalType":"int256","name":"valueSort","type":"int256"}],"stateMutability":"view","type":"function"},{"inputs":[],"name":"proof","outputs":[{"internalType":"bytes","name":"","type":"bytes"}],"stateMutability":"view","type":"function"},{"inputs":[{"components":[{"internalType":"address","name":"deviceAddress","type":"address"},{"internalType":"int256","name":"reputation","type":"int256"},{"internalType":"int256","name":"valueSort","type":"int256"}],"internalType":"struct Campaign.ProducerSelected[]","name":"producersT","type":"tuple[]"}],"name":"setProducersTop","outputs":[],"stateMutability":"nonpayable","type":"function"},{"inputs":[{"internalType":"bytes32","name":"_Seed","type":"bytes32"},{"internalType":"bytes","name":"p","type":"bytes"}],"name":"setSeedProof","outputs":[],"stateMutability":"nonpayable","type":"function"},{"inputs":[],"name":"setValid","outputs":[],"stateMutability":"nonpayable","type":"function"},{"stateMutability":"payable","type":"receive"}],"evm":{"bytecode":{"linkReferences":{},"object":"60806040526001600760006101000a81548160ff0219169083151502179055506000600c60006101000a81548160ff0219169083151502179055503480156200004757600080fd5b50604051620027253803806200272583398181016040528101906200006d91906200032e565b86600090816200007e91906200066a565b5085600160006101000a81548173ffffffffffffffffffffffffffffffffffffffff021916908373ffffffffffffffffffffffffffffffffffffffff1602179055508460028190555083600381905550826004819055508160059081620000e691906200066a565b50806006819055505050505050505062000751565b6000604051905090565b600080fd5b600080fd5b600080fd5b600080fd5b6000601f19601f8301169050919050565b7f4e487b7100000000000000000000000000000000000000000000000000000000600052604160045260246000fd5b620001648262000119565b810181811067ffffffffffffffff821117156200018657620001856200012a565b5b80604052505050565b60006200019b620000fb565b9050620001a9828262000159565b919050565b600067ffffffffffffffff821115620001cc57620001cb6200012a565b5b620001d78262000119565b9050602081019050919050565b60005b8381101562000204578082015181840152602081019050620001e7565b60008484015250505050565b6000620002276200022184620001ae565b6200018f565b90508281526020810184848401111562000246576200024562000114565b5b62000253848285620001e4565b509392505050565b600082601f8301126200027357620002726200010f565b5b81516200028584826020860162000210565b91505092915050565b600073ffffffffffffffffffffffffffffffffffffffff82169050919050565b6000620002bb826200028e565b9050919050565b620002cd81620002ae565b8114620002d957600080fd5b50565b600081519050620002ed81620002c2565b92915050565b6000819050919050565b6200030881620002f3565b81146200031457600080fd5b50565b6000815190506200032881620002fd565b92915050565b600080600080600080600060e0888a03121562000350576200034f62000105565b5b600088015167ffffffffffffffff8111156200037157620003706200010a565b5b6200037f8a828b016200025b565b9750506020620003928a828b01620002dc565b9650506040620003a58a828b0162000317565b9550506060620003b88a828b0162000317565b9450506080620003cb8a828b0162000317565b93505060a088015167ffffffffffffffff811115620003ef57620003ee6200010a565b5b620003fd8a828b016200025b565b92505060c0620004108a828b0162000317565b91505092959891949750929550565b600081519050919050565b7f4e487b7100000000000000000000000000000000000000000000000000000000600052602260045260246000fd5b600060028204905060018216806200047257607f821691505b6020821081036200048857620004876200042a565b5b50919050565b60008190508160005260206000209050919050565b60006020601f8301049050919050565b600082821b905092915050565b600060088302620004f27fffffffffffffffffffffffffffffffffffffffffffffffffffffffffffffffff82620004b3565b620004fe8683620004b3565b95508019841693508086168417925050509392505050565b6000819050919050565b6000819050919050565b60006200054b620005456200053f8462000516565b62000520565b62000516565b9050919050565b6000819050919050565b62000567836200052a565b6200057f620005768262000552565b848454620004c0565b825550505050565b600090565b6200059662000587565b620005a38184846200055c565b505050565b5b81811015620005cb57620005bf6000826200058c565b600181019050620005a9565b5050565b601f8211156200061a57620005e4816200048e565b620005ef84620004a3565b81016020851015620005ff578190505b620006176200060e85620004a3565b830182620005a8565b50505b505050565b600082821c905092915050565b60006200063f600019846008026200061f565b1980831691505092915050565b60006200065a83836200062c565b9150826002028217905092915050565b62000675826200041f565b67ffffffffffffffff8111156200069157620006906200012a565b5b6200069d825462000459565b620006aa828285620005cf565b600060209050601f831160018114620006e25760008415620006cd578287015190505b620006d985826200064c565b86555062000749565b601f198416620006f2866200048e565b60005b828110156200071c57848901518255600182019150602085019450602081019050620006f5565b868310156200073c578489015162000738601f8916826200062c565b8355505b6001600288020188555050505b505050505050565b611fc480620007616000396000f3fe6080604052600436106100f65760003560e01c80639c0dec391161008a578063d6bef7d311610059578063d6bef7d314610312578063f030660f14610351578063f9fc9cb81461036d578063faf924cf14610398576100fd565b80639c0dec3914610268578063ad4e040714610291578063ce69503c146102bc578063d15551f4146102e7576100fd565b806339e7357c116100c657806339e7357c146101c05780635124d9d5146101eb578063546d530514610214578063845894d41461022b576100fd565b806270a6c31461010257806303a357b21461012d57806317d7de7c1461015657806320bbe81814610181576100fd565b366100fd57005b600080fd5b34801561010e57600080fd5b506101176103c3565b6040516101249190610feb565b60405180910390f35b34801561013957600080fd5b50610154600480360381019061014f9190611266565b6103cd565b005b34801561016257600080fd5b5061016b61049b565b604051610178919061132e565b60405180910390f35b34801561018d57600080fd5b506101a860048036038101906101a39190611350565b61052d565b6040516101b7939291906113a5565b60405180910390f35b3480156101cc57600080fd5b506101d5610577565b6040516101e291906113f5565b60405180910390f35b3480156101f757600080fd5b50610212600480360381019061020d91906114f1565b610581565b005b34801561022057600080fd5b5061022961059c565b005b34801561023757600080fd5b50610252600480360381019061024d9190611350565b6105b9565b60405161025f91906115bc565b60405180910390f35b34801561027457600080fd5b5061028f600480360381019061028a91906115d7565b61067c565b005b34801561029d57600080fd5b506102a6610848565b6040516102b39190611632565b60405180910390f35b3480156102c857600080fd5b506102d161085f565b6040516102de919061173e565b60405180910390f35b3480156102f357600080fd5b506102fc610928565b6040516103099190611760565b60405180910390f35b34801561031e57600080fd5b50610339600480360381019061033491906117a7565b610935565b604051610348939291906117d4565b60405180910390f35b61036b600480360381019061036691906118ce565b61098f565b005b34801561037957600080fd5b50610382610d21565b60405161038f9190611632565b60405180910390f35b3480156103a457600080fd5b506103ad610dec565b6040516103ba919061196c565b60405180910390f35b6000600454905090565b600860006103db9190610f29565b60005b81518110156104975760088282815181106103fc576103fb61198e565b5b6020026020010151908060018154018082558091505060019003906000526020600020906003020160009091909190915060008201518160000160006101000a81548173ffffffffffffffffffffffffffffffffffffffff021916908373ffffffffffffffffffffffffffffffffffffffff1602179055506020820151816001015560408201518160020155505080806001019150506103de565b5050565b6060600080546104aa906119ec565b80601f01602080910402602001604051908101604052809291908181526020018280546104d6906119ec565b80156105235780601f106104f857610100808354040283529160200191610523565b820191906000526020600020905b81548152906001019060200180831161050657829003601f168201915b5050505050905090565b60096020528060005260406000206000915090508060000160009054906101000a900473ffffffffffffffffffffffffffffffffffffffff16908060010154908060020154905083565b6000600a54905090565b81600a8190555080600b90816105979190611bc9565b505050565b6001600c60006101000a81548160ff021916908315150217905550565b6105c1610f4d565b600960008373ffffffffffffffffffffffffffffffffffffffff1673ffffffffffffffffffffffffffffffffffffffff1681526020019081526020016000206040518060600160405290816000820160009054906101000a900473ffffffffffffffffffffffffffffffffffffffff1673ffffffffffffffffffffffffffffffffffffffff1673ffffffffffffffffffffffffffffffffffffffff168152602001600182015481526020016002820154815250509050919050565b60011515600c60009054906101000a900460ff161515146106d2576040517f08c379a00000000000000000000000000000000000000000000000000000000081526004016106c990611ce7565b60405180910390fd5b60011515600760009054906101000a900460ff16151514610728576040517f08c379a000000000000000000000000000000000000000000000000000000000815260040161071f90611d53565b60405180910390fd5b61073181610e7a565b610770576040517f08c379a000000000000000000000000000000000000000000000000000000000815260040161076790611dbf565b60405180910390fd5b600060405180606001604052808373ffffffffffffffffffffffffffffffffffffffff16815260200184815260200142815250905080600960008473ffffffffffffffffffffffffffffffffffffffff1673ffffffffffffffffffffffffffffffffffffffff16815260200190815260200160002060008201518160000160006101000a81548173ffffffffffffffffffffffffffffffffffffffff021916908373ffffffffffffffffffffffffffffffffffffffff1602179055506020820151816001015560408201518160020155905050505050565b6000600c60009054906101000a900460ff16905090565b60606008805480602002602001604051908101604052809291908181526020016000905b8282101561091f57838290600052602060002090600302016040518060600160405290816000820160009054906101000a900473ffffffffffffffffffffffffffffffffffffffff1673ffffffffffffffffffffffffffffffffffffffff1673ffffffffffffffffffffffffffffffffffffffff1681526020016001820154815260200160028201548152505081526020019060010190610883565b50505050905090565b6000600880549050905090565b6008818154811061094557600080fd5b90600052602060002090600302016000915090508060000160009054906101000a900473ffffffffffffffffffffffffffffffffffffffff16908060010154908060020154905083565b60011515600760009054906101000a900460ff161515146109e5576040517f08c379a00000000000000000000000000000000000000000000000000000000081526004016109dc90611d53565b60405180910390fd5b600060088054905067ffffffffffffffff811115610a0657610a05611030565b5b604051908082528060200260200182016040528015610a345781602001602082028036833780820191505090505b5090506000805b600880549050811015610b1a576000848281518110610a5d57610a5c61198e565b5b60200260200101511315610b0d5760088181548110610a7f57610a7e61198e565b5b906000526020600020906003020160000160009054906101000a900473ffffffffffffffffffffffffffffffffffffffff16838381518110610ac457610ac361198e565b5b602002602001019073ffffffffffffffffffffffffffffffffffffffff16908173ffffffffffffffffffffffffffffffffffffffff16815250508180610b0990611e0e565b9250505b8080600101915050610a3b565b5060008167ffffffffffffffff811115610b3757610b36611030565b5b604051908082528060200260200182016040528015610b655781602001602082028036833780820191505090505b50905060005b82811015610be857838181518110610b8657610b8561198e565b5b6020026020010151828281518110610ba157610ba061198e565b5b602002602001019073ffffffffffffffffffffffffffffffffffffffff16908173ffffffffffffffffffffffffffffffffffffffff16815250508080600101915050610b6b565b50600047905060008111610c31576040517f08c379a0000000000000000000000000000000000000000000000000000000008152600401610c2890611ea2565b60405180910390fd5b60008311610c74576040517f08c379a0000000000000000000000000000000000000000000000000000000008152600401610c6b90611f0e565b60405180910390fd5b60008382610c829190611f5d565b905060005b84811015610cfd57838181518110610ca257610ca161198e565b5b602002602001015173ffffffffffffffffffffffffffffffffffffffff166108fc839081150290604051600060405180830381858888f19350505050158015610cef573d6000803e3d6000fd5b508080600101915050610c87565b506000600760006101000a81548160ff021916908315150217905550505050505050565b600080600090505b600880549050811015610de357600060088281548110610d4c57610d4b61198e565b5b906000526020600020906003020160000160009054906101000a900473ffffffffffffffffffffffffffffffffffffffff1690506000600960008373ffffffffffffffffffffffffffffffffffffffff1673ffffffffffffffffffffffffffffffffffffffff1681526020019081526020016000206002015403610dd557600092505050610de9565b508080600101915050610d29565b50600190505b90565b600b8054610df9906119ec565b80601f0160208091040260200160405190810160405280929190818152602001828054610e25906119ec565b8015610e725780601f10610e4757610100808354040283529160200191610e72565b820191906000526020600020905b815481529060010190602001808311610e5557829003601f168201915b505050505081565b600080600090505b600880549050811015610f1e578273ffffffffffffffffffffffffffffffffffffffff1660088281548110610eba57610eb961198e565b5b906000526020600020906003020160000160009054906101000a900473ffffffffffffffffffffffffffffffffffffffff1673ffffffffffffffffffffffffffffffffffffffff1603610f11576001915050610f24565b8080600101915050610e82565b50600090505b919050565b5080546000825560030290600052602060002090810190610f4a9190610f84565b50565b6040518060600160405280600073ffffffffffffffffffffffffffffffffffffffff16815260200160008152602001600081525090565b5b80821115610fce57600080820160006101000a81549073ffffffffffffffffffffffffffffffffffffffff02191690556001820160009055600282016000905550600301610f85565b5090565b6000819050919050565b610fe581610fd2565b82525050565b60006020820190506110006000830184610fdc565b92915050565b6000604051905090565b600080fd5b600080fd5b600080fd5b6000601f19601f8301169050919050565b7f4e487b7100000000000000000000000000000000000000000000000000000000600052604160045260246000fd5b6110688261101f565b810181811067ffffffffffffffff8211171561108757611086611030565b5b80604052505050565b600061109a611006565b90506110a6828261105f565b919050565b600067ffffffffffffffff8211156110c6576110c5611030565b5b602082029050602081019050919050565b600080fd5b600080fd5b600073ffffffffffffffffffffffffffffffffffffffff82169050919050565b600061110c826110e1565b9050919050565b61111c81611101565b811461112757600080fd5b50565b60008135905061113981611113565b92915050565b61114881610fd2565b811461115357600080fd5b50565b6000813590506111658161113f565b92915050565b600060608284031215611181576111806110dc565b5b61118b6060611090565b9050600061119b8482850161112a565b60008301525060206111af84828501611156565b60208301525060406111c384828501611156565b60408301525092915050565b60006111e26111dd846110ab565b611090565b90508083825260208201905060608402830185811115611205576112046110d7565b5b835b8181101561122e578061121a888261116b565b845260208401935050606081019050611207565b5050509392505050565b600082601f83011261124d5761124c61101a565b5b813561125d8482602086016111cf565b91505092915050565b60006020828403121561127c5761127b611010565b5b600082013567ffffffffffffffff81111561129a57611299611015565b5b6112a684828501611238565b91505092915050565b600081519050919050565b600082825260208201905092915050565b60005b838110156112e95780820151818401526020810190506112ce565b60008484015250505050565b6000611300826112af565b61130a81856112ba565b935061131a8185602086016112cb565b6113238161101f565b840191505092915050565b6000602082019050818103600083015261134881846112f5565b905092915050565b60006020828403121561136657611365611010565b5b60006113748482850161112a565b91505092915050565b61138681611101565b82525050565b6000819050919050565b61139f8161138c565b82525050565b60006060820190506113ba600083018661137d565b6113c76020830185610fdc565b6113d46040830184611396565b949350505050565b6000819050919050565b6113ef816113dc565b82525050565b600060208201905061140a60008301846113e6565b92915050565b611419816113dc565b811461142457600080fd5b50565b60008135905061143681611410565b92915050565b600080fd5b600067ffffffffffffffff82111561145c5761145b611030565b5b6114658261101f565b9050602081019050919050565b82818337600083830152505050565b600061149461148f84611441565b611090565b9050828152602081018484840111156114b0576114af61143c565b5b6114bb848285611472565b509392505050565b600082601f8301126114d8576114d761101a565b5b81356114e8848260208601611481565b91505092915050565b6000806040838503121561150857611507611010565b5b600061151685828601611427565b925050602083013567ffffffffffffffff81111561153757611536611015565b5b611543858286016114c3565b9150509250929050565b61155681611101565b82525050565b61156581610fd2565b82525050565b6115748161138c565b82525050565b606082016000820151611590600085018261154d565b5060208201516115a3602085018261155c565b5060408201516115b6604085018261156b565b50505050565b60006060820190506115d1600083018461157a565b92915050565b600080604083850312156115ee576115ed611010565b5b60006115fc85828601611156565b925050602061160d8582860161112a565b9150509250929050565b60008115159050919050565b61162c81611617565b82525050565b60006020820190506116476000830184611623565b92915050565b600081519050919050565b600082825260208201905092915050565b6000819050602082019050919050565b60608201600082015161168f600085018261154d565b5060208201516116a2602085018261155c565b5060408201516116b5604085018261155c565b50505050565b60006116c78383611679565b60608301905092915050565b6000602082019050919050565b60006116eb8261164d565b6116f58185611658565b935061170083611669565b8060005b8381101561173157815161171888826116bb565b9750611723836116d3565b925050600181019050611704565b5085935050505092915050565b6000602082019050818103600083015261175881846116e0565b905092915050565b60006020820190506117756000830184611396565b92915050565b6117848161138c565b811461178f57600080fd5b50565b6000813590506117a18161177b565b92915050565b6000602082840312156117bd576117bc611010565b5b60006117cb84828501611792565b91505092915050565b60006060820190506117e9600083018661137d565b6117f66020830185610fdc565b6118036040830184610fdc565b949350505050565b600067ffffffffffffffff82111561182657611825611030565b5b602082029050602081019050919050565b600061184a6118458461180b565b611090565b9050808382526020820190506020840283018581111561186d5761186c6110d7565b5b835b8181101561189657806118828882611156565b84526020840193505060208101905061186f565b5050509392505050565b600082601f8301126118b5576118b461101a565b5b81356118c5848260208601611837565b91505092915050565b6000602082840312156118e4576118e3611010565b5b600082013567ffffffffffffffff81111561190257611901611015565b5b61190e848285016118a0565b91505092915050565b600081519050919050565b600082825260208201905092915050565b600061193e82611917565b6119488185611922565b93506119588185602086016112cb565b6119618161101f565b840191505092915050565b600060208201905081810360008301526119868184611933565b905092915050565b7f4e487b7100000000000000000000000000000000000000000000000000000000600052603260045260246000fd5b7f4e487b7100000000000000000000000000000000000000000000000000000000600052602260045260246000fd5b60006002820490506001821680611a0457607f821691505b602082108103611a1757611a166119bd565b5b50919050565b60008190508160005260206000209050919050565b60006020601f8301049050919050565b600082821b905092915050565b600060088302611a7f7fffffffffffffffffffffffffffffffffffffffffffffffffffffffffffffffff82611a42565b611a898683611a42565b95508019841693508086168417925050509392505050565b6000819050919050565b6000611ac6611ac1611abc8461138c565b611aa1565b61138c565b9050919050565b6000819050919050565b611ae083611aab565b611af4611aec82611acd565b848454611a4f565b825550505050565b600090565b611b09611afc565b611b14818484611ad7565b505050565b5b81811015611b3857611b2d600082611b01565b600181019050611b1a565b5050565b601f821115611b7d57611b4e81611a1d565b611b5784611a32565b81016020851015611b66578190505b611b7a611b7285611a32565b830182611b19565b50505b505050565b600082821c905092915050565b6000611ba060001984600802611b82565b1980831691505092915050565b6000611bb98383611b8f565b9150826002028217905092915050565b611bd282611917565b67ffffffffffffffff811115611beb57611bea611030565b5b611bf582546119ec565b611c00828285611b3c565b600060209050601f831160018114611c335760008415611c21578287015190505b611c2b8582611bad565b865550611c93565b601f198416611c4186611a1d565b60005b82811015611c6957848901518255600182019150602085019450602081019050611c44565b86831015611c865784890151611c82601f891682611b8f565b8355505b6001600288020188555050505b505050505050565b7f5468652063616d706169676e206973206e6f742076616c696400000000000000600082015250565b6000611cd16019836112ba565b9150611cdc82611c9b565b602082019050919050565b60006020820190508181036000830152611d0081611cc4565b9050919050565b7f5468652063616d706169676e20697320636c6f73656400000000000000000000600082015250565b6000611d3d6016836112ba565b9150611d4882611d07565b602082019050919050565b60006020820190508181036000830152611d6c81611d30565b9050919050565b7f50726f6475636572206e6f742072656769737465726564000000000000000000600082015250565b6000611da96017836112ba565b9150611db482611d73565b602082019050919050565b60006020820190508181036000830152611dd881611d9c565b9050919050565b7f4e487b7100000000000000000000000000000000000000000000000000000000600052601160045260246000fd5b6000611e198261138c565b91507fffffffffffffffffffffffffffffffffffffffffffffffffffffffffffffffff8203611e4b57611e4a611ddf565b5b600182019050919050565b7f496e73756666696369656e742062756467657400000000000000000000000000600082015250565b6000611e8c6013836112ba565b9150611e9782611e56565b602082019050919050565b60006020820190508181036000830152611ebb81611e7f565b9050919050565b7f596f7520646f6e2774206861766520746f2070617920616e796f6e6500000000600082015250565b6000611ef8601c836112ba565b9150611f0382611ec2565b602082019050919050565b60006020820190508181036000830152611f2781611eeb565b9050919050565b7f4e487b7100000000000000000000000000000000000000000000000000000000600052601260045260246000fd5b6000611f688261138c565b9150611f738361138c565b925082611f8357611f82611f2e565b5b82820490509291505056fea2646970667358221220cb6aa4d49bc7b0dd733a128a807b8c42015af7373678addba280b9152adcb8ef64736f6c63430008180033","opcodes":"PUSH1 0x80 PUSH1 0x40 MSTORE PUSH1 0x1 PUSH1 0x7 PUSH1 0x0 PUSH2 0x100 EXP DUP2 SLOAD DUP2 PUSH1 0xFF MUL NOT AND SWAP1 DUP4 ISZERO ISZERO MUL OR SWAP1 SSTORE POP PUSH1 0x0 PUSH1 0xC PUSH1 0x0 PUSH2 0x100 EXP DUP2 SLOAD DUP2 PUSH1 0xFF MUL NOT AND SWAP1 DUP4 ISZERO ISZERO MUL OR SWAP1 SSTORE POP CALLVALUE DUP1 ISZERO PUSH3 0x47 JUMPI PUSH1 0x0 DUP1 REVERT JUMPDEST POP PUSH1 0x40 MLOAD PUSH3 0x2725 CODESIZE SUB DUP1 PUSH3 0x2725 DUP4 CODECOPY DUP2 DUP2 ADD PUSH1 0x40 MSTORE DUP2 ADD SWAP1 PUSH3 0x6D SWAP2 SWAP1 PUSH3 0x32E JUMP JUMPDEST DUP7 PUSH1 0x0 SWAP1 DUP2 PUSH3 0x7E SWAP2 SWAP1 PUSH3 0x66A JUMP JUMPDEST POP DUP6 PUSH1 0x1 PUSH1 0x0 PUSH2 0x100 EXP DUP2 SLOAD DUP2 PUSH20 0xFFFFFFFFFFFFFFFFFFFFFFFFFFFFFFFFFFFFFFFF MUL NOT AND SWAP1 DUP4 PUSH20 0xFFFFFFFFFFFFFFFFFFFFFFFFFFFFFFFFFFFFFFFF AND MUL OR SWAP1 SSTORE POP DUP5 PUSH1 0x2 DUP2 SWAP1 SSTORE POP DUP4 PUSH1 0x3 DUP2 SWAP1 SSTORE POP DUP3 PUSH1 0x4 DUP2 SWAP1 SSTORE POP DUP2 PUSH1 0x5 SWAP1 DUP2 PUSH3 0xE6 SWAP2 SWAP1 PUSH3 0x66A JUMP JUMPDEST POP DUP1 PUSH1 0x6 DUP2 SWAP1 SSTORE POP POP POP POP POP POP POP POP PUSH3 0x751 JUMP JUMPDEST PUSH1 0x0 PUSH1 0x40 MLOAD SWAP1 POP SWAP1 JUMP JUMPDEST PUSH1 0x0 DUP1 REVERT JUMPDEST PUSH1 0x0 DUP1 REVERT JUMPDEST PUSH1 0x0 DUP1 REVERT JUMPDEST PUSH1 0x0 DUP1 REVERT JUMPDEST PUSH1 0x0 PUSH1 0x1F NOT PUSH1 0x1F DUP4 ADD AND SWAP1 POP SWAP2 SWAP1 POP JUMP JUMPDEST PUSH32 0x4E487B7100000000000000000000000000000000000000000000000000000000 PUSH1 0x0 MSTORE PUSH1 0x41 PUSH1 0x4 MSTORE PUSH1 0x24 PUSH1 0x0 REVERT JUMPDEST PUSH3 0x164 DUP3 PUSH3 0x119 JUMP JUMPDEST DUP2 ADD DUP2 DUP2 LT PUSH8 0xFFFFFFFFFFFFFFFF DUP3 GT OR ISZERO PUSH3 0x186 JUMPI PUSH3 0x185 PUSH3 0x12A JUMP JUMPDEST JUMPDEST DUP1 PUSH1 0x40 MSTORE POP POP POP JUMP JUMPDEST PUSH1 0x0 PUSH3 0x19B PUSH3 0xFB JUMP JUMPDEST SWAP1 POP PUSH3 0x1A9 DUP3 DUP3 PUSH3 0x159 JUMP JUMPDEST SWAP2 SWAP1 POP JUMP JUMPDEST PUSH1 0x0 PUSH8 0xFFFFFFFFFFFFFFFF DUP3 GT ISZERO PUSH3 0x1CC JUMPI PUSH3 0x1CB PUSH3 0x12A JUMP JUMPDEST JUMPDEST PUSH3 0x1D7 DUP3 PUSH3 0x119 JUMP JUMPDEST SWAP1 POP PUSH1 0x20 DUP2 ADD SWAP1 POP SWAP2 SWAP1 POP JUMP JUMPDEST PUSH1 0x0 JUMPDEST DUP4 DUP2 LT ISZERO PUSH3 0x204 JUMPI DUP1 DUP3 ADD MLOAD DUP2 DUP5 ADD MSTORE PUSH1 0x20 DUP2 ADD SWAP1 POP PUSH3 0x1E7 JUMP JUMPDEST PUSH1 0x0 DUP5 DUP5 ADD MSTORE POP POP POP POP JUMP JUMPDEST PUSH1 0x0 PUSH3 0x227 PUSH3 0x221 DUP5 PUSH3 0x1AE JUMP JUMPDEST PUSH3 0x18F JUMP JUMPDEST SWAP1 POP DUP3 DUP2 MSTORE PUSH1 0x20 DUP2 ADD DUP5 DUP5 DUP5 ADD GT ISZERO PUSH3 0x246 JUMPI PUSH3 0x245 PUSH3 0x114 JUMP JUMPDEST JUMPDEST PUSH3 0x253 DUP5 DUP3 DUP6 PUSH3 0x1E4 JUMP JUMPDEST POP SWAP4 SWAP3 POP POP POP JUMP JUMPDEST PUSH1 0x0 DUP3 PUSH1 0x1F DUP4 ADD SLT PUSH3 0x273 JUMPI PUSH3 0x272 PUSH3 0x10F JUMP JUMPDEST JUMPDEST DUP2 MLOAD PUSH3 0x285 DUP5 DUP3 PUSH1 0x20 DUP7 ADD PUSH3 0x210 JUMP JUMPDEST SWAP2 POP POP SWAP3 SWAP2 POP POP JUMP JUMPDEST PUSH1 0x0 PUSH20 0xFFFFFFFFFFFFFFFFFFFFFFFFFFFFFFFFFFFFFFFF DUP3 AND SWAP1 POP SWAP2 SWAP1 POP JUMP JUMPDEST PUSH1 0x0 PUSH3 0x2BB DUP3 PUSH3 0x28E JUMP JUMPDEST SWAP1 POP SWAP2 SWAP1 POP JUMP JUMPDEST PUSH3 0x2CD DUP2 PUSH3 0x2AE JUMP JUMPDEST DUP2 EQ PUSH3 0x2D9 JUMPI PUSH1 0x0 DUP1 REVERT JUMPDEST POP JUMP JUMPDEST PUSH1 0x0 DUP2 MLOAD SWAP1 POP PUSH3 0x2ED DUP2 PUSH3 0x2C2 JUMP JUMPDEST SWAP3 SWAP2 POP POP JUMP JUMPDEST PUSH1 0x0 DUP2 SWAP1 POP SWAP2 SWAP1 POP JUMP JUMPDEST PUSH3 0x308 DUP2 PUSH3 0x2F3 JUMP JUMPDEST DUP2 EQ PUSH3 0x314 JUMPI PUSH1 0x0 DUP1 REVERT JUMPDEST POP JUMP JUMPDEST PUSH1 0x0 DUP2 MLOAD SWAP1 POP PUSH3 0x328 DUP2 PUSH3 0x2FD JUMP JUMPDEST SWAP3 SWAP2 POP POP JUMP JUMPDEST PUSH1 0x0 DUP1 PUSH1 0x0 DUP1 PUSH1 0x0 DUP1 PUSH1 0x0 PUSH1 0xE0 DUP9 DUP11 SUB SLT ISZERO PUSH3 0x350 JUMPI PUSH3 0x34F PUSH3 0x105 JUMP JUMPDEST JUMPDEST PUSH1 0x0 DUP9 ADD MLOAD PUSH8 0xFFFFFFFFFFFFFFFF DUP2 GT ISZERO PUSH3 0x371 JUMPI PUSH3 0x370 PUSH3 0x10A JUMP JUMPDEST JUMPDEST PUSH3 0x37F DUP11 DUP3 DUP12 ADD PUSH3 0x25B JUMP JUMPDEST SWAP8 POP POP PUSH1 0x20 PUSH3 0x392 DUP11 DUP3 DUP12 ADD PUSH3 0x2DC JUMP JUMPDEST SWAP7 POP POP PUSH1 0x40 PUSH3 0x3A5 DUP11 DUP3 DUP12 ADD PUSH3 0x317 JUMP JUMPDEST SWAP6 POP POP PUSH1 0x60 PUSH3 0x3B8 DUP11 DUP3 DUP12 ADD PUSH3 0x317 JUMP JUMPDEST SWAP5 POP POP PUSH1 0x80 PUSH3 0x3CB DUP11 DUP3 DUP12 ADD PUSH3 0x317 JUMP JUMPDEST SWAP4 POP POP PUSH1 0xA0 DUP9 ADD MLOAD PUSH8 0xFFFFFFFFFFFFFFFF DUP2 GT ISZERO PUSH3 0x3EF JUMPI PUSH3 0x3EE PUSH3 0x10A JUMP JUMPDEST JUMPDEST PUSH3 0x3FD DUP11 DUP3 DUP12 ADD PUSH3 0x25B JUMP JUMPDEST SWAP3 POP POP PUSH1 0xC0 PUSH3 0x410 DUP11 DUP3 DUP12 ADD PUSH3 0x317 JUMP JUMPDEST SWAP2 POP POP SWAP3 SWAP6 SWAP9 SWAP2 SWAP5 SWAP8 POP SWAP3 SWAP6 POP JUMP JUMPDEST PUSH1 0x0 DUP2 MLOAD SWAP1 POP SWAP2 SWAP1 POP JUMP JUMPDEST PUSH32 0x4E487B7100000000000000000000000000000000000000000000000000000000 PUSH1 0x0 MSTORE PUSH1 0x22 PUSH1 0x4 MSTORE PUSH1 0x24 PUSH1 0x0 REVERT JUMPDEST PUSH1 0x0 PUSH1 0x2 DUP3 DIV SWAP1 POP PUSH1 0x1 DUP3 AND DUP1 PUSH3 0x472 JUMPI PUSH1 0x7F DUP3 AND SWAP2 POP JUMPDEST PUSH1 0x20 DUP3 LT DUP2 SUB PUSH3 0x488 JUMPI PUSH3 0x487 PUSH3 0x42A JUMP JUMPDEST JUMPDEST POP SWAP2 SWAP1 POP JUMP JUMPDEST PUSH1 0x0 DUP2 SWAP1 POP DUP2 PUSH1 0x0 MSTORE PUSH1 0x20 PUSH1 0x0 KECCAK256 SWAP1 POP SWAP2 SWAP1 POP JUMP JUMPDEST PUSH1 0x0 PUSH1 0x20 PUSH1 0x1F DUP4 ADD DIV SWAP1 POP SWAP2 SWAP1 POP JUMP JUMPDEST PUSH1 0x0 DUP3 DUP3 SHL SWAP1 POP SWAP3 SWAP2 POP POP JUMP JUMPDEST PUSH1 0x0 PUSH1 0x8 DUP4 MUL PUSH3 0x4F2 PUSH32 0xFFFFFFFFFFFFFFFFFFFFFFFFFFFFFFFFFFFFFFFFFFFFFFFFFFFFFFFFFFFFFFFF DUP3 PUSH3 0x4B3 JUMP JUMPDEST PUSH3 0x4FE DUP7 DUP4 PUSH3 0x4B3 JUMP JUMPDEST SWAP6 POP DUP1 NOT DUP5 AND SWAP4 POP DUP1 DUP7 AND DUP5 OR SWAP3 POP POP POP SWAP4 SWAP3 POP POP POP JUMP JUMPDEST PUSH1 0x0 DUP2 SWAP1 POP SWAP2 SWAP1 POP JUMP JUMPDEST PUSH1 0x0 DUP2 SWAP1 POP SWAP2 SWAP1 POP JUMP JUMPDEST PUSH1 0x0 PUSH3 0x54B PUSH3 0x545 PUSH3 0x53F DUP5 PUSH3 0x516 JUMP JUMPDEST PUSH3 0x520 JUMP JUMPDEST PUSH3 0x516 JUMP JUMPDEST SWAP1 POP SWAP2 SWAP1 POP JUMP JUMPDEST PUSH1 0x0 DUP2 SWAP1 POP SWAP2 SWAP1 POP JUMP JUMPDEST PUSH3 0x567 DUP4 PUSH3 0x52A JUMP JUMPDEST PUSH3 0x57F PUSH3 0x576 DUP3 PUSH3 0x552 JUMP JUMPDEST DUP5 DUP5 SLOAD PUSH3 0x4C0 JUMP JUMPDEST DUP3 SSTORE POP POP POP POP JUMP JUMPDEST PUSH1 0x0 SWAP1 JUMP JUMPDEST PUSH3 0x596 PUSH3 0x587 JUMP JUMPDEST PUSH3 0x5A3 DUP2 DUP5 DUP5 PUSH3 0x55C JUMP JUMPDEST POP POP POP JUMP JUMPDEST JUMPDEST DUP2 DUP2 LT ISZERO PUSH3 0x5CB JUMPI PUSH3 0x5BF PUSH1 0x0 DUP3 PUSH3 0x58C JUMP JUMPDEST PUSH1 0x1 DUP2 ADD SWAP1 POP PUSH3 0x5A9 JUMP JUMPDEST POP POP JUMP JUMPDEST PUSH1 0x1F DUP3 GT ISZERO PUSH3 0x61A JUMPI PUSH3 0x5E4 DUP2 PUSH3 0x48E JUMP JUMPDEST PUSH3 0x5EF DUP5 PUSH3 0x4A3 JUMP JUMPDEST DUP2 ADD PUSH1 0x20 DUP6 LT ISZERO PUSH3 0x5FF JUMPI DUP2 SWAP1 POP JUMPDEST PUSH3 0x617 PUSH3 0x60E DUP6 PUSH3 0x4A3 JUMP JUMPDEST DUP4 ADD DUP3 PUSH3 0x5A8 JUMP JUMPDEST POP POP JUMPDEST POP POP POP JUMP JUMPDEST PUSH1 0x0 DUP3 DUP3 SHR SWAP1 POP SWAP3 SWAP2 POP POP JUMP JUMPDEST PUSH1 0x0 PUSH3 0x63F PUSH1 0x0 NOT DUP5 PUSH1 0x8 MUL PUSH3 0x61F JUMP JUMPDEST NOT DUP1 DUP4 AND SWAP2 POP POP SWAP3 SWAP2 POP POP JUMP JUMPDEST PUSH1 0x0 PUSH3 0x65A DUP4 DUP4 PUSH3 0x62C JUMP JUMPDEST SWAP2 POP DUP3 PUSH1 0x2 MUL DUP3 OR SWAP1 POP SWAP3 SWAP2 POP POP JUMP JUMPDEST PUSH3 0x675 DUP3 PUSH3 0x41F JUMP JUMPDEST PUSH8 0xFFFFFFFFFFFFFFFF DUP2 GT ISZERO PUSH3 0x691 JUMPI PUSH3 0x690 PUSH3 0x12A JUMP JUMPDEST JUMPDEST PUSH3 0x69D DUP3 SLOAD PUSH3 0x459 JUMP JUMPDEST PUSH3 0x6AA DUP3 DUP3 DUP6 PUSH3 0x5CF JUMP JUMPDEST PUSH1 0x0 PUSH1 0x20 SWAP1 POP PUSH1 0x1F DUP4 GT PUSH1 0x1 DUP2 EQ PUSH3 0x6E2 JUMPI PUSH1 0x0 DUP5 ISZERO PUSH3 0x6CD JUMPI DUP3 DUP8 ADD MLOAD SWAP1 POP JUMPDEST PUSH3 0x6D9 DUP6 DUP3 PUSH3 0x64C JUMP JUMPDEST DUP7 SSTORE POP PUSH3 0x749 JUMP JUMPDEST PUSH1 0x1F NOT DUP5 AND PUSH3 0x6F2 DUP7 PUSH3 0x48E JUMP JUMPDEST PUSH1 0x0 JUMPDEST DUP3 DUP2 LT ISZERO PUSH3 0x71C JUMPI DUP5 DUP10 ADD MLOAD DUP3 SSTORE PUSH1 0x1 DUP3 ADD SWAP2 POP PUSH1 0x20 DUP6 ADD SWAP5 POP PUSH1 0x20 DUP2 ADD SWAP1 POP PUSH3 0x6F5 JUMP JUMPDEST DUP7 DUP4 LT ISZERO PUSH3 0x73C JUMPI DUP5 DUP10 ADD MLOAD PUSH3 0x738 PUSH1 0x1F DUP10 AND DUP3 PUSH3 0x62C JUMP JUMPDEST DUP4 SSTORE POP JUMPDEST PUSH1 0x1 PUSH1 0x2 DUP9 MUL ADD DUP9 SSTORE POP POP POP JUMPDEST POP POP POP POP POP POP JUMP JUMPDEST PUSH2 0x1FC4 DUP1 PUSH3 0x761 PUSH1 0x0 CODECOPY PUSH1 0x0 RETURN INVALID PUSH1 0x80 PUSH1 0x40 MSTORE PUSH1 0x4 CALLDATASIZE LT PUSH2 0xF6 JUMPI PUSH1 0x0 CALLDATALOAD PUSH1 0xE0 SHR DUP1 PUSH4 0x9C0DEC39 GT PUSH2 0x8A JUMPI DUP1 PUSH4 0xD6BEF7D3 GT PUSH2 0x59 JUMPI DUP1 PUSH4 0xD6BEF7D3 EQ PUSH2 0x312 JUMPI DUP1 PUSH4 0xF030660F EQ PUSH2 0x351 JUMPI DUP1 PUSH4 0xF9FC9CB8 EQ PUSH2 0x36D JUMPI DUP1 PUSH4 0xFAF924CF EQ PUSH2 0x398 JUMPI PUSH2 0xFD JUMP JUMPDEST DUP1 PUSH4 0x9C0DEC39 EQ PUSH2 0x268 JUMPI DUP1 PUSH4 0xAD4E0407 EQ PUSH2 0x291 JUMPI DUP1 PUSH4 0xCE69503C EQ PUSH2 0x2BC JUMPI DUP1 PUSH4 0xD15551F4 EQ PUSH2 0x2E7 JUMPI PUSH2 0xFD JUMP JUMPDEST DUP1 PUSH4 0x39E7357C GT PUSH2 0xC6 JUMPI DUP1 PUSH4 0x39E7357C EQ PUSH2 0x1C0 JUMPI DUP1 PUSH4 0x5124D9D5 EQ PUSH2 0x1EB JUMPI DUP1 PUSH4 0x546D5305 EQ PUSH2 0x214 JUMPI DUP1 PUSH4 0x845894D4 EQ PUSH2 0x22B JUMPI PUSH2 0xFD JUMP JUMPDEST DUP1 PUSH3 0x70A6C3 EQ PUSH2 0x102 JUMPI DUP1 PUSH4 0x3A357B2 EQ PUSH2 0x12D JUMPI DUP1 PUSH4 0x17D7DE7C EQ PUSH2 0x156 JUMPI DUP1 PUSH4 0x20BBE818 EQ PUSH2 0x181 JUMPI PUSH2 0xFD JUMP JUMPDEST CALLDATASIZE PUSH2 0xFD JUMPI STOP JUMPDEST PUSH1 0x0 DUP1 REVERT JUMPDEST CALLVALUE DUP1 ISZERO PUSH2 0x10E JUMPI PUSH1 0x0 DUP1 REVERT JUMPDEST POP PUSH2 0x117 PUSH2 0x3C3 JUMP JUMPDEST PUSH1 0x40 MLOAD PUSH2 0x124 SWAP2 SWAP1 PUSH2 0xFEB JUMP JUMPDEST PUSH1 0x40 MLOAD DUP1 SWAP2 SUB SWAP1 RETURN JUMPDEST CALLVALUE DUP1 ISZERO PUSH2 0x139 JUMPI PUSH1 0x0 DUP1 REVERT JUMPDEST POP PUSH2 0x154 PUSH1 0x4 DUP1 CALLDATASIZE SUB DUP2 ADD SWAP1 PUSH2 0x14F SWAP2 SWAP1 PUSH2 0x1266 JUMP JUMPDEST PUSH2 0x3CD JUMP JUMPDEST STOP JUMPDEST CALLVALUE DUP1 ISZERO PUSH2 0x162 JUMPI PUSH1 0x0 DUP1 REVERT JUMPDEST POP PUSH2 0x16B PUSH2 0x49B JUMP JUMPDEST PUSH1 0x40 MLOAD PUSH2 0x178 SWAP2 SWAP1 PUSH2 0x132E JUMP JUMPDEST PUSH1 0x40 MLOAD DUP1 SWAP2 SUB SWAP1 RETURN JUMPDEST CALLVALUE DUP1 ISZERO PUSH2 0x18D JUMPI PUSH1 0x0 DUP1 REVERT JUMPDEST POP PUSH2 0x1A8 PUSH1 0x4 DUP1 CALLDATASIZE SUB DUP2 ADD SWAP1 PUSH2 0x1A3 SWAP2 SWAP1 PUSH2 0x1350 JUMP JUMPDEST PUSH2 0x52D JUMP JUMPDEST PUSH1 0x40 MLOAD PUSH2 0x1B7 SWAP4 SWAP3 SWAP2 SWAP1 PUSH2 0x13A5 JUMP JUMPDEST PUSH1 0x40 MLOAD DUP1 SWAP2 SUB SWAP1 RETURN JUMPDEST CALLVALUE DUP1 ISZERO PUSH2 0x1CC JUMPI PUSH1 0x0 DUP1 REVERT JUMPDEST POP PUSH2 0x1D5 PUSH2 0x577 JUMP JUMPDEST PUSH1 0x40 MLOAD PUSH2 0x1E2 SWAP2 SWAP1 PUSH2 0x13F5 JUMP JUMPDEST PUSH1 0x40 MLOAD DUP1 SWAP2 SUB SWAP1 RETURN JUMPDEST CALLVALUE DUP1 ISZERO PUSH2 0x1F7 JUMPI PUSH1 0x0 DUP1 REVERT JUMPDEST POP PUSH2 0x212 PUSH1 0x4 DUP1 CALLDATASIZE SUB DUP2 ADD SWAP1 PUSH2 0x20D SWAP2 SWAP1 PUSH2 0x14F1 JUMP JUMPDEST PUSH2 0x581 JUMP JUMPDEST STOP JUMPDEST CALLVALUE DUP1 ISZERO PUSH2 0x220 JUMPI PUSH1 0x0 DUP1 REVERT JUMPDEST POP PUSH2 0x229 PUSH2 0x59C JUMP JUMPDEST STOP JUMPDEST CALLVALUE DUP1 ISZERO PUSH2 0x237 JUMPI PUSH1 0x0 DUP1 REVERT JUMPDEST POP PUSH2 0x252 PUSH1 0x4 DUP1 CALLDATASIZE SUB DUP2 ADD SWAP1 PUSH2 0x24D SWAP2 SWAP1 PUSH2 0x1350 JUMP JUMPDEST PUSH2 0x5B9 JUMP JUMPDEST PUSH1 0x40 MLOAD PUSH2 0x25F SWAP2 SWAP1 PUSH2 0x15BC JUMP JUMPDEST PUSH1 0x40 MLOAD DUP1 SWAP2 SUB SWAP1 RETURN JUMPDEST CALLVALUE DUP1 ISZERO PUSH2 0x274 JUMPI PUSH1 0x0 DUP1 REVERT JUMPDEST POP PUSH2 0x28F PUSH1 0x4 DUP1 CALLDATASIZE SUB DUP2 ADD SWAP1 PUSH2 0x28A SWAP2 SWAP1 PUSH2 0x15D7 JUMP JUMPDEST PUSH2 0x67C JUMP JUMPDEST STOP JUMPDEST CALLVALUE DUP1 ISZERO PUSH2 0x29D JUMPI PUSH1 0x0 DUP1 REVERT JUMPDEST POP PUSH2 0x2A6 PUSH2 0x848 JUMP JUMPDEST PUSH1 0x40 MLOAD PUSH2 0x2B3 SWAP2 SWAP1 PUSH2 0x1632 JUMP JUMPDEST PUSH1 0x40 MLOAD DUP1 SWAP2 SUB SWAP1 RETURN JUMPDEST CALLVALUE DUP1 ISZERO PUSH2 0x2C8 JUMPI PUSH1 0x0 DUP1 REVERT JUMPDEST POP PUSH2 0x2D1 PUSH2 0x85F JUMP JUMPDEST PUSH1 0x40 MLOAD PUSH2 0x2DE SWAP2 SWAP1 PUSH2 0x173E JUMP JUMPDEST PUSH1 0x40 MLOAD DUP1 SWAP2 SUB SWAP1 RETURN JUMPDEST CALLVALUE DUP1 ISZERO PUSH2 0x2F3 JUMPI PUSH1 0x0 DUP1 REVERT JUMPDEST POP PUSH2 0x2FC PUSH2 0x928 JUMP JUMPDEST PUSH1 0x40 MLOAD PUSH2 0x309 SWAP2 SWAP1 PUSH2 0x1760 JUMP JUMPDEST PUSH1 0x40 MLOAD DUP1 SWAP2 SUB SWAP1 RETURN JUMPDEST CALLVALUE DUP1 ISZERO PUSH2 0x31E JUMPI PUSH1 0x0 DUP1 REVERT JUMPDEST POP PUSH2 0x339 PUSH1 0x4 DUP1 CALLDATASIZE SUB DUP2 ADD SWAP1 PUSH2 0x334 SWAP2 SWAP1 PUSH2 0x17A7 JUMP JUMPDEST PUSH2 0x935 JUMP JUMPDEST PUSH1 0x40 MLOAD PUSH2 0x348 SWAP4 SWAP3 SWAP2 SWAP1 PUSH2 0x17D4 JUMP JUMPDEST PUSH1 0x40 MLOAD DUP1 SWAP2 SUB SWAP1 RETURN JUMPDEST PUSH2 0x36B PUSH1 0x4 DUP1 CALLDATASIZE SUB DUP2 ADD SWAP1 PUSH2 0x366 SWAP2 SWAP1 PUSH2 0x18CE JUMP JUMPDEST PUSH2 0x98F JUMP JUMPDEST STOP JUMPDEST CALLVALUE DUP1 ISZERO PUSH2 0x379 JUMPI PUSH1 0x0 DUP1 REVERT JUMPDEST POP PUSH2 0x382 PUSH2 0xD21 JUMP JUMPDEST PUSH1 0x40 MLOAD PUSH2 0x38F SWAP2 SWAP1 PUSH2 0x1632 JUMP JUMPDEST PUSH1 0x40 MLOAD DUP1 SWAP2 SUB SWAP1 RETURN JUMPDEST CALLVALUE DUP1 ISZERO PUSH2 0x3A4 JUMPI PUSH1 0x0 DUP1 REVERT JUMPDEST POP PUSH2 0x3AD PUSH2 0xDEC JUMP JUMPDEST PUSH1 0x40 MLOAD PUSH2 0x3BA SWAP2 SWAP1 PUSH2 0x196C JUMP JUMPDEST PUSH1 0x40 MLOAD DUP1 SWAP2 SUB SWAP1 RETURN JUMPDEST PUSH1 0x0 PUSH1 0x4 SLOAD SWAP1 POP SWAP1 JUMP JUMPDEST PUSH1 0x8 PUSH1 0x0 PUSH2 0x3DB SWAP2 SWAP1 PUSH2 0xF29 JUMP JUMPDEST PUSH1 0x0 JUMPDEST DUP2 MLOAD DUP2 LT ISZERO PUSH2 0x497 JUMPI PUSH1 0x8 DUP3 DUP3 DUP2 MLOAD DUP2 LT PUSH2 0x3FC JUMPI PUSH2 0x3FB PUSH2 0x198E JUMP JUMPDEST JUMPDEST PUSH1 0x20 MUL PUSH1 0x20 ADD ADD MLOAD SWAP1 DUP1 PUSH1 0x1 DUP2 SLOAD ADD DUP1 DUP3 SSTORE DUP1 SWAP2 POP POP PUSH1 0x1 SWAP1 SUB SWAP1 PUSH1 0x0 MSTORE PUSH1 0x20 PUSH1 0x0 KECCAK256 SWAP1 PUSH1 0x3 MUL ADD PUSH1 0x0 SWAP1 SWAP2 SWAP1 SWAP2 SWAP1 SWAP2 POP PUSH1 0x0 DUP3 ADD MLOAD DUP2 PUSH1 0x0 ADD PUSH1 0x0 PUSH2 0x100 EXP DUP2 SLOAD DUP2 PUSH20 0xFFFFFFFFFFFFFFFFFFFFFFFFFFFFFFFFFFFFFFFF MUL NOT AND SWAP1 DUP4 PUSH20 0xFFFFFFFFFFFFFFFFFFFFFFFFFFFFFFFFFFFFFFFF AND MUL OR SWAP1 SSTORE POP PUSH1 0x20 DUP3 ADD MLOAD DUP2 PUSH1 0x1 ADD SSTORE PUSH1 0x40 DUP3 ADD MLOAD DUP2 PUSH1 0x2 ADD SSTORE POP POP DUP1 DUP1 PUSH1 0x1 ADD SWAP2 POP POP PUSH2 0x3DE JUMP JUMPDEST POP POP JUMP JUMPDEST PUSH1 0x60 PUSH1 0x0 DUP1 SLOAD PUSH2 0x4AA SWAP1 PUSH2 0x19EC JUMP JUMPDEST DUP1 PUSH1 0x1F ADD PUSH1 0x20 DUP1 SWAP2 DIV MUL PUSH1 0x20 ADD PUSH1 0x40 MLOAD SWAP1 DUP2 ADD PUSH1 0x40 MSTORE DUP1 SWAP3 SWAP2 SWAP1 DUP2 DUP2 MSTORE PUSH1 0x20 ADD DUP3 DUP1 SLOAD PUSH2 0x4D6 SWAP1 PUSH2 0x19EC JUMP JUMPDEST DUP1 ISZERO PUSH2 0x523 JUMPI DUP1 PUSH1 0x1F LT PUSH2 0x4F8 JUMPI PUSH2 0x100 DUP1 DUP4 SLOAD DIV MUL DUP4 MSTORE SWAP2 PUSH1 0x20 ADD SWAP2 PUSH2 0x523 JUMP JUMPDEST DUP3 ADD SWAP2 SWAP1 PUSH1 0x0 MSTORE PUSH1 0x20 PUSH1 0x0 KECCAK256 SWAP1 JUMPDEST DUP2 SLOAD DUP2 MSTORE SWAP1 PUSH1 0x1 ADD SWAP1 PUSH1 0x20 ADD DUP1 DUP4 GT PUSH2 0x506 JUMPI DUP3 SWAP1 SUB PUSH1 0x1F AND DUP3 ADD SWAP2 JUMPDEST POP POP POP POP POP SWAP1 POP SWAP1 JUMP JUMPDEST PUSH1 0x9 PUSH1 0x20 MSTORE DUP1 PUSH1 0x0 MSTORE PUSH1 0x40 PUSH1 0x0 KECCAK256 PUSH1 0x0 SWAP2 POP SWAP1 POP DUP1 PUSH1 0x0 ADD PUSH1 0x0 SWAP1 SLOAD SWAP1 PUSH2 0x100 EXP SWAP1 DIV PUSH20 0xFFFFFFFFFFFFFFFFFFFFFFFFFFFFFFFFFFFFFFFF AND SWAP1 DUP1 PUSH1 0x1 ADD SLOAD SWAP1 DUP1 PUSH1 0x2 ADD SLOAD SWAP1 POP DUP4 JUMP JUMPDEST PUSH1 0x0 PUSH1 0xA SLOAD SWAP1 POP SWAP1 JUMP JUMPDEST DUP2 PUSH1 0xA DUP2 SWAP1 SSTORE POP DUP1 PUSH1 0xB SWAP1 DUP2 PUSH2 0x597 SWAP2 SWAP1 PUSH2 0x1BC9 JUMP JUMPDEST POP POP POP JUMP JUMPDEST PUSH1 0x1 PUSH1 0xC PUSH1 0x0 PUSH2 0x100 EXP DUP2 SLOAD DUP2 PUSH1 0xFF MUL NOT AND SWAP1 DUP4 ISZERO ISZERO MUL OR SWAP1 SSTORE POP JUMP JUMPDEST PUSH2 0x5C1 PUSH2 0xF4D JUMP JUMPDEST PUSH1 0x9 PUSH1 0x0 DUP4 PUSH20 0xFFFFFFFFFFFFFFFFFFFFFFFFFFFFFFFFFFFFFFFF AND PUSH20 0xFFFFFFFFFFFFFFFFFFFFFFFFFFFFFFFFFFFFFFFF AND DUP2 MSTORE PUSH1 0x20 ADD SWAP1 DUP2 MSTORE PUSH1 0x20 ADD PUSH1 0x0 KECCAK256 PUSH1 0x40 MLOAD DUP1 PUSH1 0x60 ADD PUSH1 0x40 MSTORE SWAP1 DUP2 PUSH1 0x0 DUP3 ADD PUSH1 0x0 SWAP1 SLOAD SWAP1 PUSH2 0x100 EXP SWAP1 DIV PUSH20 0xFFFFFFFFFFFFFFFFFFFFFFFFFFFFFFFFFFFFFFFF AND PUSH20 0xFFFFFFFFFFFFFFFFFFFFFFFFFFFFFFFFFFFFFFFF AND PUSH20 0xFFFFFFFFFFFFFFFFFFFFFFFFFFFFFFFFFFFFFFFF AND DUP2 MSTORE PUSH1 0x20 ADD PUSH1 0x1 DUP3 ADD SLOAD DUP2 MSTORE PUSH1 0x20 ADD PUSH1 0x2 DUP3 ADD SLOAD DUP2 MSTORE POP POP SWAP1 POP SWAP2 SWAP1 POP JUMP JUMPDEST PUSH1 0x1 ISZERO ISZERO PUSH1 0xC PUSH1 0x0 SWAP1 SLOAD SWAP1 PUSH2 0x100 EXP SWAP1 DIV PUSH1 0xFF AND ISZERO ISZERO EQ PUSH2 0x6D2 JUMPI PUSH1 0x40 MLOAD PUSH32 0x8C379A000000000000000000000000000000000000000000000000000000000 DUP2 MSTORE PUSH1 0x4 ADD PUSH2 0x6C9 SWAP1 PUSH2 0x1CE7 JUMP JUMPDEST PUSH1 0x40 MLOAD DUP1 SWAP2 SUB SWAP1 REVERT JUMPDEST PUSH1 0x1 ISZERO ISZERO PUSH1 0x7 PUSH1 0x0 SWAP1 SLOAD SWAP1 PUSH2 0x100 EXP SWAP1 DIV PUSH1 0xFF AND ISZERO ISZERO EQ PUSH2 0x728 JUMPI PUSH1 0x40 MLOAD PUSH32 0x8C379A000000000000000000000000000000000000000000000000000000000 DUP2 MSTORE PUSH1 0x4 ADD PUSH2 0x71F SWAP1 PUSH2 0x1D53 JUMP JUMPDEST PUSH1 0x40 MLOAD DUP1 SWAP2 SUB SWAP1 REVERT JUMPDEST PUSH2 0x731 DUP2 PUSH2 0xE7A JUMP JUMPDEST PUSH2 0x770 JUMPI PUSH1 0x40 MLOAD PUSH32 0x8C379A000000000000000000000000000000000000000000000000000000000 DUP2 MSTORE PUSH1 0x4 ADD PUSH2 0x767 SWAP1 PUSH2 0x1DBF JUMP JUMPDEST PUSH1 0x40 MLOAD DUP1 SWAP2 SUB SWAP1 REVERT JUMPDEST PUSH1 0x0 PUSH1 0x40 MLOAD DUP1 PUSH1 0x60 ADD PUSH1 0x40 MSTORE DUP1 DUP4 PUSH20 0xFFFFFFFFFFFFFFFFFFFFFFFFFFFFFFFFFFFFFFFF AND DUP2 MSTORE PUSH1 0x20 ADD DUP5 DUP2 MSTORE PUSH1 0x20 ADD TIMESTAMP DUP2 MSTORE POP SWAP1 POP DUP1 PUSH1 0x9 PUSH1 0x0 DUP5 PUSH20 0xFFFFFFFFFFFFFFFFFFFFFFFFFFFFFFFFFFFFFFFF AND PUSH20 0xFFFFFFFFFFFFFFFFFFFFFFFFFFFFFFFFFFFFFFFF AND DUP2 MSTORE PUSH1 0x20 ADD SWAP1 DUP2 MSTORE PUSH1 0x20 ADD PUSH1 0x0 KECCAK256 PUSH1 0x0 DUP3 ADD MLOAD DUP2 PUSH1 0x0 ADD PUSH1 0x0 PUSH2 0x100 EXP DUP2 SLOAD DUP2 PUSH20 0xFFFFFFFFFFFFFFFFFFFFFFFFFFFFFFFFFFFFFFFF MUL NOT AND SWAP1 DUP4 PUSH20 0xFFFFFFFFFFFFFFFFFFFFFFFFFFFFFFFFFFFFFFFF AND MUL OR SWAP1 SSTORE POP PUSH1 0x20 DUP3 ADD MLOAD DUP2 PUSH1 0x1 ADD SSTORE PUSH1 0x40 DUP3 ADD MLOAD DUP2 PUSH1 0x2 ADD SSTORE SWAP1 POP POP POP POP POP JUMP JUMPDEST PUSH1 0x0 PUSH1 0xC PUSH1 0x0 SWAP1 SLOAD SWAP1 PUSH2 0x100 EXP SWAP1 DIV PUSH1 0xFF AND SWAP1 POP SWAP1 JUMP JUMPDEST PUSH1 0x60 PUSH1 0x8 DUP1 SLOAD DUP1 PUSH1 0x20 MUL PUSH1 0x20 ADD PUSH1 0x40 MLOAD SWAP1 DUP2 ADD PUSH1 0x40 MSTORE DUP1 SWAP3 SWAP2 SWAP1 DUP2 DUP2 MSTORE PUSH1 0x20 ADD PUSH1 0x0 SWAP1 JUMPDEST DUP3 DUP3 LT ISZERO PUSH2 0x91F JUMPI DUP4 DUP3 SWAP1 PUSH1 0x0 MSTORE PUSH1 0x20 PUSH1 0x0 KECCAK256 SWAP1 PUSH1 0x3 MUL ADD PUSH1 0x40 MLOAD DUP1 PUSH1 0x60 ADD PUSH1 0x40 MSTORE SWAP1 DUP2 PUSH1 0x0 DUP3 ADD PUSH1 0x0 SWAP1 SLOAD SWAP1 PUSH2 0x100 EXP SWAP1 DIV PUSH20 0xFFFFFFFFFFFFFFFFFFFFFFFFFFFFFFFFFFFFFFFF AND PUSH20 0xFFFFFFFFFFFFFFFFFFFFFFFFFFFFFFFFFFFFFFFF AND PUSH20 0xFFFFFFFFFFFFFFFFFFFFFFFFFFFFFFFFFFFFFFFF AND DUP2 MSTORE PUSH1 0x20 ADD PUSH1 0x1 DUP3 ADD SLOAD DUP2 MSTORE PUSH1 0x20 ADD PUSH1 0x2 DUP3 ADD SLOAD DUP2 MSTORE POP POP DUP2 MSTORE PUSH1 0x20 ADD SWAP1 PUSH1 0x1 ADD SWAP1 PUSH2 0x883 JUMP JUMPDEST POP POP POP POP SWAP1 POP SWAP1 JUMP JUMPDEST PUSH1 0x0 PUSH1 0x8 DUP1 SLOAD SWAP1 POP SWAP1 POP SWAP1 JUMP JUMPDEST PUSH1 0x8 DUP2 DUP2 SLOAD DUP2 LT PUSH2 0x945 JUMPI PUSH1 0x0 DUP1 REVERT JUMPDEST SWAP1 PUSH1 0x0 MSTORE PUSH1 0x20 PUSH1 0x0 KECCAK256 SWAP1 PUSH1 0x3 MUL ADD PUSH1 0x0 SWAP2 POP SWAP1 POP DUP1 PUSH1 0x0 ADD PUSH1 0x0 SWAP1 SLOAD SWAP1 PUSH2 0x100 EXP SWAP1 DIV PUSH20 0xFFFFFFFFFFFFFFFFFFFFFFFFFFFFFFFFFFFFFFFF AND SWAP1 DUP1 PUSH1 0x1 ADD SLOAD SWAP1 DUP1 PUSH1 0x2 ADD SLOAD SWAP1 POP DUP4 JUMP JUMPDEST PUSH1 0x1 ISZERO ISZERO PUSH1 0x7 PUSH1 0x0 SWAP1 SLOAD SWAP1 PUSH2 0x100 EXP SWAP1 DIV PUSH1 0xFF AND ISZERO ISZERO EQ PUSH2 0x9E5 JUMPI PUSH1 0x40 MLOAD PUSH32 0x8C379A000000000000000000000000000000000000000000000000000000000 DUP2 MSTORE PUSH1 0x4 ADD PUSH2 0x9DC SWAP1 PUSH2 0x1D53 JUMP JUMPDEST PUSH1 0x40 MLOAD DUP1 SWAP2 SUB SWAP1 REVERT JUMPDEST PUSH1 0x0 PUSH1 0x8 DUP1 SLOAD SWAP1 POP PUSH8 0xFFFFFFFFFFFFFFFF DUP2 GT ISZERO PUSH2 0xA06 JUMPI PUSH2 0xA05 PUSH2 0x1030 JUMP JUMPDEST JUMPDEST PUSH1 0x40 MLOAD SWAP1 DUP1 DUP3 MSTORE DUP1 PUSH1 0x20 MUL PUSH1 0x20 ADD DUP3 ADD PUSH1 0x40 MSTORE DUP1 ISZERO PUSH2 0xA34 JUMPI DUP2 PUSH1 0x20 ADD PUSH1 0x20 DUP3 MUL DUP1 CALLDATASIZE DUP4 CALLDATACOPY DUP1 DUP3 ADD SWAP2 POP POP SWAP1 POP JUMPDEST POP SWAP1 POP PUSH1 0x0 DUP1 JUMPDEST PUSH1 0x8 DUP1 SLOAD SWAP1 POP DUP2 LT ISZERO PUSH2 0xB1A JUMPI PUSH1 0x0 DUP5 DUP3 DUP2 MLOAD DUP2 LT PUSH2 0xA5D JUMPI PUSH2 0xA5C PUSH2 0x198E JUMP JUMPDEST JUMPDEST PUSH1 0x20 MUL PUSH1 0x20 ADD ADD MLOAD SGT ISZERO PUSH2 0xB0D JUMPI PUSH1 0x8 DUP2 DUP2 SLOAD DUP2 LT PUSH2 0xA7F JUMPI PUSH2 0xA7E PUSH2 0x198E JUMP JUMPDEST JUMPDEST SWAP1 PUSH1 0x0 MSTORE PUSH1 0x20 PUSH1 0x0 KECCAK256 SWAP1 PUSH1 0x3 MUL ADD PUSH1 0x0 ADD PUSH1 0x0 SWAP1 SLOAD SWAP1 PUSH2 0x100 EXP SWAP1 DIV PUSH20 0xFFFFFFFFFFFFFFFFFFFFFFFFFFFFFFFFFFFFFFFF AND DUP4 DUP4 DUP2 MLOAD DUP2 LT PUSH2 0xAC4 JUMPI PUSH2 0xAC3 PUSH2 0x198E JUMP JUMPDEST JUMPDEST PUSH1 0x20 MUL PUSH1 0x20 ADD ADD SWAP1 PUSH20 0xFFFFFFFFFFFFFFFFFFFFFFFFFFFFFFFFFFFFFFFF AND SWAP1 DUP2 PUSH20 0xFFFFFFFFFFFFFFFFFFFFFFFFFFFFFFFFFFFFFFFF AND DUP2 MSTORE POP POP DUP2 DUP1 PUSH2 0xB09 SWAP1 PUSH2 0x1E0E JUMP JUMPDEST SWAP3 POP POP JUMPDEST DUP1 DUP1 PUSH1 0x1 ADD SWAP2 POP POP PUSH2 0xA3B JUMP JUMPDEST POP PUSH1 0x0 DUP2 PUSH8 0xFFFFFFFFFFFFFFFF DUP2 GT ISZERO PUSH2 0xB37 JUMPI PUSH2 0xB36 PUSH2 0x1030 JUMP JUMPDEST JUMPDEST PUSH1 0x40 MLOAD SWAP1 DUP1 DUP3 MSTORE DUP1 PUSH1 0x20 MUL PUSH1 0x20 ADD DUP3 ADD PUSH1 0x40 MSTORE DUP1 ISZERO PUSH2 0xB65 JUMPI DUP2 PUSH1 0x20 ADD PUSH1 0x20 DUP3 MUL DUP1 CALLDATASIZE DUP4 CALLDATACOPY DUP1 DUP3 ADD SWAP2 POP POP SWAP1 POP JUMPDEST POP SWAP1 POP PUSH1 0x0 JUMPDEST DUP3 DUP2 LT ISZERO PUSH2 0xBE8 JUMPI DUP4 DUP2 DUP2 MLOAD DUP2 LT PUSH2 0xB86 JUMPI PUSH2 0xB85 PUSH2 0x198E JUMP JUMPDEST JUMPDEST PUSH1 0x20 MUL PUSH1 0x20 ADD ADD MLOAD DUP3 DUP3 DUP2 MLOAD DUP2 LT PUSH2 0xBA1 JUMPI PUSH2 0xBA0 PUSH2 0x198E JUMP JUMPDEST JUMPDEST PUSH1 0x20 MUL PUSH1 0x20 ADD ADD SWAP1 PUSH20 0xFFFFFFFFFFFFFFFFFFFFFFFFFFFFFFFFFFFFFFFF AND SWAP1 DUP2 PUSH20 0xFFFFFFFFFFFFFFFFFFFFFFFFFFFFFFFFFFFFFFFF AND DUP2 MSTORE POP POP DUP1 DUP1 PUSH1 0x1 ADD SWAP2 POP POP PUSH2 0xB6B JUMP JUMPDEST POP PUSH1 0x0 SELFBALANCE SWAP1 POP PUSH1 0x0 DUP2 GT PUSH2 0xC31 JUMPI PUSH1 0x40 MLOAD PUSH32 0x8C379A000000000000000000000000000000000000000000000000000000000 DUP2 MSTORE PUSH1 0x4 ADD PUSH2 0xC28 SWAP1 PUSH2 0x1EA2 JUMP JUMPDEST PUSH1 0x40 MLOAD DUP1 SWAP2 SUB SWAP1 REVERT JUMPDEST PUSH1 0x0 DUP4 GT PUSH2 0xC74 JUMPI PUSH1 0x40 MLOAD PUSH32 0x8C379A000000000000000000000000000000000000000000000000000000000 DUP2 MSTORE PUSH1 0x4 ADD PUSH2 0xC6B SWAP1 PUSH2 0x1F0E JUMP JUMPDEST PUSH1 0x40 MLOAD DUP1 SWAP2 SUB SWAP1 REVERT JUMPDEST PUSH1 0x0 DUP4 DUP3 PUSH2 0xC82 SWAP2 SWAP1 PUSH2 0x1F5D JUMP JUMPDEST SWAP1 POP PUSH1 0x0 JUMPDEST DUP5 DUP2 LT ISZERO PUSH2 0xCFD JUMPI DUP4 DUP2 DUP2 MLOAD DUP2 LT PUSH2 0xCA2 JUMPI PUSH2 0xCA1 PUSH2 0x198E JUMP JUMPDEST JUMPDEST PUSH1 0x20 MUL PUSH1 0x20 ADD ADD MLOAD PUSH20 0xFFFFFFFFFFFFFFFFFFFFFFFFFFFFFFFFFFFFFFFF AND PUSH2 0x8FC DUP4 SWAP1 DUP2 ISZERO MUL SWAP1 PUSH1 0x40 MLOAD PUSH1 0x0 PUSH1 0x40 MLOAD DUP1 DUP4 SUB DUP2 DUP6 DUP9 DUP9 CALL SWAP4 POP POP POP POP ISZERO DUP1 ISZERO PUSH2 0xCEF JUMPI RETURNDATASIZE PUSH1 0x0 DUP1 RETURNDATACOPY RETURNDATASIZE PUSH1 0x0 REVERT JUMPDEST POP DUP1 DUP1 PUSH1 0x1 ADD SWAP2 POP POP PUSH2 0xC87 JUMP JUMPDEST POP PUSH1 0x0 PUSH1 0x7 PUSH1 0x0 PUSH2 0x100 EXP DUP2 SLOAD DUP2 PUSH1 0xFF MUL NOT AND SWAP1 DUP4 ISZERO ISZERO MUL OR SWAP1 SSTORE POP POP POP POP POP POP POP JUMP JUMPDEST PUSH1 0x0 DUP1 PUSH1 0x0 SWAP1 POP JUMPDEST PUSH1 0x8 DUP1 SLOAD SWAP1 POP DUP2 LT ISZERO PUSH2 0xDE3 JUMPI PUSH1 0x0 PUSH1 0x8 DUP3 DUP2 SLOAD DUP2 LT PUSH2 0xD4C JUMPI PUSH2 0xD4B PUSH2 0x198E JUMP JUMPDEST JUMPDEST SWAP1 PUSH1 0x0 MSTORE PUSH1 0x20 PUSH1 0x0 KECCAK256 SWAP1 PUSH1 0x3 MUL ADD PUSH1 0x0 ADD PUSH1 0x0 SWAP1 SLOAD SWAP1 PUSH2 0x100 EXP SWAP1 DIV PUSH20 0xFFFFFFFFFFFFFFFFFFFFFFFFFFFFFFFFFFFFFFFF AND SWAP1 POP PUSH1 0x0 PUSH1 0x9 PUSH1 0x0 DUP4 PUSH20 0xFFFFFFFFFFFFFFFFFFFFFFFFFFFFFFFFFFFFFFFF AND PUSH20 0xFFFFFFFFFFFFFFFFFFFFFFFFFFFFFFFFFFFFFFFF AND DUP2 MSTORE PUSH1 0x20 ADD SWAP1 DUP2 MSTORE PUSH1 0x20 ADD PUSH1 0x0 KECCAK256 PUSH1 0x2 ADD SLOAD SUB PUSH2 0xDD5 JUMPI PUSH1 0x0 SWAP3 POP POP POP PUSH2 0xDE9 JUMP JUMPDEST POP DUP1 DUP1 PUSH1 0x1 ADD SWAP2 POP POP PUSH2 0xD29 JUMP JUMPDEST POP PUSH1 0x1 SWAP1 POP JUMPDEST SWAP1 JUMP JUMPDEST PUSH1 0xB DUP1 SLOAD PUSH2 0xDF9 SWAP1 PUSH2 0x19EC JUMP JUMPDEST DUP1 PUSH1 0x1F ADD PUSH1 0x20 DUP1 SWAP2 DIV MUL PUSH1 0x20 ADD PUSH1 0x40 MLOAD SWAP1 DUP2 ADD PUSH1 0x40 MSTORE DUP1 SWAP3 SWAP2 SWAP1 DUP2 DUP2 MSTORE PUSH1 0x20 ADD DUP3 DUP1 SLOAD PUSH2 0xE25 SWAP1 PUSH2 0x19EC JUMP JUMPDEST DUP1 ISZERO PUSH2 0xE72 JUMPI DUP1 PUSH1 0x1F LT PUSH2 0xE47 JUMPI PUSH2 0x100 DUP1 DUP4 SLOAD DIV MUL DUP4 MSTORE SWAP2 PUSH1 0x20 ADD SWAP2 PUSH2 0xE72 JUMP JUMPDEST DUP3 ADD SWAP2 SWAP1 PUSH1 0x0 MSTORE PUSH1 0x20 PUSH1 0x0 KECCAK256 SWAP1 JUMPDEST DUP2 SLOAD DUP2 MSTORE SWAP1 PUSH1 0x1 ADD SWAP1 PUSH1 0x20 ADD DUP1 DUP4 GT PUSH2 0xE55 JUMPI DUP3 SWAP1 SUB PUSH1 0x1F AND DUP3 ADD SWAP2 JUMPDEST POP POP POP POP POP DUP2 JUMP JUMPDEST PUSH1 0x0 DUP1 PUSH1 0x0 SWAP1 POP JUMPDEST PUSH1 0x8 DUP1 SLOAD SWAP1 POP DUP2 LT ISZERO PUSH2 0xF1E JUMPI DUP3 PUSH20 0xFFFFFFFFFFFFFFFFFFFFFFFFFFFFFFFFFFFFFFFF AND PUSH1 0x8 DUP3 DUP2 SLOAD DUP2 LT PUSH2 0xEBA JUMPI PUSH2 0xEB9 PUSH2 0x198E JUMP JUMPDEST JUMPDEST SWAP1 PUSH1 0x0 MSTORE PUSH1 0x20 PUSH1 0x0 KECCAK256 SWAP1 PUSH1 0x3 MUL ADD PUSH1 0x0 ADD PUSH1 0x0 SWAP1 SLOAD SWAP1 PUSH2 0x100 EXP SWAP1 DIV PUSH20 0xFFFFFFFFFFFFFFFFFFFFFFFFFFFFFFFFFFFFFFFF AND PUSH20 0xFFFFFFFFFFFFFFFFFFFFFFFFFFFFFFFFFFFFFFFF AND SUB PUSH2 0xF11 JUMPI PUSH1 0x1 SWAP2 POP POP PUSH2 0xF24 JUMP JUMPDEST DUP1 DUP1 PUSH1 0x1 ADD SWAP2 POP POP PUSH2 0xE82 JUMP JUMPDEST POP PUSH1 0x0 SWAP1 POP JUMPDEST SWAP2 SWAP1 POP JUMP JUMPDEST POP DUP1 SLOAD PUSH1 0x0 DUP3 SSTORE PUSH1 0x3 MUL SWAP1 PUSH1 0x0 MSTORE PUSH1 0x20 PUSH1 0x0 KECCAK256 SWAP1 DUP2 ADD SWAP1 PUSH2 0xF4A SWAP2 SWAP1 PUSH2 0xF84 JUMP JUMPDEST POP JUMP JUMPDEST PUSH1 0x40 MLOAD DUP1 PUSH1 0x60 ADD PUSH1 0x40 MSTORE DUP1 PUSH1 0x0 PUSH20 0xFFFFFFFFFFFFFFFFFFFFFFFFFFFFFFFFFFFFFFFF AND DUP2 MSTORE PUSH1 0x20 ADD PUSH1 0x0 DUP2 MSTORE PUSH1 0x20 ADD PUSH1 0x0 DUP2 MSTORE POP SWAP1 JUMP JUMPDEST JUMPDEST DUP1 DUP3 GT ISZERO PUSH2 0xFCE JUMPI PUSH1 0x0 DUP1 DUP3 ADD PUSH1 0x0 PUSH2 0x100 EXP DUP2 SLOAD SWAP1 PUSH20 0xFFFFFFFFFFFFFFFFFFFFFFFFFFFFFFFFFFFFFFFF MUL NOT AND SWAP1 SSTORE PUSH1 0x1 DUP3 ADD PUSH1 0x0 SWAP1 SSTORE PUSH1 0x2 DUP3 ADD PUSH1 0x0 SWAP1 SSTORE POP PUSH1 0x3 ADD PUSH2 0xF85 JUMP JUMPDEST POP SWAP1 JUMP JUMPDEST PUSH1 0x0 DUP2 SWAP1 POP SWAP2 SWAP1 POP JUMP JUMPDEST PUSH2 0xFE5 DUP2 PUSH2 0xFD2 JUMP JUMPDEST DUP3 MSTORE POP POP JUMP JUMPDEST PUSH1 0x0 PUSH1 0x20 DUP3 ADD SWAP1 POP PUSH2 0x1000 PUSH1 0x0 DUP4 ADD DUP5 PUSH2 0xFDC JUMP JUMPDEST SWAP3 SWAP2 POP POP JUMP JUMPDEST PUSH1 0x0 PUSH1 0x40 MLOAD SWAP1 POP SWAP1 JUMP JUMPDEST PUSH1 0x0 DUP1 REVERT JUMPDEST PUSH1 0x0 DUP1 REVERT JUMPDEST PUSH1 0x0 DUP1 REVERT JUMPDEST PUSH1 0x0 PUSH1 0x1F NOT PUSH1 0x1F DUP4 ADD AND SWAP1 POP SWAP2 SWAP1 POP JUMP JUMPDEST PUSH32 0x4E487B7100000000000000000000000000000000000000000000000000000000 PUSH1 0x0 MSTORE PUSH1 0x41 PUSH1 0x4 MSTORE PUSH1 0x24 PUSH1 0x0 REVERT JUMPDEST PUSH2 0x1068 DUP3 PUSH2 0x101F JUMP JUMPDEST DUP2 ADD DUP2 DUP2 LT PUSH8 0xFFFFFFFFFFFFFFFF DUP3 GT OR ISZERO PUSH2 0x1087 JUMPI PUSH2 0x1086 PUSH2 0x1030 JUMP JUMPDEST JUMPDEST DUP1 PUSH1 0x40 MSTORE POP POP POP JUMP JUMPDEST PUSH1 0x0 PUSH2 0x109A PUSH2 0x1006 JUMP JUMPDEST SWAP1 POP PUSH2 0x10A6 DUP3 DUP3 PUSH2 0x105F JUMP JUMPDEST SWAP2 SWAP1 POP JUMP JUMPDEST PUSH1 0x0 PUSH8 0xFFFFFFFFFFFFFFFF DUP3 GT ISZERO PUSH2 0x10C6 JUMPI PUSH2 0x10C5 PUSH2 0x1030 JUMP JUMPDEST JUMPDEST PUSH1 0x20 DUP3 MUL SWAP1 POP PUSH1 0x20 DUP2 ADD SWAP1 POP SWAP2 SWAP1 POP JUMP JUMPDEST PUSH1 0x0 DUP1 REVERT JUMPDEST PUSH1 0x0 DUP1 REVERT JUMPDEST PUSH1 0x0 PUSH20 0xFFFFFFFFFFFFFFFFFFFFFFFFFFFFFFFFFFFFFFFF DUP3 AND SWAP1 POP SWAP2 SWAP1 POP JUMP JUMPDEST PUSH1 0x0 PUSH2 0x110C DUP3 PUSH2 0x10E1 JUMP JUMPDEST SWAP1 POP SWAP2 SWAP1 POP JUMP JUMPDEST PUSH2 0x111C DUP2 PUSH2 0x1101 JUMP JUMPDEST DUP2 EQ PUSH2 0x1127 JUMPI PUSH1 0x0 DUP1 REVERT JUMPDEST POP JUMP JUMPDEST PUSH1 0x0 DUP2 CALLDATALOAD SWAP1 POP PUSH2 0x1139 DUP2 PUSH2 0x1113 JUMP JUMPDEST SWAP3 SWAP2 POP POP JUMP JUMPDEST PUSH2 0x1148 DUP2 PUSH2 0xFD2 JUMP JUMPDEST DUP2 EQ PUSH2 0x1153 JUMPI PUSH1 0x0 DUP1 REVERT JUMPDEST POP JUMP JUMPDEST PUSH1 0x0 DUP2 CALLDATALOAD SWAP1 POP PUSH2 0x1165 DUP2 PUSH2 0x113F JUMP JUMPDEST SWAP3 SWAP2 POP POP JUMP JUMPDEST PUSH1 0x0 PUSH1 0x60 DUP3 DUP5 SUB SLT ISZERO PUSH2 0x1181 JUMPI PUSH2 0x1180 PUSH2 0x10DC JUMP JUMPDEST JUMPDEST PUSH2 0x118B PUSH1 0x60 PUSH2 0x1090 JUMP JUMPDEST SWAP1 POP PUSH1 0x0 PUSH2 0x119B DUP5 DUP3 DUP6 ADD PUSH2 0x112A JUMP JUMPDEST PUSH1 0x0 DUP4 ADD MSTORE POP PUSH1 0x20 PUSH2 0x11AF DUP5 DUP3 DUP6 ADD PUSH2 0x1156 JUMP JUMPDEST PUSH1 0x20 DUP4 ADD MSTORE POP PUSH1 0x40 PUSH2 0x11C3 DUP5 DUP3 DUP6 ADD PUSH2 0x1156 JUMP JUMPDEST PUSH1 0x40 DUP4 ADD MSTORE POP SWAP3 SWAP2 POP POP JUMP JUMPDEST PUSH1 0x0 PUSH2 0x11E2 PUSH2 0x11DD DUP5 PUSH2 0x10AB JUMP JUMPDEST PUSH2 0x1090 JUMP JUMPDEST SWAP1 POP DUP1 DUP4 DUP3 MSTORE PUSH1 0x20 DUP3 ADD SWAP1 POP PUSH1 0x60 DUP5 MUL DUP4 ADD DUP6 DUP2 GT ISZERO PUSH2 0x1205 JUMPI PUSH2 0x1204 PUSH2 0x10D7 JUMP JUMPDEST JUMPDEST DUP4 JUMPDEST DUP2 DUP2 LT ISZERO PUSH2 0x122E JUMPI DUP1 PUSH2 0x121A DUP9 DUP3 PUSH2 0x116B JUMP JUMPDEST DUP5 MSTORE PUSH1 0x20 DUP5 ADD SWAP4 POP POP PUSH1 0x60 DUP2 ADD SWAP1 POP PUSH2 0x1207 JUMP JUMPDEST POP POP POP SWAP4 SWAP3 POP POP POP JUMP JUMPDEST PUSH1 0x0 DUP3 PUSH1 0x1F DUP4 ADD SLT PUSH2 0x124D JUMPI PUSH2 0x124C PUSH2 0x101A JUMP JUMPDEST JUMPDEST DUP2 CALLDATALOAD PUSH2 0x125D DUP5 DUP3 PUSH1 0x20 DUP7 ADD PUSH2 0x11CF JUMP JUMPDEST SWAP2 POP POP SWAP3 SWAP2 POP POP JUMP JUMPDEST PUSH1 0x0 PUSH1 0x20 DUP3 DUP5 SUB SLT ISZERO PUSH2 0x127C JUMPI PUSH2 0x127B PUSH2 0x1010 JUMP JUMPDEST JUMPDEST PUSH1 0x0 DUP3 ADD CALLDATALOAD PUSH8 0xFFFFFFFFFFFFFFFF DUP2 GT ISZERO PUSH2 0x129A JUMPI PUSH2 0x1299 PUSH2 0x1015 JUMP JUMPDEST JUMPDEST PUSH2 0x12A6 DUP5 DUP3 DUP6 ADD PUSH2 0x1238 JUMP JUMPDEST SWAP2 POP POP SWAP3 SWAP2 POP POP JUMP JUMPDEST PUSH1 0x0 DUP2 MLOAD SWAP1 POP SWAP2 SWAP1 POP JUMP JUMPDEST PUSH1 0x0 DUP3 DUP3 MSTORE PUSH1 0x20 DUP3 ADD SWAP1 POP SWAP3 SWAP2 POP POP JUMP JUMPDEST PUSH1 0x0 JUMPDEST DUP4 DUP2 LT ISZERO PUSH2 0x12E9 JUMPI DUP1 DUP3 ADD MLOAD DUP2 DUP5 ADD MSTORE PUSH1 0x20 DUP2 ADD SWAP1 POP PUSH2 0x12CE JUMP JUMPDEST PUSH1 0x0 DUP5 DUP5 ADD MSTORE POP POP POP POP JUMP JUMPDEST PUSH1 0x0 PUSH2 0x1300 DUP3 PUSH2 0x12AF JUMP JUMPDEST PUSH2 0x130A DUP2 DUP6 PUSH2 0x12BA JUMP JUMPDEST SWAP4 POP PUSH2 0x131A DUP2 DUP6 PUSH1 0x20 DUP7 ADD PUSH2 0x12CB JUMP JUMPDEST PUSH2 0x1323 DUP2 PUSH2 0x101F JUMP JUMPDEST DUP5 ADD SWAP2 POP POP SWAP3 SWAP2 POP POP JUMP JUMPDEST PUSH1 0x0 PUSH1 0x20 DUP3 ADD SWAP1 POP DUP2 DUP2 SUB PUSH1 0x0 DUP4 ADD MSTORE PUSH2 0x1348 DUP2 DUP5 PUSH2 0x12F5 JUMP JUMPDEST SWAP1 POP SWAP3 SWAP2 POP POP JUMP JUMPDEST PUSH1 0x0 PUSH1 0x20 DUP3 DUP5 SUB SLT ISZERO PUSH2 0x1366 JUMPI PUSH2 0x1365 PUSH2 0x1010 JUMP JUMPDEST JUMPDEST PUSH1 0x0 PUSH2 0x1374 DUP5 DUP3 DUP6 ADD PUSH2 0x112A JUMP JUMPDEST SWAP2 POP POP SWAP3 SWAP2 POP POP JUMP JUMPDEST PUSH2 0x1386 DUP2 PUSH2 0x1101 JUMP JUMPDEST DUP3 MSTORE POP POP JUMP JUMPDEST PUSH1 0x0 DUP2 SWAP1 POP SWAP2 SWAP1 POP JUMP JUMPDEST PUSH2 0x139F DUP2 PUSH2 0x138C JUMP JUMPDEST DUP3 MSTORE POP POP JUMP JUMPDEST PUSH1 0x0 PUSH1 0x60 DUP3 ADD SWAP1 POP PUSH2 0x13BA PUSH1 0x0 DUP4 ADD DUP7 PUSH2 0x137D JUMP JUMPDEST PUSH2 0x13C7 PUSH1 0x20 DUP4 ADD DUP6 PUSH2 0xFDC JUMP JUMPDEST PUSH2 0x13D4 PUSH1 0x40 DUP4 ADD DUP5 PUSH2 0x1396 JUMP JUMPDEST SWAP5 SWAP4 POP POP POP POP JUMP JUMPDEST PUSH1 0x0 DUP2 SWAP1 POP SWAP2 SWAP1 POP JUMP JUMPDEST PUSH2 0x13EF DUP2 PUSH2 0x13DC JUMP JUMPDEST DUP3 MSTORE POP POP JUMP JUMPDEST PUSH1 0x0 PUSH1 0x20 DUP3 ADD SWAP1 POP PUSH2 0x140A PUSH1 0x0 DUP4 ADD DUP5 PUSH2 0x13E6 JUMP JUMPDEST SWAP3 SWAP2 POP POP JUMP JUMPDEST PUSH2 0x1419 DUP2 PUSH2 0x13DC JUMP JUMPDEST DUP2 EQ PUSH2 0x1424 JUMPI PUSH1 0x0 DUP1 REVERT JUMPDEST POP JUMP JUMPDEST PUSH1 0x0 DUP2 CALLDATALOAD SWAP1 POP PUSH2 0x1436 DUP2 PUSH2 0x1410 JUMP JUMPDEST SWAP3 SWAP2 POP POP JUMP JUMPDEST PUSH1 0x0 DUP1 REVERT JUMPDEST PUSH1 0x0 PUSH8 0xFFFFFFFFFFFFFFFF DUP3 GT ISZERO PUSH2 0x145C JUMPI PUSH2 0x145B PUSH2 0x1030 JUMP JUMPDEST JUMPDEST PUSH2 0x1465 DUP3 PUSH2 0x101F JUMP JUMPDEST SWAP1 POP PUSH1 0x20 DUP2 ADD SWAP1 POP SWAP2 SWAP1 POP JUMP JUMPDEST DUP3 DUP2 DUP4 CALLDATACOPY PUSH1 0x0 DUP4 DUP4 ADD MSTORE POP POP POP JUMP JUMPDEST PUSH1 0x0 PUSH2 0x1494 PUSH2 0x148F DUP5 PUSH2 0x1441 JUMP JUMPDEST PUSH2 0x1090 JUMP JUMPDEST SWAP1 POP DUP3 DUP2 MSTORE PUSH1 0x20 DUP2 ADD DUP5 DUP5 DUP5 ADD GT ISZERO PUSH2 0x14B0 JUMPI PUSH2 0x14AF PUSH2 0x143C JUMP JUMPDEST JUMPDEST PUSH2 0x14BB DUP5 DUP3 DUP6 PUSH2 0x1472 JUMP JUMPDEST POP SWAP4 SWAP3 POP POP POP JUMP JUMPDEST PUSH1 0x0 DUP3 PUSH1 0x1F DUP4 ADD SLT PUSH2 0x14D8 JUMPI PUSH2 0x14D7 PUSH2 0x101A JUMP JUMPDEST JUMPDEST DUP2 CALLDATALOAD PUSH2 0x14E8 DUP5 DUP3 PUSH1 0x20 DUP7 ADD PUSH2 0x1481 JUMP JUMPDEST SWAP2 POP POP SWAP3 SWAP2 POP POP JUMP JUMPDEST PUSH1 0x0 DUP1 PUSH1 0x40 DUP4 DUP6 SUB SLT ISZERO PUSH2 0x1508 JUMPI PUSH2 0x1507 PUSH2 0x1010 JUMP JUMPDEST JUMPDEST PUSH1 0x0 PUSH2 0x1516 DUP6 DUP3 DUP7 ADD PUSH2 0x1427 JUMP JUMPDEST SWAP3 POP POP PUSH1 0x20 DUP4 ADD CALLDATALOAD PUSH8 0xFFFFFFFFFFFFFFFF DUP2 GT ISZERO PUSH2 0x1537 JUMPI PUSH2 0x1536 PUSH2 0x1015 JUMP JUMPDEST JUMPDEST PUSH2 0x1543 DUP6 DUP3 DUP7 ADD PUSH2 0x14C3 JUMP JUMPDEST SWAP2 POP POP SWAP3 POP SWAP3 SWAP1 POP JUMP JUMPDEST PUSH2 0x1556 DUP2 PUSH2 0x1101 JUMP JUMPDEST DUP3 MSTORE POP POP JUMP JUMPDEST PUSH2 0x1565 DUP2 PUSH2 0xFD2 JUMP JUMPDEST DUP3 MSTORE POP POP JUMP JUMPDEST PUSH2 0x1574 DUP2 PUSH2 0x138C JUMP JUMPDEST DUP3 MSTORE POP POP JUMP JUMPDEST PUSH1 0x60 DUP3 ADD PUSH1 0x0 DUP3 ADD MLOAD PUSH2 0x1590 PUSH1 0x0 DUP6 ADD DUP3 PUSH2 0x154D JUMP JUMPDEST POP PUSH1 0x20 DUP3 ADD MLOAD PUSH2 0x15A3 PUSH1 0x20 DUP6 ADD DUP3 PUSH2 0x155C JUMP JUMPDEST POP PUSH1 0x40 DUP3 ADD MLOAD PUSH2 0x15B6 PUSH1 0x40 DUP6 ADD DUP3 PUSH2 0x156B JUMP JUMPDEST POP POP POP POP JUMP JUMPDEST PUSH1 0x0 PUSH1 0x60 DUP3 ADD SWAP1 POP PUSH2 0x15D1 PUSH1 0x0 DUP4 ADD DUP5 PUSH2 0x157A JUMP JUMPDEST SWAP3 SWAP2 POP POP JUMP JUMPDEST PUSH1 0x0 DUP1 PUSH1 0x40 DUP4 DUP6 SUB SLT ISZERO PUSH2 0x15EE JUMPI PUSH2 0x15ED PUSH2 0x1010 JUMP JUMPDEST JUMPDEST PUSH1 0x0 PUSH2 0x15FC DUP6 DUP3 DUP7 ADD PUSH2 0x1156 JUMP JUMPDEST SWAP3 POP POP PUSH1 0x20 PUSH2 0x160D DUP6 DUP3 DUP7 ADD PUSH2 0x112A JUMP JUMPDEST SWAP2 POP POP SWAP3 POP SWAP3 SWAP1 POP JUMP JUMPDEST PUSH1 0x0 DUP2 ISZERO ISZERO SWAP1 POP SWAP2 SWAP1 POP JUMP JUMPDEST PUSH2 0x162C DUP2 PUSH2 0x1617 JUMP JUMPDEST DUP3 MSTORE POP POP JUMP JUMPDEST PUSH1 0x0 PUSH1 0x20 DUP3 ADD SWAP1 POP PUSH2 0x1647 PUSH1 0x0 DUP4 ADD DUP5 PUSH2 0x1623 JUMP JUMPDEST SWAP3 SWAP2 POP POP JUMP JUMPDEST PUSH1 0x0 DUP2 MLOAD SWAP1 POP SWAP2 SWAP1 POP JUMP JUMPDEST PUSH1 0x0 DUP3 DUP3 MSTORE PUSH1 0x20 DUP3 ADD SWAP1 POP SWAP3 SWAP2 POP POP JUMP JUMPDEST PUSH1 0x0 DUP2 SWAP1 POP PUSH1 0x20 DUP3 ADD SWAP1 POP SWAP2 SWAP1 POP JUMP JUMPDEST PUSH1 0x60 DUP3 ADD PUSH1 0x0 DUP3 ADD MLOAD PUSH2 0x168F PUSH1 0x0 DUP6 ADD DUP3 PUSH2 0x154D JUMP JUMPDEST POP PUSH1 0x20 DUP3 ADD MLOAD PUSH2 0x16A2 PUSH1 0x20 DUP6 ADD DUP3 PUSH2 0x155C JUMP JUMPDEST POP PUSH1 0x40 DUP3 ADD MLOAD PUSH2 0x16B5 PUSH1 0x40 DUP6 ADD DUP3 PUSH2 0x155C JUMP JUMPDEST POP POP POP POP JUMP JUMPDEST PUSH1 0x0 PUSH2 0x16C7 DUP4 DUP4 PUSH2 0x1679 JUMP JUMPDEST PUSH1 0x60 DUP4 ADD SWAP1 POP SWAP3 SWAP2 POP POP JUMP JUMPDEST PUSH1 0x0 PUSH1 0x20 DUP3 ADD SWAP1 POP SWAP2 SWAP1 POP JUMP JUMPDEST PUSH1 0x0 PUSH2 0x16EB DUP3 PUSH2 0x164D JUMP JUMPDEST PUSH2 0x16F5 DUP2 DUP6 PUSH2 0x1658 JUMP JUMPDEST SWAP4 POP PUSH2 0x1700 DUP4 PUSH2 0x1669 JUMP JUMPDEST DUP1 PUSH1 0x0 JUMPDEST DUP4 DUP2 LT ISZERO PUSH2 0x1731 JUMPI DUP2 MLOAD PUSH2 0x1718 DUP9 DUP3 PUSH2 0x16BB JUMP JUMPDEST SWAP8 POP PUSH2 0x1723 DUP4 PUSH2 0x16D3 JUMP JUMPDEST SWAP3 POP POP PUSH1 0x1 DUP2 ADD SWAP1 POP PUSH2 0x1704 JUMP JUMPDEST POP DUP6 SWAP4 POP POP POP POP SWAP3 SWAP2 POP POP JUMP JUMPDEST PUSH1 0x0 PUSH1 0x20 DUP3 ADD SWAP1 POP DUP2 DUP2 SUB PUSH1 0x0 DUP4 ADD MSTORE PUSH2 0x1758 DUP2 DUP5 PUSH2 0x16E0 JUMP JUMPDEST SWAP1 POP SWAP3 SWAP2 POP POP JUMP JUMPDEST PUSH1 0x0 PUSH1 0x20 DUP3 ADD SWAP1 POP PUSH2 0x1775 PUSH1 0x0 DUP4 ADD DUP5 PUSH2 0x1396 JUMP JUMPDEST SWAP3 SWAP2 POP POP JUMP JUMPDEST PUSH2 0x1784 DUP2 PUSH2 0x138C JUMP JUMPDEST DUP2 EQ PUSH2 0x178F JUMPI PUSH1 0x0 DUP1 REVERT JUMPDEST POP JUMP JUMPDEST PUSH1 0x0 DUP2 CALLDATALOAD SWAP1 POP PUSH2 0x17A1 DUP2 PUSH2 0x177B JUMP JUMPDEST SWAP3 SWAP2 POP POP JUMP JUMPDEST PUSH1 0x0 PUSH1 0x20 DUP3 DUP5 SUB SLT ISZERO PUSH2 0x17BD JUMPI PUSH2 0x17BC PUSH2 0x1010 JUMP JUMPDEST JUMPDEST PUSH1 0x0 PUSH2 0x17CB DUP5 DUP3 DUP6 ADD PUSH2 0x1792 JUMP JUMPDEST SWAP2 POP POP SWAP3 SWAP2 POP POP JUMP JUMPDEST PUSH1 0x0 PUSH1 0x60 DUP3 ADD SWAP1 POP PUSH2 0x17E9 PUSH1 0x0 DUP4 ADD DUP7 PUSH2 0x137D JUMP JUMPDEST PUSH2 0x17F6 PUSH1 0x20 DUP4 ADD DUP6 PUSH2 0xFDC JUMP JUMPDEST PUSH2 0x1803 PUSH1 0x40 DUP4 ADD DUP5 PUSH2 0xFDC JUMP JUMPDEST SWAP5 SWAP4 POP POP POP POP JUMP JUMPDEST PUSH1 0x0 PUSH8 0xFFFFFFFFFFFFFFFF DUP3 GT ISZERO PUSH2 0x1826 JUMPI PUSH2 0x1825 PUSH2 0x1030 JUMP JUMPDEST JUMPDEST PUSH1 0x20 DUP3 MUL SWAP1 POP PUSH1 0x20 DUP2 ADD SWAP1 POP SWAP2 SWAP1 POP JUMP JUMPDEST PUSH1 0x0 PUSH2 0x184A PUSH2 0x1845 DUP5 PUSH2 0x180B JUMP JUMPDEST PUSH2 0x1090 JUMP JUMPDEST SWAP1 POP DUP1 DUP4 DUP3 MSTORE PUSH1 0x20 DUP3 ADD SWAP1 POP PUSH1 0x20 DUP5 MUL DUP4 ADD DUP6 DUP2 GT ISZERO PUSH2 0x186D JUMPI PUSH2 0x186C PUSH2 0x10D7 JUMP JUMPDEST JUMPDEST DUP4 JUMPDEST DUP2 DUP2 LT ISZERO PUSH2 0x1896 JUMPI DUP1 PUSH2 0x1882 DUP9 DUP3 PUSH2 0x1156 JUMP JUMPDEST DUP5 MSTORE PUSH1 0x20 DUP5 ADD SWAP4 POP POP PUSH1 0x20 DUP2 ADD SWAP1 POP PUSH2 0x186F JUMP JUMPDEST POP POP POP SWAP4 SWAP3 POP POP POP JUMP JUMPDEST PUSH1 0x0 DUP3 PUSH1 0x1F DUP4 ADD SLT PUSH2 0x18B5 JUMPI PUSH2 0x18B4 PUSH2 0x101A JUMP JUMPDEST JUMPDEST DUP2 CALLDATALOAD PUSH2 0x18C5 DUP5 DUP3 PUSH1 0x20 DUP7 ADD PUSH2 0x1837 JUMP JUMPDEST SWAP2 POP POP SWAP3 SWAP2 POP POP JUMP JUMPDEST PUSH1 0x0 PUSH1 0x20 DUP3 DUP5 SUB SLT ISZERO PUSH2 0x18E4 JUMPI PUSH2 0x18E3 PUSH2 0x1010 JUMP JUMPDEST JUMPDEST PUSH1 0x0 DUP3 ADD CALLDATALOAD PUSH8 0xFFFFFFFFFFFFFFFF DUP2 GT ISZERO PUSH2 0x1902 JUMPI PUSH2 0x1901 PUSH2 0x1015 JUMP JUMPDEST JUMPDEST PUSH2 0x190E DUP5 DUP3 DUP6 ADD PUSH2 0x18A0 JUMP JUMPDEST SWAP2 POP POP SWAP3 SWAP2 POP POP JUMP JUMPDEST PUSH1 0x0 DUP2 MLOAD SWAP1 POP SWAP2 SWAP1 POP JUMP JUMPDEST PUSH1 0x0 DUP3 DUP3 MSTORE PUSH1 0x20 DUP3 ADD SWAP1 POP SWAP3 SWAP2 POP POP JUMP JUMPDEST PUSH1 0x0 PUSH2 0x193E DUP3 PUSH2 0x1917 JUMP JUMPDEST PUSH2 0x1948 DUP2 DUP6 PUSH2 0x1922 JUMP JUMPDEST SWAP4 POP PUSH2 0x1958 DUP2 DUP6 PUSH1 0x20 DUP7 ADD PUSH2 0x12CB JUMP JUMPDEST PUSH2 0x1961 DUP2 PUSH2 0x101F JUMP JUMPDEST DUP5 ADD SWAP2 POP POP SWAP3 SWAP2 POP POP JUMP JUMPDEST PUSH1 0x0 PUSH1 0x20 DUP3 ADD SWAP1 POP DUP2 DUP2 SUB PUSH1 0x0 DUP4 ADD MSTORE PUSH2 0x1986 DUP2 DUP5 PUSH2 0x1933 JUMP JUMPDEST SWAP1 POP SWAP3 SWAP2 POP POP JUMP JUMPDEST PUSH32 0x4E487B7100000000000000000000000000000000000000000000000000000000 PUSH1 0x0 MSTORE PUSH1 0x32 PUSH1 0x4 MSTORE PUSH1 0x24 PUSH1 0x0 REVERT JUMPDEST PUSH32 0x4E487B7100000000000000000000000000000000000000000000000000000000 PUSH1 0x0 MSTORE PUSH1 0x22 PUSH1 0x4 MSTORE PUSH1 0x24 PUSH1 0x0 REVERT JUMPDEST PUSH1 0x0 PUSH1 0x2 DUP3 DIV SWAP1 POP PUSH1 0x1 DUP3 AND DUP1 PUSH2 0x1A04 JUMPI PUSH1 0x7F DUP3 AND SWAP2 POP JUMPDEST PUSH1 0x20 DUP3 LT DUP2 SUB PUSH2 0x1A17 JUMPI PUSH2 0x1A16 PUSH2 0x19BD JUMP JUMPDEST JUMPDEST POP SWAP2 SWAP1 POP JUMP JUMPDEST PUSH1 0x0 DUP2 SWAP1 POP DUP2 PUSH1 0x0 MSTORE PUSH1 0x20 PUSH1 0x0 KECCAK256 SWAP1 POP SWAP2 SWAP1 POP JUMP JUMPDEST PUSH1 0x0 PUSH1 0x20 PUSH1 0x1F DUP4 ADD DIV SWAP1 POP SWAP2 SWAP1 POP JUMP JUMPDEST PUSH1 0x0 DUP3 DUP3 SHL SWAP1 POP SWAP3 SWAP2 POP POP JUMP JUMPDEST PUSH1 0x0 PUSH1 0x8 DUP4 MUL PUSH2 0x1A7F PUSH32 0xFFFFFFFFFFFFFFFFFFFFFFFFFFFFFFFFFFFFFFFFFFFFFFFFFFFFFFFFFFFFFFFF DUP3 PUSH2 0x1A42 JUMP JUMPDEST PUSH2 0x1A89 DUP7 DUP4 PUSH2 0x1A42 JUMP JUMPDEST SWAP6 POP DUP1 NOT DUP5 AND SWAP4 POP DUP1 DUP7 AND DUP5 OR SWAP3 POP POP POP SWAP4 SWAP3 POP POP POP JUMP JUMPDEST PUSH1 0x0 DUP2 SWAP1 POP SWAP2 SWAP1 POP JUMP JUMPDEST PUSH1 0x0 PUSH2 0x1AC6 PUSH2 0x1AC1 PUSH2 0x1ABC DUP5 PUSH2 0x138C JUMP JUMPDEST PUSH2 0x1AA1 JUMP JUMPDEST PUSH2 0x138C JUMP JUMPDEST SWAP1 POP SWAP2 SWAP1 POP JUMP JUMPDEST PUSH1 0x0 DUP2 SWAP1 POP SWAP2 SWAP1 POP JUMP JUMPDEST PUSH2 0x1AE0 DUP4 PUSH2 0x1AAB JUMP JUMPDEST PUSH2 0x1AF4 PUSH2 0x1AEC DUP3 PUSH2 0x1ACD JUMP JUMPDEST DUP5 DUP5 SLOAD PUSH2 0x1A4F JUMP JUMPDEST DUP3 SSTORE POP POP POP POP JUMP JUMPDEST PUSH1 0x0 SWAP1 JUMP JUMPDEST PUSH2 0x1B09 PUSH2 0x1AFC JUMP JUMPDEST PUSH2 0x1B14 DUP2 DUP5 DUP5 PUSH2 0x1AD7 JUMP JUMPDEST POP POP POP JUMP JUMPDEST JUMPDEST DUP2 DUP2 LT ISZERO PUSH2 0x1B38 JUMPI PUSH2 0x1B2D PUSH1 0x0 DUP3 PUSH2 0x1B01 JUMP JUMPDEST PUSH1 0x1 DUP2 ADD SWAP1 POP PUSH2 0x1B1A JUMP JUMPDEST POP POP JUMP JUMPDEST PUSH1 0x1F DUP3 GT ISZERO PUSH2 0x1B7D JUMPI PUSH2 0x1B4E DUP2 PUSH2 0x1A1D JUMP JUMPDEST PUSH2 0x1B57 DUP5 PUSH2 0x1A32 JUMP JUMPDEST DUP2 ADD PUSH1 0x20 DUP6 LT ISZERO PUSH2 0x1B66 JUMPI DUP2 SWAP1 POP JUMPDEST PUSH2 0x1B7A PUSH2 0x1B72 DUP6 PUSH2 0x1A32 JUMP JUMPDEST DUP4 ADD DUP3 PUSH2 0x1B19 JUMP JUMPDEST POP POP JUMPDEST POP POP POP JUMP JUMPDEST PUSH1 0x0 DUP3 DUP3 SHR SWAP1 POP SWAP3 SWAP2 POP POP JUMP JUMPDEST PUSH1 0x0 PUSH2 0x1BA0 PUSH1 0x0 NOT DUP5 PUSH1 0x8 MUL PUSH2 0x1B82 JUMP JUMPDEST NOT DUP1 DUP4 AND SWAP2 POP POP SWAP3 SWAP2 POP POP JUMP JUMPDEST PUSH1 0x0 PUSH2 0x1BB9 DUP4 DUP4 PUSH2 0x1B8F JUMP JUMPDEST SWAP2 POP DUP3 PUSH1 0x2 MUL DUP3 OR SWAP1 POP SWAP3 SWAP2 POP POP JUMP JUMPDEST PUSH2 0x1BD2 DUP3 PUSH2 0x1917 JUMP JUMPDEST PUSH8 0xFFFFFFFFFFFFFFFF DUP2 GT ISZERO PUSH2 0x1BEB JUMPI PUSH2 0x1BEA PUSH2 0x1030 JUMP JUMPDEST JUMPDEST PUSH2 0x1BF5 DUP3 SLOAD PUSH2 0x19EC JUMP JUMPDEST PUSH2 0x1C00 DUP3 DUP3 DUP6 PUSH2 0x1B3C JUMP JUMPDEST PUSH1 0x0 PUSH1 0x20 SWAP1 POP PUSH1 0x1F DUP4 GT PUSH1 0x1 DUP2 EQ PUSH2 0x1C33 JUMPI PUSH1 0x0 DUP5 ISZERO PUSH2 0x1C21 JUMPI DUP3 DUP8 ADD MLOAD SWAP1 POP JUMPDEST PUSH2 0x1C2B DUP6 DUP3 PUSH2 0x1BAD JUMP JUMPDEST DUP7 SSTORE POP PUSH2 0x1C93 JUMP JUMPDEST PUSH1 0x1F NOT DUP5 AND PUSH2 0x1C41 DUP7 PUSH2 0x1A1D JUMP JUMPDEST PUSH1 0x0 JUMPDEST DUP3 DUP2 LT ISZERO PUSH2 0x1C69 JUMPI DUP5 DUP10 ADD MLOAD DUP3 SSTORE PUSH1 0x1 DUP3 ADD SWAP2 POP PUSH1 0x20 DUP6 ADD SWAP5 POP PUSH1 0x20 DUP2 ADD SWAP1 POP PUSH2 0x1C44 JUMP JUMPDEST DUP7 DUP4 LT ISZERO PUSH2 0x1C86 JUMPI DUP5 DUP10 ADD MLOAD PUSH2 0x1C82 PUSH1 0x1F DUP10 AND DUP3 PUSH2 0x1B8F JUMP JUMPDEST DUP4 SSTORE POP JUMPDEST PUSH1 0x1 PUSH1 0x2 DUP9 MUL ADD DUP9 SSTORE POP POP POP JUMPDEST POP POP POP POP POP POP JUMP JUMPDEST PUSH32 0x5468652063616D706169676E206973206E6F742076616C696400000000000000 PUSH1 0x0 DUP3 ADD MSTORE POP JUMP JUMPDEST PUSH1 0x0 PUSH2 0x1CD1 PUSH1 0x19 DUP4 PUSH2 0x12BA JUMP JUMPDEST SWAP2 POP PUSH2 0x1CDC DUP3 PUSH2 0x1C9B JUMP JUMPDEST PUSH1 0x20 DUP3 ADD SWAP1 POP SWAP2 SWAP1 POP JUMP JUMPDEST PUSH1 0x0 PUSH1 0x20 DUP3 ADD SWAP1 POP DUP2 DUP2 SUB PUSH1 0x0 DUP4 ADD MSTORE PUSH2 0x1D00 DUP2 PUSH2 0x1CC4 JUMP JUMPDEST SWAP1 POP SWAP2 SWAP1 POP JUMP JUMPDEST PUSH32 0x5468652063616D706169676E20697320636C6F73656400000000000000000000 PUSH1 0x0 DUP3 ADD MSTORE POP JUMP JUMPDEST PUSH1 0x0 PUSH2 0x1D3D PUSH1 0x16 DUP4 PUSH2 0x12BA JUMP JUMPDEST SWAP2 POP PUSH2 0x1D48 DUP3 PUSH2 0x1D07 JUMP JUMPDEST PUSH1 0x20 DUP3 ADD SWAP1 POP SWAP2 SWAP1 POP JUMP JUMPDEST PUSH1 0x0 PUSH1 0x20 DUP3 ADD SWAP1 POP DUP2 DUP2 SUB PUSH1 0x0 DUP4 ADD MSTORE PUSH2 0x1D6C DUP2 PUSH2 0x1D30 JUMP JUMPDEST SWAP1 POP SWAP2 SWAP1 POP JUMP JUMPDEST PUSH32 0x50726F6475636572206E6F742072656769737465726564000000000000000000 PUSH1 0x0 DUP3 ADD MSTORE POP JUMP JUMPDEST PUSH1 0x0 PUSH2 0x1DA9 PUSH1 0x17 DUP4 PUSH2 0x12BA JUMP JUMPDEST SWAP2 POP PUSH2 0x1DB4 DUP3 PUSH2 0x1D73 JUMP JUMPDEST PUSH1 0x20 DUP3 ADD SWAP1 POP SWAP2 SWAP1 POP JUMP JUMPDEST PUSH1 0x0 PUSH1 0x20 DUP3 ADD SWAP1 POP DUP2 DUP2 SUB PUSH1 0x0 DUP4 ADD MSTORE PUSH2 0x1DD8 DUP2 PUSH2 0x1D9C JUMP JUMPDEST SWAP1 POP SWAP2 SWAP1 POP JUMP JUMPDEST PUSH32 0x4E487B7100000000000000000000000000000000000000000000000000000000 PUSH1 0x0 MSTORE PUSH1 0x11 PUSH1 0x4 MSTORE PUSH1 0x24 PUSH1 0x0 REVERT JUMPDEST PUSH1 0x0 PUSH2 0x1E19 DUP3 PUSH2 0x138C JUMP JUMPDEST SWAP2 POP PUSH32 0xFFFFFFFFFFFFFFFFFFFFFFFFFFFFFFFFFFFFFFFFFFFFFFFFFFFFFFFFFFFFFFFF DUP3 SUB PUSH2 0x1E4B JUMPI PUSH2 0x1E4A PUSH2 0x1DDF JUMP JUMPDEST JUMPDEST PUSH1 0x1 DUP3 ADD SWAP1 POP SWAP2 SWAP1 POP JUMP JUMPDEST PUSH32 0x496E73756666696369656E742062756467657400000000000000000000000000 PUSH1 0x0 DUP3 ADD MSTORE POP JUMP JUMPDEST PUSH1 0x0 PUSH2 0x1E8C PUSH1 0x13 DUP4 PUSH2 0x12BA JUMP JUMPDEST SWAP2 POP PUSH2 0x1E97 DUP3 PUSH2 0x1E56 JUMP JUMPDEST PUSH1 0x20 DUP3 ADD SWAP1 POP SWAP2 SWAP1 POP JUMP JUMPDEST PUSH1 0x0 PUSH1 0x20 DUP3 ADD SWAP1 POP DUP2 DUP2 SUB PUSH1 0x0 DUP4 ADD MSTORE PUSH2 0x1EBB DUP2 PUSH2 0x1E7F JUMP JUMPDEST SWAP1 POP SWAP2 SWAP1 POP JUMP JUMPDEST PUSH32 0x596F7520646F6E2774206861766520746F2070617920616E796F6E6500000000 PUSH1 0x0 DUP3 ADD MSTORE POP JUMP JUMPDEST PUSH1 0x0 PUSH2 0x1EF8 PUSH1 0x1C DUP4 PUSH2 0x12BA JUMP JUMPDEST SWAP2 POP PUSH2 0x1F03 DUP3 PUSH2 0x1EC2 JUMP JUMPDEST PUSH1 0x20 DUP3 ADD SWAP1 POP SWAP2 SWAP1 POP JUMP JUMPDEST PUSH1 0x0 PUSH1 0x20 DUP3 ADD SWAP1 POP DUP2 DUP2 SUB PUSH1 0x0 DUP4 ADD MSTORE PUSH2 0x1F27 DUP2 PUSH2 0x1EEB JUMP JUMPDEST SWAP1 POP SWAP2 SWAP1 POP JUMP JUMPDEST PUSH32 0x4E487B7100000000000000000000000000000000000000000000000000000000 PUSH1 0x0 MSTORE PUSH1 0x12 PUSH1 0x4 MSTORE PUSH1 0x24 PUSH1 0x0 REVERT JUMPDEST PUSH1 0x0 PUSH2 0x1F68 DUP3 PUSH2 0x138C JUMP JUMPDEST SWAP2 POP PUSH2 0x1F73 DUP4 PUSH2 0x138C JUMP JUMPDEST SWAP3 POP DUP3 PUSH2 0x1F83 JUMPI PUSH2 0x1F82 PUSH2 0x1F2E JUMP JUMPDEST JUMPDEST DUP3 DUP3 DIV SWAP1 POP SWAP3 SWAP2 POP POP JUMP INVALID LOG2 PUSH5 0x6970667358 0x22 SLT KECCAK256 0xCB PUSH11 0xA4D49BC7B0DD733A128A80 PUSH28 0x8C42015AF7373678ADDBA280B9152ADCB8EF64736F6C634300081800 CALLER "},"methodIdentifiers":{"addData(int256,address)":"9c0dec39","allProducersDataSubmitted()":"f9fc9cb8","closeCampaignAndPay(int256[])":"f030660f","getName()":"17d7de7c","getProducerData(address)":"845894d4","getProducersTop()":"ce69503c","getProducersTopCount()":"d15551f4","getSeed()":"39e7357c","getTolerance()":"0070a6c3","getValid()":"ad4e0407","producerData(address)":"20bbe818","producersTop(uint256)":"d6bef7d3","proof()":"faf924cf","setProducersTop((address,int256,int256)[])":"03a357b2","setSeedProof(bytes32,bytes)":"5124d9d5","setValid()":"546d5305"}}}}}