{
  "_format": "hh-sol-artifact-1",
  "contractName": "Campaign2",
  "sourceName": "contracts/Campaign2.sol",
  "abi": [
    {
      "inputs": [
        {
          "internalType": "string",
          "name": "name",
          "type": "string"
        }
      ],
      "stateMutability": "nonpayable",
      "type": "constructor"
    },
    {
      "inputs": [
        {
          "internalType": "string",
          "name": "description",
          "type": "string"
        }
      ],
      "name": "createRequest",
      "outputs": [],
      "stateMutability": "nonpayable",
      "type": "function"
    },
    {
      "inputs": [
        {
          "internalType": "uint256",
          "name": "index",
          "type": "uint256"
        }
      ],
      "name": "finalizeRequest",
      "outputs": [],
      "stateMutability": "nonpayable",
      "type": "function"
    },
    {
      "inputs": [],
      "name": "getCount",
      "outputs": [
        {
          "internalType": "uint256",
          "name": "",
          "type": "uint256"
        }
      ],
      "stateMutability": "view",
      "type": "function"
    },
    {
      "inputs": [],
      "name": "getRequests",
      "outputs": [
        {
          "components": [
            {
              "internalType": "address",
              "name": "requester",
              "type": "address"
            },
            {
              "internalType": "string",
              "name": "description",
              "type": "string"
            },
            {
              "internalType": "bool",
              "name": "status",
              "type": "bool"
            },
            {
              "internalType": "uint256",
              "name": "id",
              "type": "uint256"
            }
          ],
          "internalType": "struct Campaign2.Request[]",
          "name": "",
          "type": "tuple[]"
        }
      ],
      "stateMutability": "view",
      "type": "function"
    },
    {
      "inputs": [],
      "name": "requestCount",
      "outputs": [
        {
          "internalType": "uint256",
          "name": "",
          "type": "uint256"
        }
      ],
      "stateMutability": "view",
      "type": "function"
    },
    {
      "inputs": [
        {
          "internalType": "uint256",
          "name": "",
          "type": "uint256"
        }
      ],
      "name": "requests",
      "outputs": [
        {
          "internalType": "address",
          "name": "requester",
          "type": "address"
        },
        {
          "internalType": "string",
          "name": "description",
          "type": "string"
        },
        {
          "internalType": "bool",
          "name": "status",
          "type": "bool"
        },
        {
          "internalType": "uint256",
          "name": "id",
          "type": "uint256"
        }
      ],
      "stateMutability": "view",
      "type": "function"
    }
  ],
  "bytecode": "0x608060405260006002553480156200001657600080fd5b50604051620013613803806200136183398181016040528101906200003c9190620001e8565b80600090816200004d919062000484565b50506200056b565b6000604051905090565b600080fd5b600080fd5b600080fd5b600080fd5b6000601f19601f8301169050919050565b7f4e487b7100000000000000000000000000000000000000000000000000000000600052604160045260246000fd5b620000be8262000073565b810181811067ffffffffffffffff82111715620000e057620000df62000084565b5b80604052505050565b6000620000f562000055565b9050620001038282620000b3565b919050565b600067ffffffffffffffff82111562000126576200012562000084565b5b620001318262000073565b9050602081019050919050565b60005b838110156200015e57808201518184015260208101905062000141565b60008484015250505050565b6000620001816200017b8462000108565b620000e9565b905082815260208101848484011115620001a0576200019f6200006e565b5b620001ad8482856200013e565b509392505050565b600082601f830112620001cd57620001cc62000069565b5b8151620001df8482602086016200016a565b91505092915050565b6000602082840312156200020157620002006200005f565b5b600082015167ffffffffffffffff81111562000222576200022162000064565b5b6200023084828501620001b5565b91505092915050565b600081519050919050565b7f4e487b7100000000000000000000000000000000000000000000000000000000600052602260045260246000fd5b600060028204905060018216806200028c57607f821691505b602082108103620002a257620002a162000244565b5b50919050565b60008190508160005260206000209050919050565b60006020601f8301049050919050565b600082821b905092915050565b6000600883026200030c7fffffffffffffffffffffffffffffffffffffffffffffffffffffffffffffffff82620002cd565b620003188683620002cd565b95508019841693508086168417925050509392505050565b6000819050919050565b6000819050919050565b6000620003656200035f620003598462000330565b6200033a565b62000330565b9050919050565b6000819050919050565b620003818362000344565b6200039962000390826200036c565b848454620002da565b825550505050565b600090565b620003b0620003a1565b620003bd81848462000376565b505050565b5b81811015620003e557620003d9600082620003a6565b600181019050620003c3565b5050565b601f8211156200043457620003fe81620002a8565b6200040984620002bd565b8101602085101562000419578190505b620004316200042885620002bd565b830182620003c2565b50505b505050565b600082821c905092915050565b6000620004596000198460080262000439565b1980831691505092915050565b600062000474838362000446565b9150826002028217905092915050565b6200048f8262000239565b67ffffffffffffffff811115620004ab57620004aa62000084565b5b620004b7825462000273565b620004c4828285620003e9565b600060209050601f831160018114620004fc5760008415620004e7578287015190505b620004f3858262000466565b86555062000563565b601f1984166200050c86620002a8565b60005b8281101562000536578489015182556001820191506020850194506020810190506200050f565b8683101562000556578489015162000552601f89168262000446565b8355505b6001600288020188555050505b505050505050565b610de6806200057b6000396000f3fe608060405234801561001057600080fd5b50600436106100625760003560e01c806303441006146100675780631b146ecf146100835780635badbe4c1461009f57806381d12c58146100bd5780638813ce12146100f0578063a87d942c1461010e575b600080fd5b610081600480360381019061007c9190610561565b61012c565b005b61009d600480360381019061009891906106d4565b610195565b005b6100a76102a6565b6040516100b4919061072c565b60405180910390f35b6100d760048036038101906100d29190610561565b6102ac565b6040516100e79493929190610822565b60405180910390f35b6100f86103a1565b6040516101059190610a0a565b60405180910390f35b61011661050d565b604051610123919061072c565b60405180910390f35b60006001828154811061014257610141610a2c565b5b90600052602060002090600402019050600015158160020160009054906101000a900460ff1615151461017457600080fd5b60018160020160006101000a81548160ff0219169083151502179055505050565b600060405180608001604052803373ffffffffffffffffffffffffffffffffffffffff1681526020018381526020016000151581526020016002548152509050600181908060018154018082558091505060019003906000526020600020906004020160009091909190915060008201518160000160006101000a81548173ffffffffffffffffffffffffffffffffffffffff021916908373ffffffffffffffffffffffffffffffffffffffff160217905550602082015181600101908161025d9190610c67565b5060408201518160020160006101000a81548160ff0219169083151502179055506060820151816003015550506002600081548092919061029d90610d68565b91905055505050565b60025481565b600181815481106102bc57600080fd5b90600052602060002090600402016000915090508060000160009054906101000a900473ffffffffffffffffffffffffffffffffffffffff169080600101805461030590610a8a565b80601f016020809104026020016040519081016040528092919081815260200182805461033190610a8a565b801561037e5780601f106103535761010080835404028352916020019161037e565b820191906000526020600020905b81548152906001019060200180831161036157829003601f168201915b5050505050908060020160009054906101000a900460ff16908060030154905084565b60606001805480602002602001604051908101604052809291908181526020016000905b8282101561050457838290600052602060002090600402016040518060800160405290816000820160009054906101000a900473ffffffffffffffffffffffffffffffffffffffff1673ffffffffffffffffffffffffffffffffffffffff1673ffffffffffffffffffffffffffffffffffffffff16815260200160018201805461044e90610a8a565b80601f016020809104026020016040519081016040528092919081815260200182805461047a90610a8a565b80156104c75780601f1061049c576101008083540402835291602001916104c7565b820191906000526020600020905b8154815290600101906020018083116104aa57829003601f168201915b505050505081526020016002820160009054906101000a900460ff16151515158152602001600382015481525050815260200190600101906103c5565b50505050905090565b6000600254905090565b6000604051905090565b600080fd5b600080fd5b6000819050919050565b61053e8161052b565b811461054957600080fd5b50565b60008135905061055b81610535565b92915050565b60006020828403121561057757610576610521565b5b60006105858482850161054c565b91505092915050565b600080fd5b600080fd5b6000601f19601f8301169050919050565b7f4e487b7100000000000000000000000000000000000000000000000000000000600052604160045260246000fd5b6105e182610598565b810181811067ffffffffffffffff82111715610600576105ff6105a9565b5b80604052505050565b6000610613610517565b905061061f82826105d8565b919050565b600067ffffffffffffffff82111561063f5761063e6105a9565b5b61064882610598565b9050602081019050919050565b82818337600083830152505050565b600061067761067284610624565b610609565b90508281526020810184848401111561069357610692610593565b5b61069e848285610655565b509392505050565b600082601f8301126106bb576106ba61058e565b5b81356106cb848260208601610664565b91505092915050565b6000602082840312156106ea576106e9610521565b5b600082013567ffffffffffffffff81111561070857610707610526565b5b610714848285016106a6565b91505092915050565b6107268161052b565b82525050565b6000602082019050610741600083018461071d565b92915050565b600073ffffffffffffffffffffffffffffffffffffffff82169050919050565b600061077282610747565b9050919050565b61078281610767565b82525050565b600081519050919050565b600082825260208201905092915050565b60005b838110156107c25780820151818401526020810190506107a7565b60008484015250505050565b60006107d982610788565b6107e38185610793565b93506107f38185602086016107a4565b6107fc81610598565b840191505092915050565b60008115159050919050565b61081c81610807565b82525050565b60006080820190506108376000830187610779565b818103602083015261084981866107ce565b90506108586040830185610813565b610865606083018461071d565b95945050505050565b600081519050919050565b600082825260208201905092915050565b6000819050602082019050919050565b6108a381610767565b82525050565b600082825260208201905092915050565b60006108c582610788565b6108cf81856108a9565b93506108df8185602086016107a4565b6108e881610598565b840191505092915050565b6108fc81610807565b82525050565b61090b8161052b565b82525050565b6000608083016000830151610929600086018261089a565b506020830151848203602086015261094182826108ba565b915050604083015161095660408601826108f3565b5060608301516109696060860182610902565b508091505092915050565b60006109808383610911565b905092915050565b6000602082019050919050565b60006109a08261086e565b6109aa8185610879565b9350836020820285016109bc8561088a565b8060005b858110156109f857848403895281516109d98582610974565b94506109e483610988565b925060208a019950506001810190506109c0565b50829750879550505050505092915050565b60006020820190508181036000830152610a248184610995565b905092915050565b7f4e487b7100000000000000000000000000000000000000000000000000000000600052603260045260246000fd5b7f4e487b7100000000000000000000000000000000000000000000000000000000600052602260045260246000fd5b60006002820490506001821680610aa257607f821691505b602082108103610ab557610ab4610a5b565b5b50919050565b60008190508160005260206000209050919050565b60006020601f8301049050919050565b600082821b905092915050565b600060088302610b1d7fffffffffffffffffffffffffffffffffffffffffffffffffffffffffffffffff82610ae0565b610b278683610ae0565b95508019841693508086168417925050509392505050565b6000819050919050565b6000610b64610b5f610b5a8461052b565b610b3f565b61052b565b9050919050565b6000819050919050565b610b7e83610b49565b610b92610b8a82610b6b565b848454610aed565b825550505050565b600090565b610ba7610b9a565b610bb2818484610b75565b505050565b5b81811015610bd657610bcb600082610b9f565b600181019050610bb8565b5050565b601f821115610c1b57610bec81610abb565b610bf584610ad0565b81016020851015610c04578190505b610c18610c1085610ad0565b830182610bb7565b50505b505050565b600082821c905092915050565b6000610c3e60001984600802610c20565b1980831691505092915050565b6000610c578383610c2d565b9150826002028217905092915050565b610c7082610788565b67ffffffffffffffff811115610c8957610c886105a9565b5b610c938254610a8a565b610c9e828285610bda565b600060209050601f831160018114610cd15760008415610cbf578287015190505b610cc98582610c4b565b865550610d31565b601f198416610cdf86610abb565b60005b82811015610d0757848901518255600182019150602085019450602081019050610ce2565b86831015610d245784890151610d20601f891682610c2d565b8355505b6001600288020188555050505b505050505050565b7f4e487b7100000000000000000000000000000000000000000000000000000000600052601160045260246000fd5b6000610d738261052b565b91507fffffffffffffffffffffffffffffffffffffffffffffffffffffffffffffffff8203610da557610da4610d39565b5b60018201905091905056fea26469706673582212205e0512d5eec08efdf88ec510a5fa6bc5e00154a1a0f647d169c0b51f3aa8b4ac64736f6c63430008180033",
  "linkReferences": {},
  "deployedLinkReferences": {}
}